{
  "contractName": "AgreementMock",
  "abi": [
    {
      "inputs": [
        {
          "internalType": "address",
          "name": "host",
          "type": "address"
        },
        {
          "internalType": "bytes32",
          "name": "t",
          "type": "bytes32"
        },
        {
          "internalType": "uint256",
          "name": "v",
          "type": "uint256"
        }
      ],
      "stateMutability": "nonpayable",
      "type": "constructor"
    },
    {
      "anonymous": false,
      "inputs": [
        {
          "indexed": false,
          "internalType": "uint8",
          "name": "appLevel",
          "type": "uint8"
        },
        {
          "indexed": false,
          "internalType": "uint8",
          "name": "callType",
          "type": "uint8"
        },
        {
          "indexed": false,
          "internalType": "bytes4",
          "name": "agreementSelector",
          "type": "bytes4"
        }
      ],
      "name": "AppAfterCallbackResult",
      "type": "event"
    },
    {
      "anonymous": false,
      "inputs": [
        {
          "indexed": false,
          "internalType": "uint8",
          "name": "appLevel",
          "type": "uint8"
        },
        {
          "indexed": false,
          "internalType": "uint8",
          "name": "callType",
          "type": "uint8"
        },
        {
          "indexed": false,
          "internalType": "bytes4",
          "name": "agreementSelector",
          "type": "bytes4"
        },
        {
          "indexed": false,
          "internalType": "bytes",
          "name": "cbdata",
          "type": "bytes"
        }
      ],
      "name": "AppBeforeCallbackResult",
      "type": "event"
    },
    {
      "anonymous": false,
      "inputs": [
        {
          "indexed": false,
          "internalType": "bytes32",
          "name": "uuid",
          "type": "bytes32"
        },
        {
          "indexed": false,
          "internalType": "address",
          "name": "codeAddress",
          "type": "address"
        }
      ],
      "name": "CodeUpdated",
      "type": "event"
    },
    {
      "anonymous": false,
      "inputs": [
        {
          "indexed": false,
          "internalType": "uint8",
          "name": "version",
          "type": "uint8"
        }
      ],
      "name": "Initialized",
      "type": "event"
    },
    {
      "anonymous": false,
      "inputs": [
        {
          "indexed": false,
          "internalType": "uint256",
          "name": "ping",
          "type": "uint256"
        }
      ],
      "name": "Pong",
      "type": "event"
    },
    {
      "inputs": [],
      "name": "getCodeAddress",
      "outputs": [
        {
          "internalType": "address",
          "name": "codeAddress",
          "type": "address"
        }
      ],
      "stateMutability": "view",
      "type": "function"
    },
    {
      "inputs": [],
      "name": "proxiableUUID",
      "outputs": [
        {
          "internalType": "bytes32",
          "name": "",
          "type": "bytes32"
        }
      ],
      "stateMutability": "view",
      "type": "function"
    },
    {
      "inputs": [
        {
          "internalType": "address",
          "name": "newAddress",
          "type": "address"
        }
      ],
      "name": "updateCode",
      "outputs": [],
      "stateMutability": "nonpayable",
      "type": "function"
    },
    {
      "inputs": [],
      "name": "version",
      "outputs": [
        {
          "internalType": "uint256",
          "name": "",
          "type": "uint256"
        }
      ],
      "stateMutability": "view",
      "type": "function"
    },
    {
      "inputs": [],
      "name": "agreementType",
      "outputs": [
        {
          "internalType": "bytes32",
          "name": "",
          "type": "bytes32"
        }
      ],
      "stateMutability": "view",
      "type": "function"
    },
    {
      "inputs": [
        {
          "internalType": "contract ISuperfluidToken",
          "name": "token",
          "type": "address"
        },
        {
          "internalType": "address",
          "name": "account",
          "type": "address"
        },
        {
          "internalType": "uint256",
          "name": "",
          "type": "uint256"
        }
      ],
      "name": "realtimeBalanceOf",
      "outputs": [
        {
          "internalType": "int256",
          "name": "dynamicBalance",
          "type": "int256"
        },
        {
          "internalType": "uint256",
          "name": "deposit",
          "type": "uint256"
        },
        {
          "internalType": "uint256",
          "name": "owedDeposit",
          "type": "uint256"
        }
      ],
      "stateMutability": "view",
      "type": "function"
    },
    {
      "inputs": [
        {
          "internalType": "contract ISuperfluidToken",
          "name": "token",
          "type": "address"
        },
        {
          "internalType": "address",
          "name": "account",
          "type": "address"
        },
        {
          "internalType": "int256",
          "name": "dynamicBalance",
          "type": "int256"
        },
        {
          "internalType": "uint256",
          "name": "deposit",
          "type": "uint256"
        },
        {
          "internalType": "uint256",
          "name": "owedDeposit",
          "type": "uint256"
        }
      ],
      "name": "setRealtimeBalanceFor",
      "outputs": [],
      "stateMutability": "nonpayable",
      "type": "function"
    },
    {
      "inputs": [
        {
          "internalType": "contract ISuperfluidToken",
          "name": "token",
          "type": "address"
        },
        {
          "internalType": "bytes32",
          "name": "id",
          "type": "bytes32"
        },
        {
          "internalType": "bytes32[]",
          "name": "data",
          "type": "bytes32[]"
        }
      ],
      "name": "createAgreementFor",
      "outputs": [],
      "stateMutability": "nonpayable",
      "type": "function"
    },
    {
      "inputs": [
        {
          "internalType": "contract ISuperfluidToken",
          "name": "token",
          "type": "address"
        },
        {
          "internalType": "bytes32",
          "name": "id",
          "type": "bytes32"
        },
        {
          "internalType": "bytes32[]",
          "name": "data",
          "type": "bytes32[]"
        }
      ],
      "name": "updateAgreementDataFor",
      "outputs": [],
      "stateMutability": "nonpayable",
      "type": "function"
    },
    {
      "inputs": [
        {
          "internalType": "contract ISuperfluidToken",
          "name": "token",
          "type": "address"
        },
        {
          "internalType": "bytes32",
          "name": "id",
          "type": "bytes32"
        },
        {
          "internalType": "uint256",
          "name": "dataLength",
          "type": "uint256"
        }
      ],
      "name": "terminateAgreementFor",
      "outputs": [],
      "stateMutability": "nonpayable",
      "type": "function"
    },
    {
      "inputs": [
        {
          "internalType": "contract ISuperfluidToken",
          "name": "token",
          "type": "address"
        },
        {
          "internalType": "address",
          "name": "account",
          "type": "address"
        },
        {
          "internalType": "uint256",
          "name": "slotId",
          "type": "uint256"
        },
        {
          "internalType": "bytes32[]",
          "name": "slotData",
          "type": "bytes32[]"
        }
      ],
      "name": "updateAgreementStateSlotFor",
      "outputs": [],
      "stateMutability": "nonpayable",
      "type": "function"
    },
    {
      "inputs": [
        {
          "internalType": "contract ISuperfluidToken",
          "name": "token",
          "type": "address"
        },
        {
          "internalType": "address",
          "name": "account",
          "type": "address"
        },
        {
          "internalType": "int256",
          "name": "delta",
          "type": "int256"
        }
      ],
      "name": "settleBalanceFor",
      "outputs": [],
      "stateMutability": "nonpayable",
      "type": "function"
    },
    {
      "inputs": [
        {
          "internalType": "contract ISuperfluidToken",
          "name": "token",
          "type": "address"
        },
        {
          "internalType": "bytes32",
          "name": "id",
          "type": "bytes32"
        },
        {
          "internalType": "bool",
          "name": "useDefaultRewardAccount",
          "type": "bool"
        },
        {
          "internalType": "address",
          "name": "liquidator",
          "type": "address"
        },
        {
          "internalType": "address",
          "name": "targetAccount",
          "type": "address"
        },
        {
          "internalType": "uint256",
          "name": "rewardAmount",
          "type": "uint256"
        },
        {
          "internalType": "int256",
          "name": "targetAccountBalanceDelta",
          "type": "int256"
        }
      ],
      "name": "makeLiquidationPayoutsFor",
      "outputs": [],
      "stateMutability": "nonpayable",
      "type": "function"
    },
    {
      "inputs": [
        {
          "internalType": "contract ISuperfluid",
          "name": "host",
          "type": "address"
        },
        {
          "internalType": "contract ISuperApp",
          "name": "appMock",
          "type": "address"
        },
        {
          "internalType": "bool",
          "name": "hackCtx",
          "type": "bool"
        },
        {
          "internalType": "bytes",
          "name": "ctx",
          "type": "bytes"
        }
      ],
      "name": "tryCallAppBeforeCallback",
      "outputs": [
        {
          "internalType": "bytes",
          "name": "newCtx",
          "type": "bytes"
        }
      ],
      "stateMutability": "nonpayable",
      "type": "function"
    },
    {
      "inputs": [
        {
          "internalType": "contract ISuperfluid",
          "name": "host",
          "type": "address"
        },
        {
          "internalType": "contract ISuperApp",
          "name": "appMock",
          "type": "address"
        },
        {
          "internalType": "bool",
          "name": "hackCtx",
          "type": "bool"
        },
        {
          "internalType": "bytes",
          "name": "ctx",
          "type": "bytes"
        }
      ],
      "name": "tryCallAppAfterCallback",
      "outputs": [
        {
          "internalType": "bytes",
          "name": "newCtx",
          "type": "bytes"
        }
      ],
      "stateMutability": "nonpayable",
      "type": "function"
    },
    {
      "inputs": [
        {
          "internalType": "contract ISuperfluid",
          "name": "host",
          "type": "address"
        },
        {
          "internalType": "contract ISuperApp",
          "name": "appMock",
          "type": "address"
        },
        {
          "internalType": "bool",
          "name": "hackCtx",
          "type": "bool"
        },
        {
          "internalType": "bytes",
          "name": "ctx",
          "type": "bytes"
        }
      ],
      "name": "tryAppCallbackPush",
      "outputs": [
        {
          "internalType": "bytes",
          "name": "newCtx",
          "type": "bytes"
        }
      ],
      "stateMutability": "nonpayable",
      "type": "function"
    },
    {
      "inputs": [
        {
          "internalType": "contract ISuperfluid",
          "name": "host",
          "type": "address"
        },
        {
          "internalType": "bytes",
          "name": "ctx",
          "type": "bytes"
        }
      ],
      "name": "tryAppCallbackPop",
      "outputs": [
        {
          "internalType": "bytes",
          "name": "newCtx",
          "type": "bytes"
        }
      ],
      "stateMutability": "nonpayable",
      "type": "function"
    },
    {
      "inputs": [
        {
          "internalType": "contract ISuperfluid",
          "name": "host",
          "type": "address"
        },
        {
          "internalType": "bool",
          "name": "hackCtx",
          "type": "bool"
        },
        {
          "internalType": "bytes",
          "name": "ctx",
          "type": "bytes"
        }
      ],
      "name": "tryCtxUseAllowance",
      "outputs": [
        {
          "internalType": "bytes",
          "name": "newCtx",
          "type": "bytes"
        }
      ],
      "stateMutability": "nonpayable",
      "type": "function"
    },
    {
      "inputs": [
        {
          "internalType": "contract ISuperfluid",
          "name": "host",
          "type": "address"
        },
        {
          "internalType": "contract ISuperApp",
          "name": "appMock",
          "type": "address"
        },
        {
          "internalType": "bool",
          "name": "hackCtx",
          "type": "bool"
        },
        {
          "internalType": "bytes",
          "name": "ctx",
          "type": "bytes"
        }
      ],
      "name": "tryJailApp",
      "outputs": [
        {
          "internalType": "bytes",
          "name": "newCtx",
          "type": "bytes"
        }
      ],
      "stateMutability": "nonpayable",
      "type": "function"
    },
    {
      "inputs": [
        {
          "internalType": "string",
          "name": "reason",
          "type": "string"
        },
        {
          "internalType": "bytes",
          "name": "ctx",
          "type": "bytes"
        }
      ],
      "name": "doRevert",
      "outputs": [],
      "stateMutability": "view",
      "type": "function"
    },
    {
      "inputs": [
        {
          "internalType": "address",
          "name": "expectedMsgSender",
          "type": "address"
        },
        {
          "internalType": "uint256",
          "name": "ping",
          "type": "uint256"
        },
        {
          "internalType": "bytes",
          "name": "ctx",
          "type": "bytes"
        }
      ],
      "name": "pingMe",
      "outputs": [
        {
          "internalType": "bytes",
          "name": "newCtx",
          "type": "bytes"
        }
      ],
      "stateMutability": "nonpayable",
      "type": "function"
    },
    {
      "inputs": [
        {
          "internalType": "contract ISuperApp",
          "name": "app",
          "type": "address"
        },
        {
          "internalType": "bytes",
          "name": "ctx",
          "type": "bytes"
        }
      ],
      "name": "callAppBeforeAgreementCreatedCallback",
      "outputs": [
        {
          "internalType": "bytes",
          "name": "newCtx",
          "type": "bytes"
        }
      ],
      "stateMutability": "nonpayable",
      "type": "function"
    },
    {
      "inputs": [
        {
          "internalType": "contract ISuperApp",
          "name": "app",
          "type": "address"
        },
        {
          "internalType": "bytes",
          "name": "ctx",
          "type": "bytes"
        }
      ],
      "name": "callAppAfterAgreementCreatedCallback",
      "outputs": [
        {
          "internalType": "bytes",
          "name": "newCtx",
          "type": "bytes"
        }
      ],
      "stateMutability": "nonpayable",
      "type": "function"
    },
    {
      "inputs": [
        {
          "internalType": "contract ISuperApp",
          "name": "app",
          "type": "address"
        },
        {
          "internalType": "bytes",
          "name": "ctx",
          "type": "bytes"
        }
      ],
      "name": "callAppBeforeAgreementUpdatedCallback",
      "outputs": [
        {
          "internalType": "bytes",
          "name": "newCtx",
          "type": "bytes"
        }
      ],
      "stateMutability": "nonpayable",
      "type": "function"
    },
    {
      "inputs": [
        {
          "internalType": "contract ISuperApp",
          "name": "app",
          "type": "address"
        },
        {
          "internalType": "bytes",
          "name": "ctx",
          "type": "bytes"
        }
      ],
      "name": "callAppAfterAgreementUpdatedCallback",
      "outputs": [
        {
          "internalType": "bytes",
          "name": "newCtx",
          "type": "bytes"
        }
      ],
      "stateMutability": "nonpayable",
      "type": "function"
    },
    {
      "inputs": [
        {
          "internalType": "contract ISuperApp",
          "name": "app",
          "type": "address"
        },
        {
          "internalType": "bytes",
          "name": "ctx",
          "type": "bytes"
        }
      ],
      "name": "callAppBeforeAgreementTerminatedCallback",
      "outputs": [
        {
          "internalType": "bytes",
          "name": "newCtx",
          "type": "bytes"
        }
      ],
      "stateMutability": "nonpayable",
      "type": "function"
    },
    {
      "inputs": [
        {
          "internalType": "contract ISuperApp",
          "name": "app",
          "type": "address"
        },
        {
          "internalType": "bytes",
          "name": "ctx",
          "type": "bytes"
        }
      ],
      "name": "callAppAfterAgreementTerminatedCallback",
      "outputs": [
        {
          "internalType": "bytes",
          "name": "newCtx",
          "type": "bytes"
        }
      ],
      "stateMutability": "nonpayable",
      "type": "function"
    }
  ],
  "bytecode": "0x60e06040523480156200001157600080fd5b5060405162002f3238038062002f3283398101604081905262000034916200004e565b6001600160a01b0390921660805260a05260c05262000093565b6000806000606084860312156200006457600080fd5b83516001600160a01b03811681146200007c57600080fd5b602085015160409095015190969495509392505050565b60805160a05160c051612e6f620000c36000396000610270015260006102cf015260006105530152612e6f6000f3fe608060405234801561001057600080fd5b50600436106101a95760003560e01c80637c0af83b116100f9578063c3598c4a11610097578063d227a99311610071578063d227a993146103cc578063d8f72cf9146103df578063edf02c4e146103f2578063f602dc5c1461040557600080fd5b8063c3598c4a14610393578063c4ab263b146103a6578063ca519d17146103b957600080fd5b806396ac5e9d116100d357806396ac5e9d1461032c5780639b2e48bc1461033f5780639d69476f1461036d578063c1b7dde51461038057600080fd5b80637c0af83b146102f357806383e68452146103065780638e6b27491461031957600080fd5b806352d1902d11610166578063667fc9ad11610140578063667fc9ad146102945780636e3bfc5e146102a757806371272f8c146102ba5780637730599e146102cd57600080fd5b806352d1902d14610245578063546588731461025b57806354fd4d501461026e57600080fd5b80633c012f4d146101ae578063430fce1e146101c357806346951954146101d657806347dc115b146101e95780634b4649dd1461021257806350d75d2514610225575b600080fd5b6101c16101bc366004612220565b610418565b005b6101c16101d13660046122e5565b6104e0565b6101c16101e4366004612340565b610548565b6101fc6101f736600461239e565b6105d1565b6040516102099190612452565b60405180910390f35b6101c16102203660046122e5565b6106a4565b61022d6106d4565b6040516001600160a01b039091168152602001610209565b61024d610703565b604051908152602001610209565b6101fc610269366004612465565b610767565b7f000000000000000000000000000000000000000000000000000000000000000061024d565b6101c16102a23660046124b9565b610830565b6101c16102b53660046124fa565b610898565b6101fc6102c836600461256c565b610903565b7f000000000000000000000000000000000000000000000000000000000000000061024d565b6101fc610301366004612465565b610a3c565b6101c16103143660046125d6565b610b45565b6101fc61032736600461260b565b610b79565b6101fc61033a36600461256c565b610d3a565b61035261034d3660046124b9565b610d88565b60408051938452602084019290925290820152606001610209565b6101fc61037b36600461256c565b610e8a565b6101fc61038e36600461256c565b610f12565b6101fc6103a1366004612465565b610f95565b6101fc6103b4366004612465565b61105e565b6101c16103c736600461264e565b611127565b6101fc6103da366004612465565b611220565b6101fc6103ed366004612465565b6112e9565b6101c161040036600461269f565b61136c565b6101fc610413366004612465565b61143e565b6000856104465760408051600160208201526002818301528151808203830181526060909101909152610469565b604080516001602082015260008183015281518082038301815260609091019091525b604051631863e80960e01b81529091506001600160a01b03891690631863e809906104a4908a9085908a908c908b908b908b906004016126fe565b600060405180830381600087803b1580156104be57600080fd5b505af11580156104d2573d6000803e3d6000fd5b505050505050505050505050565b604051630254d47f60e31b81526001600160a01b038516906312a6a3f89061051090869086908690600401612781565b600060405180830381600087803b15801561052a57600080fd5b505af115801561053e573d6000803e3d6000fd5b5050505050505050565b336001600160a01b037f000000000000000000000000000000000000000000000000000000000000000016146105c55760405162461bcd60e51b815260206004820152601960248201527f6f6e6c7920686f73742063616e2075706461746520636f64650000000000000060448201526064015b60405180910390fd5b6105ce81611507565b50565b6060846001600160a01b0316630792f20a856106235784848080601f01602080910402602001604051908101604052809392919081815260200183838082843760009201919091525061063392505050565b6040805160008152602081019091525b6000806040518463ffffffff1660e01b8152600401610654939291906127b1565b6000604051808303816000875af1158015610673573d6000803e3d6000fd5b505050506040513d6000823e601f3d908101601f1916820160405261069b9190810190612892565b95945050505050565b60405163a1b2bf8b60e01b81526001600160a01b0385169063a1b2bf8b9061051090869086908690600401612781565b60006106fe7f360894a13ba1a3210667c828492db98dca3e2076cc3735a920a3ca505d382bbc5490565b905090565b6000306001600160a01b0316637730599e6040518163ffffffff1660e01b8152600401602060405180830381865afa158015610743573d6000803e3d6000fd5b505050506040513d601f19601f820116820180604052508101906106fe91906128c6565b606082828080601f01602080910402602001604051908101604052809392919081815260200183838082843760009201919091525050604051632fd0a1cd60e21b815233925063bf42873491506107c2908490600401612452565b602060405180830381865afa1580156107df573d6000803e3d6000fd5b505050506040513d601f19601f8201168201806040525081019061080391906128df565b61081f5760405162461bcd60e51b81526004016105bc906128fc565b61069b856402000000008686611715565b60405163cf97256d60e01b81526001600160a01b0383811660048301526024820183905284169063cf97256d906044015b600060405180830381600087803b15801561087b57600080fd5b505af115801561088f573d6000803e3d6000fd5b50505050505050565b60405163048620af60e11b81526001600160a01b0386169063090c415e906108ca908790879087908790600401612948565b600060405180830381600087803b1580156108e457600080fd5b505af11580156108f8573d6000803e3d6000fd5b505050505050505050565b604080516000808252602082018181528284019093526060926001600160a01b03898116936374041e02938a93928416926330d9c9159261094c92913091839160648201612970565b604051602081830303815290604052915060e01b6020820180516001600160e01b0383818316178352505050506001886109bc5787878080601f0160208091040260200160405190810160405280939291908181526020018383808284376000920191909152506109cc92505050565b6040805160008152602081019091525b6040518563ffffffff1660e01b81526004016109eb94939291906129c1565b6000604051808303816000875af1158015610a0a573d6000803e3d6000fd5b505050506040513d6000823e601f3d908101601f19168201604052610a329190810190612892565b9695505050505050565b606082828080601f01602080910402602001604051908101604052809392919081815260200183838082843760009201919091525050604051632fd0a1cd60e21b815233925063bf4287349150610a97908490600401612452565b602060405180830381865afa158015610ab4573d6000803e3d6000fd5b505050506040513d601f19601f82011682018060405250810190610ad891906128df565b610af45760405162461bcd60e51b81526004016105bc906128fc565b610b05856401000000008686611a25565b83838080601f0160208091040260200160405190810160405280939291908181526020018383808284376000920191909152509298975050505050505050565b604051632704839760e01b815260048101839052602481018290526001600160a01b03841690632704839790604401610861565b606082828080601f01602080910402602001604051908101604052809392919081815260200183838082843760009201919091525050604051632fd0a1cd60e21b815233925063bf4287349150610bd4908490600401612452565b602060405180830381865afa158015610bf1573d6000803e3d6000fd5b505050506040513d601f19601f82011682018060405250810190610c1591906128df565b610c315760405162461bcd60e51b81526004016105bc906128fc565b604051631fb6491d60e11b81526000903390633f6c923a90610c599088908890600401612a33565b600060405180830381865afa158015610c76573d6000803e3d6000fd5b505050506040513d6000823e601f3d908101601f19168201604052610c9e9190810190612a7b565b9050866001600160a01b031681606001516001600160a01b031614610cc557610cc5612b81565b6040518681527f58b69f57828e6962d216502094c54f6562f3bf082ba758966c3454f9e37b15259060200160405180910390a184848080601f016020809104026020016040519081016040528093929190818152602001838380828437600092019190915250929a9950505050505050505050565b6040805160008082526020820181815282840182815260608085019095526001600160a01b038a811694631e6d0a84948b949285169363d86ed3e59361094c93309284929060848301612b97565b604051634b61cc3360e01b81523060048201526001600160a01b0383811660248301526303e83e99604483015260036064830152600091829182918291881690634b61cc3390608401600060405180830381865afa158015610dee573d6000803e3d6000fd5b505050506040513d6000823e601f3d908101601f19168201604052610e169190810190612bfd565b9050610e3e81600081518110610e2e57610e2e612c96565b602002602001015160001c611b57565b81600181518110610e5157610e51612c96565b602002602001015160001c82600281518110610e6f57610e6f612c96565b602002602001015160001c9350935093505093509350939050565b6060856001600160a01b031663768fabb085610edc5784848080601f016020809104026020016040519081016040528093929190818152602001838380828437600092019190915250610eec92505050565b6040805160008152602081019091525b8760008060006040518663ffffffff1660e01b81526004016109eb959493929190612cac565b6060856001600160a01b031663b724211e85610f645784848080601f016020809104026020016040519081016040528093929190818152602001838380828437600092019190915250610f7492505050565b6040805160008152602081019091525b8760006040518463ffffffff1660e01b81526004016109eb93929190612cf1565b606082828080601f01602080910402602001604051908101604052809392919081815260200183838082843760009201919091525050604051632fd0a1cd60e21b815233925063bf4287349150610ff0908490600401612452565b602060405180830381865afa15801561100d573d6000803e3d6000fd5b505050506040513d601f19601f8201168201806040525081019061103191906128df565b61104d5760405162461bcd60e51b81526004016105bc906128fc565b610b05856410000000008686611a25565b606082828080601f01602080910402602001604051908101604052809392919081815260200183838082843760009201919091525050604051632fd0a1cd60e21b815233925063bf42873491506110b9908490600401612452565b602060405180830381865afa1580156110d6573d6000803e3d6000fd5b505050506040513d601f19601f820116820180604052508101906110fa91906128df565b6111165760405162461bcd60e51b81526004016105bc906128fc565b61069b856408000000008686611715565b60408051600380825260808201909252600091602082016060803683370190505090508360001b8160008151811061116157611161612c96565b6020026020010181815250508260001b8160018151811061118457611184612c96565b6020026020010181815250508160001b816002815181106111a7576111a7612c96565b602090810291909101015260405163048620af60e11b81526001600160a01b0387169063090c415e906111e69088906303e83e99908690600401612d1f565b600060405180830381600087803b15801561120057600080fd5b505af1158015611214573d6000803e3d6000fd5b50505050505050505050565b606082828080601f01602080910402602001604051908101604052809392919081815260200183838082843760009201919091525050604051632fd0a1cd60e21b815233925063bf428734915061127b908490600401612452565b602060405180830381865afa158015611298573d6000803e3d6000fd5b505050506040513d601f19601f820116820180604052508101906112bc91906128df565b6112d85760405162461bcd60e51b81526004016105bc906128fc565b610b05856404000000008686611a25565b604051634c4d861f60e11b81526060906001600160a01b0385169063989b0c3e9061131d9086908690600090600401612d7c565b6000604051808303816000875af115801561133c573d6000803e3d6000fd5b505050506040513d6000823e601f3d908101601f191682016040526113649190810190612892565b949350505050565b81818080601f01602080910402602001604051908101604052809392919081815260200183838082843760009201919091525050604051632fd0a1cd60e21b815233925063bf42873491506113c5908490600401612452565b602060405180830381865afa1580156113e2573d6000803e3d6000fd5b505050506040513d601f19601f8201168201806040525081019061140691906128df565b6114225760405162461bcd60e51b81526004016105bc906128fc565b848460405162461bcd60e51b81526004016105bc929190612a33565b606082828080601f01602080910402602001604051908101604052809392919081815260200183838082843760009201919091525050604051632fd0a1cd60e21b815233925063bf4287349150611499908490600401612452565b602060405180830381865afa1580156114b6573d6000803e3d6000fd5b505050506040513d601f19601f820116820180604052508101906114da91906128df565b6114f65760405162461bcd60e51b81526004016105bc906128fc565b61069b856420000000008686611715565b60006115317f360894a13ba1a3210667c828492db98dca3e2076cc3735a920a3ca505d382bbc5490565b6001600160a01b0316036115875760405162461bcd60e51b815260206004820152601d60248201527f5555505350726f786961626c653a206e6f742075706772616461626c6500000060448201526064016105bc565b806001600160a01b03166352d1902d6040518163ffffffff1660e01b8152600401602060405180830381865afa1580156115c5573d6000803e3d6000fd5b505050506040513d601f19601f820116820180604052508101906115e991906128c6565b6115f1610703565b1461164a5760405162461bcd60e51b815260206004820152602360248201527f5555505350726f786961626c653a206e6f7420636f6d70617469626c65206c6f60448201526267696360e81b60648201526084016105bc565b6001600160a01b03811630036116a25760405162461bcd60e51b815260206004820152601960248201527f5555505350726f786961626c653a2070726f7879206c6f6f700000000000000060448201526064016105bc565b6116ca817f360894a13ba1a3210667c828492db98dca3e2076cc3735a920a3ca505d382bbc55565b7fe011bc04c286c344a8fcbb8de77f953da762c3e25d8cdea984147fc4168a5dcc6116f3610703565b604080519182526001600160a01b03841660208301520160405180910390a150565b604051636b4f333560e01b81526001600160a01b03851660048201526060906000903390636b4f333590602401602060405180830381865afa15801561175f573d6000803e3d6000fd5b505050506040513d601f19601f8201168201806040525081019061178391906128df565b604051631fb6491d60e11b81529091506000903390633f6c923a906117ae9088908890600401612a33565b600060405180830381865afa1580156117cb573d6000803e3d6000fd5b505050506040513d6000823e601f3d908101601f191682016040526117f39190810190612a7b565b905060006118166000896000801b60405180602001604052806000815250611bc5565b60c0810188905290506118276121a2565b611877826040518060200160405280600081525089898080601f016020809104026020016040519081016040528093929190818152602001838380828437600092019190915250611c0992505050565b9550905083156118f757602081015160ff16156118f25760405162461bcd60e51b815260206004820152603360248201527f41677265656d656e744d6f636b3a2063616c6c6261636b2073686f756c64206e60448201527206f74207265616368206a61696c65642061707606c1b60648201526084016105bc565b6119bb565b604051632fd0a1cd60e21b8152339063bf4287349061191a908890600401612452565b602060405180830381865afa158015611937573d6000803e3d6000fd5b505050506040513d601f19601f8201168201806040525081019061195b91906128df565b6119bb5760405162461bcd60e51b815260206004820152602b60248201527f41677265656d656e744d6f636b3a20637478206e6f742076616c69642061667460448201526a65722063616c6c6261636b60a81b60648201526084016105bc565b825160208085015160808601516040805160ff958616815294909216928401929092526001600160e01b031990911682820152517fbebfa520000ac6154adc3325e12aab81b1e37b21a779c68db565a7db91de76949181900360600190a150505050949350505050565b604051631fb6491d60e11b81526000903390633f6c923a90611a4d9086908690600401612a33565b600060405180830381865afa158015611a6a573d6000803e3d6000fd5b505050506040513d6000823e601f3d908101601f19168201604052611a929190810190612a7b565b90506000611ab56000876000801b60405180602001604052806000815250611bc5565b9050848160c00181815250506000611b038286868080601f016020809104026020016040519081016040528093929190818152602001838380828437600092019190915250611e7c92505050565b90507f8d9bcf46f17f82759c79ab71d4382eb5a73791d05b176ea38f61b4c6d7315fe383600001518460200151856080015184604051611b469493929190612da0565b60405180910390a150505050505050565b60006001600160ff1b03821115611bc15760405162461bcd60e51b815260206004820152602860248201527f53616665436173743a2076616c756520646f65736e27742066697420696e2061604482015267371034b73a191a9b60c11b60648201526084016105bc565b5090565b6040805160e08101825260006080820181905260a0820181905260c08201526001600160a01b03958616815293909416602084015292820152606081019190915290565b611c116121a2565b6020840151604051633e7d48bd60e21b81526001600160a01b03909116600482015260609060009081908190339063f9f522f490602401606060405180830381865afa158015611c65573d6000803e3d6000fd5b505050506040513d601f19601f82011682018060405250810190611c899190612dd4565b88965091945092509050828015611c9e575081155b15611e7157611cad8489612033565b93508760c001518116600003611e5f576000611ccc8960c001516120b8565b89516040808c015160608d015182516000815260208101909352611cfa9392309291908e9060448101612b97565b60408051601f19818403018152918152602080830180516001600160e01b03166001600160e01b031990951694909417909352918b015160c08c0151925163079b42a160e21b81529193503392631e6d0a8492611d699291869164200000000091909114908b906004016129c1565b6000604051808303816000875af1158015611d88573d6000803e3d6000fd5b505050506040513d6000823e601f3d908101601f19168201604052611db09190810190612892565b604051631fb6491d60e11b81529095503390633f6c923a90611dd6908890600401612452565b600060405180830381865afa158015611df3573d6000803e3d6000fd5b505050506040513d6000823e601f3d908101601f19168201604052611e1b9190810190612a7b565b9550611e576000611e52611e328c60800151611b57565b611e4d611e428b60e00151611b57565b8b610100015161214f565b612165565b61214f565b610100870152505b611e6e8686610100015161217a565b93505b505050935093915050565b6020820151604051633e7d48bd60e21b81526001600160a01b03909116600482015260609060009081908190339063f9f522f490602401606060405180830381865afa158015611ed0573d6000803e3d6000fd5b505050506040513d601f19601f82011682018060405250810190611ef49190612dd4565b91945092509050828015611f06575081155b1561202a576000611f178688612033565b90508660c00151821660000361201c576000611f368860c001516120b8565b88516040808b015160608c015182516000815260208101909352611f6293923092919060448101612970565b60408051601f19818403018152918152602080830180516001600160e01b03166001600160e01b031990951694909417909352918a015160c08b01519251633a020f0160e11b815291935033926374041e0292611fd192918691641000000000919091149088906004016129c1565b6000604051808303816000875af1158015611ff0573d6000803e3d6000fd5b505050506040513d6000823e601f3d908101601f191682016040526120189190810190612892565b9550505b61202786600061217a565b50505b50505092915050565b6020810151608082015160a08301518351604051630768fabb60e41b8152606094339463768fabb09461206a948a94600401612cac565b6000604051808303816000875af1158015612089573d6000803e3d6000fd5b505050506040513d6000823e601f3d908101601f191682016040526120b19190810190612892565b9392505050565b600064010000000082036120d457506330d9c91560e01b919050565b64040000000082036120ee5750630221347d60e61b919050565b64100000000082036121085750635f9e7d7760e01b919050565b6402000000008203612122575063d86ed3e560e01b919050565b640800000000820361213c575063230dbd2960e01b919050565b506353c11f9960e01b919050565b919050565b600081831361215e57816120b1565b5090919050565b600081831361217457826120b1565b50919050565b604051634c4d861f60e11b8152606090339063989b0c3e9061206a9086908690600401612e17565b604080516101608101825260008082526020820181905291810182905260608082018390526080820183905260a082015260c0810182905260e081018290526101008101829052610120810182905261014081019190915290565b6001600160a01b03811681146105ce57600080fd5b80151581146105ce57600080fd5b600080600080600080600060e0888a03121561223b57600080fd5b8735612246816121fd565b965060208801359550604088013561225d81612212565b9450606088013561226d816121fd565b9350608088013561227d816121fd565b9699959850939692959460a0840135945060c09093013592915050565b60008083601f8401126122ac57600080fd5b5081356001600160401b038111156122c357600080fd5b6020830191508360208260051b85010111156122de57600080fd5b9250929050565b600080600080606085870312156122fb57600080fd5b8435612306816121fd565b93506020850135925060408501356001600160401b0381111561232857600080fd5b6123348782880161229a565b95989497509550505050565b60006020828403121561235257600080fd5b81356120b1816121fd565b60008083601f84011261236f57600080fd5b5081356001600160401b0381111561238657600080fd5b6020830191508360208285010111156122de57600080fd5b600080600080606085870312156123b457600080fd5b84356123bf816121fd565b935060208501356123cf81612212565b925060408501356001600160401b038111156123ea57600080fd5b6123348782880161235d565b60005b838110156124115781810151838201526020016123f9565b83811115612420576000848401525b50505050565b6000815180845261243e8160208601602086016123f6565b601f01601f19169290920160200192915050565b6020815260006120b16020830184612426565b60008060006040848603121561247a57600080fd5b8335612485816121fd565b925060208401356001600160401b038111156124a057600080fd5b6124ac8682870161235d565b9497909650939450505050565b6000806000606084860312156124ce57600080fd5b83356124d9816121fd565b925060208401356124e9816121fd565b929592945050506040919091013590565b60008060008060006080868803121561251257600080fd5b853561251d816121fd565b9450602086013561252d816121fd565b93506040860135925060608601356001600160401b0381111561254f57600080fd5b61255b8882890161229a565b969995985093965092949392505050565b60008060008060006080868803121561258457600080fd5b853561258f816121fd565b9450602086013561259f816121fd565b935060408601356125af81612212565b925060608601356001600160401b038111156125ca57600080fd5b61255b8882890161235d565b6000806000606084860312156125eb57600080fd5b83356125f6816121fd565b95602085013595506040909401359392505050565b6000806000806060858703121561262157600080fd5b843561262c816121fd565b93506020850135925060408501356001600160401b038111156123ea57600080fd5b600080600080600060a0868803121561266657600080fd5b8535612671816121fd565b94506020860135612681816121fd565b94979496505050506040830135926060810135926080909101359150565b600080600080604085870312156126b557600080fd5b84356001600160401b03808211156126cc57600080fd5b6126d88883890161235d565b909650945060208701359150808211156126f157600080fd5b506123348782880161235d565b87815260e06020820152600061271760e0830189612426565b6001600160a01b03978816604084015295151560608301525092909416608083015260a082015260c0019190915292915050565b81835260006001600160fb1b0383111561276457600080fd5b8260051b8083602087013760009401602001938452509192915050565b83815260406020820152600061069b60408301848661274b565b634e487b7160e01b600052604160045260246000fd5b6060815260006127c46060830186612426565b60208301949094525060400152919050565b60405161016081016001600160401b03811182821017156127f9576127f961279b565b60405290565b604051601f8201601f191681016001600160401b03811182821017156128275761282761279b565b604052919050565b600082601f83011261284057600080fd5b81516001600160401b038111156128595761285961279b565b61286c601f8201601f19166020016127ff565b81815284602083860101111561288157600080fd5b6113648260208301602087016123f6565b6000602082840312156128a457600080fd5b81516001600160401b038111156128ba57600080fd5b6113648482850161282f565b6000602082840312156128d857600080fd5b5051919050565b6000602082840312156128f157600080fd5b81516120b181612212565b6020808252602c908201527f41677265656d656e744d6f636b3a20637478206e6f742076616c69642067697660408201526b656e20627920686f73743f2160a01b606082015260800190565b60018060a01b0385168152836020820152606060408201526000610a3260608301848661274b565b6001600160a01b038681168252851660208201526040810184905260a0606082018190526000906129a390830185612426565b82810360808401526129b58185612426565b98975050505050505050565b6001600160a01b03851681526080602082018190526000906129e590830186612426565b841515604084015282810360608401526129ff8185612426565b979650505050505050565b81835281816020850137506000828201602090810191909152601f909101601f19169091010190565b602081526000611364602083018486612a0a565b805160ff8116811461214a57600080fd5b805161214a816121fd565b80516001600160e01b03198116811461214a57600080fd5b600060208284031215612a8d57600080fd5b81516001600160401b0380821115612aa457600080fd5b908301906101608286031215612ab957600080fd5b612ac16127d6565b612aca83612a47565b8152612ad860208401612a47565b602082015260408301516040820152612af360608401612a58565b6060820152612b0460808401612a63565b608082015260a083015182811115612b1b57600080fd5b612b278782860161282f565b60a08301525060c083015160c082015260e083015160e0820152610100915081830151828201526101209150612b5e828401612a58565b828201526101409150612b72828401612a58565b91810191909152949350505050565b634e487b7160e01b600052600160045260246000fd5b6001600160a01b038781168252861660208201526040810185905260c060608201819052600090612bca90830186612426565b8281036080840152612bdc8186612426565b905082810360a0840152612bf08185612426565b9998505050505050505050565b60006020808385031215612c1057600080fd5b82516001600160401b0380821115612c2757600080fd5b818501915085601f830112612c3b57600080fd5b815181811115612c4d57612c4d61279b565b8060051b9150612c5e8483016127ff565b8181529183018401918481019088841115612c7857600080fd5b938501935b838510156129b557845182529385019390850190612c7d565b634e487b7160e01b600052603260045260246000fd5b60a081526000612cbf60a0830188612426565b6001600160a01b0396871660208401526040830195909552506060810192909252909216608090920191909152919050565b606081526000612d046060830186612426565b6001600160a01b039490941660208301525060400152919050565b6001600160a01b038416815260208082018490526060604083018190528351908301819052600091848101916080850190845b81811015612d6e57845183529383019391830191600101612d52565b509098975050505050505050565b604081526000612d90604083018587612a0a565b9050826020830152949350505050565b60ff8516815260ff8416602082015263ffffffff60e01b83166040820152608060608201526000610a326080830184612426565b600080600060608486031215612de957600080fd5b8351612df481612212565b6020850151909350612e0581612212565b80925050604084015190509250925092565b604081526000612e2a6040830185612426565b9050826020830152939250505056fea2646970667358221220d914670367849ae42f72c9734ad1739029793060f882105e9bc34fac96775cbc64736f6c634300080e0033",
  "immutableReferences": {
    "6020": [
      {
        "length": 32,
        "start": 1363
      }
    ],
    "21541": [
      {
        "length": 32,
        "start": 719
      }
    ],
    "21543": [
      {
        "length": 32,
        "start": 624
      }
    ]
  },
  "source": "// SPDX-License-Identifier: AGPLv3\npragma solidity 0.8.14;\n\nimport { SafeCast } from \"@openzeppelin/contracts/utils/math/SafeCast.sol\";\n\nimport {\n    ISuperfluid,\n    ISuperToken,\n    ISuperfluidToken,\n    ISuperApp,\n    SuperAppDefinitions\n} from \"../interfaces/superfluid/ISuperfluid.sol\";\nimport { AgreementBase } from \"../agreements/AgreementBase.sol\";\nimport { AgreementLibrary } from \"../agreements/AgreementLibrary.sol\";\n\n\ncontract AgreementMock is AgreementBase {\n\n    using SafeCast for uint256;\n\n    uint256 constant private _REAL_TIME_BALANCE_SLOT_ID = 65552025;\n\n    // using immutable, otherweise the proxy contract would see zero instead\n    bytes32 immutable private _type;\n    uint immutable private _version;\n\n    constructor(address host, bytes32 t, uint v) AgreementBase(host) {\n        _type = t;\n        _version = v;\n    }\n\n    function version() external view returns (uint) { return _version; }\n\n    function agreementType() external override view returns (bytes32) {\n        return _type;\n    }\n\n    function realtimeBalanceOf(\n       ISuperfluidToken token,\n       address account,\n       uint256 /* time */\n    )\n       external view override\n       returns (\n           int256 dynamicBalance,\n           uint256 deposit,\n           uint256 owedDeposit\n       )\n    {\n        bytes32[] memory slotData = token.getAgreementStateSlot(\n            address(this), account, _REAL_TIME_BALANCE_SLOT_ID, 3);\n        return (\n            uint256(slotData[0]).toInt256(),\n            uint256(slotData[1]),\n            uint256(slotData[2])\n        );\n    }\n\n    /**\n     * SuperfluidToken Mockings\n     */\n\n    function setRealtimeBalanceFor(\n        ISuperfluidToken token,\n        address account,\n        int256 dynamicBalance,\n        uint256 deposit,\n        uint256 owedDeposit\n    ) external {\n        bytes32[] memory slotData = new bytes32[](3);\n        slotData[0] = bytes32(uint256(dynamicBalance));\n        slotData[1] = bytes32(uint256(deposit));\n        slotData[2] = bytes32(uint256(owedDeposit));\n        token.updateAgreementStateSlot(account, _REAL_TIME_BALANCE_SLOT_ID, slotData);\n    }\n\n    function createAgreementFor(\n        ISuperfluidToken token,\n        bytes32 id,\n        bytes32[] calldata data\n        ) external {\n        token.createAgreement(id, data);\n    }\n\n    function updateAgreementDataFor(\n        ISuperfluidToken token,\n        bytes32 id,\n        bytes32[] calldata data\n        ) external {\n        token.updateAgreementData(id, data);\n    }\n\n    function terminateAgreementFor(\n        ISuperfluidToken token,\n        bytes32 id,\n        uint dataLength\n        ) external {\n        token.terminateAgreement(id, dataLength);\n    }\n\n    function updateAgreementStateSlotFor(\n        ISuperfluidToken token,\n        address account,\n        uint256 slotId,\n        bytes32[] calldata slotData\n        ) external {\n        token.updateAgreementStateSlot(account, slotId, slotData);\n    }\n\n    function settleBalanceFor(\n        ISuperfluidToken token,\n        address account,\n        int256 delta\n        ) external {\n        token.settleBalance(account, delta);\n    }\n\n    function makeLiquidationPayoutsFor(\n        ISuperfluidToken token,\n        bytes32 id,\n        bool useDefaultRewardAccount,\n        address liquidator,\n        address targetAccount,\n        uint256 rewardAmount,\n        int256 targetAccountBalanceDelta\n    ) external {\n        bytes memory liquidationTypeData = useDefaultRewardAccount\n            ? abi.encode(1, 0)\n            : abi.encode(1, 2);\n        token.makeLiquidationPayoutsV2(\n            id,\n            liquidationTypeData,\n            liquidator,\n            useDefaultRewardAccount,\n            targetAccount,\n            rewardAmount,\n            targetAccountBalanceDelta\n        );\n    }\n\n    /**\n     * Agreement Framework Mockings\n     */\n\n    function tryCallAppBeforeCallback(ISuperfluid host, ISuperApp appMock, bool hackCtx, bytes calldata ctx)\n        external returns (bytes memory newCtx)\n    {\n        return host.callAppBeforeCallback(\n            appMock,\n            abi.encodeCall(\n                appMock.beforeAgreementCreated,\n                (\n                    ISuperToken(address(0)), /* ISuperToken */\n                    address(this), /* agreementClass */\n                    bytes32(uint256(0)), /* agreementId */\n                    new bytes(0), /* agreementData */\n                    new bytes(0) /* placeholder ctx */\n                )\n            ),\n            true, /* isTermination */\n            hackCtx ? new bytes(0) : ctx);\n    }\n\n    function tryCallAppAfterCallback(ISuperfluid host, ISuperApp appMock, bool hackCtx, bytes calldata ctx)\n        external returns (bytes memory newCtx)\n    {\n        return host.callAppAfterCallback(\n            appMock,\n            abi.encodeCall(\n                appMock.afterAgreementCreated,\n                (\n                    ISuperToken(address(0)), /* ISuperToken */\n                    address(this), /* agreementClass */\n                    bytes32(uint256(0)), /* agreementId */\n                    new bytes(0), /* agreementData */\n                    new bytes(0), /* cbData */\n                    new bytes(0) /* placeholder ctx */\n                )\n            ),\n            true, /* isTermination */\n            hackCtx ? new bytes(0) : ctx);\n    }\n\n    function tryAppCallbackPush(ISuperfluid host, ISuperApp appMock, bool hackCtx, bytes calldata ctx)\n        external returns (bytes memory newCtx)\n    {\n        return host.appCallbackPush(hackCtx ? new bytes(0) : ctx, appMock, 0, 0, ISuperfluidToken(address(0)));\n    }\n\n    function tryAppCallbackPop(ISuperfluid host, bytes calldata ctx)\n        external returns (bytes memory newCtx)\n    {\n        return host.appCallbackPop(ctx, 0);\n    }\n\n    function tryCtxUseAllowance(ISuperfluid host, bool hackCtx, bytes calldata ctx)\n        external returns (bytes memory newCtx)\n    {\n        return host.ctxUseAllowance(hackCtx ? new bytes(0) : ctx, 0, 0);\n    }\n\n    function tryJailApp(ISuperfluid host, ISuperApp appMock, bool hackCtx, bytes calldata ctx)\n        external returns (bytes memory newCtx)\n    {\n        return host.jailApp(hackCtx ? new bytes(0) : ctx, appMock, 0);\n    }\n\n    /**\n     * Trivial Agreement Operations\n     */\n\n    modifier requireValidCtx(bytes memory ctx) {\n        require(ISuperfluid(msg.sender).isCtxValid(ctx), \"AgreementMock: ctx not valid given by host?!\");\n        _;\n    }\n\n    /// doRevert agreement operation\n    function doRevert(string calldata reason, bytes calldata ctx) external view requireValidCtx(ctx) {\n        revert(reason);\n    }\n\n    /// pingMe agreement operation, emits Pong event\n    event Pong(uint256 ping);\n\n    function pingMe(address expectedMsgSender, uint256 ping, bytes calldata ctx)\n        external\n        requireValidCtx(ctx)\n        returns (bytes memory newCtx)\n    {\n        ISuperfluid.Context memory context = ISuperfluid(msg.sender).decodeCtx(ctx);\n        assert(context.msgSender == expectedMsgSender);\n        emit Pong(ping);\n        return ctx;\n    }\n\n    /**\n     * App Callback Mocking Agreement Operations\n     */\n\n    /// _callAppBeforeCallback base agreement operation, emits AppBeforeCallbackResult event\n    event AppBeforeCallbackResult(\n        uint8 appLevel,\n        uint8 callType,\n        bytes4 agreementSelector,\n        bytes cbdata);\n\n    function _callAppBeforeCallback(\n        ISuperApp app,\n        uint256 noopBit,\n        bytes calldata ctx\n    )\n        private\n    {\n        ISuperfluid.Context memory context = ISuperfluid(msg.sender).decodeCtx(ctx);\n        AgreementLibrary.CallbackInputs memory cbStates = AgreementLibrary.createCallbackInputs(\n            ISuperfluidToken(address(0)) /* token */,\n            address(app) /* account */,\n            0 /* agreementId */,\n            \"\" /* agreementData */\n        );\n        cbStates.noopBit = noopBit;\n        bytes memory cbdata = AgreementLibrary.callAppBeforeCallback(cbStates, ctx);\n        emit AppBeforeCallbackResult(\n            context.appLevel,\n            context.callType,\n            context.agreementSelector,\n            cbdata);\n    }\n\n    /// _callAppAfterAgreementCallback base agreement operation, emits AppAfterCallbackResult event\n    event AppAfterCallbackResult(\n        uint8 appLevel,\n        uint8 callType,\n        bytes4 agreementSelector);\n\n    function _callAppAfterAgreementCallback(\n        ISuperApp app,\n        uint256 noopBit,\n        bytes calldata ctx\n    )\n        private returns (bytes memory newCtx)\n    {\n        bool isJailed = ISuperfluid(msg.sender).isAppJailed(app);\n        ISuperfluid.Context memory context = ISuperfluid(msg.sender).decodeCtx(ctx);\n        AgreementLibrary.CallbackInputs memory cbStates = AgreementLibrary.createCallbackInputs(\n            ISuperfluidToken(address(0)) /* token */,\n            address(app) /* account */,\n            0 /* agreementId */,\n            \"\" /* agreementData */\n        );\n        cbStates.noopBit = noopBit;\n        ISuperfluid.Context memory appContext;\n        (appContext, newCtx) = AgreementLibrary.callAppAfterCallback(cbStates, \"\", ctx);\n        if (isJailed) {\n            // appContext.callType is a sufficient check that the callback was not called at all\n            require(appContext.callType == 0, \"AgreementMock: callback should not reach jailed app\");\n        } else {\n            require(ISuperfluid(msg.sender).isCtxValid(newCtx), \"AgreementMock: ctx not valid after callback\");\n        }\n        emit AppAfterCallbackResult(\n            context.appLevel,\n            context.callType,\n            context.agreementSelector);\n    }\n\n    function callAppBeforeAgreementCreatedCallback(\n        ISuperApp app,\n        bytes calldata ctx\n    )\n        external\n        requireValidCtx(ctx)\n        returns (bytes memory newCtx)\n    {\n        _callAppBeforeCallback(app, SuperAppDefinitions.BEFORE_AGREEMENT_CREATED_NOOP, ctx);\n        return ctx;\n    }\n\n    function callAppAfterAgreementCreatedCallback(\n        ISuperApp app,\n        bytes calldata ctx\n    )\n        external\n        requireValidCtx(ctx)\n        returns (bytes memory newCtx)\n    {\n        return _callAppAfterAgreementCallback(app, SuperAppDefinitions.AFTER_AGREEMENT_CREATED_NOOP, ctx);\n    }\n\n    function callAppBeforeAgreementUpdatedCallback(\n        ISuperApp app,\n        bytes calldata ctx\n    )\n        external\n        requireValidCtx(ctx)\n        returns (bytes memory newCtx)\n    {\n        _callAppBeforeCallback(app, SuperAppDefinitions.BEFORE_AGREEMENT_UPDATED_NOOP, ctx);\n        return ctx;\n    }\n\n    function callAppAfterAgreementUpdatedCallback(\n        ISuperApp app,\n        bytes calldata ctx\n    )\n        external\n        requireValidCtx(ctx)\n        returns (bytes memory newCtx)\n    {\n        return _callAppAfterAgreementCallback(app, SuperAppDefinitions.AFTER_AGREEMENT_UPDATED_NOOP, ctx);\n    }\n\n    function callAppBeforeAgreementTerminatedCallback(\n        ISuperApp app,\n        bytes calldata ctx\n    )\n        external\n        requireValidCtx(ctx)\n        returns (bytes memory newCtx)\n    {\n        _callAppBeforeCallback(app, SuperAppDefinitions.BEFORE_AGREEMENT_TERMINATED_NOOP, ctx);\n        newCtx = ctx;\n    }\n\n    function callAppAfterAgreementTerminatedCallback(\n        ISuperApp app,\n        bytes calldata ctx\n    )\n        external\n        requireValidCtx(ctx)\n        returns (bytes memory newCtx)\n    {\n        return _callAppAfterAgreementCallback(app, SuperAppDefinitions.AFTER_AGREEMENT_TERMINATED_NOOP, ctx);\n    }\n\n}\n",
  "sourcePath": "/Users/alo/protocol-monorepo/packages/ethereum-contracts/contracts/mocks/AgreementMock.sol",
  "compiler": {
    "name": "solc",
    "version": "0.8.14+commit.80d49f37.Emscripten.clang"
  },
  "schemaVersion": "3.4.8",
  "updatedAt": "2022-07-15T06:25:31.431Z",
  "devdoc": {
    "kind": "dev",
    "methods": {
      "agreementType()": {
        "details": "Get the type of the agreement class"
      },
      "getCodeAddress()": {
        "details": "Get current implementation code address."
      },
      "proxiableUUID()": {
        "details": "Proxiable UUID marker function, this would help to avoid wrong logic      contract to be used for upgrading. NOTE: The semantics of the UUID deviates from the actual UUPS standard,       where it is equivalent of _IMPLEMENTATION_SLOT."
      }
    },
    "version": 1
  },
  "userdoc": {
    "events": {
      "AppAfterCallbackResult(uint8,uint8,bytes4)": {
        "notice": "_callAppAfterAgreementCallback base agreement operation, emits AppAfterCallbackResult event"
      },
      "AppBeforeCallbackResult(uint8,uint8,bytes4,bytes)": {
        "notice": "_callAppBeforeCallback base agreement operation, emits AppBeforeCallbackResult event"
      },
      "Pong(uint256)": {
        "notice": "pingMe agreement operation, emits Pong event"
      }
    },
    "kind": "user",
    "methods": {
      "doRevert(string,bytes)": {
        "notice": "doRevert agreement operation"
      },
      "setRealtimeBalanceFor(address,address,int256,uint256,uint256)": {
        "notice": "SuperfluidToken Mockings"
      },
      "tryCallAppBeforeCallback(address,address,bool,bytes)": {
        "notice": "Agreement Framework Mockings"
      }
    },
    "version": 1
  }
}