{
  "contractName": "BatchLiquidator",
  "abi": [
    {
      "inputs": [
        {
          "internalType": "address",
          "name": "host",
          "type": "address"
        },
        {
          "internalType": "address",
          "name": "cfa",
          "type": "address"
        },
        {
          "internalType": "address",
          "name": "superToken",
          "type": "address"
        },
        {
          "internalType": "address[]",
          "name": "senders",
          "type": "address[]"
        },
        {
          "internalType": "address[]",
          "name": "receivers",
          "type": "address[]"
        }
      ],
      "name": "deleteFlows",
      "outputs": [],
      "stateMutability": "nonpayable",
      "type": "function"
    }
  ],
  "bytecode": "0x608060405234801561001057600080fd5b506105cb806100206000396000f3fe608060405234801561001057600080fd5b506004361061002b5760003560e01c8063feb6bb6914610030575b600080fd5b61004361003e36600461036d565b610045565b005b8281146100915760405162461bcd60e51b815260206004820152601660248201527561727261797320646966666572656e742073697a657360501b604482015260640160405180910390fd5b60005b8381101561020e576000886001600160a01b0316896001600160a01b03166339255d5b8a8b6001600160a01b031663b4b333c68c8c8c8a8181106100da576100da61040f565b90506020020160208101906100ef9190610425565b8b8b8b8181106101015761010161040f565b90506020020160208101906101169190610425565b60408051600081526020810190915261013593929190604481016104a3565b60408051601f19818403018152918152602080830180516001600160e01b031660e09590951b94909417909352805160008152928301905261017d93925090604481016104e1565b60408051601f198184030181529181526020820180516001600160e01b031660e09490941b9390931790925290516101b59250610517565b6000604051808303816000865af19150503d80600081146101f2576040519150601f19603f3d011682016040523d82523d6000602084013e6101f7565b606091505b5061020792508391506105339050565b9050610094565b506040516370a0823160e01b81523060048201526000906001600160a01b038716906370a0823190602401602060405180830381865afa158015610256573d6000803e3d6000fd5b505050506040513d601f19601f8201168201806040525081019061027a919061055a565b905080156102fb576040516323b872dd60e01b8152306004820152336024820152604481018290526001600160a01b038716906323b872dd906064016020604051808303816000875af11580156102d5573d6000803e3d6000fd5b505050506040513d601f19601f820116820180604052508101906102f99190610573565b505b5050505050505050565b80356001600160a01b038116811461031c57600080fd5b919050565b60008083601f84011261033357600080fd5b50813567ffffffffffffffff81111561034b57600080fd5b6020830191508360208260051b850101111561036657600080fd5b9250929050565b600080600080600080600060a0888a03121561038857600080fd5b61039188610305565b965061039f60208901610305565b95506103ad60408901610305565b9450606088013567ffffffffffffffff808211156103ca57600080fd5b6103d68b838c01610321565b909650945060808a01359150808211156103ef57600080fd5b506103fc8a828b01610321565b989b979a50959850939692959293505050565b634e487b7160e01b600052603260045260246000fd5b60006020828403121561043757600080fd5b61044082610305565b9392505050565b60005b8381101561046257818101518382015260200161044a565b83811115610471576000848401525b50505050565b6000815180845261048f816020860160208601610447565b601f01601f19169290920160200192915050565b6001600160a01b0385811682528481166020830152831660408201526080606082018190526000906104d790830184610477565b9695505050505050565b6001600160a01b038416815260606020820181905260009061050590830185610477565b82810360408401526104d78185610477565b60008251610529818460208701610447565b9190910192915050565b60006001820161055357634e487b7160e01b600052601160045260246000fd5b5060010190565b60006020828403121561056c57600080fd5b5051919050565b60006020828403121561058557600080fd5b8151801515811461044057600080fdfea2646970667358221220deda8a618d57f09bdeead12594620424fe24118d841cb399abea5f742873a40e64736f6c634300080e0033",
  "immutableReferences": {},
  "source": "// SPDX-License-Identifier: AGPLv3\npragma solidity 0.8.14;\n\nimport { ISuperfluid, ISuperAgreement, ISuperToken } from \"../interfaces/superfluid/ISuperfluid.sol\";\nimport { IConstantFlowAgreementV1 } from \"../interfaces/agreements/IConstantFlowAgreementV1.sol\";\nimport { ERC20 } from \"@openzeppelin/contracts/token/ERC20/ERC20.sol\";\n\n/**\n * @title Batch liquidator contract\n * @author Superfluid\n */\ncontract BatchLiquidator {\n\n    /**\n     * @dev Delete flows in batch\n     * @param host - The host contract address.\n     * @param cfa  - The cfa contract address.\n     * @param superToken - The super token the flows belong to.\n     * @param senders - List of senders.\n     * @param receivers - Corresponding list of receivers.\n     */\n    function deleteFlows(\n        address host,\n        address cfa,\n        address superToken,\n        address[] calldata senders, address[] calldata receivers\n    ) external {\n        require(senders.length == receivers.length, \"arrays different sizes\");\n\n        for (uint i = 0; i < senders.length; ++i) {\n            bool success;\n            // We tolerate any errors occured during liquidations.\n            // It could be due to flow had been liquidated by others.\n            // solhint-disable-next-line avoid-low-level-calls\n            (success, ) = address(host).call(\n                abi.encodeCall(\n                    ISuperfluid(host).callAgreement,\n                    (\n                        ISuperAgreement(cfa),\n                        abi.encodeCall(\n                            IConstantFlowAgreementV1(cfa).deleteFlow,\n                            (\n                                ISuperToken(superToken),\n                                senders[i],\n                                receivers[i],\n                                new bytes(0)\n                            )\n                        ),\n                        new bytes(0)\n                    )\n                )\n            );\n        }\n\n        // If the liquidation(s) resulted in any super token\n        // rewards, send them all to the sender instead of having them\n        // locked in the contract\n        {\n            uint256 balance = ERC20(superToken).balanceOf(address(this));\n            if(balance > 0) {\n                ERC20(superToken).transferFrom(address(this), msg.sender, balance);\n            }\n        }\n    }\n}\n\n",
  "sourcePath": "/Users/alo/protocol-monorepo/packages/ethereum-contracts/contracts/utils/BatchLiquidator.sol",
  "compiler": {
    "name": "solc",
    "version": "0.8.14+commit.80d49f37.Emscripten.clang"
  },
  "schemaVersion": "3.4.8",
  "updatedAt": "2022-07-15T06:25:31.741Z",
  "devdoc": {
    "author": "Superfluid",
    "kind": "dev",
    "methods": {
      "deleteFlows(address,address,address,address[],address[])": {
        "details": "Delete flows in batch",
        "params": {
          "cfa": "- The cfa contract address.",
          "host": "- The host contract address.",
          "receivers": "- Corresponding list of receivers.",
          "senders": "- List of senders.",
          "superToken": "- The super token the flows belong to."
        }
      }
    },
    "title": "Batch liquidator contract",
    "version": 1
  },
  "userdoc": {
    "kind": "user",
    "methods": {},
    "version": 1
  }
}