{
  "contractName": "CallUtilsMock",
  "abi": [
    {
      "inputs": [],
      "name": "Custom",
      "type": "error"
    },
    {
      "inputs": [
        {
          "internalType": "uint256",
          "name": "",
          "type": "uint256"
        }
      ],
      "name": "CustomVal",
      "type": "error"
    },
    {
      "inputs": [
        {
          "internalType": "uint256",
          "name": "",
          "type": "uint256"
        }
      ],
      "name": "a",
      "outputs": [
        {
          "internalType": "uint256",
          "name": "",
          "type": "uint256"
        }
      ],
      "stateMutability": "view",
      "type": "function"
    },
    {
      "inputs": [],
      "name": "revertEmpty",
      "outputs": [],
      "stateMutability": "pure",
      "type": "function"
    },
    {
      "inputs": [],
      "name": "revertAssert",
      "outputs": [],
      "stateMutability": "pure",
      "type": "function"
    },
    {
      "inputs": [],
      "name": "revertOverflow",
      "outputs": [
        {
          "internalType": "uint256",
          "name": "",
          "type": "uint256"
        }
      ],
      "stateMutability": "pure",
      "type": "function"
    },
    {
      "inputs": [],
      "name": "revertDivByZero",
      "outputs": [],
      "stateMutability": "pure",
      "type": "function"
    },
    {
      "inputs": [],
      "name": "revertEnum",
      "outputs": [],
      "stateMutability": "pure",
      "type": "function"
    },
    {
      "inputs": [],
      "name": "revertPop",
      "outputs": [],
      "stateMutability": "nonpayable",
      "type": "function"
    },
    {
      "inputs": [],
      "name": "revertArrayAccess",
      "outputs": [],
      "stateMutability": "view",
      "type": "function"
    },
    {
      "inputs": [],
      "name": "revertBigArray",
      "outputs": [
        {
          "internalType": "uint8[]",
          "name": "",
          "type": "uint8[]"
        }
      ],
      "stateMutability": "pure",
      "type": "function"
    },
    {
      "inputs": [],
      "name": "revertZeroInitializedFunctionPointer",
      "outputs": [
        {
          "internalType": "int256",
          "name": "",
          "type": "int256"
        }
      ],
      "stateMutability": "pure",
      "type": "function"
    },
    {
      "inputs": [],
      "name": "revertString",
      "outputs": [],
      "stateMutability": "pure",
      "type": "function"
    },
    {
      "inputs": [],
      "name": "revertCustom",
      "outputs": [],
      "stateMutability": "pure",
      "type": "function"
    },
    {
      "inputs": [],
      "name": "revertCustomVal",
      "outputs": [],
      "stateMutability": "pure",
      "type": "function"
    },
    {
      "inputs": [
        {
          "internalType": "string",
          "name": "funcSig",
          "type": "string"
        }
      ],
      "name": "revertTest",
      "outputs": [],
      "stateMutability": "nonpayable",
      "type": "function"
    }
  ],
  "bytecode": "0x608060405234801561001057600080fd5b5061076c806100206000396000f3fe608060405234801561001057600080fd5b50600436106100ea5760003560e01c80639bd610371161008c578063d7700b1211610066578063d7700b121461016c578063e7f7145b14610174578063e9f0a1471461017c578063f0fdf8341461018457600080fd5b80639bd6103714610149578063b505890314610151578063c89d62881461016457600080fd5b80637114b8eb116100c85780637114b8eb1461011c578063784cbc4e146101245780638211b89d1461012c57806382b246641461013457600080fd5b80631ed106b8146100ef578063335b221e146100f95780634926c4c614610114575b600080fd5b6100f7610197565b005b6101016101b0565b6040519081526020015b60405180910390f35b6100f7600080fd5b6100f76101c6565b6100f76101d9565b6100f76101fa565b61013c610223565b60405161010b91906104b8565b6100f7610262565b6100f761015f366004610515565b61028f565b610101610342565b6100f761035d565b6100f7610367565b6100f7610377565b6101016101923660046105c6565b610384565b6040516366fd620d60e01b815260040160405180910390fd5b6000806101c060001960016105f5565b92915050565b60006000196101d361060d565b50600052565b604051630b84f91760e31b8152601a60048201526024015b60405180910390fd5b600080548061020b5761020b610623565b60019003818190600052602060002001600090559055565b606060006000196102326104ff565b60405190808252806020026020018201604052801561025b578160200160208202803683370190505b5092915050565b60405162461bcd60e51b8152602060048201526002602482015261676d60f01b60448201526064016101f1565b60408051600481526024810191829052600091829130916102b1908690610669565b60408051918290039091206020830180516001600160e01b03166001600160e01b0319909216919091179052516102e89190610669565b6000604051808303816000865af19150503d8060008114610325576040519150601f19603f3d011682016040523d82523d6000602084013e61032a565b606091505b50915091508161033d5761033d816103a5565b505050565b60006104b0610357600460058363ffffffff16565b91505090565b610365610685565b565b6000198061037361069b565b5050565b60008061033d81806106b1565b6000818154811061039457600080fd5b600091825260209091200154905081565b6004815110156103f75760405162461bcd60e51b815260206004820152601a60248201527f43616c6c5574696c733a2074617267657420726576657274282900000000000060448201526064016101f1565b602081015163b1b7848f60e01b6001600160e01b03198216016104a75760408051808201825260208082527f43616c6c5574696c733a207461726765742070616e69636b65643a2030785f5f90820190815260248501517f43616c6c5574696c733a207461726765742070616e69636b65643a2030780000600482811c600f908116603090810160081b918516011791909117909252925162461bcd60e51b81529192916101f1918491016106ed565b81518060208401fd5b610365610720565b6020808252825182820181905260009190848201906040850190845b818110156104f357835160ff16835292840192918401916001016104d4565b50909695505050505050565b634e487b7160e01b600052604160045260246000fd5b60006020828403121561052757600080fd5b813567ffffffffffffffff8082111561053f57600080fd5b818401915084601f83011261055357600080fd5b813581811115610565576105656104ff565b604051601f8201601f19908116603f0116810190838211818310171561058d5761058d6104ff565b816040528281528760208487010111156105a657600080fd5b826020860160208301376000928101602001929092525095945050505050565b6000602082840312156105d857600080fd5b5035919050565b634e487b7160e01b600052601160045260246000fd5b60008219821115610608576106086105df565b500190565b634e487b7160e01b600052603260045260246000fd5b634e487b7160e01b600052603160045260246000fd5b60005b8381101561065457818101518382015260200161063c565b83811115610663576000848401525b50505050565b6000825161067b818460208701610639565b9190910192915050565b634e487b7160e01b600052600160045260246000fd5b634e487b7160e01b600052602160045260246000fd5b6000826106ce57634e487b7160e01b600052601260045260246000fd5b600160ff1b8214600019841416156106e8576106e86105df565b500590565b602081526000825180602084015261070c816040850160208701610639565b601f01601f19169190910160400192915050565b634e487b7160e01b600052605160045260246000fdfea264697066735822122002a640d88ce37984f584fe634f17d8e004200c74b8e1277a13d29e289bc1608c64736f6c634300080e0033",
  "immutableReferences": {},
  "source": "// SPDX-License-Identifier: AGPLv3\npragma solidity 0.8.14;\n\nimport { CallUtils } from \"../libs/CallUtils.sol\";\n\ncontract CallUtilsMock {\n    error Custom();\n    error CustomVal(uint256);\n\n    enum Gm { Ngmi }\n\n    uint[] public a;\n    // case 1: catch all\n    function revertEmpty() public pure {\n        // solhint-disable-next-line reason-string\n        revert();\n    }\n    // case 2: (Panic(uint256)) 0x01\n    function revertAssert() public pure {\n        assert(false);\n    }\n    // case 2: (Panic(uint256)) 0x11\n    function revertOverflow() public pure returns(uint) {\n        uint b = type(uint256).max + 1;\n        return b;\n    }\n    // case 2: (Panic(uint256)) 0x12\n    function revertDivByZero() public pure {\n        int z = 0;\n        int b = 0;\n        b = z / b;\n    }\n    // case 2: (Panic(uint256)) 0x21\n    function revertEnum() public pure {\n        uint max = type(uint).max;\n        Gm(max);\n    }\n    // case 2: (Panic(uint256)) 0x31\n    function revertPop() public {\n        a.pop();\n    }\n    // case 2: (Panic(uint256)) 0x32\n    function revertArrayAccess() public view {\n        a[type(uint).max];\n    }\n    // case 2: (Panic(uint256)) 0x41\n    function revertBigArray() public pure returns(uint8[] memory) {\n        uint8[] memory d = new uint8[](type(uint256).max);\n        return d;\n    }\n    // case 2: (Panic(uint256)) 0x51\n    function revertZeroInitializedFunctionPointer() external pure returns (int) {\n        // Variable containing a function pointer\n        function (int, int) internal pure returns (int) funcPtr;\n\n        // This call will fail because funcPtr is still a zero-initialized function pointer\n        return funcPtr(4, 5);\n    }\n\n    // case 3: Error(string)\n    function revertString() public pure {\n        revert(\"gm\");\n    }\n    // case 4: custom errors\n    function revertCustom() public pure {\n        revert Custom();\n    }\n    function revertCustomVal() public pure {\n        revert CustomVal(26);\n    }\n\n    function revertTest(string memory funcSig) public {\n        // solhint-disable-next-line avoid-low-level-calls\n        (bool success, bytes memory data) = address(this).call(abi.encodeWithSignature(funcSig));\n        if (!success) {\n            CallUtils.revertFromReturnedData(data);\n        }\n    }\n}\n",
  "sourcePath": "/Users/alo/protocol-monorepo/packages/ethereum-contracts/contracts/mocks/CallUtilsMock.sol",
  "compiler": {
    "name": "solc",
    "version": "0.8.14+commit.80d49f37.Emscripten.clang"
  },
  "schemaVersion": "3.4.8",
  "updatedAt": "2022-07-15T06:25:31.488Z",
  "devdoc": {
    "kind": "dev",
    "methods": {},
    "version": 1
  },
  "userdoc": {
    "kind": "user",
    "methods": {},
    "version": 1
  }
}