{
  "contractName": "CallUtilsTester",
  "abi": [
    {
      "inputs": [],
      "name": "testIsValidAbiEncodedBytes",
      "outputs": [],
      "stateMutability": "pure",
      "type": "function"
    }
  ],
  "bytecode": "0x608060405234801561001057600080fd5b5061035e806100206000396000f3fe608060405234801561001057600080fd5b506004361061002b5760003560e01c8063ba89c9eb14610030575b600080fd5b61003861003a565b005b604080516001602082015260029181019190915260036060820152610071906080015b6040516020818303038152906040526101d1565b156100ae5760405162461bcd60e51b8152602060048201526008602482015267626164206461746160c01b60448201526064015b60405180910390fd5b6100ef60005b6040519080825280601f01601f1916602001820160405280156100de576020820181803683370190505b5060405160200161005d9190610264565b61011f5760405162461bcd60e51b81526020600482015260016024820152600360fc1b60448201526064016100a5565b61012960016100b4565b6101595760405162461bcd60e51b81526020600482015260016024820152603160f81b60448201526064016100a5565b61016360206100b4565b6101945760405162461bcd60e51b8152602060048201526002602482015261199960f11b60448201526064016100a5565b61019e60216100b4565b6101cf5760405162461bcd60e51b8152602060048201526002602482015261333360f01b60448201526064016100a5565b565b60006040825110156101e557506000919050565b6020828101519060009082146101ff575060009392505050565b50604083015161020e81610225565b6102199060406102cf565b84511492505050919050565b60008082601f161161023857600061023b565b60015b60ff166102496020846102e7565b61025391906102cf565b61025e906020610309565b92915050565b600060208083528351808285015260005b8181101561029157858101830151858201604001528201610275565b818111156102a3576000604083870101525b50601f01601f1916929092016040019392505050565b634e487b7160e01b600052601160045260246000fd5b600082198211156102e2576102e26102b9565b500190565b60008261030457634e487b7160e01b600052601260045260246000fd5b500490565b6000816000190483118215151615610323576103236102b9565b50029056fea26469706673582212201984bb71a4fa0afc679510c60911c9ba08fddcca0fb3fc9713e0b5fc68ef3c9d64736f6c634300080e0033",
  "immutableReferences": {},
  "source": "// SPDX-License-Identifier: AGPLv3\npragma solidity 0.8.14;\n\nimport { CallUtils } from \"../libs/CallUtils.sol\";\n\ncontract CallUtilsTester {\n    function testIsValidAbiEncodedBytes() external pure {\n        require(!CallUtils.isValidAbiEncodedBytes(abi.encode(1, 2, 3)), \"bad data\");\n        require(CallUtils.isValidAbiEncodedBytes(abi.encode(new bytes(0))), \"0\");\n        require(CallUtils.isValidAbiEncodedBytes(abi.encode(new bytes(1))), \"1\");\n        require(CallUtils.isValidAbiEncodedBytes(abi.encode(new bytes(32))), \"32\");\n        require(CallUtils.isValidAbiEncodedBytes(abi.encode(new bytes(33))), \"33\");\n    }\n}\n",
  "sourcePath": "/Users/alo/protocol-monorepo/packages/ethereum-contracts/contracts/mocks/CallUtilsTester.sol",
  "compiler": {
    "name": "solc",
    "version": "0.8.14+commit.80d49f37.Emscripten.clang"
  },
  "schemaVersion": "3.4.8",
  "updatedAt": "2022-07-15T06:25:31.491Z",
  "devdoc": {
    "kind": "dev",
    "methods": {},
    "version": 1
  },
  "userdoc": {
    "kind": "user",
    "methods": {},
    "version": 1
  }
}