{
  "contractName": "CFALibraryMock",
  "abi": [
    {
      "inputs": [
        {
          "internalType": "contract ISuperfluid",
          "name": "host",
          "type": "address"
        }
      ],
      "stateMutability": "nonpayable",
      "type": "constructor"
    },
    {
      "inputs": [],
      "name": "cfaV1",
      "outputs": [
        {
          "internalType": "contract ISuperfluid",
          "name": "host",
          "type": "address"
        },
        {
          "internalType": "contract IConstantFlowAgreementV1",
          "name": "cfa",
          "type": "address"
        }
      ],
      "stateMutability": "view",
      "type": "function"
    },
    {
      "inputs": [
        {
          "internalType": "contract ISuperfluidToken",
          "name": "token",
          "type": "address"
        },
        {
          "internalType": "address",
          "name": "receiver",
          "type": "address"
        },
        {
          "internalType": "int96",
          "name": "flowRate",
          "type": "int96"
        }
      ],
      "name": "createFlowTest",
      "outputs": [],
      "stateMutability": "nonpayable",
      "type": "function"
    },
    {
      "inputs": [
        {
          "internalType": "contract ISuperfluidToken",
          "name": "token",
          "type": "address"
        },
        {
          "internalType": "address",
          "name": "receiver",
          "type": "address"
        },
        {
          "internalType": "int96",
          "name": "flowRate",
          "type": "int96"
        }
      ],
      "name": "updateFlowTest",
      "outputs": [],
      "stateMutability": "nonpayable",
      "type": "function"
    },
    {
      "inputs": [
        {
          "internalType": "contract ISuperfluidToken",
          "name": "token",
          "type": "address"
        },
        {
          "internalType": "address",
          "name": "receiver",
          "type": "address"
        }
      ],
      "name": "deleteFlowTest",
      "outputs": [],
      "stateMutability": "nonpayable",
      "type": "function"
    },
    {
      "inputs": [
        {
          "internalType": "address",
          "name": "sender",
          "type": "address"
        },
        {
          "internalType": "address",
          "name": "receiver",
          "type": "address"
        },
        {
          "internalType": "contract ISuperfluidToken",
          "name": "token",
          "type": "address"
        },
        {
          "internalType": "int96",
          "name": "flowRate",
          "type": "int96"
        }
      ],
      "name": "createFlowByOperatorTest",
      "outputs": [],
      "stateMutability": "nonpayable",
      "type": "function"
    },
    {
      "inputs": [
        {
          "internalType": "address",
          "name": "sender",
          "type": "address"
        },
        {
          "internalType": "address",
          "name": "receiver",
          "type": "address"
        },
        {
          "internalType": "contract ISuperfluidToken",
          "name": "token",
          "type": "address"
        },
        {
          "internalType": "int96",
          "name": "flowRate",
          "type": "int96"
        }
      ],
      "name": "updateFlowByOperatorTest",
      "outputs": [],
      "stateMutability": "nonpayable",
      "type": "function"
    },
    {
      "inputs": [
        {
          "internalType": "address",
          "name": "sender",
          "type": "address"
        },
        {
          "internalType": "address",
          "name": "receiver",
          "type": "address"
        },
        {
          "internalType": "contract ISuperfluidToken",
          "name": "token",
          "type": "address"
        }
      ],
      "name": "deleteFlowByOperator",
      "outputs": [],
      "stateMutability": "nonpayable",
      "type": "function"
    },
    {
      "inputs": [
        {
          "internalType": "address",
          "name": "flowOperator",
          "type": "address"
        },
        {
          "internalType": "contract ISuperfluidToken",
          "name": "token",
          "type": "address"
        },
        {
          "internalType": "uint8",
          "name": "permissions",
          "type": "uint8"
        },
        {
          "internalType": "int96",
          "name": "flowRateAllowance",
          "type": "int96"
        }
      ],
      "name": "updateFlowOperatorPermissionsTest",
      "outputs": [],
      "stateMutability": "nonpayable",
      "type": "function"
    },
    {
      "inputs": [
        {
          "internalType": "address",
          "name": "flowOperator",
          "type": "address"
        },
        {
          "internalType": "contract ISuperfluidToken",
          "name": "token",
          "type": "address"
        }
      ],
      "name": "authorizeFlowOperatorWithFullControlTest",
      "outputs": [],
      "stateMutability": "nonpayable",
      "type": "function"
    },
    {
      "inputs": [
        {
          "internalType": "address",
          "name": "flowOperator",
          "type": "address"
        },
        {
          "internalType": "contract ISuperfluidToken",
          "name": "token",
          "type": "address"
        }
      ],
      "name": "revokeFlowOperatorWithFullControlTest",
      "outputs": [],
      "stateMutability": "nonpayable",
      "type": "function"
    }
  ],
  "bytecode": "0x608060405234801561001057600080fd5b50604051610de6380380610de683398101604081905261002f91610121565b6040805180820182526001600160a01b0383168082529151635b69006f60e11b81527fa9214cc96615e0085d3bb077758db69497dc2dce3b2b1e97bc93c3d18d83efd360048201529091602083019163b6d200de90602401602060405180830381865afa1580156100a4573d6000803e3d6000fd5b505050506040513d601f19601f820116820180604052508101906100c89190610121565b6001600160a01b039081169091528151600080546001600160a01b031990811692841692909217905560209092015160018054909316911617905550610145565b6001600160a01b038116811461011e57600080fd5b50565b60006020828403121561013357600080fd5b815161013e81610109565b9392505050565b610c92806101546000396000f3fe608060405234801561001057600080fd5b506004361061009e5760003560e01c8063a9014c0011610066578063a9014c0014610104578063ab0c1e5f14610117578063c5eb59de1461012a578063d3112b2e1461013d578063ef7074901461017b57600080fd5b80632cc1e970146100a35780635a8e0f5a146100b857806380f742fa146100cb5780638aaf4513146100de5780638e33f761146100f1575b600080fd5b6100b66100b1366004610880565b61018e565b005b6100b66100c6366004610880565b61019f565b6100b66100d93660046108d0565b6101ab565b6100b66100ec3660046108d0565b6101c0565b6100b66100ff36600461092a565b6101ce565b6100b6610112366004610971565b6101db565b6100b661012536600461092a565b6101e9565b6100b6610138366004610880565b6101f6565b600054600154610157916001600160a01b03908116911682565b604080516001600160a01b0393841681529290911660208301520160405180910390f35b6100b66101893660046109b8565b610207565b61019a6000838361021a565b505050565b61019a60008383610323565b6101b960008585858561034f565b5050505050565b6101b960008585858561037e565b61019a60008385846103a3565b6101b96000858585856103c3565b61019a60008385846104c7565b61020360003083856104e7565b5050565b6102146000848484610507565b50505050565b825460018401546060916001600160a01b03908116916339255d5b91168063062e56ec868860005b6040519080825280601f01601f19166020018201604052801561026c576020820181803683370190505b5060405160240161027f93929190610a71565b60408051601f19818403018152918152602080830180516001600160e01b031660e095861b179052815160008152908101918290529286901b6001600160e01b03191690526102d49392509060248101610a9d565b6000604051808303816000875af11580156102f3573d6000803e3d6000fd5b505050506040513d6000823e601f3d908101601f1916820160405261031b9190810190610ad3565b949350505050565b825460018401546060916001600160a01b03908116916339255d5b9116806354b770e386886000610242565b6040805160008152602081019091526060906103749087908790879087908790610533565b9695505050505050565b6040805160008152602081019091526060906103749087908790879087908790610639565b604080516000815260208101909152610214908590859085908590610667565b845460018601546060916001600160a01b03908116916339255d5b91168063811b3d40888a898960006040519080825280601f01601f191660200182016040528015610416576020820181803683370190505b5060405160240161042b959493929190610b75565b60408051601f19818403018152918152602080830180516001600160e01b031660e095861b179052815160008152908101918290529286901b6001600160e01b03191690526104809392509060248101610a9d565b6000604051808303816000875af115801561049f573d6000803e3d6000fd5b505050506040513d6000823e601f3d908101601f191682016040526103749190810190610ad3565b604080516000815260208101909152610214908590859085908590610765565b60408051600081526020810190915261021490859085908590859061078f565b60408051600081526020810190915260609061052a9086908690869086906107d4565b95945050505050565b855460018701546060916001600160a01b03908116916339255d5b91168063354b9590888b8b8a60005b6040519080825280601f01601f191660200182016040528015610587576020820181803683370190505b5060405160240161059c959493929190610bb4565b60408051808303601f1901815291815260208201805160e094851b6001600160e01b03909116179052519185901b6001600160e01b03191682526105e7939250908790600401610a9d565b6000604051808303816000875af1158015610606573d6000803e3d6000fd5b505050506040513d6000823e601f3d908101601f1916820160405261062e9190810190610ad3565b979650505050505050565b855460018701546060916001600160a01b03908116916339255d5b9116806394229ecb888b8b8a600061055d565b845460018601546001600160a01b03918216916339255d5b9116806350209a6287898860005b6040519080825280601f01601f1916602001820160405280156106b7576020820181803683370190505b506040516024016106cb9493929190610bf2565b60408051808303601f1901815291815260208201805160e094851b6001600160e01b03909116179052519185901b6001600160e01b0319168252610716939250908690600401610a9d565b6000604051808303816000875af1158015610735573d6000803e3d6000fd5b505050506040513d6000823e601f3d908101601f1916820160405261075d9190810190610ad3565b505050505050565b845460018601546001600160a01b03918216916339255d5b9116806362fc305e878988600061068d565b845460018601546040805160008152602081019091526001600160a01b03928316926339255d5b921690819063b4b333c6906106cb9088908b908b9060448101610c28565b845460018601546040805160008152602081019091526060926001600160a01b03908116926339255d5b929116908190634c8b181f9061081d9089908c908c9060448101610c28565b60408051808303601f1901815291815260208201805160e094851b6001600160e01b03909116179052519185901b6001600160e01b0319168252610480939250908790600401610a9d565b6001600160a01b038116811461087d57600080fd5b50565b6000806040838503121561089357600080fd5b823561089e81610868565b915060208301356108ae81610868565b809150509250929050565b8035600b81900b81146108cb57600080fd5b919050565b600080600080608085870312156108e657600080fd5b84356108f181610868565b9350602085013561090181610868565b9250604085013561091181610868565b915061091f606086016108b9565b905092959194509250565b60008060006060848603121561093f57600080fd5b833561094a81610868565b9250602084013561095a81610868565b9150610968604085016108b9565b90509250925092565b6000806000806080858703121561098757600080fd5b843561099281610868565b935060208501356109a281610868565b9250604085013560ff8116811461091157600080fd5b6000806000606084860312156109cd57600080fd5b83356109d881610868565b925060208401356109e881610868565b915060408401356109f881610868565b809150509250925092565b634e487b7160e01b600052604160045260246000fd5b60005b83811015610a34578181015183820152602001610a1c565b838111156102145750506000910152565b60008151808452610a5d816020860160208601610a19565b601f01601f19169290920160200192915050565b6001600160a01b0384811682528316602082015260606040820181905260009061052a90830184610a45565b6001600160a01b0384168152606060208201819052600090610ac190830185610a45565b82810360408401526103748185610a45565b600060208284031215610ae557600080fd5b815167ffffffffffffffff80821115610afd57600080fd5b818401915084601f830112610b1157600080fd5b815181811115610b2357610b23610a03565b604051601f8201601f19908116603f01168101908382118183101715610b4b57610b4b610a03565b81604052828152876020848701011115610b6457600080fd5b61062e836020830160208801610a19565b6001600160a01b0386811682528516602082015260ff84166040820152600b83900b606082015260a06080820181905260009061062e90830184610a45565b6001600160a01b038681168252858116602083015284166040820152600b83900b606082015260a06080820181905260009061062e90830184610a45565b6001600160a01b03858116825284166020820152600b83900b604082015260806060820181905260009061037490830184610a45565b6001600160a01b03858116825284811660208301528316604082015260806060820181905260009061037490830184610a4556fea264697066735822122092477fd8b38ce8c2c34016aa06b8708b4c3fbb41cd86f22d16a48a6bc306306864736f6c634300080e0033",
  "immutableReferences": {},
  "source": "// SPDX-License-Identifier: MIT\npragma solidity 0.8.14;\n\nimport {ISuperfluid, ISuperfluidToken, ISuperToken} from \"../interfaces/superfluid/ISuperfluid.sol\";\n\nimport {ISuperApp, ISuperAgreement} from \"../interfaces/superfluid/ISuperfluid.sol\";\n\nimport {ContextDefinitions, SuperAppDefinitions} from \"../interfaces/superfluid/ISuperfluid.sol\";\n\nimport {SuperAppBase} from \"../apps/SuperAppBase.sol\";\n\nimport {IConstantFlowAgreementV1} from \"../interfaces/agreements/IConstantFlowAgreementV1.sol\";\n\nimport {CFAv1Library} from \"../apps/CFAv1Library.sol\";\n\ncontract CFALibraryMock {\n    using CFAv1Library for CFAv1Library.InitData;\n\n    //initialize cfaV1 variable\n    CFAv1Library.InitData public cfaV1;\n\n    constructor(ISuperfluid host) {\n        //initialize InitData struct, and set equal to cfaV1\n        cfaV1 = CFAv1Library.InitData(\n            host,\n            IConstantFlowAgreementV1(\n                address(\n                    host.getAgreementClass(\n                        keccak256(\n                            \"org.superfluid-finance.agreements.ConstantFlowAgreement.v1\"\n                        )\n                    )\n                )\n            )\n        );\n    }\n\n    function createFlowTest(\n        ISuperfluidToken token,\n        address receiver,\n        int96 flowRate\n    ) public {\n        cfaV1.createFlow(receiver, token, flowRate);\n    }\n\n    function updateFlowTest(\n        ISuperfluidToken token,\n        address receiver,\n        int96 flowRate\n    ) public {\n        cfaV1.updateFlow(receiver, token, flowRate);\n    }\n\n    function deleteFlowTest(ISuperfluidToken token, address receiver) public {\n        cfaV1.deleteFlow(address(this), receiver, token);\n    }\n\n    function createFlowByOperatorTest(\n        address sender,\n        address receiver,\n        ISuperfluidToken token,\n        int96 flowRate\n    ) public {\n        cfaV1.createFlowByOperator(sender, receiver, token, flowRate);\n    }\n\n    function updateFlowByOperatorTest(\n        address sender,\n        address receiver,\n        ISuperfluidToken token,\n        int96 flowRate\n    ) public {\n        cfaV1.updateFlowByOperator(sender, receiver, token, flowRate);\n    }\n\n    function deleteFlowByOperator(\n        address sender,\n        address receiver,\n        ISuperfluidToken token\n    ) public {\n        cfaV1.deleteFlowByOperator(sender, receiver, token);\n    }\n\n    function updateFlowOperatorPermissionsTest(\n        address flowOperator,\n        ISuperfluidToken token,\n        uint8 permissions,\n        int96 flowRateAllowance\n    ) public {\n        cfaV1.updateFlowOperatorPermissions(flowOperator, token, permissions, flowRateAllowance);\n    }\n\n    function authorizeFlowOperatorWithFullControlTest(\n        address flowOperator,\n        ISuperfluidToken token\n    ) public {\n        cfaV1.authorizeFlowOperatorWithFullControl(flowOperator, token);\n    }\n\n    function revokeFlowOperatorWithFullControlTest(\n        address flowOperator,\n        ISuperfluidToken token\n    ) public {\n        cfaV1.revokeFlowOperatorWithFullControl(flowOperator, token);\n    }\n}\n\ncontract CFALibrarySuperAppMock is SuperAppBase {\n\n    using CFAv1Library for CFAv1Library.InitData;\n    CFAv1Library.InitData internal cfaV1;\n\n    // default values for smoke tests\n    uint8 internal immutable permissions = 7;\n    int96 internal immutable flowRate = 1000000000000;\n    int96 internal immutable updatedFlowRate = 2000000000000;\n    address internal immutable sender;\n    address internal immutable receiver;\n    address internal immutable flowOperator;\n\n    // for selectively testing functions in the same callback\n    enum FunctionIndex {\n        CREATE_FLOW,\n        UPDATE_FLOW,\n        DELETE_FLOW,\n        CREATE_FLOW_BY_OPERATOR,\n        UPDATE_FLOW_BY_OPERATOR,\n        DELETE_FLOW_BY_OPERATOR,\n        UPDATE_FLOW_OPERATOR_PERMISSIONS,\n        AUTHORIZE_FLOW_OPERATOR_WITH_FULL_CONTROL,\n        REVOKE_FLOW_OPERATOR_WITH_FULL_CONTROL\n    }\n\n    constructor(\n        ISuperfluid host,\n        address defaultSender,\n        address defaultReceiver,\n        address defaultFlowOperator\n    ) {\n        cfaV1 = CFAv1Library.InitData(\n            host,\n            IConstantFlowAgreementV1(\n                address(\n                    host.getAgreementClass(\n                        keccak256(\n                            \"org.superfluid-finance.agreements.ConstantFlowAgreement.v1\"\n                        )\n                    )\n                )\n            )\n        );\n        sender = defaultSender;\n        receiver = defaultReceiver;\n        flowOperator = defaultFlowOperator;\n\n        uint256 configWord = SuperAppDefinitions.APP_LEVEL_FINAL |\n            SuperAppDefinitions.BEFORE_AGREEMENT_CREATED_NOOP |\n            // SuperAppDefinitions.AFTER_AGREEMENT_CREATED_NOOP |\n            SuperAppDefinitions.BEFORE_AGREEMENT_UPDATED_NOOP |\n            SuperAppDefinitions.AFTER_AGREEMENT_UPDATED_NOOP |\n            SuperAppDefinitions.BEFORE_AGREEMENT_TERMINATED_NOOP |\n            SuperAppDefinitions.AFTER_AGREEMENT_TERMINATED_NOOP;\n\n        host.registerAppWithKey(configWord, \"\");\n    }\n\n    function createFlow(ISuperToken token) external {\n        cfaV1.createFlow(receiver, token, flowRate);\n    }\n\n    // literally ONLY for the revokeFlowOperatorWithFullControlWithCtx test.\n    function authorizeFlowOperatorWithFullControl(ISuperToken token) external {\n        cfaV1.authorizeFlowOperatorWithFullControl(flowOperator, token);\n    }\n\n    function afterAgreementCreated(\n        ISuperToken token,\n        address,\n        bytes32,\n        bytes calldata,\n        bytes calldata,\n        bytes calldata ctx\n    ) external override returns (bytes memory) {\n        bytes memory userData = cfaV1.host.decodeCtx(ctx).userData;\n        (uint8 functionIndex) = abi.decode(userData, (uint8));\n\n        if (functionIndex == uint8(FunctionIndex.CREATE_FLOW))\n            return cfaV1.createFlowWithCtx(ctx, receiver, token, flowRate);\n        else if (functionIndex == uint8(FunctionIndex.UPDATE_FLOW))\n            return cfaV1.updateFlowWithCtx(ctx, receiver, token, updatedFlowRate);\n        else if (functionIndex == uint8(FunctionIndex.DELETE_FLOW))\n            return cfaV1.deleteFlowWithCtx(ctx, address(this), receiver, token);\n        else if (functionIndex == uint8(FunctionIndex.CREATE_FLOW_BY_OPERATOR))\n            return cfaV1.createFlowByOperatorWithCtx(ctx, sender, receiver, token, flowRate);\n        else if (functionIndex == uint8(FunctionIndex.UPDATE_FLOW_BY_OPERATOR))\n            return cfaV1.updateFlowByOperatorWithCtx(ctx, sender, receiver, token, updatedFlowRate);\n        else if (functionIndex == uint8(FunctionIndex.DELETE_FLOW_BY_OPERATOR))\n            return cfaV1.deleteFlowByOperatorWithCtx(ctx, sender, receiver, token);\n        else if (functionIndex == uint8(FunctionIndex.UPDATE_FLOW_OPERATOR_PERMISSIONS))\n            return cfaV1.updateFlowOperatorPermissionsWithCtx(\n                ctx,\n                flowOperator,\n                token,\n                permissions,\n                flowRate\n            );\n        else if (functionIndex == uint8(FunctionIndex.AUTHORIZE_FLOW_OPERATOR_WITH_FULL_CONTROL))\n            return cfaV1.authorizeFlowOperatorWithFullControlWithCtx(ctx, flowOperator, token);\n        else if (functionIndex == uint8(FunctionIndex.REVOKE_FLOW_OPERATOR_WITH_FULL_CONTROL))\n            return cfaV1.revokeFlowOperatorWithFullControlWithCtx(ctx, flowOperator, token);\n        else revert(\"invalid function index\");\n    }\n}\n",
  "sourcePath": "/Users/alo/protocol-monorepo/packages/ethereum-contracts/contracts/mocks/CFALibraryMock.sol",
  "compiler": {
    "name": "solc",
    "version": "0.8.14+commit.80d49f37.Emscripten.clang"
  },
  "schemaVersion": "3.4.8",
  "updatedAt": "2022-07-15T06:25:31.477Z",
  "devdoc": {
    "kind": "dev",
    "methods": {},
    "version": 1
  },
  "userdoc": {
    "kind": "user",
    "methods": {},
    "version": 1
  }
}