{
  "contractName": "CFALibrarySuperAppMock",
  "abi": [
    {
      "inputs": [
        {
          "internalType": "contract ISuperfluid",
          "name": "host",
          "type": "address"
        },
        {
          "internalType": "address",
          "name": "defaultSender",
          "type": "address"
        },
        {
          "internalType": "address",
          "name": "defaultReceiver",
          "type": "address"
        },
        {
          "internalType": "address",
          "name": "defaultFlowOperator",
          "type": "address"
        }
      ],
      "stateMutability": "nonpayable",
      "type": "constructor"
    },
    {
      "inputs": [
        {
          "internalType": "contract ISuperToken",
          "name": "",
          "type": "address"
        },
        {
          "internalType": "address",
          "name": "",
          "type": "address"
        },
        {
          "internalType": "bytes32",
          "name": "",
          "type": "bytes32"
        },
        {
          "internalType": "bytes",
          "name": "",
          "type": "bytes"
        },
        {
          "internalType": "bytes",
          "name": "",
          "type": "bytes"
        },
        {
          "internalType": "bytes",
          "name": "",
          "type": "bytes"
        }
      ],
      "name": "afterAgreementTerminated",
      "outputs": [
        {
          "internalType": "bytes",
          "name": "",
          "type": "bytes"
        }
      ],
      "stateMutability": "nonpayable",
      "type": "function"
    },
    {
      "inputs": [
        {
          "internalType": "contract ISuperToken",
          "name": "",
          "type": "address"
        },
        {
          "internalType": "address",
          "name": "",
          "type": "address"
        },
        {
          "internalType": "bytes32",
          "name": "",
          "type": "bytes32"
        },
        {
          "internalType": "bytes",
          "name": "",
          "type": "bytes"
        },
        {
          "internalType": "bytes",
          "name": "",
          "type": "bytes"
        },
        {
          "internalType": "bytes",
          "name": "",
          "type": "bytes"
        }
      ],
      "name": "afterAgreementUpdated",
      "outputs": [
        {
          "internalType": "bytes",
          "name": "",
          "type": "bytes"
        }
      ],
      "stateMutability": "nonpayable",
      "type": "function"
    },
    {
      "inputs": [
        {
          "internalType": "contract ISuperToken",
          "name": "",
          "type": "address"
        },
        {
          "internalType": "address",
          "name": "",
          "type": "address"
        },
        {
          "internalType": "bytes32",
          "name": "",
          "type": "bytes32"
        },
        {
          "internalType": "bytes",
          "name": "",
          "type": "bytes"
        },
        {
          "internalType": "bytes",
          "name": "",
          "type": "bytes"
        }
      ],
      "name": "beforeAgreementCreated",
      "outputs": [
        {
          "internalType": "bytes",
          "name": "",
          "type": "bytes"
        }
      ],
      "stateMutability": "view",
      "type": "function"
    },
    {
      "inputs": [
        {
          "internalType": "contract ISuperToken",
          "name": "",
          "type": "address"
        },
        {
          "internalType": "address",
          "name": "",
          "type": "address"
        },
        {
          "internalType": "bytes32",
          "name": "",
          "type": "bytes32"
        },
        {
          "internalType": "bytes",
          "name": "",
          "type": "bytes"
        },
        {
          "internalType": "bytes",
          "name": "",
          "type": "bytes"
        }
      ],
      "name": "beforeAgreementTerminated",
      "outputs": [
        {
          "internalType": "bytes",
          "name": "",
          "type": "bytes"
        }
      ],
      "stateMutability": "view",
      "type": "function"
    },
    {
      "inputs": [
        {
          "internalType": "contract ISuperToken",
          "name": "",
          "type": "address"
        },
        {
          "internalType": "address",
          "name": "",
          "type": "address"
        },
        {
          "internalType": "bytes32",
          "name": "",
          "type": "bytes32"
        },
        {
          "internalType": "bytes",
          "name": "",
          "type": "bytes"
        },
        {
          "internalType": "bytes",
          "name": "",
          "type": "bytes"
        }
      ],
      "name": "beforeAgreementUpdated",
      "outputs": [
        {
          "internalType": "bytes",
          "name": "",
          "type": "bytes"
        }
      ],
      "stateMutability": "view",
      "type": "function"
    },
    {
      "inputs": [
        {
          "internalType": "contract ISuperToken",
          "name": "token",
          "type": "address"
        }
      ],
      "name": "createFlow",
      "outputs": [],
      "stateMutability": "nonpayable",
      "type": "function"
    },
    {
      "inputs": [
        {
          "internalType": "contract ISuperToken",
          "name": "token",
          "type": "address"
        }
      ],
      "name": "authorizeFlowOperatorWithFullControl",
      "outputs": [],
      "stateMutability": "nonpayable",
      "type": "function"
    },
    {
      "inputs": [
        {
          "internalType": "contract ISuperToken",
          "name": "token",
          "type": "address"
        },
        {
          "internalType": "address",
          "name": "",
          "type": "address"
        },
        {
          "internalType": "bytes32",
          "name": "",
          "type": "bytes32"
        },
        {
          "internalType": "bytes",
          "name": "",
          "type": "bytes"
        },
        {
          "internalType": "bytes",
          "name": "",
          "type": "bytes"
        },
        {
          "internalType": "bytes",
          "name": "ctx",
          "type": "bytes"
        }
      ],
      "name": "afterAgreementCreated",
      "outputs": [
        {
          "internalType": "bytes",
          "name": "",
          "type": "bytes"
        }
      ],
      "stateMutability": "nonpayable",
      "type": "function"
    }
  ],
  "bytecode": "0x610140604052600760805264e8d4a5100060a0526501d1a94a200060c0523480156200002a57600080fd5b5060405162001cc738038062001cc78339810160408190526200004d91620001cf565b6040805180820182526001600160a01b0386168082529151635b69006f60e11b81527fa9214cc96615e0085d3bb077758db69497dc2dce3b2b1e97bc93c3d18d83efd360048201529091602083019163b6d200de90602401602060405180830381865afa158015620000c3573d6000803e3d6000fd5b505050506040513d601f19601f82011682018060405250810190620000e9919062000237565b6001600160a01b039081169091528151600080549183166001600160a01b031992831617905560209092015160018054918316919093161790915583811660e052828116610100528181166101205260405163bd1c448b60e01b8152643d000000019186169063bd1c448b906200017790849060040190815260406020820181905260009082015260600190565b600060405180830381600087803b1580156200019257600080fd5b505af1158015620001a7573d6000803e3d6000fd5b5050505050505050506200025e565b6001600160a01b0381168114620001cc57600080fd5b50565b60008060008060808587031215620001e657600080fd5b8451620001f381620001b6565b60208601519094506200020681620001b6565b60408601519093506200021981620001b6565b60608601519092506200022c81620001b6565b939692955090935050565b6000602082840312156200024a57600080fd5b81516200025781620001b6565b9392505050565b60805160a05160c05160e05161010051610120516119b0620003176000396000818161032a015281816108c9015281816109950152610a1d015260008181610273015281816104a001528181610553015281816105fe015281816106a801528181610774015261084001526000818161068701528181610753015261081f0152600081816105750152610796015260008181610295015281816104c2015281816106ca015261090c015260006108eb01526119b06000f3fe608060405234801561001057600080fd5b50600436106100885760003560e01c80635f9e7d771161005b5780635f9e7d77146100f15780637d5b08de14610104578063884d1f4014610117578063d86ed3e51461012a57600080fd5b8063230dbd291461008d57806330d9c915146100b657806353c11f99146100c9578063558aea25146100dc575b600080fd5b6100a061009b366004611304565b61013d565b6040516100ad9190611427565b60405180910390f35b6100a06100c4366004611441565b6101a4565b6100a06100d7366004611304565b610207565b6100ef6100ea3660046114e0565b61026c565b005b6100a06100ff366004611441565b6102bc565b6100ef6101123660046114e0565b610323565b6100a0610125366004611441565b610353565b6100a0610138366004611304565b6103b6565b60405162461bcd60e51b815260206004820152602e60248201527f556e737570706f727465642063616c6c6261636b202d2041667465722041677260448201526d19595b595b9d08155c19185d195960921b60648201526060906084015b60405180910390fd5b60405162461bcd60e51b815260206004820152602f60248201527f556e737570706f727465642063616c6c6261636b202d204265666f726520416760448201526e1c99595b595b9d0810dc99585d1959608a1b606482015260609060840161019b565b60405162461bcd60e51b815260206004820152603160248201527f556e737570706f727465642063616c6c6261636b202d2041667465722041677260448201527019595b595b9d0815195c9b5a5b985d1959607a1b606482015260609060840161019b565b6102b960007f0000000000000000000000000000000000000000000000000000000000000000837f0000000000000000000000000000000000000000000000000000000000000000610a9d565b50565b60405162461bcd60e51b815260206004820152603360248201527f556e737570706f727465642063616c6c6261636b202d20204265666f7265204160448201527219dc99595b595b9d0815195c9b5a5b985d1959606a1b606482015260609060840161019b565b61034f60007f000000000000000000000000000000000000000000000000000000000000000083610ac3565b5050565b60405162461bcd60e51b815260206004820152602f60248201527f556e737570706f727465642063616c6c6261636b202d204265666f726520416760448201526e1c99595b595b9d081d5c19185d1959608a1b606482015260609060840161019b565b60008054604051631fb6491d60e11b8152606092916001600160a01b031690633f6c923a906103eb90879087906004016114fd565b600060405180830381865afa158015610408573d6000803e3d6000fd5b505050506040513d6000823e601f3d908101601f191682016040526104309190810190611623565b60a00151905060008180602001905181019061044c919061172a565b905060ff81166104fd576104f485858080601f016020809104026020016040519081016040528093929190818152602001838380828437600081840152601f19601f820116905080830192505050505050507f00000000000000000000000000000000000000000000000000000000000000008e7f00000000000000000000000000000000000000000000000000000000000000006000610bae90949392919063ffffffff16565b92505050610a90565b60001960ff8216016105a7576104f485858080601f016020809104026020016040519081016040528093929190818152602001838380828437600081840152601f19601f820116905080830192505050505050507f00000000000000000000000000000000000000000000000000000000000000008e7f00000000000000000000000000000000000000000000000000000000000000006000610bdd90949392919063ffffffff16565b60011960ff821601610631576104f485858080601f016020809104026020016040519081016040528093929190818152602001838380828437600081840152601f19601f82011690508083019250505050505050307f00000000000000000000000000000000000000000000000000000000000000008f6000610c0290949392919063ffffffff16565b60021960ff8216016106fd576104f485858080601f016020809104026020016040519081016040528093929190818152602001838380828437600081840152601f19601f820116905080830192505050505050507f00000000000000000000000000000000000000000000000000000000000000007f00000000000000000000000000000000000000000000000000000000000000008f7f00000000000000000000000000000000000000000000000000000000000000006000610c279095949392919063ffffffff16565b60031960ff8216016107c9576104f485858080601f016020809104026020016040519081016040528093929190818152602001838380828437600081840152601f19601f820116905080830192505050505050507f00000000000000000000000000000000000000000000000000000000000000007f00000000000000000000000000000000000000000000000000000000000000008f7f00000000000000000000000000000000000000000000000000000000000000006000610c6f9095949392919063ffffffff16565b60041960ff821601610873576104f485858080601f016020809104026020016040519081016040528093929190818152602001838380828437600081840152601f19601f820116905080830192505050505050507f00000000000000000000000000000000000000000000000000000000000000007f00000000000000000000000000000000000000000000000000000000000000008f6000610cac90949392919063ffffffff16565b60051960ff82160161093f576104f485858080601f016020809104026020016040519081016040528093929190818152602001838380828437600081840152601f19601f820116905080830192505050505050507f00000000000000000000000000000000000000000000000000000000000000008e7f00000000000000000000000000000000000000000000000000000000000000007f00000000000000000000000000000000000000000000000000000000000000006000610cd19095949392919063ffffffff16565b60061960ff8216016109c7576104f485858080601f016020809104026020016040519081016040528093929190818152602001838380828437600081840152601f19601f820116905080830192505050505050507f00000000000000000000000000000000000000000000000000000000000000008e6000610de2909392919063ffffffff16565b60071960ff821601610a4f576104f485858080601f016020809104026020016040519081016040528093929190818152602001838380828437600081840152601f19601f820116905080830192505050505050507f00000000000000000000000000000000000000000000000000000000000000008e6000610eee909392919063ffffffff16565b60405162461bcd60e51b81526020600482015260166024820152750d2dcecc2d8d2c840cceadcc6e8d2dedc40d2dcc8caf60531b604482015260640161019b565b9998505050505050505050565b604080516000815260208101909152610abd908590859085908590610f1a565b50505050565b825460018401546040805160008152602081019091526060926001600160a01b03908116926339255d5b9291169081906354b770e390610b0a9088908a9060448101611745565b60408051601f19818403018152918152602080830180516001600160e01b031660e095861b179052815160008152908101918290529286901b6001600160e01b0319169052610b5f939250906024810161177a565b6000604051808303816000875af1158015610b7e573d6000803e3d6000fd5b505050506040513d6000823e601f3d908101601f19168201604052610ba691908101906117b0565b949350505050565b604080516000815260208101909152606090610bd39087908790879087908790610ff9565b9695505050505050565b604080516000815260208101909152606090610bd390879087908790879087906110ad565b604080516000815260208101909152606090610bd390879087908790879087906110da565b6060610c6487878787878760006040519080825280601f01601f191660200182016040528015610c5e576020820181803683370190505b50611141565b979650505050505050565b6060610c6487878787878760006040519080825280601f01601f191660200182016040528015610ca6576020820181803683370190505b5061124b565b604080516000815260208101909152606090610bd39087908790879087908790611279565b855460018701546060916001600160a01b0390811691634329d29391168063811b3d40888a898960006040519080825280601f01601f191660200182016040528015610d24576020820181803683370190505b50604051602401610d399594939291906117e5565b60408051601f19818403018152918152602080830180516001600160e01b031660e095861b179052815160008152908101918290529286901b6001600160e01b0319169052610d8f939250908b60248201611824565b6000604051808303816000875af1158015610dae573d6000803e3d6000fd5b505050506040513d6000823e601f3d908101601f19168201604052610dd6919081019061186e565b50979650505050505050565b835460018501546060916001600160a01b0390811691634329d2939116806354b770e3868860005b6040519080825280601f01601f191660200182016040528015610e34576020820181803683370190505b50604051602401610e4793929190611745565b60408051601f19818403018152918152602080830180516001600160e01b031660e095861b179052815160008152908101918290529286901b6001600160e01b0319169052610e9d939250908960248201611824565b6000604051808303816000875af1158015610ebc573d6000803e3d6000fd5b505050506040513d6000823e601f3d908101601f19168201604052610ee4919081019061186e565b5095945050505050565b835460018501546060916001600160a01b0390811691634329d29391168063062e56ec86886000610e0a565b845460018601546040805160008152602081019091526001600160a01b03928316926339255d5b92169081906362fc305e90610f5f9089908b908a90604481016118d2565b60408051808303601f1901815291815260208201805160e094851b6001600160e01b03909116179052519185901b6001600160e01b0319168252610faa93925090869060040161177a565b6000604051808303816000875af1158015610fc9573d6000803e3d6000fd5b505050506040513d6000823e601f3d908101601f19168201604052610ff191908101906117b0565b505050505050565b855460018701546060916001600160a01b0390811691634329d2939116806362fc305e888a8960005b6040519080825280601f01601f19166020018201604052801561104c576020820181803683370190505b5060405160240161106094939291906118d2565b60408051808303601f1901815291815260208201805160e094851b6001600160e01b03909116179052519185901b6001600160e01b0319168252610d8f9392509087908c90600401611824565b855460018701546060916001600160a01b0390811691634329d2939116806350209a62888a896000611022565b855460018701546060916001600160a01b0390811691634329d29391168063b4b333c6878a8a60005b6040519080825280601f01601f19166020018201604052801561112d576020820181803683370190505b506040516024016110609493929190611908565b865460018801546060916001600160a01b0390811691634329d2939116806394229ecb888b8b8a60005b6040519080825280601f01601f191660200182016040528015611195576020820181803683370190505b506040516024016111aa95949392919061193c565b60408051808303601f1901815291815260208201805160e094851b6001600160e01b03909116179052519185901b6001600160e01b03191682526111f79392509087908d90600401611824565b6000604051808303816000875af1158015611216573d6000803e3d6000fd5b505050506040513d6000823e601f3d908101601f1916820160405261123e919081019061186e565b5098975050505050505050565b865460018801546060916001600160a01b0390811691634329d29391168063354b9590888b8b8a600061116b565b855460018701546060916001600160a01b0390811691634329d293911680634c8b181f878a8a6000611103565b6001600160a01b03811681146102b957600080fd5b60008083601f8401126112cd57600080fd5b50813567ffffffffffffffff8111156112e557600080fd5b6020830191508360208285010111156112fd57600080fd5b9250929050565b600080600080600080600080600060c08a8c03121561132257600080fd5b893561132d816112a6565b985060208a013561133d816112a6565b975060408a0135965060608a013567ffffffffffffffff8082111561136157600080fd5b61136d8d838e016112bb565b909850965060808c013591508082111561138657600080fd5b6113928d838e016112bb565b909650945060a08c01359150808211156113ab57600080fd5b506113b88c828d016112bb565b915080935050809150509295985092959850929598565b60005b838110156113ea5781810151838201526020016113d2565b83811115610abd5750506000910152565b600081518084526114138160208601602086016113cf565b601f01601f19169290920160200192915050565b60208152600061143a60208301846113fb565b9392505050565b600080600080600080600060a0888a03121561145c57600080fd5b8735611467816112a6565b96506020880135611477816112a6565b955060408801359450606088013567ffffffffffffffff8082111561149b57600080fd5b6114a78b838c016112bb565b909650945060808a01359150808211156114c057600080fd5b506114cd8a828b016112bb565b989b979a50959850939692959293505050565b6000602082840312156114f257600080fd5b813561143a816112a6565b60208152816020820152818360408301376000818301604090810191909152601f909201601f19160101919050565b634e487b7160e01b600052604160045260246000fd5b604051610160810167ffffffffffffffff811182821017156115665761156661152c565b60405290565b805160ff8116811461157d57600080fd5b919050565b805161157d816112a6565b80516001600160e01b03198116811461157d57600080fd5b600082601f8301126115b657600080fd5b815167ffffffffffffffff808211156115d1576115d161152c565b604051601f8301601f19908116603f011681019082821181831017156115f9576115f961152c565b8160405283815286602085880101111561161257600080fd5b610bd38460208301602089016113cf565b60006020828403121561163557600080fd5b815167ffffffffffffffff8082111561164d57600080fd5b90830190610160828603121561166257600080fd5b61166a611542565b6116738361156c565b81526116816020840161156c565b60208201526040830151604082015261169c60608401611582565b60608201526116ad6080840161158d565b608082015260a0830151828111156116c457600080fd5b6116d0878286016115a5565b60a08301525060c083015160c082015260e083015160e0820152610100915081830151828201526101209150611707828401611582565b82820152610140915061171b828401611582565b91810191909152949350505050565b60006020828403121561173c57600080fd5b61143a8261156c565b6001600160a01b03848116825283166020820152606060408201819052600090611771908301846113fb565b95945050505050565b6001600160a01b038416815260606020820181905260009061179e908301856113fb565b8281036040840152610bd381856113fb565b6000602082840312156117c257600080fd5b815167ffffffffffffffff8111156117d957600080fd5b610ba6848285016115a5565b6001600160a01b0386811682528516602082015260ff84166040820152600b83900b606082015260a060808201819052600090610c64908301846113fb565b6001600160a01b0385168152608060208201819052600090611848908301866113fb565b828103604084015261185a81866113fb565b90508281036060840152610c6481856113fb565b6000806040838503121561188157600080fd5b825167ffffffffffffffff8082111561189957600080fd5b6118a5868387016115a5565b935060208501519150808211156118bb57600080fd5b506118c8858286016115a5565b9150509250929050565b6001600160a01b03858116825284166020820152600b83900b6040820152608060608201819052600090610bd3908301846113fb565b6001600160a01b038581168252848116602083015283166040820152608060608201819052600090610bd3908301846113fb565b6001600160a01b038681168252858116602083015284166040820152600b83900b606082015260a060808201819052600090610c64908301846113fb56fea26469706673582212204d866629a658b19c3b6898195a7a215a5c97ecaa13ef94886e7835a3ac39f75664736f6c634300080e0033",
  "immutableReferences": {
    "23604": [
      {
        "length": 32,
        "start": 2283
      }
    ],
    "23607": [
      {
        "length": 32,
        "start": 661
      },
      {
        "length": 32,
        "start": 1218
      },
      {
        "length": 32,
        "start": 1738
      },
      {
        "length": 32,
        "start": 2316
      }
    ],
    "23610": [
      {
        "length": 32,
        "start": 1397
      },
      {
        "length": 32,
        "start": 1942
      }
    ],
    "23612": [
      {
        "length": 32,
        "start": 1671
      },
      {
        "length": 32,
        "start": 1875
      },
      {
        "length": 32,
        "start": 2079
      }
    ],
    "23614": [
      {
        "length": 32,
        "start": 627
      },
      {
        "length": 32,
        "start": 1184
      },
      {
        "length": 32,
        "start": 1363
      },
      {
        "length": 32,
        "start": 1534
      },
      {
        "length": 32,
        "start": 1704
      },
      {
        "length": 32,
        "start": 1908
      },
      {
        "length": 32,
        "start": 2112
      }
    ],
    "23616": [
      {
        "length": 32,
        "start": 810
      },
      {
        "length": 32,
        "start": 2249
      },
      {
        "length": 32,
        "start": 2453
      },
      {
        "length": 32,
        "start": 2589
      }
    ]
  },
  "source": "// SPDX-License-Identifier: MIT\npragma solidity 0.8.14;\n\nimport {ISuperfluid, ISuperfluidToken, ISuperToken} from \"../interfaces/superfluid/ISuperfluid.sol\";\n\nimport {ISuperApp, ISuperAgreement} from \"../interfaces/superfluid/ISuperfluid.sol\";\n\nimport {ContextDefinitions, SuperAppDefinitions} from \"../interfaces/superfluid/ISuperfluid.sol\";\n\nimport {SuperAppBase} from \"../apps/SuperAppBase.sol\";\n\nimport {IConstantFlowAgreementV1} from \"../interfaces/agreements/IConstantFlowAgreementV1.sol\";\n\nimport {CFAv1Library} from \"../apps/CFAv1Library.sol\";\n\ncontract CFALibraryMock {\n    using CFAv1Library for CFAv1Library.InitData;\n\n    //initialize cfaV1 variable\n    CFAv1Library.InitData public cfaV1;\n\n    constructor(ISuperfluid host) {\n        //initialize InitData struct, and set equal to cfaV1\n        cfaV1 = CFAv1Library.InitData(\n            host,\n            IConstantFlowAgreementV1(\n                address(\n                    host.getAgreementClass(\n                        keccak256(\n                            \"org.superfluid-finance.agreements.ConstantFlowAgreement.v1\"\n                        )\n                    )\n                )\n            )\n        );\n    }\n\n    function createFlowTest(\n        ISuperfluidToken token,\n        address receiver,\n        int96 flowRate\n    ) public {\n        cfaV1.createFlow(receiver, token, flowRate);\n    }\n\n    function updateFlowTest(\n        ISuperfluidToken token,\n        address receiver,\n        int96 flowRate\n    ) public {\n        cfaV1.updateFlow(receiver, token, flowRate);\n    }\n\n    function deleteFlowTest(ISuperfluidToken token, address receiver) public {\n        cfaV1.deleteFlow(address(this), receiver, token);\n    }\n\n    function createFlowByOperatorTest(\n        address sender,\n        address receiver,\n        ISuperfluidToken token,\n        int96 flowRate\n    ) public {\n        cfaV1.createFlowByOperator(sender, receiver, token, flowRate);\n    }\n\n    function updateFlowByOperatorTest(\n        address sender,\n        address receiver,\n        ISuperfluidToken token,\n        int96 flowRate\n    ) public {\n        cfaV1.updateFlowByOperator(sender, receiver, token, flowRate);\n    }\n\n    function deleteFlowByOperator(\n        address sender,\n        address receiver,\n        ISuperfluidToken token\n    ) public {\n        cfaV1.deleteFlowByOperator(sender, receiver, token);\n    }\n\n    function updateFlowOperatorPermissionsTest(\n        address flowOperator,\n        ISuperfluidToken token,\n        uint8 permissions,\n        int96 flowRateAllowance\n    ) public {\n        cfaV1.updateFlowOperatorPermissions(flowOperator, token, permissions, flowRateAllowance);\n    }\n\n    function authorizeFlowOperatorWithFullControlTest(\n        address flowOperator,\n        ISuperfluidToken token\n    ) public {\n        cfaV1.authorizeFlowOperatorWithFullControl(flowOperator, token);\n    }\n\n    function revokeFlowOperatorWithFullControlTest(\n        address flowOperator,\n        ISuperfluidToken token\n    ) public {\n        cfaV1.revokeFlowOperatorWithFullControl(flowOperator, token);\n    }\n}\n\ncontract CFALibrarySuperAppMock is SuperAppBase {\n\n    using CFAv1Library for CFAv1Library.InitData;\n    CFAv1Library.InitData internal cfaV1;\n\n    // default values for smoke tests\n    uint8 internal immutable permissions = 7;\n    int96 internal immutable flowRate = 1000000000000;\n    int96 internal immutable updatedFlowRate = 2000000000000;\n    address internal immutable sender;\n    address internal immutable receiver;\n    address internal immutable flowOperator;\n\n    // for selectively testing functions in the same callback\n    enum FunctionIndex {\n        CREATE_FLOW,\n        UPDATE_FLOW,\n        DELETE_FLOW,\n        CREATE_FLOW_BY_OPERATOR,\n        UPDATE_FLOW_BY_OPERATOR,\n        DELETE_FLOW_BY_OPERATOR,\n        UPDATE_FLOW_OPERATOR_PERMISSIONS,\n        AUTHORIZE_FLOW_OPERATOR_WITH_FULL_CONTROL,\n        REVOKE_FLOW_OPERATOR_WITH_FULL_CONTROL\n    }\n\n    constructor(\n        ISuperfluid host,\n        address defaultSender,\n        address defaultReceiver,\n        address defaultFlowOperator\n    ) {\n        cfaV1 = CFAv1Library.InitData(\n            host,\n            IConstantFlowAgreementV1(\n                address(\n                    host.getAgreementClass(\n                        keccak256(\n                            \"org.superfluid-finance.agreements.ConstantFlowAgreement.v1\"\n                        )\n                    )\n                )\n            )\n        );\n        sender = defaultSender;\n        receiver = defaultReceiver;\n        flowOperator = defaultFlowOperator;\n\n        uint256 configWord = SuperAppDefinitions.APP_LEVEL_FINAL |\n            SuperAppDefinitions.BEFORE_AGREEMENT_CREATED_NOOP |\n            // SuperAppDefinitions.AFTER_AGREEMENT_CREATED_NOOP |\n            SuperAppDefinitions.BEFORE_AGREEMENT_UPDATED_NOOP |\n            SuperAppDefinitions.AFTER_AGREEMENT_UPDATED_NOOP |\n            SuperAppDefinitions.BEFORE_AGREEMENT_TERMINATED_NOOP |\n            SuperAppDefinitions.AFTER_AGREEMENT_TERMINATED_NOOP;\n\n        host.registerAppWithKey(configWord, \"\");\n    }\n\n    function createFlow(ISuperToken token) external {\n        cfaV1.createFlow(receiver, token, flowRate);\n    }\n\n    // literally ONLY for the revokeFlowOperatorWithFullControlWithCtx test.\n    function authorizeFlowOperatorWithFullControl(ISuperToken token) external {\n        cfaV1.authorizeFlowOperatorWithFullControl(flowOperator, token);\n    }\n\n    function afterAgreementCreated(\n        ISuperToken token,\n        address,\n        bytes32,\n        bytes calldata,\n        bytes calldata,\n        bytes calldata ctx\n    ) external override returns (bytes memory) {\n        bytes memory userData = cfaV1.host.decodeCtx(ctx).userData;\n        (uint8 functionIndex) = abi.decode(userData, (uint8));\n\n        if (functionIndex == uint8(FunctionIndex.CREATE_FLOW))\n            return cfaV1.createFlowWithCtx(ctx, receiver, token, flowRate);\n        else if (functionIndex == uint8(FunctionIndex.UPDATE_FLOW))\n            return cfaV1.updateFlowWithCtx(ctx, receiver, token, updatedFlowRate);\n        else if (functionIndex == uint8(FunctionIndex.DELETE_FLOW))\n            return cfaV1.deleteFlowWithCtx(ctx, address(this), receiver, token);\n        else if (functionIndex == uint8(FunctionIndex.CREATE_FLOW_BY_OPERATOR))\n            return cfaV1.createFlowByOperatorWithCtx(ctx, sender, receiver, token, flowRate);\n        else if (functionIndex == uint8(FunctionIndex.UPDATE_FLOW_BY_OPERATOR))\n            return cfaV1.updateFlowByOperatorWithCtx(ctx, sender, receiver, token, updatedFlowRate);\n        else if (functionIndex == uint8(FunctionIndex.DELETE_FLOW_BY_OPERATOR))\n            return cfaV1.deleteFlowByOperatorWithCtx(ctx, sender, receiver, token);\n        else if (functionIndex == uint8(FunctionIndex.UPDATE_FLOW_OPERATOR_PERMISSIONS))\n            return cfaV1.updateFlowOperatorPermissionsWithCtx(\n                ctx,\n                flowOperator,\n                token,\n                permissions,\n                flowRate\n            );\n        else if (functionIndex == uint8(FunctionIndex.AUTHORIZE_FLOW_OPERATOR_WITH_FULL_CONTROL))\n            return cfaV1.authorizeFlowOperatorWithFullControlWithCtx(ctx, flowOperator, token);\n        else if (functionIndex == uint8(FunctionIndex.REVOKE_FLOW_OPERATOR_WITH_FULL_CONTROL))\n            return cfaV1.revokeFlowOperatorWithFullControlWithCtx(ctx, flowOperator, token);\n        else revert(\"invalid function index\");\n    }\n}\n",
  "sourcePath": "/Users/alo/protocol-monorepo/packages/ethereum-contracts/contracts/mocks/CFALibraryMock.sol",
  "compiler": {
    "name": "solc",
    "version": "0.8.14+commit.80d49f37.Emscripten.clang"
  },
  "schemaVersion": "3.4.8",
  "updatedAt": "2022-07-15T06:25:31.482Z",
  "devdoc": {
    "kind": "dev",
    "methods": {},
    "version": 1
  },
  "userdoc": {
    "kind": "user",
    "methods": {},
    "version": 1
  }
}