{
  "contractName": "ClosingOnUpdateFlowTestApp",
  "abi": [
    {
      "inputs": [
        {
          "internalType": "contract IConstantFlowAgreementV1",
          "name": "cfa",
          "type": "address"
        },
        {
          "internalType": "contract ISuperfluid",
          "name": "superfluid",
          "type": "address"
        }
      ],
      "stateMutability": "nonpayable",
      "type": "constructor"
    },
    {
      "inputs": [
        {
          "internalType": "contract ISuperToken",
          "name": "",
          "type": "address"
        },
        {
          "internalType": "address",
          "name": "",
          "type": "address"
        },
        {
          "internalType": "bytes32",
          "name": "",
          "type": "bytes32"
        },
        {
          "internalType": "bytes",
          "name": "",
          "type": "bytes"
        },
        {
          "internalType": "bytes",
          "name": "",
          "type": "bytes"
        },
        {
          "internalType": "bytes",
          "name": "",
          "type": "bytes"
        }
      ],
      "name": "afterAgreementCreated",
      "outputs": [
        {
          "internalType": "bytes",
          "name": "",
          "type": "bytes"
        }
      ],
      "stateMutability": "nonpayable",
      "type": "function"
    },
    {
      "inputs": [
        {
          "internalType": "contract ISuperToken",
          "name": "",
          "type": "address"
        },
        {
          "internalType": "address",
          "name": "",
          "type": "address"
        },
        {
          "internalType": "bytes32",
          "name": "",
          "type": "bytes32"
        },
        {
          "internalType": "bytes",
          "name": "",
          "type": "bytes"
        },
        {
          "internalType": "bytes",
          "name": "",
          "type": "bytes"
        },
        {
          "internalType": "bytes",
          "name": "",
          "type": "bytes"
        }
      ],
      "name": "afterAgreementTerminated",
      "outputs": [
        {
          "internalType": "bytes",
          "name": "",
          "type": "bytes"
        }
      ],
      "stateMutability": "nonpayable",
      "type": "function"
    },
    {
      "inputs": [
        {
          "internalType": "contract ISuperToken",
          "name": "",
          "type": "address"
        },
        {
          "internalType": "address",
          "name": "",
          "type": "address"
        },
        {
          "internalType": "bytes32",
          "name": "",
          "type": "bytes32"
        },
        {
          "internalType": "bytes",
          "name": "",
          "type": "bytes"
        },
        {
          "internalType": "bytes",
          "name": "",
          "type": "bytes"
        }
      ],
      "name": "beforeAgreementCreated",
      "outputs": [
        {
          "internalType": "bytes",
          "name": "",
          "type": "bytes"
        }
      ],
      "stateMutability": "view",
      "type": "function"
    },
    {
      "inputs": [
        {
          "internalType": "contract ISuperToken",
          "name": "",
          "type": "address"
        },
        {
          "internalType": "address",
          "name": "",
          "type": "address"
        },
        {
          "internalType": "bytes32",
          "name": "",
          "type": "bytes32"
        },
        {
          "internalType": "bytes",
          "name": "",
          "type": "bytes"
        },
        {
          "internalType": "bytes",
          "name": "",
          "type": "bytes"
        }
      ],
      "name": "beforeAgreementTerminated",
      "outputs": [
        {
          "internalType": "bytes",
          "name": "",
          "type": "bytes"
        }
      ],
      "stateMutability": "view",
      "type": "function"
    },
    {
      "inputs": [
        {
          "internalType": "contract ISuperToken",
          "name": "",
          "type": "address"
        },
        {
          "internalType": "address",
          "name": "",
          "type": "address"
        },
        {
          "internalType": "bytes32",
          "name": "",
          "type": "bytes32"
        },
        {
          "internalType": "bytes",
          "name": "",
          "type": "bytes"
        },
        {
          "internalType": "bytes",
          "name": "",
          "type": "bytes"
        }
      ],
      "name": "beforeAgreementUpdated",
      "outputs": [
        {
          "internalType": "bytes",
          "name": "",
          "type": "bytes"
        }
      ],
      "stateMutability": "view",
      "type": "function"
    },
    {
      "inputs": [
        {
          "internalType": "contract ISuperToken",
          "name": "superToken",
          "type": "address"
        },
        {
          "internalType": "address",
          "name": "",
          "type": "address"
        },
        {
          "internalType": "bytes32",
          "name": "",
          "type": "bytes32"
        },
        {
          "internalType": "bytes",
          "name": "",
          "type": "bytes"
        },
        {
          "internalType": "bytes",
          "name": "",
          "type": "bytes"
        },
        {
          "internalType": "bytes",
          "name": "ctx",
          "type": "bytes"
        }
      ],
      "name": "afterAgreementUpdated",
      "outputs": [
        {
          "internalType": "bytes",
          "name": "newCtx",
          "type": "bytes"
        }
      ],
      "stateMutability": "nonpayable",
      "type": "function"
    }
  ],
  "bytecode": "0x608060405234801561001057600080fd5b50604051610c14380380610c1483398101604081905261002f91610117565b6001600160a01b03821661004557610045610151565b6001600160a01b03811661005b5761005b610151565b600080546001600160a01b038085166001600160a01b03199283161790925560018054928416929091168217905560405163bd1c448b60e01b8152643700000001919063bd1c448b906100c590849060040190815260406020820181905260009082015260600190565b600060405180830381600087803b1580156100df57600080fd5b505af11580156100f3573d6000803e3d6000fd5b50505050505050610167565b6001600160a01b038116811461011457600080fd5b50565b6000806040838503121561012a57600080fd5b8251610135816100ff565b6020840151909250610146816100ff565b809150509250929050565b634e487b7160e01b600052600160045260246000fd5b610a9e806101766000396000f3fe608060405234801561001057600080fd5b50600436106100625760003560e01c8063230dbd291461006757806330d9c9151461009057806353c11f99146100a35780635f9e7d77146100b6578063884d1f40146100c9578063d86ed3e5146100dc575b600080fd5b61007a610075366004610564565b6100ef565b604051610087919061068b565b60405180910390f35b61007a61009e3660046106a5565b61030a565b61007a6100b1366004610564565b610372565b61007a6100c43660046106a5565b6103d7565b61007a6100d73660046106a5565b61043e565b61007a6100ea366004610564565b6104a1565b606082828080601f0160208091040260200160405190810160405280939291908181526020018383808284376000920182905250600154604051631fb6491d60e11b815295965090946001600160a01b039091169350633f6c923a925061015d915087908790600401610744565b600060405180830381865afa15801561017a573d6000803e3d6000fd5b505050506040513d6000823e601f3d908101601f191682016040526101a29190810190610874565b9050600160009054906101000a90046001600160a01b03166001600160a01b0316634329d29360008054906101000a90046001600160a01b031660008054906101000a90046001600160a01b03166001600160a01b031663b4b333c68f866060015130600067ffffffffffffffff81111561021f5761021f610773565b6040519080825280601f01601f191660200182016040528015610249576020820181803683370190505b5060405160240161025d949392919061097b565b60408051601f19818403018152918152602080830180516001600160e01b031660e095861b179052815160008152908101918290529286901b6001600160e01b03191690526102b39392509087602482016109af565b6000604051808303816000875af11580156102d2573d6000803e3d6000fd5b505050506040513d6000823e601f3d908101601f191682016040526102fa9190810190610a04565b509b9a5050505050505050505050565b60405162461bcd60e51b815260206004820152602f60248201527f556e737570706f727465642063616c6c6261636b202d204265666f726520416760448201526e1c99595b595b9d0810dc99585d1959608a1b60648201526060906084015b60405180910390fd5b60405162461bcd60e51b815260206004820152603160248201527f556e737570706f727465642063616c6c6261636b202d2041667465722041677260448201527019595b595b9d0815195c9b5a5b985d1959607a1b6064820152606090608401610369565b60405162461bcd60e51b815260206004820152603360248201527f556e737570706f727465642063616c6c6261636b202d20204265666f7265204160448201527219dc99595b595b9d0815195c9b5a5b985d1959606a1b6064820152606090608401610369565b60405162461bcd60e51b815260206004820152602f60248201527f556e737570706f727465642063616c6c6261636b202d204265666f726520416760448201526e1c99595b595b9d081d5c19185d1959608a1b6064820152606090608401610369565b60405162461bcd60e51b815260206004820152602e60248201527f556e737570706f727465642063616c6c6261636b202d2041667465722041677260448201526d19595b595b9d0810dc99585d195960921b6064820152606090608401610369565b6001600160a01b038116811461051857600080fd5b50565b60008083601f84011261052d57600080fd5b50813567ffffffffffffffff81111561054557600080fd5b60208301915083602082850101111561055d57600080fd5b9250929050565b600080600080600080600080600060c08a8c03121561058257600080fd5b893561058d81610503565b985060208a013561059d81610503565b975060408a0135965060608a013567ffffffffffffffff808211156105c157600080fd5b6105cd8d838e0161051b565b909850965060808c01359150808211156105e657600080fd5b6105f28d838e0161051b565b909650945060a08c013591508082111561060b57600080fd5b506106188c828d0161051b565b915080935050809150509295985092959850929598565b60005b8381101561064a578181015183820152602001610632565b83811115610659576000848401525b50505050565b6000815180845261067781602086016020860161062f565b601f01601f19169290920160200192915050565b60208152600061069e602083018461065f565b9392505050565b600080600080600080600060a0888a0312156106c057600080fd5b87356106cb81610503565b965060208801356106db81610503565b955060408801359450606088013567ffffffffffffffff808211156106ff57600080fd5b61070b8b838c0161051b565b909650945060808a013591508082111561072457600080fd5b506107318a828b0161051b565b989b979a50959850939692959293505050565b60208152816020820152818360408301376000818301604090810191909152601f909201601f19160101919050565b634e487b7160e01b600052604160045260246000fd5b604051610160810167ffffffffffffffff811182821017156107ad576107ad610773565b60405290565b805160ff811681146107c457600080fd5b919050565b80516107c481610503565b80516001600160e01b0319811681146107c457600080fd5b600082601f8301126107fd57600080fd5b815167ffffffffffffffff8082111561081857610818610773565b604051601f8301601f19908116603f0116810190828211818310171561084057610840610773565b8160405283815286602085880101111561085957600080fd5b61086a84602083016020890161062f565b9695505050505050565b60006020828403121561088657600080fd5b815167ffffffffffffffff8082111561089e57600080fd5b9083019061016082860312156108b357600080fd5b6108bb610789565b6108c4836107b3565b81526108d2602084016107b3565b6020820152604083015160408201526108ed606084016107c9565b60608201526108fe608084016107d4565b608082015260a08301518281111561091557600080fd5b610921878286016107ec565b60a08301525060c083015160c082015260e083015160e08201526101009150818301518282015261012091506109588284016107c9565b82820152610140915061096c8284016107c9565b91810191909152949350505050565b6001600160a01b03858116825284811660208301528316604082015260806060820181905260009061086a9083018461065f565b6001600160a01b03851681526080602082018190526000906109d39083018661065f565b82810360408401526109e5818661065f565b905082810360608401526109f9818561065f565b979650505050505050565b60008060408385031215610a1757600080fd5b825167ffffffffffffffff80821115610a2f57600080fd5b610a3b868387016107ec565b93506020850151915080821115610a5157600080fd5b50610a5e858286016107ec565b915050925092905056fea2646970667358221220e536807e05ac5c4039de74b723e2d898c0a3e04df64c0ed71001ead8a84d020664736f6c634300080e0033",
  "immutableReferences": {},
  "source": "// SPDX-License-Identifier: AGPLv3\npragma solidity 0.8.14;\n\nimport {\n    ISuperfluid,\n    ISuperToken,\n    SuperAppBase,\n    SuperAppDefinitions\n} from \"../apps/SuperAppBase.sol\";\nimport { IConstantFlowAgreementV1 } from \"../interfaces/agreements/IConstantFlowAgreementV1.sol\";\n\n/**\n * @dev This is a CFA SuperApp that maintains at most one inflow from a sender at any moment.\n *\n * This can test the deposit allowance logic in the deleteFlow as a recipient.\n */\ncontract ExclusiveInflowTestApp is SuperAppBase {\n\n    IConstantFlowAgreementV1 private _cfa;\n    ISuperfluid private _host;\n    address private _currentSender;\n\n    constructor(IConstantFlowAgreementV1 cfa, ISuperfluid superfluid) {\n        assert(address(cfa) != address(0));\n        assert(address(superfluid) != address(0));\n        _cfa = cfa;\n        _host = superfluid;\n\n        uint256 configWord =\n            SuperAppDefinitions.APP_LEVEL_FINAL\n            | SuperAppDefinitions.BEFORE_AGREEMENT_CREATED_NOOP\n            // | SuperAppDefinitions.AFTER_AGREEMENT_CREATED_NOOP\n            | SuperAppDefinitions.BEFORE_AGREEMENT_UPDATED_NOOP\n            | SuperAppDefinitions.AFTER_AGREEMENT_UPDATED_NOOP\n            | SuperAppDefinitions.BEFORE_AGREEMENT_TERMINATED_NOOP\n            // | SuperAppDefinitions.AFTER_AGREEMENT_TERMINATED_NOOP\n            ;\n\n        _host.registerAppWithKey(configWord, \"\");\n    }\n\n    function afterAgreementCreated(\n        ISuperToken superToken,\n        address /*agreementClass*/,\n        bytes32 /*agreementId*/,\n        bytes calldata /*agreementData*/,\n        bytes calldata /*cbdata*/,\n        bytes calldata ctx\n    )\n        external override\n        returns(bytes memory newCtx)\n    {\n        newCtx = ctx;\n        ISuperfluid.Context memory context = _host.decodeCtx(ctx);\n        if (_currentSender != address(0)) {\n            bytes memory callData = abi.encodeCall(\n                _cfa.deleteFlow,\n                (\n                    superToken,\n                    _currentSender,\n                    address(this),\n                    new bytes(0)\n                )\n            );\n            (newCtx, ) = _host.callAgreementWithContext(\n                _cfa,\n                callData,\n                new bytes(0), // user data\n                newCtx\n            );\n        }\n        _currentSender = context.msgSender;\n    }\n\n    function afterAgreementTerminated(\n        ISuperToken /*superToken*/,\n        address /*agreementClass*/,\n        bytes32 /*agreementId*/,\n        bytes calldata agreementData,\n        bytes calldata /*cbdata*/,\n        bytes calldata ctx\n    )\n        external override\n        returns(bytes memory newCtx)\n    {\n        (address flowSender, ) = abi.decode(agreementData, (address, address));\n        assert(flowSender == _currentSender);\n        _currentSender = address(0);\n        return ctx;\n    }\n\n}\n\n/**\n * @dev This is CFA SuperApp that refuses to close its outflow by its receiver.\n *\n * This test the logic that the app re-opens the same stream in the termination callback.\n * In reality, the app would have to fund the app with enough tokens to not to be jailed due\n * to low balance.\n */\ncontract NonClosableOutflowTestApp is SuperAppBase {\n\n    IConstantFlowAgreementV1 private _cfa;\n    ISuperfluid private _host;\n    address private _receiver;\n    int96 private _flowRate;\n\n    constructor(IConstantFlowAgreementV1 cfa, ISuperfluid superfluid) {\n        assert(address(cfa) != address(0));\n        assert(address(superfluid) != address(0));\n        _cfa = cfa;\n        _host = superfluid;\n\n        uint256 configWord =\n            SuperAppDefinitions.APP_LEVEL_FINAL\n            | SuperAppDefinitions.BEFORE_AGREEMENT_CREATED_NOOP\n            | SuperAppDefinitions.AFTER_AGREEMENT_CREATED_NOOP\n            | SuperAppDefinitions.BEFORE_AGREEMENT_UPDATED_NOOP\n            | SuperAppDefinitions.AFTER_AGREEMENT_UPDATED_NOOP\n            | SuperAppDefinitions.BEFORE_AGREEMENT_TERMINATED_NOOP\n            // | SuperAppDefinitions.AFTER_AGREEMENT_TERMINATED_NOOP\n            ;\n\n        _host.registerAppWithKey(configWord, \"\");\n    }\n\n    function setupOutflow(\n        ISuperToken superToken,\n        address receiver,\n        int96 flowRate\n    )\n        external\n    {\n        _receiver = receiver;\n        _flowRate = flowRate;\n        _host.callAgreement(\n            _cfa,\n            abi.encodeCall(\n                _cfa.createFlow,\n                (\n                    superToken,\n                    receiver,\n                    flowRate,\n                    new bytes(0)\n                )\n            ),\n            new bytes(0) // user data\n        );\n    }\n\n    function afterAgreementTerminated(\n        ISuperToken superToken,\n        address /*agreementClass*/,\n        bytes32 /*agreementId*/,\n        bytes calldata agreementData,\n        bytes calldata /*cbdata*/,\n        bytes calldata ctx\n    )\n        external override\n        returns(bytes memory newCtx)\n    {\n        (address flowSender, address flowReceiver) = abi.decode(agreementData, (address, address));\n        assert(flowSender == address(this));\n        assert(flowReceiver == _receiver);\n\n        // moved out to avoid stack too deep error\n        bytes memory callData = abi.encodeCall(\n            _cfa.createFlow,\n            (\n                superToken,\n                flowReceiver,\n                _flowRate,\n                new bytes(0)\n            )\n        );\n\n        // recreate the flow\n        (newCtx, ) = _host.callAgreementWithContext(\n            _cfa,\n            callData,\n            \"0x\",\n            ctx\n        );\n    }\n}\n\n/**\n * @dev This is CFA SuperApp that refuses to accept any opening flow without reverting them.\n */\ncontract SelfDeletingFlowTestApp is SuperAppBase {\n\n    IConstantFlowAgreementV1 private _cfa;\n    ISuperfluid private _host;\n    address private _receiver;\n    int96 private _flowRate;\n\n    constructor(IConstantFlowAgreementV1 cfa, ISuperfluid superfluid) {\n        assert(address(cfa) != address(0));\n        assert(address(superfluid) != address(0));\n        _cfa = cfa;\n        _host = superfluid;\n\n        uint256 configWord =\n            SuperAppDefinitions.APP_LEVEL_FINAL\n            | SuperAppDefinitions.BEFORE_AGREEMENT_CREATED_NOOP\n            // | SuperAppDefinitions.AFTER_AGREEMENT_CREATED_NOOP\n            | SuperAppDefinitions.BEFORE_AGREEMENT_UPDATED_NOOP\n            | SuperAppDefinitions.AFTER_AGREEMENT_UPDATED_NOOP\n            | SuperAppDefinitions.BEFORE_AGREEMENT_TERMINATED_NOOP\n            | SuperAppDefinitions.AFTER_AGREEMENT_TERMINATED_NOOP\n            ;\n\n        _host.registerAppWithKey(configWord, \"\");\n    }\n\n    function afterAgreementCreated(\n        ISuperToken superToken,\n        address /*agreementClass*/,\n        bytes32 /*agreementId*/,\n        bytes calldata /*agreementData*/,\n        bytes calldata /*cbdata*/,\n        bytes calldata ctx\n    )\n        external override\n        returns(bytes memory newCtx)\n    {\n        newCtx = ctx;\n        ISuperfluid.Context memory context = _host.decodeCtx(ctx);\n        (newCtx, ) = _host.callAgreementWithContext(\n            _cfa,\n            abi.encodeCall(\n                _cfa.deleteFlow,\n                (\n                    superToken,\n                    context.msgSender,\n                    address(this),\n                    new bytes(0)\n                )\n            ),\n            new bytes(0), // user data\n            newCtx\n        );\n    }\n}\n\n/**\n * @dev This is CFA SuperApp that closes an updated flow.\n */\ncontract ClosingOnUpdateFlowTestApp is SuperAppBase {\n\n    IConstantFlowAgreementV1 private _cfa;\n    ISuperfluid private _host;\n\n    constructor(IConstantFlowAgreementV1 cfa, ISuperfluid superfluid) {\n        assert(address(cfa) != address(0));\n        assert(address(superfluid) != address(0));\n        _cfa = cfa;\n        _host = superfluid;\n\n        uint256 configWord =\n            SuperAppDefinitions.APP_LEVEL_FINAL\n            | SuperAppDefinitions.BEFORE_AGREEMENT_CREATED_NOOP\n            | SuperAppDefinitions.AFTER_AGREEMENT_CREATED_NOOP\n            | SuperAppDefinitions.BEFORE_AGREEMENT_UPDATED_NOOP\n            // | SuperAppDefinitions.AFTER_AGREEMENT_UPDATED_NOOP\n            | SuperAppDefinitions.BEFORE_AGREEMENT_TERMINATED_NOOP\n            | SuperAppDefinitions.AFTER_AGREEMENT_TERMINATED_NOOP\n            ;\n\n        _host.registerAppWithKey(configWord, \"\");\n    }\n\n    function afterAgreementUpdated(\n        ISuperToken superToken,\n        address /*agreementClass*/,\n        bytes32 /*agreementId*/,\n        bytes calldata /*agreementData*/,\n        bytes calldata /*cbdata*/,\n        bytes calldata ctx\n    )\n        external override\n        returns(bytes memory newCtx)\n    {\n        newCtx = ctx;\n        ISuperfluid.Context memory context = _host.decodeCtx(ctx);\n        (newCtx, ) = _host.callAgreementWithContext(\n            _cfa,\n            abi.encodeCall(\n                _cfa.deleteFlow,\n                (\n                    superToken,\n                    context.msgSender,\n                    address(this),\n                    new bytes(0)\n                )\n            ),\n            new bytes(0), // user data\n            newCtx\n        );\n    }\n}\n\ncontract FlowExchangeTestApp is SuperAppBase {\n\n    IConstantFlowAgreementV1 private _cfa;\n    ISuperfluid private _host;\n    ISuperToken private _targetToken;\n\n    constructor(\n        IConstantFlowAgreementV1 cfa,\n        ISuperfluid superfluid,\n        ISuperToken targetToken) {\n        assert(address(cfa) != address(0));\n        assert(address(superfluid) != address(0));\n        _cfa = cfa;\n        _host = superfluid;\n        _targetToken = targetToken;\n\n        uint256 configWord =\n            SuperAppDefinitions.APP_LEVEL_FINAL\n            | SuperAppDefinitions.BEFORE_AGREEMENT_CREATED_NOOP\n            // | SuperAppDefinitions.AFTER_AGREEMENT_CREATED_NOOP\n            | SuperAppDefinitions.BEFORE_AGREEMENT_UPDATED_NOOP\n            | SuperAppDefinitions.AFTER_AGREEMENT_UPDATED_NOOP\n            | SuperAppDefinitions.BEFORE_AGREEMENT_TERMINATED_NOOP\n            | SuperAppDefinitions.AFTER_AGREEMENT_TERMINATED_NOOP\n            ;\n\n        _host.registerAppWithKey(configWord, \"\");\n    }\n\n    function afterAgreementCreated(\n        ISuperToken superToken,\n        address /*agreementClass*/,\n        bytes32 /*agreementId*/,\n        bytes calldata /*agreementData*/,\n        bytes calldata /*cbdata*/,\n        bytes calldata ctx\n    )\n        external override\n        returns(bytes memory newCtx)\n    {\n        newCtx = ctx;\n        ISuperfluid.Context memory context = _host.decodeCtx(ctx);\n        (,int96 flowRate,,) = _cfa.getFlow(superToken, context.msgSender, address(this));\n        (newCtx, ) = _host.callAgreementWithContext(\n            _cfa,\n            abi.encodeCall(\n                _cfa.createFlow,\n                (\n                    _targetToken,\n                    context.msgSender,\n                    flowRate,\n                    new bytes(0)\n                )\n            ),\n            new bytes(0), // user data\n            newCtx\n        );\n    }\n}\n",
  "sourcePath": "/Users/alo/protocol-monorepo/packages/ethereum-contracts/contracts/mocks/CFAAppMocks.sol",
  "compiler": {
    "name": "solc",
    "version": "0.8.14+commit.80d49f37.Emscripten.clang"
  },
  "schemaVersion": "3.4.8",
  "updatedAt": "2022-07-15T06:25:31.445Z",
  "devdoc": {
    "details": "This is CFA SuperApp that closes an updated flow.",
    "kind": "dev",
    "methods": {},
    "version": 1
  },
  "userdoc": {
    "kind": "user",
    "methods": {},
    "version": 1
  }
}