{
  "contractName": "CustomSuperTokenProxyMock",
  "abi": [
    {
      "stateMutability": "payable",
      "type": "fallback"
    },
    {
      "inputs": [
        {
          "internalType": "address",
          "name": "initialAddress",
          "type": "address"
        }
      ],
      "name": "initializeProxy",
      "outputs": [],
      "stateMutability": "nonpayable",
      "type": "function"
    },
    {
      "stateMutability": "payable",
      "type": "receive"
    },
    {
      "inputs": [],
      "name": "getFirstCustomTokenStorageSlot",
      "outputs": [
        {
          "internalType": "uint256",
          "name": "slot",
          "type": "uint256"
        }
      ],
      "stateMutability": "pure",
      "type": "function"
    },
    {
      "inputs": [
        {
          "internalType": "address",
          "name": "to",
          "type": "address"
        },
        {
          "internalType": "uint256",
          "name": "amount",
          "type": "uint256"
        },
        {
          "internalType": "bytes",
          "name": "userData",
          "type": "bytes"
        }
      ],
      "name": "selfMint",
      "outputs": [],
      "stateMutability": "nonpayable",
      "type": "function"
    },
    {
      "inputs": [
        {
          "internalType": "address",
          "name": "to",
          "type": "address"
        },
        {
          "internalType": "uint256",
          "name": "amount",
          "type": "uint256"
        },
        {
          "internalType": "bytes",
          "name": "userData",
          "type": "bytes"
        }
      ],
      "name": "delegatecallSelfMint",
      "outputs": [],
      "stateMutability": "nonpayable",
      "type": "function"
    },
    {
      "inputs": [
        {
          "internalType": "address",
          "name": "to",
          "type": "address"
        },
        {
          "internalType": "uint256",
          "name": "amount",
          "type": "uint256"
        },
        {
          "internalType": "bytes",
          "name": "userData",
          "type": "bytes"
        }
      ],
      "name": "callSelfBurn",
      "outputs": [],
      "stateMutability": "nonpayable",
      "type": "function"
    },
    {
      "inputs": [
        {
          "internalType": "address",
          "name": "holder",
          "type": "address"
        },
        {
          "internalType": "address",
          "name": "spender",
          "type": "address"
        },
        {
          "internalType": "address",
          "name": "recipient",
          "type": "address"
        },
        {
          "internalType": "uint256",
          "name": "amount",
          "type": "uint256"
        }
      ],
      "name": "callSelfTransferFrom",
      "outputs": [],
      "stateMutability": "nonpayable",
      "type": "function"
    },
    {
      "inputs": [
        {
          "internalType": "address",
          "name": "account",
          "type": "address"
        },
        {
          "internalType": "address",
          "name": "spender",
          "type": "address"
        },
        {
          "internalType": "uint256",
          "name": "amount",
          "type": "uint256"
        }
      ],
      "name": "callSelfApproveFor",
      "outputs": [],
      "stateMutability": "nonpayable",
      "type": "function"
    }
  ],
  "bytecode": "0x608060405234801561001057600080fd5b50610760806100206000396000f3fe6080604052600436106100745760003560e01c80634c6491d21161004e5780634c6491d2146100ec5780637549c15f1461010c578063c68d42831461012c578063e27c15861461014c57610083565b80633c5441aa1461008b57806347399a7f146100ab5780634a0687ef146100cc57610083565b366100835761008161016c565b005b61008161016c565b34801561009757600080fd5b506100816100a636600461050b565b61017e565b3480156100b757600080fd5b50602060405190815260200160405180910390f35b3480156100d857600080fd5b506100816100e73660046105d6565b61024a565b3480156100f857600080fd5b506100816101073660046105f8565b610350565b34801561011857600080fd5b5061008161012736600461050b565b6103c6565b34801561013857600080fd5b5061008161014736600461050b565b610424565b34801561015857600080fd5b50610081610167366004610643565b61044b565b61017c610177610486565b6104b5565b565b6000610188610486565b90506000816001600160a01b0316306001600160a01b031663c68d42838787876040516024016101ba939291906106af565b60408051601f198184030181529181526020820180516001600160e01b031660e09490941b9390931790925290516101f292506106f8565b600060405180830381855af49150503d806000811461022d576040519150601f19603f3d011682016040523d82523d6000602084013e610232565b606091505b505090508061024357610243610714565b5050505050565b6001600160a01b0381166102a55760405162461bcd60e51b815260206004820152601760248201527f5555505350726f78793a207a65726f206164647265737300000000000000000060448201526064015b60405180910390fd5b60006102cf7f360894a13ba1a3210667c828492db98dca3e2076cc3735a920a3ca505d382bbc5490565b6001600160a01b0316146103255760405162461bcd60e51b815260206004820152601e60248201527f5555505350726f78793a20616c726561647920696e697469616c697a65640000604482015260640161029c565b61034d817f360894a13ba1a3210667c828492db98dca3e2076cc3735a920a3ca505d382bbc55565b50565b6040516320db835f60e11b81526001600160a01b0380861660048301528085166024830152831660448201526064810182905230906341b706be90608401600060405180830381600087803b1580156103a857600080fd5b505af11580156103bc573d6000803e3d6000fd5b5050505050505050565b604051639d87674160e01b81523090639d876741906103ed908690869086906004016106af565b600060405180830381600087803b15801561040757600080fd5b505af115801561041b573d6000803e3d6000fd5b50505050505050565b604051631e2a20d560e11b81523090633c5441aa906103ed908690869086906004016106af565b60405163335097db60e11b81526001600160a01b038085166004830152831660248201526044810182905230906366a12fb6906064016103ed565b60006104b07f360894a13ba1a3210667c828492db98dca3e2076cc3735a920a3ca505d382bbc5490565b905090565b3660008037600080366000845af43d6000803e8080156104d4573d6000f35b3d6000fd5b80356001600160a01b03811681146104f057600080fd5b919050565b634e487b7160e01b600052604160045260246000fd5b60008060006060848603121561052057600080fd5b610529846104d9565b925060208401359150604084013567ffffffffffffffff8082111561054d57600080fd5b818601915086601f83011261056157600080fd5b813581811115610573576105736104f5565b604051601f8201601f19908116603f0116810190838211818310171561059b5761059b6104f5565b816040528281528960208487010111156105b457600080fd5b8260208601602083013760006020848301015280955050505050509250925092565b6000602082840312156105e857600080fd5b6105f1826104d9565b9392505050565b6000806000806080858703121561060e57600080fd5b610617856104d9565b9350610625602086016104d9565b9250610633604086016104d9565b9396929550929360600135925050565b60008060006060848603121561065857600080fd5b610661846104d9565b925061066f602085016104d9565b9150604084013590509250925092565b60005b8381101561069a578181015183820152602001610682565b838111156106a9576000848401525b50505050565b60018060a01b038416815282602082015260606040820152600082518060608401526106e281608085016020870161067f565b601f01601f191691909101608001949350505050565b6000825161070a81846020870161067f565b9190910192915050565b634e487b7160e01b600052600160045260246000fdfea2646970667358221220b0d9534e3f4f0462b08d3f25210c25139821692524323e120e1263b171c79c8564736f6c634300080e0033",
  "immutableReferences": {},
  "source": "// SPDX-License-Identifier: AGPLv3\npragma solidity 0.8.14;\n\nimport {\n    CustomSuperTokenBase,\n    ISuperToken\n}\nfrom \"../interfaces/superfluid/CustomSuperTokenBase.sol\";\nimport { UUPSProxy } from \"../upgradability/UUPSProxy.sol\";\n\nabstract contract CustomSuperTokenBaseMock is CustomSuperTokenBase, UUPSProxy {\n    function getFirstCustomTokenStorageSlot() external pure virtual returns (uint slot);\n\n    function callSelfBurn(\n        address to,\n        uint256 amount,\n        bytes memory userData\n    ) external virtual;\n\n    function callSelfTransferFrom(\n        address holder,\n        address spender,\n        address recipient,\n        uint256 amount\n    ) external virtual;\n\n    function callSelfApproveFor(\n        address account,\n        address spender,\n        uint256 amount\n    ) external virtual;\n}\n\n// solhint-disable-next-line no-empty-blocks\nabstract contract CustomSuperTokenMock is CustomSuperTokenBaseMock, ISuperToken {}\n\ncontract CustomSuperTokenProxyMock is CustomSuperTokenBaseMock {\n\n    uint256 private _firstStorageSlot;\n\n    function getFirstCustomTokenStorageSlot() external pure override returns (uint slot) {\n        assembly { slot:= _firstStorageSlot.slot }\n    }\n\n    // this function overrides the default ISuperToken.selfMint behavior\n    function selfMint(\n        address to,\n        uint256 amount,\n        bytes memory userData\n    ) external {\n        // this makes msg.sender to self\n        this.delegatecallSelfMint(to, amount, userData);\n    }\n\n    // this function uses delegatecall to avoid calling shadow mint defined in this contract\n    function delegatecallSelfMint(\n        address to,\n        uint256 amount,\n        bytes memory userData\n    ) external {\n        address logic = _implementation();\n        // solhint-disable-next-line avoid-low-level-calls\n        (bool success, ) = logic.delegatecall(\n            abi.encodeCall(\n                ISuperToken(address(this)).selfMint,\n                (\n                    to,\n                    amount,\n                    userData\n                )\n            )\n        );\n        assert(success);\n    }\n\n    // this function self calls burn\n    function callSelfBurn(\n        address to,\n        uint256 amount,\n        bytes memory userData\n    ) external override {\n        // this makes msg.sender to self\n        ISuperToken(address(this)).selfBurn(to, amount, userData);\n    }\n\n    // this function self calls transferFrom\n    function callSelfTransferFrom(\n        address holder,\n        address spender,\n        address recipient,\n        uint256 amount\n    ) external override {\n        ISuperToken(address(this)).selfTransferFrom(holder, spender, recipient, amount);\n    }\n\n    // this function self calls approveFor\n    function callSelfApproveFor(\n        address account,\n        address spender,\n        uint256 amount\n    ) external override {\n        ISuperToken(address(this)).selfApproveFor(account, spender, amount);\n    }\n}\n",
  "sourcePath": "/Users/alo/protocol-monorepo/packages/ethereum-contracts/contracts/mocks/CustomSuperTokenMock.sol",
  "compiler": {
    "name": "solc",
    "version": "0.8.14+commit.80d49f37.Emscripten.clang"
  },
  "schemaVersion": "3.4.8",
  "updatedAt": "2022-07-15T06:25:31.495Z",
  "devdoc": {
    "kind": "dev",
    "methods": {
      "initializeProxy(address)": {
        "details": "Proxy initialization function.      This should only be called once and it is permission-less.",
        "params": {
          "initialAddress": "Initial logic contract code address to be used."
        }
      }
    },
    "version": 1
  },
  "userdoc": {
    "kind": "user",
    "methods": {},
    "version": 1
  }
}