{
  "contractName": "ForwarderMock",
  "abi": [
    {
      "inputs": [
        {
          "components": [
            {
              "internalType": "address",
              "name": "from",
              "type": "address"
            },
            {
              "internalType": "address",
              "name": "to",
              "type": "address"
            },
            {
              "internalType": "uint256",
              "name": "value",
              "type": "uint256"
            },
            {
              "internalType": "uint256",
              "name": "gas",
              "type": "uint256"
            },
            {
              "internalType": "bytes",
              "name": "data",
              "type": "bytes"
            }
          ],
          "internalType": "struct ForwarderMock.ForwardRequest",
          "name": "req",
          "type": "tuple"
        }
      ],
      "name": "execute",
      "outputs": [],
      "stateMutability": "payable",
      "type": "function"
    }
  ],
  "bytecode": "0x608060405234801561001057600080fd5b50610604806100206000396000f3fe60806040526004361061001e5760003560e01c8063ffb26a7b14610023575b600080fd5b6100366100313660046103b8565b610038565b005b600060607f0984d5efd47d99151ae1be065a709e56c602102f24c1abc4008eb3f815a8d21783602001516001600160a01b031663486ff0cd6040518163ffffffff1660e01b8152600401600060405180830381865afa15801561009f573d6000803e3d6000fd5b505050506040513d6000823e601f3d908101601f191682016040526100c791908101906104d1565b6040516020016100d79190610548565b60405160208183030381529060405280519060200120146101505760405162461bcd60e51b815260206004820152602860248201527f756e6b6e6f776e204952656c6179526563697069656e742e76657273696f6e526044820152671958da5c1a595b9d60c21b60648201526084015b60405180910390fd5b82602001516001600160a01b03168360600151846040015185608001518660000151604051602001610183929190610564565b60408051601f198184030181529082905261019d91610548565b600060405180830381858888f193505050503d80600081146101db576040519150601f19603f3d011682016040523d82523d6000602084013e6101e0565b606091505b509092509050816101f4576101f4816101f9565b505050565b60048151101561024b5760405162461bcd60e51b815260206004820152601a60248201527f43616c6c5574696c733a207461726765742072657665727428290000000000006044820152606401610147565b602081015163b1b7848f60e01b6001600160e01b03198216016102fb5760408051808201825260208082527f43616c6c5574696c733a207461726765742070616e69636b65643a2030785f5f90820190815260248501517f43616c6c5574696c733a207461726765742070616e69636b65643a2030780000600482811c600f908116603090810160081b918516011791909117909252925162461bcd60e51b81529192916101479184910161059b565b81518060208401fd5b634e487b7160e01b600052604160045260246000fd5b60405160a0810167ffffffffffffffff8111828210171561033d5761033d610304565b60405290565b604051601f8201601f1916810167ffffffffffffffff8111828210171561036c5761036c610304565b604052919050565b80356001600160a01b038116811461038b57600080fd5b919050565b600067ffffffffffffffff8211156103aa576103aa610304565b50601f01601f191660200190565b600060208083850312156103cb57600080fd5b823567ffffffffffffffff808211156103e357600080fd5b9084019060a082870312156103f757600080fd5b6103ff61031a565b61040883610374565b8152610415848401610374565b84820152604083013560408201526060830135606082015260808301358281111561043f57600080fd5b80840193505086601f84011261045457600080fd5b8235915061046961046483610390565b610343565b828152878584860101111561047d57600080fd5b82858501868301376000858483010152806080830152508094505050505092915050565b60005b838110156104bc5781810151838201526020016104a4565b838111156104cb576000848401525b50505050565b6000602082840312156104e357600080fd5b815167ffffffffffffffff8111156104fa57600080fd5b8201601f8101841361050b57600080fd5b805161051961046482610390565b81815285602083850101111561052e57600080fd5b61053f8260208301602086016104a1565b95945050505050565b6000825161055a8184602087016104a1565b9190910192915050565b600083516105768184602088016104a1565b60609390931b6bffffffffffffffffffffffff19169190920190815260140192915050565b60208152600082518060208401526105ba8160408501602087016104a1565b601f01601f1916919091016040019291505056fea2646970667358221220a606be3facac6b5e60f90fa9282dc19d5111893e39e732d459a3286235e87b8c64736f6c634300080e0033",
  "immutableReferences": {},
  "source": "// SPDX-License-Identifier: AGPLv3\npragma solidity 0.8.14;\n\nimport { CallUtils } from \"../libs/CallUtils.sol\";\nimport { IRelayRecipient } from \"../interfaces/utils/IRelayRecipient.sol\";\n\n/**\n * @dev A test forwarder that can impersonate any account needed.\n *\n * It is obviously not secure for any production use.\n */\ncontract ForwarderMock {\n\n    // mocked forward request, we don't emulate the signature flow here\n    struct ForwardRequest {\n        address from;\n        address to;\n        uint256 value;\n        uint256 gas;\n        bytes data;\n    }\n\n    function execute(\n        ForwardRequest memory req\n    )\n        external payable\n    {\n        bool success;\n        bytes memory ret;\n        require(\n            keccak256(abi.encodePacked(IRelayRecipient(req.to).versionRecipient())) ==\n            keccak256(\"v1\"),\n            \"unknown IRelayRecipient.versionRecipient\");\n        // solhint-disable-next-line avoid-low-level-calls\n        (success, ret) = req.to.call{gas : req.gas, value : req.value}(abi.encodePacked(req.data, req.from));\n        if (!success) CallUtils.revertFromReturnedData(ret);\n    }\n\n}\n",
  "sourcePath": "/Users/alo/protocol-monorepo/packages/ethereum-contracts/contracts/mocks/ForwarderMock.sol",
  "compiler": {
    "name": "solc",
    "version": "0.8.14+commit.80d49f37.Emscripten.clang"
  },
  "schemaVersion": "3.4.8",
  "updatedAt": "2022-07-15T06:25:31.509Z",
  "devdoc": {
    "details": "A test forwarder that can impersonate any account needed. It is obviously not secure for any production use.",
    "kind": "dev",
    "methods": {},
    "version": 1
  },
  "userdoc": {
    "kind": "user",
    "methods": {},
    "version": 1
  }
}