{
  "contractName": "InstantDistributionAgreementV1",
  "abi": [
    {
      "inputs": [
        {
          "internalType": "contract ISuperfluid",
          "name": "host",
          "type": "address"
        }
      ],
      "stateMutability": "nonpayable",
      "type": "constructor"
    },
    {
      "anonymous": false,
      "inputs": [
        {
          "indexed": false,
          "internalType": "bytes32",
          "name": "uuid",
          "type": "bytes32"
        },
        {
          "indexed": false,
          "internalType": "address",
          "name": "codeAddress",
          "type": "address"
        }
      ],
      "name": "CodeUpdated",
      "type": "event"
    },
    {
      "anonymous": false,
      "inputs": [
        {
          "indexed": true,
          "internalType": "contract ISuperfluidToken",
          "name": "token",
          "type": "address"
        },
        {
          "indexed": true,
          "internalType": "address",
          "name": "publisher",
          "type": "address"
        },
        {
          "indexed": true,
          "internalType": "uint32",
          "name": "indexId",
          "type": "uint32"
        },
        {
          "indexed": false,
          "internalType": "bytes",
          "name": "userData",
          "type": "bytes"
        }
      ],
      "name": "IndexCreated",
      "type": "event"
    },
    {
      "anonymous": false,
      "inputs": [
        {
          "indexed": true,
          "internalType": "contract ISuperfluidToken",
          "name": "token",
          "type": "address"
        },
        {
          "indexed": true,
          "internalType": "address",
          "name": "publisher",
          "type": "address"
        },
        {
          "indexed": true,
          "internalType": "uint32",
          "name": "indexId",
          "type": "uint32"
        },
        {
          "indexed": false,
          "internalType": "address",
          "name": "subscriber",
          "type": "address"
        },
        {
          "indexed": false,
          "internalType": "uint256",
          "name": "amount",
          "type": "uint256"
        }
      ],
      "name": "IndexDistributionClaimed",
      "type": "event"
    },
    {
      "anonymous": false,
      "inputs": [
        {
          "indexed": true,
          "internalType": "contract ISuperfluidToken",
          "name": "token",
          "type": "address"
        },
        {
          "indexed": true,
          "internalType": "address",
          "name": "publisher",
          "type": "address"
        },
        {
          "indexed": true,
          "internalType": "uint32",
          "name": "indexId",
          "type": "uint32"
        },
        {
          "indexed": false,
          "internalType": "address",
          "name": "subscriber",
          "type": "address"
        },
        {
          "indexed": false,
          "internalType": "bytes",
          "name": "userData",
          "type": "bytes"
        }
      ],
      "name": "IndexSubscribed",
      "type": "event"
    },
    {
      "anonymous": false,
      "inputs": [
        {
          "indexed": true,
          "internalType": "contract ISuperfluidToken",
          "name": "token",
          "type": "address"
        },
        {
          "indexed": true,
          "internalType": "address",
          "name": "publisher",
          "type": "address"
        },
        {
          "indexed": true,
          "internalType": "uint32",
          "name": "indexId",
          "type": "uint32"
        },
        {
          "indexed": false,
          "internalType": "address",
          "name": "subscriber",
          "type": "address"
        },
        {
          "indexed": false,
          "internalType": "uint128",
          "name": "units",
          "type": "uint128"
        },
        {
          "indexed": false,
          "internalType": "bytes",
          "name": "userData",
          "type": "bytes"
        }
      ],
      "name": "IndexUnitsUpdated",
      "type": "event"
    },
    {
      "anonymous": false,
      "inputs": [
        {
          "indexed": true,
          "internalType": "contract ISuperfluidToken",
          "name": "token",
          "type": "address"
        },
        {
          "indexed": true,
          "internalType": "address",
          "name": "publisher",
          "type": "address"
        },
        {
          "indexed": true,
          "internalType": "uint32",
          "name": "indexId",
          "type": "uint32"
        },
        {
          "indexed": false,
          "internalType": "address",
          "name": "subscriber",
          "type": "address"
        },
        {
          "indexed": false,
          "internalType": "bytes",
          "name": "userData",
          "type": "bytes"
        }
      ],
      "name": "IndexUnsubscribed",
      "type": "event"
    },
    {
      "anonymous": false,
      "inputs": [
        {
          "indexed": true,
          "internalType": "contract ISuperfluidToken",
          "name": "token",
          "type": "address"
        },
        {
          "indexed": true,
          "internalType": "address",
          "name": "publisher",
          "type": "address"
        },
        {
          "indexed": true,
          "internalType": "uint32",
          "name": "indexId",
          "type": "uint32"
        },
        {
          "indexed": false,
          "internalType": "uint128",
          "name": "oldIndexValue",
          "type": "uint128"
        },
        {
          "indexed": false,
          "internalType": "uint128",
          "name": "newIndexValue",
          "type": "uint128"
        },
        {
          "indexed": false,
          "internalType": "uint128",
          "name": "totalUnitsPending",
          "type": "uint128"
        },
        {
          "indexed": false,
          "internalType": "uint128",
          "name": "totalUnitsApproved",
          "type": "uint128"
        },
        {
          "indexed": false,
          "internalType": "bytes",
          "name": "userData",
          "type": "bytes"
        }
      ],
      "name": "IndexUpdated",
      "type": "event"
    },
    {
      "anonymous": false,
      "inputs": [
        {
          "indexed": false,
          "internalType": "uint8",
          "name": "version",
          "type": "uint8"
        }
      ],
      "name": "Initialized",
      "type": "event"
    },
    {
      "anonymous": false,
      "inputs": [
        {
          "indexed": true,
          "internalType": "contract ISuperfluidToken",
          "name": "token",
          "type": "address"
        },
        {
          "indexed": true,
          "internalType": "address",
          "name": "subscriber",
          "type": "address"
        },
        {
          "indexed": false,
          "internalType": "address",
          "name": "publisher",
          "type": "address"
        },
        {
          "indexed": false,
          "internalType": "uint32",
          "name": "indexId",
          "type": "uint32"
        },
        {
          "indexed": false,
          "internalType": "bytes",
          "name": "userData",
          "type": "bytes"
        }
      ],
      "name": "SubscriptionApproved",
      "type": "event"
    },
    {
      "anonymous": false,
      "inputs": [
        {
          "indexed": true,
          "internalType": "contract ISuperfluidToken",
          "name": "token",
          "type": "address"
        },
        {
          "indexed": true,
          "internalType": "address",
          "name": "subscriber",
          "type": "address"
        },
        {
          "indexed": false,
          "internalType": "address",
          "name": "publisher",
          "type": "address"
        },
        {
          "indexed": false,
          "internalType": "uint32",
          "name": "indexId",
          "type": "uint32"
        },
        {
          "indexed": false,
          "internalType": "uint256",
          "name": "amount",
          "type": "uint256"
        }
      ],
      "name": "SubscriptionDistributionClaimed",
      "type": "event"
    },
    {
      "anonymous": false,
      "inputs": [
        {
          "indexed": true,
          "internalType": "contract ISuperfluidToken",
          "name": "token",
          "type": "address"
        },
        {
          "indexed": true,
          "internalType": "address",
          "name": "subscriber",
          "type": "address"
        },
        {
          "indexed": false,
          "internalType": "address",
          "name": "publisher",
          "type": "address"
        },
        {
          "indexed": false,
          "internalType": "uint32",
          "name": "indexId",
          "type": "uint32"
        },
        {
          "indexed": false,
          "internalType": "bytes",
          "name": "userData",
          "type": "bytes"
        }
      ],
      "name": "SubscriptionRevoked",
      "type": "event"
    },
    {
      "anonymous": false,
      "inputs": [
        {
          "indexed": true,
          "internalType": "contract ISuperfluidToken",
          "name": "token",
          "type": "address"
        },
        {
          "indexed": true,
          "internalType": "address",
          "name": "subscriber",
          "type": "address"
        },
        {
          "indexed": false,
          "internalType": "address",
          "name": "publisher",
          "type": "address"
        },
        {
          "indexed": false,
          "internalType": "uint32",
          "name": "indexId",
          "type": "uint32"
        },
        {
          "indexed": false,
          "internalType": "uint128",
          "name": "units",
          "type": "uint128"
        },
        {
          "indexed": false,
          "internalType": "bytes",
          "name": "userData",
          "type": "bytes"
        }
      ],
      "name": "SubscriptionUnitsUpdated",
      "type": "event"
    },
    {
      "inputs": [],
      "name": "SLOTS_BITMAP_LIBRARY_ADDRESS",
      "outputs": [
        {
          "internalType": "address",
          "name": "",
          "type": "address"
        }
      ],
      "stateMutability": "view",
      "type": "function"
    },
    {
      "inputs": [],
      "name": "agreementType",
      "outputs": [
        {
          "internalType": "bytes32",
          "name": "",
          "type": "bytes32"
        }
      ],
      "stateMutability": "pure",
      "type": "function"
    },
    {
      "inputs": [],
      "name": "getCodeAddress",
      "outputs": [
        {
          "internalType": "address",
          "name": "codeAddress",
          "type": "address"
        }
      ],
      "stateMutability": "view",
      "type": "function"
    },
    {
      "inputs": [],
      "name": "proxiableUUID",
      "outputs": [
        {
          "internalType": "bytes32",
          "name": "",
          "type": "bytes32"
        }
      ],
      "stateMutability": "view",
      "type": "function"
    },
    {
      "inputs": [
        {
          "internalType": "address",
          "name": "newAddress",
          "type": "address"
        }
      ],
      "name": "updateCode",
      "outputs": [],
      "stateMutability": "nonpayable",
      "type": "function"
    },
    {
      "inputs": [
        {
          "internalType": "contract ISuperfluidToken",
          "name": "token",
          "type": "address"
        },
        {
          "internalType": "address",
          "name": "account",
          "type": "address"
        },
        {
          "internalType": "uint256",
          "name": "",
          "type": "uint256"
        }
      ],
      "name": "realtimeBalanceOf",
      "outputs": [
        {
          "internalType": "int256",
          "name": "dynamicBalance",
          "type": "int256"
        },
        {
          "internalType": "uint256",
          "name": "deposit",
          "type": "uint256"
        },
        {
          "internalType": "uint256",
          "name": "owedDeposit",
          "type": "uint256"
        }
      ],
      "stateMutability": "view",
      "type": "function"
    },
    {
      "inputs": [
        {
          "internalType": "contract ISuperfluidToken",
          "name": "token",
          "type": "address"
        },
        {
          "internalType": "uint32",
          "name": "indexId",
          "type": "uint32"
        },
        {
          "internalType": "bytes",
          "name": "ctx",
          "type": "bytes"
        }
      ],
      "name": "createIndex",
      "outputs": [
        {
          "internalType": "bytes",
          "name": "newCtx",
          "type": "bytes"
        }
      ],
      "stateMutability": "nonpayable",
      "type": "function"
    },
    {
      "inputs": [
        {
          "internalType": "contract ISuperfluidToken",
          "name": "token",
          "type": "address"
        },
        {
          "internalType": "address",
          "name": "publisher",
          "type": "address"
        },
        {
          "internalType": "uint32",
          "name": "indexId",
          "type": "uint32"
        }
      ],
      "name": "getIndex",
      "outputs": [
        {
          "internalType": "bool",
          "name": "exist",
          "type": "bool"
        },
        {
          "internalType": "uint128",
          "name": "indexValue",
          "type": "uint128"
        },
        {
          "internalType": "uint128",
          "name": "totalUnitsApproved",
          "type": "uint128"
        },
        {
          "internalType": "uint128",
          "name": "totalUnitsPending",
          "type": "uint128"
        }
      ],
      "stateMutability": "view",
      "type": "function"
    },
    {
      "inputs": [
        {
          "internalType": "contract ISuperfluidToken",
          "name": "token",
          "type": "address"
        },
        {
          "internalType": "address",
          "name": "publisher",
          "type": "address"
        },
        {
          "internalType": "uint32",
          "name": "indexId",
          "type": "uint32"
        },
        {
          "internalType": "uint256",
          "name": "amount",
          "type": "uint256"
        }
      ],
      "name": "calculateDistribution",
      "outputs": [
        {
          "internalType": "uint256",
          "name": "actualAmount",
          "type": "uint256"
        },
        {
          "internalType": "uint128",
          "name": "newIndexValue",
          "type": "uint128"
        }
      ],
      "stateMutability": "view",
      "type": "function"
    },
    {
      "inputs": [
        {
          "internalType": "contract ISuperfluidToken",
          "name": "token",
          "type": "address"
        },
        {
          "internalType": "uint32",
          "name": "indexId",
          "type": "uint32"
        },
        {
          "internalType": "uint128",
          "name": "indexValue",
          "type": "uint128"
        },
        {
          "internalType": "bytes",
          "name": "ctx",
          "type": "bytes"
        }
      ],
      "name": "updateIndex",
      "outputs": [
        {
          "internalType": "bytes",
          "name": "newCtx",
          "type": "bytes"
        }
      ],
      "stateMutability": "nonpayable",
      "type": "function"
    },
    {
      "inputs": [
        {
          "internalType": "contract ISuperfluidToken",
          "name": "token",
          "type": "address"
        },
        {
          "internalType": "uint32",
          "name": "indexId",
          "type": "uint32"
        },
        {
          "internalType": "uint256",
          "name": "amount",
          "type": "uint256"
        },
        {
          "internalType": "bytes",
          "name": "ctx",
          "type": "bytes"
        }
      ],
      "name": "distribute",
      "outputs": [
        {
          "internalType": "bytes",
          "name": "newCtx",
          "type": "bytes"
        }
      ],
      "stateMutability": "nonpayable",
      "type": "function"
    },
    {
      "inputs": [
        {
          "internalType": "contract ISuperfluidToken",
          "name": "token",
          "type": "address"
        },
        {
          "internalType": "address",
          "name": "publisher",
          "type": "address"
        },
        {
          "internalType": "uint32",
          "name": "indexId",
          "type": "uint32"
        },
        {
          "internalType": "bytes",
          "name": "ctx",
          "type": "bytes"
        }
      ],
      "name": "approveSubscription",
      "outputs": [
        {
          "internalType": "bytes",
          "name": "newCtx",
          "type": "bytes"
        }
      ],
      "stateMutability": "nonpayable",
      "type": "function"
    },
    {
      "inputs": [
        {
          "internalType": "contract ISuperfluidToken",
          "name": "token",
          "type": "address"
        },
        {
          "internalType": "address",
          "name": "publisher",
          "type": "address"
        },
        {
          "internalType": "uint32",
          "name": "indexId",
          "type": "uint32"
        },
        {
          "internalType": "bytes",
          "name": "ctx",
          "type": "bytes"
        }
      ],
      "name": "revokeSubscription",
      "outputs": [
        {
          "internalType": "bytes",
          "name": "newCtx",
          "type": "bytes"
        }
      ],
      "stateMutability": "nonpayable",
      "type": "function"
    },
    {
      "inputs": [
        {
          "internalType": "contract ISuperfluidToken",
          "name": "token",
          "type": "address"
        },
        {
          "internalType": "uint32",
          "name": "indexId",
          "type": "uint32"
        },
        {
          "internalType": "address",
          "name": "subscriber",
          "type": "address"
        },
        {
          "internalType": "uint128",
          "name": "units",
          "type": "uint128"
        },
        {
          "internalType": "bytes",
          "name": "ctx",
          "type": "bytes"
        }
      ],
      "name": "updateSubscription",
      "outputs": [
        {
          "internalType": "bytes",
          "name": "newCtx",
          "type": "bytes"
        }
      ],
      "stateMutability": "nonpayable",
      "type": "function"
    },
    {
      "inputs": [
        {
          "internalType": "contract ISuperfluidToken",
          "name": "token",
          "type": "address"
        },
        {
          "internalType": "address",
          "name": "publisher",
          "type": "address"
        },
        {
          "internalType": "uint32",
          "name": "indexId",
          "type": "uint32"
        },
        {
          "internalType": "address",
          "name": "subscriber",
          "type": "address"
        }
      ],
      "name": "getSubscription",
      "outputs": [
        {
          "internalType": "bool",
          "name": "exist",
          "type": "bool"
        },
        {
          "internalType": "bool",
          "name": "approved",
          "type": "bool"
        },
        {
          "internalType": "uint128",
          "name": "units",
          "type": "uint128"
        },
        {
          "internalType": "uint256",
          "name": "pendingDistribution",
          "type": "uint256"
        }
      ],
      "stateMutability": "view",
      "type": "function"
    },
    {
      "inputs": [
        {
          "internalType": "contract ISuperfluidToken",
          "name": "token",
          "type": "address"
        },
        {
          "internalType": "bytes32",
          "name": "agreementId",
          "type": "bytes32"
        }
      ],
      "name": "getSubscriptionByID",
      "outputs": [
        {
          "internalType": "address",
          "name": "publisher",
          "type": "address"
        },
        {
          "internalType": "uint32",
          "name": "indexId",
          "type": "uint32"
        },
        {
          "internalType": "bool",
          "name": "approved",
          "type": "bool"
        },
        {
          "internalType": "uint128",
          "name": "units",
          "type": "uint128"
        },
        {
          "internalType": "uint256",
          "name": "pendingDistribution",
          "type": "uint256"
        }
      ],
      "stateMutability": "view",
      "type": "function"
    },
    {
      "inputs": [
        {
          "internalType": "contract ISuperfluidToken",
          "name": "token",
          "type": "address"
        },
        {
          "internalType": "address",
          "name": "subscriber",
          "type": "address"
        }
      ],
      "name": "listSubscriptions",
      "outputs": [
        {
          "internalType": "address[]",
          "name": "publishers",
          "type": "address[]"
        },
        {
          "internalType": "uint32[]",
          "name": "indexIds",
          "type": "uint32[]"
        },
        {
          "internalType": "uint128[]",
          "name": "unitsList",
          "type": "uint128[]"
        }
      ],
      "stateMutability": "view",
      "type": "function"
    },
    {
      "inputs": [
        {
          "internalType": "contract ISuperfluidToken",
          "name": "token",
          "type": "address"
        },
        {
          "internalType": "address",
          "name": "publisher",
          "type": "address"
        },
        {
          "internalType": "uint32",
          "name": "indexId",
          "type": "uint32"
        },
        {
          "internalType": "address",
          "name": "subscriber",
          "type": "address"
        },
        {
          "internalType": "bytes",
          "name": "ctx",
          "type": "bytes"
        }
      ],
      "name": "deleteSubscription",
      "outputs": [
        {
          "internalType": "bytes",
          "name": "newCtx",
          "type": "bytes"
        }
      ],
      "stateMutability": "nonpayable",
      "type": "function"
    },
    {
      "inputs": [
        {
          "internalType": "contract ISuperfluidToken",
          "name": "token",
          "type": "address"
        },
        {
          "internalType": "address",
          "name": "publisher",
          "type": "address"
        },
        {
          "internalType": "uint32",
          "name": "indexId",
          "type": "uint32"
        },
        {
          "internalType": "address",
          "name": "subscriber",
          "type": "address"
        },
        {
          "internalType": "bytes",
          "name": "ctx",
          "type": "bytes"
        }
      ],
      "name": "claim",
      "outputs": [
        {
          "internalType": "bytes",
          "name": "newCtx",
          "type": "bytes"
        }
      ],
      "stateMutability": "nonpayable",
      "type": "function"
    }
  ],
  "bytecode": "0x60a06040523480156200001157600080fd5b506040516200543c3803806200543c833981016040819052620000349162000046565b6001600160a01b031660805262000078565b6000602082840312156200005957600080fd5b81516001600160a01b03811681146200007157600080fd5b9392505050565b6080516153a86200009460003960006110e201526153a86000f3fe608060405234801561001057600080fd5b50600436106101215760003560e01c80637730599e116100ad578063acf4a6c211610071578063acf4a6c21461030d578063b6dacdb814610320578063b96731c214610342578063cd7245c514610355578063d787840a146103ad57600080fd5b80637730599e146102635780637fbc763914610289578063899baaec1461029c5780639b2e48bc146102cc578063acafa1b8146102fa57600080fd5b806346951954116100f457806346951954146101d957806350d75d25146101ee57806352d1902d146101f65780635b5340511461020c5780636041ae961461025057600080fd5b8063232d2b581461012657806323fc23f31461014f5780632e5e74c6146101935780633fd4176a146101a6575b600080fd5b6101396101343660046143f8565b6103c0565b60405161014691906144df565b60405180910390f35b61016261015d3660046144f2565b610ae2565b6040805194151585526001600160801b03938416602086015291831691840191909152166060820152608001610146565b6101396101a136600461453d565b610b4d565b6101c173__SlotsBitmapLibrary____________________81565b6040516001600160a01b039091168152602001610146565b6101ec6101e7366004614591565b6110d7565b005b6101c161115b565b6101fe61118a565b604051908152602001610146565b61021f61021a3660046145ae565b6111ee565b6040516101469493929190931515845291151560208401526001600160801b03166040830152606082015260800190565b61013961025e36600461460a565b6112c4565b7f8aedc3b5d4bf031e11a7e2940f7251c005698405d58e02e1c247fed3b1b3a6746101fe565b610139610297366004614685565b611718565b6102af6102aa3660046146c6565b611828565b604080519283526001600160801b03909116602083015201610146565b6102df6102da366004614717565b6118cc565b60408051938452602084019290925290820152606001610146565b61013961030836600461453d565b611ad7565b61013961031b36600461460a565b611f01565b61033361032e366004614758565b6124e1565b604051610146939291906147d5565b610139610350366004614872565b612736565b6103686103633660046148c7565b612836565b604080516001600160a01b03909616865263ffffffff9094166020860152911515928401929092526001600160801b039091166060830152608082015260a001610146565b6101396103bb3660046148f3565b612958565b60606001600160a01b0385166103f15760405162461bcd60e51b81526004016103e890614957565b60405180910390fd5b6103f9614250565b6104016142ae565b60606000806104468c89898080601f016020809104026020016040519081016040528093929190818152602001838380828437600092019190915250612b3892505050565b90508060a00151925080606001519150506104658b828b8d6000612d03565b60808901521515602080890191909152606088019190915260408088018390529287528251908101909252600082526104a1918d918c91612e15565b925086868080601f0160208091040260200160405190810160405280939291908181526020018383808284376000920191909152505050602086015191965050156105055764040000000060c08401526104fb8386612e43565b60a0850152610520565b64010000000060c084015261051a8386612e43565b60a08501525b8360200151801561053d575060808401515163ffffffff90811614155b156106185761058c8460800151608001516001600160801b0316896001600160801b03168660600151602001516001600160801b031661057d919061499a565b61058791906149b2565b612ffa565b6060850180516001600160801b03909216602090920191909152845190516001600160a01b038d169163a1b2bf8b916105c490613067565b6040518363ffffffff1660e01b81526004016105e19291906149f9565b600060405180830381600087803b1580156105fb57600080fd5b505af115801561060f573d6000803e3d6000fd5b505050506107ff565b8360200151156106955761065d8460800151608001516001600160801b0316896001600160801b03168660600151604001516001600160801b031661057d919061499a565b6060850180516001600160801b03909216604090920191909152845190516001600160a01b038d169163a1b2bf8b916105c490613067565b6040518060a0016040528063ffffffff80168152602001826001600160a01b031681526020018b63ffffffff1681526020018560600151600001516001600160801b03168152602001896001600160801b031681525084608001819052508a6001600160a01b03166312a6a3f885604001516107148760800151613105565b6040518363ffffffff1660e01b81526004016107319291906149f9565b600060405180830381600087803b15801561074b57600080fd5b505af115801561075f573d6000803e3d6000fd5b50505050878460600151604001516107779190614a12565b6060850180516001600160801b03909216604090920191909152845190516001600160a01b038d169163a1b2bf8b916107af90613067565b6040518363ffffffff1660e01b81526004016107cc9291906149f9565b600060405180830381600087803b1580156107e657600080fd5b505af11580156107fa573d6000803e3d6000fd5b505050505b60008460800151608001516001600160801b031685608001516060015186606001516000015161082f9190614a3d565b6001600160801b03166108429190614a65565b905063ffffffff801685608001516000015163ffffffff16036108db576108728c8361086d84614aea565b6131ac565b6001600160a01b038c1663cf97256d8361088b84614aea565b6040518363ffffffff1660e01b81526004016108a8929190614b06565b600060405180830381600087803b1580156108c257600080fd5b505af11580156108d6573d6000803e3d6000fd5b505050505b60405163cf97256d60e01b81526001600160a01b038d169063cf97256d90610909908d908590600401614b06565b600060405180830381600087803b15801561092357600080fd5b505af1158015610937573d6000803e3d6000fd5b505050508460200151156109dd5760608086015151608080880180516001600160801b039384169401939093528251918c16910152604086015190516001600160a01b038e169163a1b2bf8b9161098d90613105565b6040518363ffffffff1660e01b81526004016109aa9291906149f9565b600060405180830381600087803b1580156109c457600080fd5b505af11580156109d8573d6000803e3d6000fd5b505050505b846020015115610a0c5764080000000060c085015260a0850151610a03908590886132fa565b9650610a2c9050565b64020000000060c085015260a0850151610a28908590886132fa565b9650505b8a63ffffffff16826001600160a01b03168d6001600160a01b03167f0115987243fd19d615b5ea62a80372a06a2b37fec378b148ee7a507c5c4c0a398d8d88604051610a7a93929190614b1f565b60405180910390a4896001600160a01b03168c6001600160a01b03167fe0707ac7efb8b59c22189af8d004ed17dc9e4379e71b9066119b62c182524977848e8d88604051610acb9493929190614b5b565b60405180910390a350505050509695505050505050565b600080600080610b0b604080516060810182526000808252602082018190529181019190915290565b6000610b17888861356d565b9050610b2389826135d4565b90965091508515610b4257815160208301516040840151919650945092505b505093509350935093565b6060610b57614250565b610b5f6142ae565b600060606000610ba58c89898080601f016020809104026020016040519081016040528093929190818152602001838380828437600092019190915250612b3892505050565b606081015160a0909101519093509150506001600160a01b038816610bdc5760405162461bcd60e51b81526004016103e890614957565b896001600160a01b0316826001600160a01b031614610c325760405162461bcd60e51b81526020600482015260126024820152711251104e881157d393d517d0531313d5d15160721b60448201526064016103e8565b610c408b8b8a8c6001612d03565b6080890152506060870152604080870182905291865281516020810190925260008252610c70918d918b91612e15565b925086868080601f0160208091040260200160405190810160405280939291908181526020018383808284376000920191909152505064100000000060c087015250909550610cc190508386612e43565b60a08501526080808501519081015160609182015191860151516000926001600160801b0390921691610cf391614a3d565b6001600160801b0316610d069190614a65565b60808601515190915063ffffffff90811614610d5357846080015160800151856060015160200151610d389190614a3d565b60608601516001600160801b03909116602090910152610d86565b846080015160800151856060015160400151610d6f9190614a3d565b60608601516001600160801b039091166040909101525b8b6001600160a01b031663a1b2bf8b8660000151610da78860600151613067565b6040518363ffffffff1660e01b8152600401610dc49291906149f9565b600060405180830381600087803b158015610dde57600080fd5b505af1158015610df2573d6000803e3d6000fd5b5050505060808501515163ffffffff90811614610e1c57610e1c8c8a8760800151600001516136e8565b60808501515163ffffffff1663fffffffe1901610eaa57610e418c8c61086d84614aea565b6001600160a01b038c1663cf97256d8c610e5a84614aea565b6040518363ffffffff1660e01b8152600401610e77929190614b06565b600060405180830381600087803b158015610e9157600080fd5b505af1158015610ea5573d6000803e3d6000fd5b505050505b6040858101519051632704839760e01b81526004810191909152600260248201526001600160a01b038d1690632704839790604401600060405180830381600087803b158015610ef957600080fd5b505af1158015610f0d573d6000803e3d6000fd5b505060405163cf97256d60e01b81526001600160a01b038f16925063cf97256d9150610f3f908c908590600401614b06565b600060405180830381600087803b158015610f5957600080fd5b505af1158015610f6d573d6000803e3d6000fd5b505064200000000060c0870152505060a0850151610f8d908590886132fa565b9050809650508963ffffffff168b6001600160a01b03168d6001600160a01b03167fe1f8e9cd8061e5b251769965bda6ca9ef1674bc6541fb9131039fa53f024d1428c86604051610fdf929190614ba4565b60405180910390a4886001600160a01b03168c6001600160a01b03167f9e02127550b99adc8cc6ee332a36f31338facdbc396cebefce9a047247cd04558d8d8660405161102e93929190614bc8565b60405180910390a38963ffffffff168b6001600160a01b03168d6001600160a01b03167f0115987243fd19d615b5ea62a80372a06a2b37fec378b148ee7a507c5c4c0a398c60008760405161108593929190614b1f565b60405180910390a4886001600160a01b03168c6001600160a01b03167fe0707ac7efb8b59c22189af8d004ed17dc9e4379e71b9066119b62c1825249778d8d600087604051610acb9493929190614b5b565b336001600160a01b037f0000000000000000000000000000000000000000000000000000000000000000161461114f5760405162461bcd60e51b815260206004820152601960248201527f6f6e6c7920686f73742063616e2075706461746520636f64650000000000000060448201526064016103e8565b61115881613773565b50565b60006111857f360894a13ba1a3210667c828492db98dca3e2076cc3735a920a3ca505d382bbc5490565b905090565b6000306001600160a01b0316637730599e6040518163ffffffff1660e01b8152600401602060405180830381865afa1580156111ca573d6000803e3d6000fd5b505050506040513d601f19601f820116820180604052508101906111859190614bf8565b60008060008060008061121a604080516060810182526000808252602082018190529181019190915290565b6112226142e9565b6112308c8c8b8d6000612d03565b909b509296509094509250905087611259576000806000809750975097509750505050506112b9565b8051608082015163ffffffff9182169091141597509550866112af5780608001516001600160801b0316816060015183600001516112979190614a3d565b6001600160801b03166112aa9190614c11565b6112b2565b60005b9450505050505b945094509450949050565b60606112ce614250565b6112d66142ae565b60006060600061131c8b89898080601f016020809104026020016040519081016040528093929190818152602001838380828437600092019190915250612b3892505050565b9050806060015192508060a0015191505061133b8a8a848b6001612d03565b6080890181905260608901929092525060408701919091529085525163ffffffff1663fffffffe19016113b05760405162461bcd60e51b815260206004820152601860248201527f4944413a20455f535542535f4e4f545f415050524f564544000000000000000060448201526064016103e8565b6113cf8a8a866040015160405180602001604052806000815250612e15565b925086868080601f0160208091040260200160405190810160405280939291908181526020018383808284376000920191909152505064100000000060c08701525090955061142090508386612e43565b60a08501526080808501519081015160609182015191860151516000926001600160801b039092169161145291614a3d565b6001600160801b03166114659190614a65565b90508460800151608001518560600151602001516114839190614a3d565b6060860180516001600160801b0390921660209092019190915260808087015101519051604001516114b59190614a12565b6060860180516001600160801b03909216604090920191909152855190516001600160a01b038d169163a1b2bf8b916114ed90613067565b6040518363ffffffff1660e01b815260040161150a9291906149f9565b600060405180830381600087803b15801561152457600080fd5b505af1158015611538573d6000803e3d6000fd5b5050505061154f8b848760800151600001516136e8565b606080860151516080870180516001600160801b039092169190920152805163ffffffff9052604086015190516001600160a01b038d169163a1b2bf8b9161159690613105565b6040518363ffffffff1660e01b81526004016115b39291906149f9565b600060405180830381600087803b1580156115cd57600080fd5b505af11580156115e1573d6000803e3d6000fd5b505060405163cf97256d60e01b81526001600160a01b038e16925063cf97256d91506116139086908590600401614b06565b600060405180830381600087803b15801561162d57600080fd5b505af1158015611641573d6000803e3d6000fd5b505064200000000060c0870152505060a0850151611661908590886132fa565b9050809650508863ffffffff168a6001600160a01b03168c6001600160a01b03167fe1f8e9cd8061e5b251769965bda6ca9ef1674bc6541fb9131039fa53f024d14286866040516116b3929190614ba4565b60405180910390a4826001600160a01b03168b6001600160a01b03167f9e02127550b99adc8cc6ee332a36f31338facdbc396cebefce9a047247cd04558c8c8660405161170293929190614bc8565b60405180910390a3505050505095945050505050565b6060600061175c8785858080601f016020809104026020016040519081016040528093929190818152602001838380828437600092019190915250612b3892505050565b60608101519091506000806117728a848b613981565b9150915080600001516001600160801b0316886001600160801b031610156117d05760405162461bcd60e51b81526020600482015260116024820152704944413a20455f494e4445585f47524f5760781b60448201526064016103e8565b6117e38a848b85858d8a60a001516139df565b86868080601f016020809104026020016040519081016040528093929190818152602001838380828437600092019190915250929d9c50505050505050505050505050565b6000806000611837868661356d565b905060008061184689846135d4565b91509150816118675760405162461bcd60e51b81526004016103e890614c30565b60008160400151826020015161187d9190614a12565b6001600160801b031690506000611897610587838a614c59565b83519091506118a7908290614a12565b95506118bc826001600160801b038316614c11565b9650505050505094509492505050565b60008060006060806118de8888613c32565b909250905060005b81518163ffffffff161015611abb5760006118ff6142e9565b600080868563ffffffff168151811061191a5761191a614c7b565b6020026020010151905061194d8d878763ffffffff168151811061194057611940614c7b565b6020026020010151613d25565b90945092508361195f5761195f614c91565b8063ffffffff16836000015163ffffffff161461197e5761197e614c91565b6001600160a01b038d16634b61cc33308e6119a363ffffffff8616600160801b61499a565b60016040518563ffffffff1660e01b81526004016119c49493929190614ca7565b600060405180830381865afa1580156119e1573d6000803e3d6000fd5b505050506040513d6000823e601f3d908101601f19168201604052611a099190810190614dcd565b600081518110611a1b57611a1b614c7b565b6020026020010151915050611a49604080516060810182526000808252602082018190529181019190915290565b611a538d836135d4565b909450905083611a6557611a65614c91565b82608001516001600160801b031683606001518260000151611a879190614a3d565b6001600160801b0316611a9a9190614a65565b611aa4908b614e01565b99505050505080611ab490614e42565b90506118e6565b50611ac68888613e41565b935060009250505093509350939050565b6060611b198784848080601f016020809104026020016040519081016040528093929190818152602001838380828437600092019190915250612b3892505050565b506001600160a01b038416611b405760405162461bcd60e51b81526004016103e890614957565b611b48614250565b611b506142ae565b611b5e8989888a6001612d03565b6080870181905260608701929092525060408501919091529083525163ffffffff90811614611bc65760405162461bcd60e51b81526020600482015260146024820152731251104e881157d4d55094d7d054141493d5915160621b60448201526064016103e8565b60008260800151608001516001600160801b0316836080015160600151846060015160000151611bf69190614a3d565b6001600160801b0316611c099190614c11565b9050611c2a8a8a856040015160405180602001604052806000815250612e15565b915085858080601f0160208091040260200160405190810160405280939291908181526020018383808284376000920191909152509296505082159150611eba90505764040000000060c0830152611c828285612e43565b60a0840152611c958a8a61086d84614aea565b6001600160a01b038a1663cf97256d8a611cae84614aea565b6040518363ffffffff1660e01b8152600401611ccb929190614b06565b600060405180830381600087803b158015611ce557600080fd5b505af1158015611cf9573d6000803e3d6000fd5b50505050606083810151516080850180516001600160801b039092169190920152604084015190516001600160a01b038c169163a1b2bf8b91611d3b90613105565b6040518363ffffffff1660e01b8152600401611d589291906149f9565b600060405180830381600087803b158015611d7257600080fd5b505af1158015611d86573d6000803e3d6000fd5b505060405163cf97256d60e01b81526001600160a01b038d16925063cf97256d9150611db8908a908590600401614b06565b600060405180830381600087803b158015611dd257600080fd5b505af1158015611de6573d6000803e3d6000fd5b505050508763ffffffff16896001600160a01b03168b6001600160a01b03167f467eccd248ef31c8bcef16d94856855799a8783aeef10f3759e43614059a6bb18a85604051611e36929190614b06565b60405180910390a4604080516001600160a01b038b8116825263ffffffff8b166020830152918101839052818916918c16907f48a3d91d4a07e4982b081260e24f922bd33bb965882772d6de19c922c3eabdea9060600160405180910390a364080000000060c083015260a0830151611eb1908390866132fa565b9450611ef49050565b85858080601f0160208091040260200160405190810160405280939291908181526020018383808284376000920191909152509296505050505b5050509695505050505050565b6060611f0b614250565b611f136142ae565b600060606000611f598b89898080601f016020809104026020016040519081016040528093929190818152602001838380828437600092019190915250612b3892505050565b9050806060015192508060a00151915050611f788a8a848b6000612d03565b6080890152158015602089015260608801919091526040870191909152908552611fee5760808401515163ffffffff90811614611fee5760405162461bcd60e51b81526020600482015260146024820152731251104e881157d4d55094d7d054141493d5915160621b60448201526064016103e8565b86868080601f01602080910402602001604051908101604052809392919081815260200183838082843760009201829052506040808a0151815160208101909252918152949950612047948f94508e9350909150612e15565b925083602001516121705764010000000060c08401526120678386612e43565b60a08086019190915260408051918201815260008083526001600160a01b038c16602084015263ffffffff8b1691830191909152606080870151516001600160801b03169083015260808083019190915285015283516120ca908b908490613eea565b60808501805163ffffffff909216909152604085015190516001600160a01b038c16916312a6a3f8916120fc90613105565b6040518363ffffffff1660e01b81526004016121199291906149f9565b600060405180830381600087803b15801561213357600080fd5b505af1158015612147573d6000803e3d6000fd5b505064020000000060c0860152505060a0840151612167908490876132fa565b95506124319050565b64040000000060c08401526121858386612e43565b60a08501526080808501519081015160609182015191860151516000926001600160801b03909216916121b791614a3d565b6001600160801b03166121ca9190614a65565b905084608001516080015185606001516020018181516121ea9190614a12565b6001600160801b0316905250608080860151015160608601516040018051612213908390614a3d565b6001600160801b0316905250845160608601516001600160a01b038d169163a1b2bf8b9161224090613067565b6040518363ffffffff1660e01b815260040161225d9291906149f9565b600060405180830381600087803b15801561227757600080fd5b505af115801561228b573d6000803e3d6000fd5b5050505061229e8b8b8361086d90614aea565b6001600160a01b038b1663cf97256d8b6122b784614aea565b6040518363ffffffff1660e01b81526004016122d4929190614b06565b600060405180830381600087803b1580156122ee57600080fd5b505af1158015612302573d6000803e3d6000fd5b505060405163cf97256d60e01b81526001600160a01b038e16925063cf97256d91506123349086908590600401614b06565b600060405180830381600087803b15801561234e57600080fd5b505af1158015612362573d6000803e3d6000fd5b5050506060808701515160808801516001600160801b0390911691015250845161238f908c908590613eea565b60808601805163ffffffff909216909152604086015190516001600160a01b038d169163a1b2bf8b916123c190613105565b6040518363ffffffff1660e01b81526004016123de9291906149f9565b600060405180830381600087803b1580156123f857600080fd5b505af115801561240c573d6000803e3d6000fd5b505064080000000060c0870152505060a085015161242c908590886132fa565b965050505b8763ffffffff16896001600160a01b03168b6001600160a01b03167f492d2641617cfaf24ac7328f85bc5bdf5113537d78dc7671afa4f49a73f053c2858560405161247d929190614ba4565b60405180910390a4816001600160a01b03168a6001600160a01b03167fc0b8396b655615cdb85fe462a9a1792480816f909cd46d9517a940b386dfbf6b8b8b856040516124cc93929190614bc8565b60405180910390a35050505095945050505050565b60608060608060606124f38787613c32565b909250905060006125026142e9565b82516001600160401b0381111561251b5761251b614cd0565b604051908082528060200260200182016040528015612544578160200160208202803683370190505b50965082516001600160401b0381111561256057612560614cd0565b604051908082528060200260200182016040528015612589578160200160208202803683370190505b50955082516001600160401b038111156125a5576125a5614cd0565b6040519080825280602002602001820160405280156125ce578160200160208202803683370190505b50945060005b83518163ffffffff16101561272a576000858263ffffffff16815181106125fd576125fd614c7b565b602002602001015190506000858363ffffffff168151811061262157612621614c7b565b602002602001015190506126358c82613d25565b90955093508461264757612647614c91565b8163ffffffff16846000015163ffffffff161461266657612666614c91565b83602001518a8463ffffffff168151811061268357612683614c7b565b60200260200101906001600160a01b031690816001600160a01b0316815250508360400151898463ffffffff16815181106126c0576126c0614c7b565b602002602001019063ffffffff16908163ffffffff16815250508360800151888463ffffffff16815181106126f7576126f7614c7b565b60200260200101906001600160801b031690816001600160801b03168152505050508061272390614e42565b90506125d4565b50505050509250925092565b6060600061277a8785858080601f016020809104026020016040519081016040528093929190818152602001838380828437600092019190915250612b3892505050565b60608101519091506000806127908a848b613981565b915091506000816040015182602001516127aa9190614a12565b6001600160801b0316905080156127f05760006127ca610587838c614c59565b90506127ee8c868d87878689600001516127e49190614a12565b8c60a001516139df565b505b87878080601f016020809104026020016040519081016040528093929190818152602001838380828437600092019190915250929e9d5050505050505050505050505050565b6000806000806000806000612864604080516060810182526000808252602082018190529181019190915290565b61286c6142e9565b6128768b8b613d25565b9094509050836128b95760405162461bcd60e51b815260206004820152600e60248201526d4944413a20455f4e4f5f5355425360901b60448201526064016103e8565b80602001519850806040015197506128d1898961356d565b92506128dd8b846135d4565b9094509150836128ef576128ef614c91565b8051608082015163ffffffff9182169091141597509550866129455780608001516001600160801b03168160600151836000015161292d9190614a3d565b6001600160801b03166129409190614c11565b612948565b60005b9450505050509295509295909350565b6060600061299c8685858080601f016020809104026020016040519081016040528093929190818152602001838380828437600092019190915250612b3892505050565b606081015190915060006129b0828861356d565b90506129bc8882613f91565b156129ff5760405162461bcd60e51b81526020600482015260136024820152724944413a20455f494e4445585f45584953545360681b60448201526064016103e8565b876001600160a01b03166312a6a3f882612a50604051806060016040528060006001600160801b0316815260200160006001600160801b0316815260200160006001600160801b0316815250613067565b6040518363ffffffff1660e01b8152600401612a6d9291906149f9565b600060405180830381600087803b158015612a8757600080fd5b505af1158015612a9b573d6000803e3d6000fd5b505050508663ffffffff16826001600160a01b0316896001600160a01b03167f01ab8663165edfb7390d9e5f75d960a66dacf4f01fa9787e3a731c870d0da9218660a00151604051612aed91906144df565b60405180910390a485858080601f016020809104026020016040519081016040528093929190818152602001838380828437600092019190915250929b9a5050505050505050505050565b612b40614317565b336001600160a01b0316836001600160a01b03166320bc44256040518163ffffffff1660e01b8152600401602060405180830381865afa158015612b88573d6000803e3d6000fd5b505050506040513d601f19601f82011682018060405250810190612bac9190614e70565b6001600160a01b031614612bf65760405162461bcd60e51b81526020600482015260116024820152701d5b985d5d1a1bdc9a5e9959081a1bdcdd607a1b60448201526064016103e8565b604051632fd0a1cd60e21b8152339063bf42873490612c199085906004016144df565b602060405180830381865afa158015612c36573d6000803e3d6000fd5b505050506040513d601f19601f82011682018060405250810190612c5a9190614e9d565b612c945760405162461bcd60e51b815260206004820152600b60248201526a0d2dcecc2d8d2c840c6e8f60ab1b60448201526064016103e8565b604051631fb6491d60e11b81523390633f6c923a90612cb79085906004016144df565b600060405180830381865afa158015612cd4573d6000803e3d6000fd5b505050506040513d6000823e601f3d908101601f19168201604052612cfc9190810190614f44565b9392505050565b6040805160608101825260008082526020820181905291810182905281906000612d2b6142e9565b6000612d378a8961356d565b9550612d43898761403d565b9450612d4f8b876135d4565b9450905080612d705760405162461bcd60e51b81526004016103e890614c30565b612d7a8b86613d25565b90935091508615612e075782612dc35760405162461bcd60e51b815260206004820152600e60248201526d4944413a20455f4e4f5f5355425360901b60448201526064016103e8565b896001600160a01b031682602001516001600160a01b031614612de857612de8614c91565b8763ffffffff16826040015163ffffffff1614612e0757612e07614c91565b509550955095509550959050565b612e1d6142ae565b6001600160a01b0394851681529290931660208301526040820152606081019190915290565b6020820151604051633e7d48bd60e21b81526001600160a01b03909116600482015260609060009081908190339063f9f522f490602401606060405180830381865afa158015612e97573d6000803e3d6000fd5b505050506040513d601f19601f82011682018060405250810190612ebb919061504a565b91945092509050828015612ecd575081155b15612ff1576000612ede868861407e565b90508660c001518216600003612fe3576000612efd8860c001516140fc565b88516040808b015160608c015182516000815260208101909352612f2993923092919060448101615086565b60408051601f19818403018152918152602080830180516001600160e01b03166001600160e01b031990951694909417909352918a015160c08b01519251633a020f0160e11b815291935033926374041e0292612f9892918691641000000000919091149088906004016150cb565b6000604051808303816000875af1158015612fb7573d6000803e3d6000fd5b505050506040513d6000823e601f3d908101601f19168201604052612fdf9190810190615114565b9550505b612fee866000614193565b50505b50505092915050565b60006001600160801b038211156130635760405162461bcd60e51b815260206004820152602760248201527f53616665436173743a2076616c756520646f65736e27742066697420696e20316044820152663238206269747360c81b60648201526084016103e8565b5090565b604080516002808252606080830184529260208301908036833701905050905081600001516001600160801b0316600160801b1760001b816000815181106130b1576130b1614c7b565b602002602001018181525050608082604001516001600160801b0316901b82602001516001600160801b03161760001b816001815181106130f4576130f4614c7b565b602002602001018181525050919050565b6040805160028082526060808301845292602083019080368337019050509050816000015163ffffffff166020836040015163ffffffff16901b606084602001516001600160a01b0316901b171760001b8160008151811061316957613169614c7b565b602002602001018181525050608082608001516001600160801b0316901b82606001516001600160801b03161760001b816001815181106130f4576130f4614c7b565b806000036131b957505050565b604051634b61cc3360e01b81526000906001600160a01b03851690634b61cc33906131f4903090879064010000000090600190600401614ca7565b600060405180830381865afa158015613211573d6000803e3d6000fd5b505050506040513d6000823e601f3d908101601f191682016040526132399190810190614dcd565b9050816132628260008151811061325257613252614c7b565b602002602001015160001c6141bb565b61326c9190614e01565b60001b8160008151811061328257613282614c7b565b602090810291909101015260405163048620af60e11b81526001600160a01b0385169063090c415e906132c2908690640100000000908690600401615148565b600060405180830381600087803b1580156132dc57600080fd5b505af11580156132f0573d6000803e3d6000fd5b5050505050505050565b613302614317565b6020840151604051633e7d48bd60e21b81526001600160a01b03909116600482015260609060009081908190339063f9f522f490602401606060405180830381865afa158015613356573d6000803e3d6000fd5b505050506040513d601f19601f8201168201806040525081019061337a919061504a565b8896509194509250905082801561338f575081155b156135625761339e848961407e565b93508760c0015181166000036135505760006133bd8960c001516140fc565b89516040808c015160608d0151825160008152602081019093526133eb9392309291908e906044810161516f565b60408051601f19818403018152918152602080830180516001600160e01b03166001600160e01b031990951694909417909352918b015160c08c0151925163079b42a160e21b81529193503392631e6d0a849261345a9291869164200000000091909114908b906004016150cb565b6000604051808303816000875af1158015613479573d6000803e3d6000fd5b505050506040513d6000823e601f3d908101601f191682016040526134a19190810190615114565b604051631fb6491d60e11b81529095503390633f6c923a906134c79088906004016144df565b600060405180830381865afa1580156134e4573d6000803e3d6000fd5b505050506040513d6000823e601f3d908101601f1916820160405261350c9190810190614f44565b955061354860006135436135238c608001516141bb565b61353e6135338b60e001516141bb565b8b6101000151614225565b61423b565b614225565b610100870152505b61355f86866101000151614193565b93505b505050935093915050565b60405168383ab13634b9b432b960b91b60208201526bffffffffffffffffffffffff19606084901b1660298201526001600160e01b031960e083901b16603d8201526000906041015b60405160208183030381529060405280519060200120905092915050565b60408051606081018252600080825260208201819052918101829052604051636c2d9f2f60e01b815230600482015260248101849052600260448201526000906001600160a01b03861690636c2d9f2f90606401600060405180830381865afa158015613645573d6000803e3d6000fd5b505050506040513d6000823e601f3d908101601f1916820160405261366d9190810190614dcd565b905060008160008151811061368457613684614c7b565b602002602001015160001c90506000826001815181106136a6576136a6614c7b565b602002602001015160001c905060008211945084156136de576001600160801b03808316855281166020850152608081901c60408501525b5050509250929050565b604051631528e57f60e31b81526001600160a01b038085166004830152831660248201526000604482015263ffffffff8216606482015273__SlotsBitmapLibrary____________________9063a9472bf89060840160006040518083038186803b15801561375657600080fd5b505af415801561376a573d6000803e3d6000fd5b50505050505050565b600061379d7f360894a13ba1a3210667c828492db98dca3e2076cc3735a920a3ca505d382bbc5490565b6001600160a01b0316036137f35760405162461bcd60e51b815260206004820152601d60248201527f5555505350726f786961626c653a206e6f742075706772616461626c6500000060448201526064016103e8565b806001600160a01b03166352d1902d6040518163ffffffff1660e01b8152600401602060405180830381865afa158015613831573d6000803e3d6000fd5b505050506040513d601f19601f820116820180604052508101906138559190614bf8565b61385d61118a565b146138b65760405162461bcd60e51b815260206004820152602360248201527f5555505350726f786961626c653a206e6f7420636f6d70617469626c65206c6f60448201526267696360e81b60648201526084016103e8565b6001600160a01b038116300361390e5760405162461bcd60e51b815260206004820152601960248201527f5555505350726f786961626c653a2070726f7879206c6f6f700000000000000060448201526064016103e8565b613936817f360894a13ba1a3210667c828492db98dca3e2076cc3735a920a3ca505d382bbc55565b7fe011bc04c286c344a8fcbb8de77f953da762c3e25d8cdea984147fc4168a5dcc61395f61118a565b604080519182526001600160a01b03841660208301520160405180910390a150565b6040805160608101825260008082526020820181905291810182905260006139a9858561356d565b92506139b586846135d4565b92509050806139d65760405162461bcd60e51b81526004016103e890614c30565b50935093915050565b866001600160a01b031663cf97256d8785602001516001600160801b0316866000015186613a0d9190614a3d565b6001600160801b0316613a1f90614aea565b613a299190614a65565b6040518363ffffffff1660e01b8152600401613a46929190614b06565b600060405180830381600087803b158015613a6057600080fd5b505af1158015613a74573d6000803e3d6000fd5b50505050613aae878785604001516001600160801b0316866000015186613a9b9190614a3d565b6001600160801b031661086d9190614a65565b82516001600160801b03831684526001600160a01b03881663a1b2bf8b86613ad587613067565b6040518363ffffffff1660e01b8152600401613af29291906149f9565b600060405180830381600087803b158015613b0c57600080fd5b505af1158015613b20573d6000803e3d6000fd5b505050508563ffffffff16876001600160a01b0316896001600160a01b03167f81e37f3d9f16cbf29a62d6a1c21d79b23ef29b54124ec44af43a50fffb9304f3848789604001518a6020015189604051613b7e9594939291906151d5565b60405180910390a46040516379359f6f60e01b81526001600160a01b0388811660048301528916906379359f6f90602401602060405180830381865afa158015613bcc573d6000803e3d6000fd5b505050506040513d601f19601f82011682018060405250810190613bf09190614e9d565b156132f05760405162461bcd60e51b81526020600482015260126024820152714944413a20455f4c4f575f42414c414e434560701b60448201526064016103e8565b60608073__SlotsBitmapLibrary____________________6306967a8c85856000600160801b6040518563ffffffff1660e01b8152600401613c779493929190614ca7565b600060405180830381865af4158015613c94573d6000803e3d6000fd5b505050506040513d6000823e601f3d908101601f19168201604052613cbc9190810190615211565b909250905060005b8151811015613d1d57613cf084838381518110613ce357613ce3614c7b565b602002602001015161403d565b828281518110613d0257613d02614c7b565b6020908102919091010152613d16816152d5565b9050613cc4565b509250929050565b6000613d2f6142e9565b604051636c2d9f2f60e01b815230600482015260248101849052600260448201526000906001600160a01b03861690636c2d9f2f90606401600060405180830381865afa158015613d84573d6000803e3d6000fd5b505050506040513d6000823e601f3d908101601f19168201604052613dac9190810190614dcd565b9050600081600081518110613dc357613dc3614c7b565b602002602001015160001c9050600082600181518110613de557613de5614c7b565b602002602001015160001c905060008211945084156136de57606082811c60208087019190915283901c63ffffffff9081166040870152831685526001600160801b03821690850152608081811c908501525050509250929050565b600080836001600160a01b0316634b61cc33308564010000000060016040518563ffffffff1660e01b8152600401613e7c9493929190614ca7565b600060405180830381865afa158015613e99573d6000803e3d6000fd5b505050506040513d6000823e601f3d908101601f19168201604052613ec19190810190614dcd565b905080600081518110613ed657613ed6614c7b565b602002602001015160001c91505092915050565b604051630a32470160e41b81526001600160a01b03808516600483015283166024820152600060448201819052600160801b6064830152608482018390529073__SlotsBitmapLibrary____________________9063a32470109060a401602060405180830381865af4158015613f65573d6000803e3d6000fd5b505050506040513d601f19601f82011682018060405250810190613f8991906152ee565b949350505050565b604051636c2d9f2f60e01b8152306004820152602481018290526002604482015260009081906001600160a01b03851690636c2d9f2f90606401600060405180830381865afa158015613fe8573d6000803e3d6000fd5b505050506040513d6000823e601f3d908101601f191682016040526140109190810190614dcd565b905060008160008151811061402757614027614c7b565b6020908102919091010151151595945050505050565b604080516b39bab139b1b934b83a34b7b760a11b6020820152606084811b6bffffffffffffffffffffffff1916602c830152918101839052600091016135b6565b6020810151608082015160a08301518351604051630768fabb60e41b8152606094339463768fabb0946140b5948a9460040161530b565b6000604051808303816000875af11580156140d4573d6000803e3d6000fd5b505050506040513d6000823e601f3d908101601f19168201604052612cfc9190810190615114565b6000640100000000820361411857506330d9c91560e01b919050565b64040000000082036141325750630221347d60e61b919050565b641000000000820361414c5750635f9e7d7760e01b919050565b6402000000008203614166575063d86ed3e560e01b919050565b6408000000008203614180575063230dbd2960e01b919050565b506353c11f9960e01b919050565b919050565b604051634c4d861f60e11b8152606090339063989b0c3e906140b59086908690600401615350565b60006001600160ff1b038211156130635760405162461bcd60e51b815260206004820152602860248201527f53616665436173743a2076616c756520646f65736e27742066697420696e2061604482015267371034b73a191a9b60c11b60648201526084016103e8565b60008183136142345781612cfc565b5090919050565b600081831361424a5782612cfc565b50919050565b6040805160c0810182526000808252602082018190529181019190915260608101614294604080516060810182526000808252602082018190529181019190915290565b81526020016142a16142e9565b8152602001606081525090565b6040805160e0810182526000808252602082018190529181018290526060808201526080810182905260a0810182905260c081019190915290565b6040805160a08101825260008082526020820181905291810182905260608101829052608081019190915290565b604080516101608101825260008082526020820181905291810182905260608082018390526080820183905260a082015260c0810182905260e081018290526101008101829052610120810182905261014081019190915290565b6001600160a01b038116811461115857600080fd5b63ffffffff8116811461115857600080fd5b80356001600160801b038116811461418e57600080fd5b60008083601f8401126143c257600080fd5b5081356001600160401b038111156143d957600080fd5b6020830191508360208285010111156143f157600080fd5b9250929050565b60008060008060008060a0878903121561441157600080fd5b863561441c81614372565b9550602087013561442c81614387565b9450604087013561443c81614372565b935061444a60608801614399565b925060808701356001600160401b0381111561446557600080fd5b61447189828a016143b0565b979a9699509497509295939492505050565b60005b8381101561449e578181015183820152602001614486565b838111156144ad576000848401525b50505050565b600081518084526144cb816020860160208601614483565b601f01601f19169290920160200192915050565b602081526000612cfc60208301846144b3565b60008060006060848603121561450757600080fd5b833561451281614372565b9250602084013561452281614372565b9150604084013561453281614387565b809150509250925092565b60008060008060008060a0878903121561455657600080fd5b863561456181614372565b9550602087013561457181614372565b9450604087013561458181614387565b9350606087013561444a81614372565b6000602082840312156145a357600080fd5b8135612cfc81614372565b600080600080608085870312156145c457600080fd5b84356145cf81614372565b935060208501356145df81614372565b925060408501356145ef81614387565b915060608501356145ff81614372565b939692955090935050565b60008060008060006080868803121561462257600080fd5b853561462d81614372565b9450602086013561463d81614372565b9350604086013561464d81614387565b925060608601356001600160401b0381111561466857600080fd5b614674888289016143b0565b969995985093965092949392505050565b60008060008060006080868803121561469d57600080fd5b85356146a881614372565b945060208601356146b881614387565b935061464d60408701614399565b600080600080608085870312156146dc57600080fd5b84356146e781614372565b935060208501356146f781614372565b9250604085013561470781614387565b9396929550929360600135925050565b60008060006060848603121561472c57600080fd5b833561473781614372565b9250602084013561474781614372565b929592945050506040919091013590565b6000806040838503121561476b57600080fd5b823561477681614372565b9150602083013561478681614372565b809150509250929050565b600081518084526020808501945080840160005b838110156147ca5781516001600160801b0316875295820195908201906001016147a5565b509495945050505050565b606080825284519082018190526000906020906080840190828801845b828110156148175781516001600160a01b0316845292840192908401906001016147f2565b5050508381038285015285518082528683019183019060005b8181101561485257835163ffffffff1683529284019291840191600101614830565b505084810360408601526148668187614791565b98975050505050505050565b60008060008060006080868803121561488a57600080fd5b853561489581614372565b945060208601356148a581614387565b93506040860135925060608601356001600160401b0381111561466857600080fd5b600080604083850312156148da57600080fd5b82356148e581614372565b946020939093013593505050565b6000806000806060858703121561490957600080fd5b843561491481614372565b9350602085013561492481614387565b925060408501356001600160401b0381111561493f57600080fd5b61494b878288016143b0565b95989497509550505050565b6020808252601390820152724944413a20455f4e4f5f5a45524f5f5355425360681b604082015260600190565b634e487b7160e01b600052601160045260246000fd5b600082198211156149ad576149ad614984565b500190565b6000828210156149c4576149c4614984565b500390565b600081518084526020808501945080840160005b838110156147ca578151875295820195908201906001016149dd565b828152604060208201526000613f8960408301846149c9565b60006001600160801b03808316818516808303821115614a3457614a34614984565b01949350505050565b60006001600160801b0383811690831681811015614a5d57614a5d614984565b039392505050565b60006001600160ff1b0381841382841380821686840486111615614a8b57614a8b614984565b600160ff1b6000871282811687830589121615614aaa57614aaa614984565b60008712925087820587128484161615614ac657614ac6614984565b87850587128184161615614adc57614adc614984565b505050929093029392505050565b6000600160ff1b8201614aff57614aff614984565b5060000390565b6001600160a01b03929092168252602082015260400190565b6001600160a01b03841681526001600160801b0383166020820152606060408201819052600090614b52908301846144b3565b95945050505050565b6001600160a01b038516815263ffffffff841660208201526001600160801b0383166040820152608060608201819052600090614b9a908301846144b3565b9695505050505050565b6001600160a01b0383168152604060208201819052600090613f89908301846144b3565b6001600160a01b038416815263ffffffff83166020820152606060408201819052600090614b52908301846144b3565b600060208284031215614c0a57600080fd5b5051919050565b6000816000190483118215151615614c2b57614c2b614984565b500290565b6020808252600f908201526e092888274408abe9c9ebe929c888ab608b1b604082015260600190565b600082614c7657634e487b7160e01b600052601260045260246000fd5b500490565b634e487b7160e01b600052603260045260246000fd5b634e487b7160e01b600052600160045260246000fd5b6001600160a01b0394851681529290931660208301526040820152606081019190915260800190565b634e487b7160e01b600052604160045260246000fd5b60405161016081016001600160401b0381118282101715614d0957614d09614cd0565b60405290565b604051601f8201601f191681016001600160401b0381118282101715614d3757614d37614cd0565b604052919050565b60006001600160401b03821115614d5857614d58614cd0565b5060051b60200190565b600082601f830112614d7357600080fd5b81516020614d88614d8383614d3f565b614d0f565b82815260059290921b84018101918181019086841115614da757600080fd5b8286015b84811015614dc25780518352918301918301614dab565b509695505050505050565b600060208284031215614ddf57600080fd5b81516001600160401b03811115614df557600080fd5b613f8984828501614d62565b600080821280156001600160ff1b0384900385131615614e2357614e23614984565b600160ff1b8390038412811615614e3c57614e3c614984565b50500190565b600063ffffffff808316818103614e5b57614e5b614984565b6001019392505050565b805161418e81614372565b600060208284031215614e8257600080fd5b8151612cfc81614372565b8051801515811461418e57600080fd5b600060208284031215614eaf57600080fd5b612cfc82614e8d565b805160ff8116811461418e57600080fd5b80516001600160e01b03198116811461418e57600080fd5b600082601f830112614ef257600080fd5b81516001600160401b03811115614f0b57614f0b614cd0565b614f1e601f8201601f1916602001614d0f565b818152846020838601011115614f3357600080fd5b613f89826020830160208701614483565b600060208284031215614f5657600080fd5b81516001600160401b0380821115614f6d57600080fd5b908301906101608286031215614f8257600080fd5b614f8a614ce6565b614f9383614eb8565b8152614fa160208401614eb8565b602082015260408301516040820152614fbc60608401614e65565b6060820152614fcd60808401614ec9565b608082015260a083015182811115614fe457600080fd5b614ff087828601614ee1565b60a08301525060c083015160c082015260e083015160e0820152610100915081830151828201526101209150615027828401614e65565b82820152610140915061503b828401614e65565b91810191909152949350505050565b60008060006060848603121561505f57600080fd5b61506884614e8d565b925061507660208501614e8d565b9150604084015190509250925092565b6001600160a01b038681168252851660208201526040810184905260a0606082018190526000906150b9908301856144b3565b828103608084015261486681856144b3565b6001600160a01b03851681526080602082018190526000906150ef908301866144b3565b8415156040840152828103606084015261510981856144b3565b979650505050505050565b60006020828403121561512657600080fd5b81516001600160401b0381111561513c57600080fd5b613f8984828501614ee1565b60018060a01b0384168152826020820152606060408201526000614b5260608301846149c9565b6001600160a01b038781168252861660208201526040810185905260c0606082018190526000906151a2908301866144b3565b82810360808401526151b481866144b3565b905082810360a08401526151c881856144b3565b9998505050505050505050565b60006001600160801b0380881683528087166020840152808616604084015280851660608401525060a0608083015261510960a08301846144b3565b6000806040838503121561522457600080fd5b82516001600160401b038082111561523b57600080fd5b818501915085601f83011261524f57600080fd5b8151602061525f614d8383614d3f565b82815260059290921b8401810191818101908984111561527e57600080fd5b948201945b838610156152a557855161529681614387565b82529482019490820190615283565b918801519196509093505050808211156152be57600080fd5b506152cb85828601614d62565b9150509250929050565b6000600182016152e7576152e7614984565b5060010190565b60006020828403121561530057600080fd5b8151612cfc81614387565b60a08152600061531e60a08301886144b3565b6001600160a01b0396871660208401526040830195909552506060810192909252909216608090920191909152919050565b60408152600061536360408301856144b3565b9050826020830152939250505056fea26469706673582212208a7da85730a2db1f20b08fcbe216775d43188486cdb0e9edcfb0b27863352b4c64736f6c634300080e0033",
  "immutableReferences": {
    "6020": [
      {
        "length": 32,
        "start": 4322
      }
    ]
  },
  "source": "// SPDX-License-Identifier: AGPLv3\npragma solidity 0.8.14;\n\nimport { SafeCast } from \"@openzeppelin/contracts/utils/math/SafeCast.sol\";\n\nimport {\n    IInstantDistributionAgreementV1,\n    ISuperfluidToken\n} from \"../interfaces/agreements/IInstantDistributionAgreementV1.sol\";\nimport {\n    ISuperfluid,\n    ISuperfluidGovernance,\n    ISuperApp,\n    SuperAppDefinitions\n}\nfrom \"../interfaces/superfluid/ISuperfluid.sol\";\nimport { AgreementBase } from \"./AgreementBase.sol\";\n\nimport { SlotsBitmapLibrary } from \"../libs/SlotsBitmapLibrary.sol\";\nimport { AgreementLibrary } from \"./AgreementLibrary.sol\";\n\n\n/**\n * @title InstantDistributionAgreementV1 contract\n * @author Superfluid\n * @dev Please read IInstantDistributionAgreementV1 for implementation notes.\n * @dev For more technical notes, please visit protocol-monorepo wiki area.\n *\n */\ncontract InstantDistributionAgreementV1 is\n    AgreementBase,\n    IInstantDistributionAgreementV1\n{\n\n    /*\n        E_NO_INDEX - index does not exist\n        E_INDEX_EXISTS - index already exists\n        E_INDEX_GROW - index value should grow\n        E_LOW_BALANCE - insufficient balance\n        E_SUBS_APPROVED subscription already approved\n        E_SUBS_NOT_APPROVED subscription not approved\n        E_NO_SUBS - subscription does not exist\n        E_NOT_ALLOWED - operation not allowed\n        E_NO_ZERO_SUBS - no zero address subscribers\n     */\n\n    using SafeCast for uint256;\n\n    address public constant SLOTS_BITMAP_LIBRARY_ADDRESS = address(SlotsBitmapLibrary);\n\n    /// @dev Subscriber state slot id for storing subs bitmap\n    uint256 private constant _SUBSCRIBER_SUBS_BITMAP_STATE_SLOT_ID = 0;\n    /// @dev Publisher state slot id for storing its deposit amount\n    uint256 private constant _PUBLISHER_DEPOSIT_STATE_SLOT_ID = 1 << 32;\n    /// @dev Subscriber state slot id starting ptoint for subscription data\n    uint256 private constant _SUBSCRIBER_SUB_DATA_STATE_SLOT_ID_START = 1 << 128;\n\n    /// @dev Maximum number of subscriptions a subscriber can have\n    uint32 private constant _MAX_NUM_SUBS = 256;\n    /// @dev A special id that indicating the subscription is not approved yet\n    uint32 private constant _UNALLOCATED_SUB_ID = type(uint32).max;\n\n    // solhint-disable-next-line no-empty-blocks\n    constructor(ISuperfluid host) AgreementBase(address(host)) {}\n\n    /// @dev Agreement data for the index\n    struct IndexData {\n        uint128 indexValue;\n        uint128 totalUnitsApproved;\n        uint128 totalUnitsPending;\n    }\n\n    /// @dev Agreement data for the subscription\n    struct SubscriptionData {\n        uint32 subId;\n        address publisher;\n        uint32 indexId;\n        uint128 indexValue;\n        uint128 units;\n    }\n\n    /**************************************************************************\n     * ISuperAgreement interface\n     *************************************************************************/\n\n    /// @dev ISuperAgreement.realtimeBalanceOf implementation\n    function realtimeBalanceOf(\n        ISuperfluidToken token,\n        address account,\n        uint256 /*time*/\n    )\n        external view override\n        returns (\n            int256 dynamicBalance,\n            uint256 deposit,\n            uint256 owedDeposit\n        )\n    {\n        // as a subscriber\n        // read all subs and calculate the real-time balance\n        uint32[] memory slotIds;\n        bytes32[] memory sidList;\n        (slotIds, sidList) = _listSubscriptionIds(token, account);\n        for (uint32 i = 0; i < sidList.length; ++i) {\n            bool exist;\n            SubscriptionData memory sdata;\n            bytes32 iId;\n\n            {\n                uint32 subId = slotIds[i];\n                (exist, sdata) = _getSubscriptionData(token, sidList[i]);\n                assert(exist);\n                assert(sdata.subId == subId);\n                //require(exist, \"IDA: E_NO_SUBS\");\n                iId = token.getAgreementStateSlot(\n                    address(this),\n                    account,\n                    _SUBSCRIBER_SUB_DATA_STATE_SLOT_ID_START + subId, 1)[0];\n            }\n\n            {\n                IndexData memory idata;\n                (exist, idata) = _getIndexData(token, iId);\n                assert(exist);\n                dynamicBalance = dynamicBalance + (\n                    // NOTE casting these values to int256 is okay because the original values\n                    // are uint128\n                    int256(uint256(idata.indexValue - sdata.indexValue)) * int256(uint256(sdata.units))\n                );\n            }\n        }\n\n        // as a publisher\n        // calculate the deposits due to pending subscriptions\n        deposit = _getPublisherDeposit(token, account);\n        owedDeposit = 0;\n    }\n\n    /**************************************************************************\n     * Index operations\n     *************************************************************************/\n\n    /// @dev IInstantDistributionAgreementV1.createIndex implementation\n    function createIndex(\n        ISuperfluidToken token,\n        uint32 indexId,\n        bytes calldata ctx\n    )\n        external override\n        returns(bytes memory newCtx)\n    {\n        ISuperfluid.Context memory context = AgreementLibrary.authorizeTokenAccess(token, ctx);\n        address publisher = context.msgSender;\n        bytes32 iId = _getPublisherId(publisher, indexId);\n        require(!_hasIndexData(token, iId), \"IDA: E_INDEX_EXISTS\");\n\n        token.createAgreement(iId, _encodeIndexData(IndexData(0, 0, 0)));\n\n        emit IndexCreated(token, publisher, indexId, context.userData);\n\n        // nothing to be recorded so far\n        newCtx = ctx;\n    }\n\n    /// @dev IInstantDistributionAgreementV1.getIndex implementation\n    function getIndex(\n        ISuperfluidToken token,\n        address publisher,\n        uint32 indexId\n    )\n        external view override\n        returns (\n            bool exist,\n            uint128 indexValue,\n            uint128 totalUnitsApproved,\n            uint128 totalUnitsPending)\n    {\n        IndexData memory idata;\n        bytes32 iId = _getPublisherId(publisher, indexId);\n        (exist, idata) = _getIndexData(token, iId);\n        if (exist) {\n            indexValue = idata.indexValue;\n            totalUnitsApproved = idata.totalUnitsApproved;\n            totalUnitsPending = idata.totalUnitsPending;\n        }\n    }\n\n    /// @dev IInstantDistributionAgreementV1.calculateDistribution implementation\n    function calculateDistribution(\n        ISuperfluidToken token,\n        address publisher,\n        uint32 indexId,\n        uint256 amount\n    )\n        external view override\n        returns(\n            uint256 actualAmount,\n            uint128 newIndexValue)\n    {\n        bytes32 iId = _getPublisherId(publisher, indexId);\n        (bool exist, IndexData memory idata) = _getIndexData(token, iId);\n        require(exist, \"IDA: E_NO_INDEX\");\n\n        uint256 totalUnits = uint256(idata.totalUnitsApproved + idata.totalUnitsPending);\n        uint128 indexDelta = (amount / totalUnits).toUint128();\n        newIndexValue = idata.indexValue + indexDelta;\n        actualAmount = uint256(indexDelta) * totalUnits;\n    }\n\n    /// @dev IInstantDistributionAgreementV1.updateIndex implementation\n    function updateIndex(\n        ISuperfluidToken token,\n        uint32 indexId,\n        uint128 indexValue,\n        bytes calldata ctx\n    )\n        external override\n        returns(bytes memory newCtx)\n    {\n        ISuperfluid.Context memory context = AgreementLibrary.authorizeTokenAccess(token, ctx);\n        address publisher = context.msgSender;\n        (bytes32 iId, IndexData memory idata) = _loadIndexData(token, publisher, indexId);\n        require(indexValue >= idata.indexValue, \"IDA: E_INDEX_GROW\");\n\n        _updateIndex(token, publisher, indexId, iId, idata, indexValue, context.userData);\n\n        // nothing to be recorded so far\n        newCtx = ctx;\n    }\n\n    /// @dev IInstantDistributionAgreementV1.distribute implementation\n    function distribute(\n        ISuperfluidToken token,\n        uint32 indexId,\n        uint256 amount,\n        bytes calldata ctx\n    )\n        external override\n        returns(bytes memory newCtx)\n    {\n        ISuperfluid.Context memory context = AgreementLibrary.authorizeTokenAccess(token, ctx);\n        address publisher = context.msgSender;\n        (bytes32 iId, IndexData memory idata) = _loadIndexData(token, publisher, indexId);\n        uint256 totalUnits = uint256(idata.totalUnitsApproved + idata.totalUnitsPending);\n\n        if (totalUnits > 0) {\n            uint128 indexDelta = (amount / totalUnits).toUint128();\n            _updateIndex(token, publisher, indexId, iId, idata, idata.indexValue + indexDelta, context.userData);\n        }\n        // nothing to be recorded so far\n        newCtx = ctx;\n    }\n\n    function _updateIndex(\n        ISuperfluidToken token,\n        address publisher,\n        uint32 indexId,\n        bytes32 iId,\n        IndexData memory idata,\n        uint128 newIndexValue,\n        bytes memory userData\n    )\n        private\n    {\n        // - settle the publisher balance INSTANT-ly (ding ding ding, IDA)\n        //   - adjust static balance directly\n        token.settleBalance(publisher,\n            // NOTE casting these values to int256 is okay because the original values\n            // are uint128\n            (-int256(uint256(newIndexValue - idata.indexValue))) * int256(uint256(idata.totalUnitsApproved)));\n        //   - adjust the publisher's deposit amount\n        _adjustPublisherDeposit(token, publisher,\n            // NOTE casting these values to int256 is okay because the original values\n            // are uint128\n            int256(uint256(newIndexValue - idata.indexValue)) * int256(uint256(idata.totalUnitsPending)));\n        // adjust the publisher's index data\n        uint128 oldIndexValue = idata.indexValue;\n        idata.indexValue = newIndexValue;\n        token.updateAgreementData(iId, _encodeIndexData(idata));\n\n        emit IndexUpdated(\n            token,\n            publisher,\n            indexId,\n            oldIndexValue,\n            newIndexValue,\n            idata.totalUnitsPending,\n            idata.totalUnitsApproved,\n            userData);\n\n        // check account solvency\n        require(!token.isAccountCriticalNow(publisher), \"IDA: E_LOW_BALANCE\");\n    }\n\n    function _loadIndexData(\n        ISuperfluidToken token,\n        address publisher,\n        uint32 indexId)\n        private view\n        returns (\n            bytes32 iId,\n            IndexData memory idata\n        )\n    {\n        bool exist;\n        iId = _getPublisherId(publisher, indexId);\n        (exist, idata) = _getIndexData(token, iId);\n        require(exist, \"IDA: E_NO_INDEX\");\n    }\n\n    /**************************************************************************\n     * Subscription operations\n     *************************************************************************/\n\n     // Stack variables to avoid stack too deep errors in some functions\n     // solhint-disable-next-line contract-name-camelcase\n     struct _SubscriptionOperationVars {\n         bytes32 iId;\n         bool subscriptionExists;\n         bytes32 sId;\n         IndexData idata;\n         SubscriptionData sdata;\n         bytes cbdata;\n     }\n\n    /// @dev IInstantDistributionAgreementV1.approveSubscription implementation\n    function approveSubscription(\n        ISuperfluidToken token,\n        address publisher,\n        uint32 indexId,\n        bytes calldata ctx\n    )\n        external override\n        returns(bytes memory newCtx)\n    {\n        _SubscriptionOperationVars memory vars;\n        AgreementLibrary.CallbackInputs memory cbStates;\n        address subscriber;\n        bytes memory userData;\n        {\n            ISuperfluid.Context memory context = AgreementLibrary.authorizeTokenAccess(token, ctx);\n            subscriber = context.msgSender;\n            userData = context.userData;\n        }\n\n        (\n            vars.iId,\n            vars.sId,\n            vars.idata,\n            vars.subscriptionExists,\n            vars.sdata\n        ) = _loadAllData(token, publisher, subscriber, indexId, false);\n\n        if (vars.subscriptionExists) {\n            // required condition check\n            require(vars.sdata.subId == _UNALLOCATED_SUB_ID, \"IDA: E_SUBS_APPROVED\");\n        }\n\n        newCtx = ctx;\n        cbStates = AgreementLibrary.createCallbackInputs(\n            token,\n            publisher,\n            vars.sId,\n            \"\");\n\n        if (!vars.subscriptionExists) {\n            cbStates.noopBit = SuperAppDefinitions.BEFORE_AGREEMENT_CREATED_NOOP;\n            vars.cbdata = AgreementLibrary.callAppBeforeCallback(cbStates, newCtx);\n\n            vars.sdata = SubscriptionData({\n                publisher: publisher,\n                indexId: indexId,\n                subId: 0,\n                units: 0,\n                indexValue: vars.idata.indexValue\n            });\n            // add to subscription list of the subscriber\n            vars.sdata.subId = _findAndFillSubsBitmap(token, subscriber, vars.iId);\n            token.createAgreement(vars.sId, _encodeSubscriptionData(vars.sdata));\n\n            cbStates.noopBit = SuperAppDefinitions.AFTER_AGREEMENT_CREATED_NOOP;\n            (, newCtx) = AgreementLibrary.callAppAfterCallback(cbStates, vars.cbdata, newCtx);\n        } else {\n            cbStates.noopBit = SuperAppDefinitions.BEFORE_AGREEMENT_UPDATED_NOOP;\n            vars.cbdata = AgreementLibrary.callAppBeforeCallback(cbStates, newCtx);\n            // NOTE casting these values to int256 is okay because the original values\n            // are uint128\n            int balanceDelta = int256(uint256(vars.idata.indexValue - vars.sdata.indexValue))\n                * int256(uint256(vars.sdata.units));\n\n            // update publisher data and adjust publisher's deposits\n            vars.idata.totalUnitsApproved += vars.sdata.units;\n            vars.idata.totalUnitsPending -= vars.sdata.units;\n            token.updateAgreementData(vars.iId, _encodeIndexData(vars.idata));\n            _adjustPublisherDeposit(token, publisher, -balanceDelta);\n            token.settleBalance(publisher, -balanceDelta);\n\n            // update subscription data and adjust subscriber's balance\n            token.settleBalance(subscriber, balanceDelta);\n            vars.sdata.indexValue = vars.idata.indexValue;\n            vars.sdata.subId = _findAndFillSubsBitmap(token, subscriber, vars.iId);\n            token.updateAgreementData(vars.sId, _encodeSubscriptionData(vars.sdata));\n\n            cbStates.noopBit = SuperAppDefinitions.AFTER_AGREEMENT_UPDATED_NOOP;\n            (, newCtx) = AgreementLibrary.callAppAfterCallback(cbStates, vars.cbdata, newCtx);\n        }\n\n        // can index up to three words, hence splitting into two events from publisher or subscriber's view.\n        emit IndexSubscribed(token, publisher, indexId, subscriber, userData);\n        emit SubscriptionApproved(token, subscriber, publisher, indexId, userData);\n    }\n\n    /// @dev IInstantDistributionAgreementV1.revokeSubscription implementation\n    function revokeSubscription(\n        ISuperfluidToken token,\n        address publisher,\n        uint32 indexId,\n        bytes calldata ctx\n    )\n         external override\n         returns(bytes memory newCtx)\n    {\n        _SubscriptionOperationVars memory vars;\n        AgreementLibrary.CallbackInputs memory cbStates;\n        address subscriber;\n        bytes memory userData;\n        {\n            ISuperfluid.Context memory context = AgreementLibrary.authorizeTokenAccess(token, ctx);\n            subscriber = context.msgSender;\n            userData = context.userData;\n        }\n\n        (\n            vars.iId,\n            vars.sId,\n            vars.idata,\n            ,\n            vars.sdata\n        ) = _loadAllData(token, publisher, subscriber, indexId, true);\n\n        // should not revoke an pending(un-approved) subscription\n        require(vars.sdata.subId != _UNALLOCATED_SUB_ID, \"IDA: E_SUBS_NOT_APPROVED\");\n\n        cbStates = AgreementLibrary.createCallbackInputs(\n            token,\n            publisher,\n            vars.sId,\n            \"\");\n        newCtx = ctx;\n\n        cbStates.noopBit = SuperAppDefinitions.BEFORE_AGREEMENT_TERMINATED_NOOP;\n        vars.cbdata = AgreementLibrary.callAppBeforeCallback(cbStates, newCtx);\n        // NOTE downcasting these values to int256 is okay because the original values\n        // are uint128\n        int256 balanceDelta = int256(uint256(vars.idata.indexValue - vars.sdata.indexValue))\n            * int256(uint256(vars.sdata.units));\n\n        vars.idata.totalUnitsApproved = vars.idata.totalUnitsApproved - vars.sdata.units;\n        vars.idata.totalUnitsPending = vars.idata.totalUnitsPending + vars.sdata.units;\n        token.updateAgreementData(vars.iId, _encodeIndexData(vars.idata));\n\n        // remove subscription from subscriber's bitmap\n        _clearSubsBitmap(token, subscriber, vars.sdata.subId);\n\n        // sync pending distributions\n        vars.sdata.indexValue = vars.idata.indexValue;\n        // unlink publisher and subscriber\n        vars.sdata.subId = _UNALLOCATED_SUB_ID;\n        token.updateAgreementData(vars.sId, _encodeSubscriptionData(vars.sdata));\n        // settle subscriber static balance as a result to keep balance unchanged\n        token.settleBalance(subscriber, balanceDelta);\n\n        cbStates.noopBit = SuperAppDefinitions.AFTER_AGREEMENT_TERMINATED_NOOP;\n        (, newCtx) = AgreementLibrary.callAppAfterCallback(cbStates, vars.cbdata, newCtx);\n\n        emit IndexUnsubscribed(token, publisher, indexId, subscriber, userData);\n        emit SubscriptionRevoked(token, subscriber, publisher, indexId, userData);\n    }\n\n    /// @dev IInstantDistributionAgreementV1.updateSubscription implementation\n    function updateSubscription(\n        ISuperfluidToken token,\n        uint32 indexId,\n        address subscriber,\n        uint128 units,\n        bytes calldata ctx\n    )\n        external override\n        returns(bytes memory newCtx)\n    {\n        require(subscriber != address(0), \"IDA: E_NO_ZERO_SUBS\");\n        _SubscriptionOperationVars memory vars;\n        AgreementLibrary.CallbackInputs memory cbStates;\n        bytes memory userData;\n        address publisher;\n        {\n            ISuperfluid.Context memory context = AgreementLibrary.authorizeTokenAccess(token, ctx);\n            userData = context.userData;\n            publisher = context.msgSender;\n        }\n\n        (\n            vars.iId,\n            vars.sId,\n            vars.idata,\n            vars.subscriptionExists,\n            vars.sdata\n        ) = _loadAllData(token, publisher, subscriber, indexId, false);\n\n        cbStates = AgreementLibrary.createCallbackInputs(\n            token,\n            subscriber,\n            vars.sId,\n            \"\");\n        newCtx = ctx;\n\n        // before-hook callback\n        if (vars.subscriptionExists) {\n            cbStates.noopBit = SuperAppDefinitions.BEFORE_AGREEMENT_UPDATED_NOOP;\n            vars.cbdata = AgreementLibrary.callAppBeforeCallback(cbStates, newCtx);\n        } else {\n            cbStates.noopBit = SuperAppDefinitions.BEFORE_AGREEMENT_CREATED_NOOP;\n            vars.cbdata = AgreementLibrary.callAppBeforeCallback(cbStates, newCtx);\n        }\n\n        // update publisher data\n        if (vars.subscriptionExists && vars.sdata.subId != _UNALLOCATED_SUB_ID) {\n            // if the subscription exist and not approved, update the approved units amount\n\n            // update total units\n            vars.idata.totalUnitsApproved = (\n                uint256(vars.idata.totalUnitsApproved) +\n                uint256(units) -\n                uint256(vars.sdata.units)\n            ).toUint128();\n            token.updateAgreementData(vars.iId, _encodeIndexData(vars.idata));\n        } else if (vars.subscriptionExists) {\n            // if the subscription exists and approved, update the pending units amount\n\n            // update pending subscription units of the publisher\n            vars.idata.totalUnitsPending = (\n                uint256(vars.idata.totalUnitsPending) +\n                uint256(units) -\n                uint256(vars.sdata.units)\n            ).toUint128();\n            token.updateAgreementData(vars.iId, _encodeIndexData(vars.idata));\n        } else {\n            // if the E_NO_SUBS, create it and then update the pending units amount\n\n            // create unallocated subscription\n            vars.sdata = SubscriptionData({\n                publisher: publisher,\n                indexId: indexId,\n                subId: _UNALLOCATED_SUB_ID,\n                units: units,\n                indexValue: vars.idata.indexValue\n            });\n            token.createAgreement(vars.sId, _encodeSubscriptionData(vars.sdata));\n\n            vars.idata.totalUnitsPending = vars.idata.totalUnitsPending + units;\n            token.updateAgreementData(vars.iId, _encodeIndexData(vars.idata));\n        }\n        // NOTE casting these values to int256 is okay because the original values\n        // are uint128\n        int256 balanceDelta = int256(uint256(vars.idata.indexValue - vars.sdata.indexValue))\n            * int256(uint256(vars.sdata.units));\n\n        // adjust publisher's deposit and balances if subscription is pending\n        if (vars.sdata.subId == _UNALLOCATED_SUB_ID) {\n            _adjustPublisherDeposit(token, publisher, -balanceDelta);\n            token.settleBalance(publisher, -balanceDelta);\n        }\n\n        // settle subscriber static balance\n        token.settleBalance(subscriber, balanceDelta);\n\n        // update subscription data if necessary\n        if (vars.subscriptionExists) {\n            vars.sdata.indexValue = vars.idata.indexValue;\n            vars.sdata.units = units;\n            token.updateAgreementData(vars.sId, _encodeSubscriptionData(vars.sdata));\n        }\n\n        // after-hook callback\n        if (vars.subscriptionExists) {\n            cbStates.noopBit = SuperAppDefinitions.AFTER_AGREEMENT_UPDATED_NOOP;\n            (, newCtx) = AgreementLibrary.callAppAfterCallback(cbStates, vars.cbdata, newCtx);\n        } else {\n            cbStates.noopBit = SuperAppDefinitions.AFTER_AGREEMENT_CREATED_NOOP;\n            (, newCtx) = AgreementLibrary.callAppAfterCallback(cbStates, vars.cbdata, newCtx);\n        }\n\n        emit IndexUnitsUpdated(token, publisher, indexId, subscriber, units, userData);\n        emit SubscriptionUnitsUpdated(token, subscriber, publisher, indexId, units, userData);\n    }\n\n    /// @dev IInstantDistributionAgreementV1.getSubscription implementation\n    function getSubscription(\n        ISuperfluidToken token,\n        address publisher,\n        uint32 indexId,\n        address subscriber\n    )\n        external view override\n        returns (\n            bool exist,\n            bool approved,\n            uint128 units,\n            uint256 pendingDistribution\n        )\n    {\n        bytes32 iId;\n        bytes32 sId;\n        IndexData memory idata;\n        SubscriptionData memory sdata;\n\n        (\n            iId,\n            sId,\n            idata,\n            exist,\n            sdata\n        ) = _loadAllData(token, publisher, subscriber, indexId, false);\n\n        if (!exist) return (false, false, 0, 0);\n        approved = sdata.subId != _UNALLOCATED_SUB_ID;\n        units = sdata.units;\n        pendingDistribution = approved ? 0 : uint256(idata.indexValue - sdata.indexValue) * uint256(sdata.units);\n    }\n\n    /// @dev IInstantDistributionAgreementV1.getSubscriptionByID implementation\n    function getSubscriptionByID(\n       ISuperfluidToken token,\n       bytes32 agreementId\n    )\n       external view override\n       returns(\n           address publisher,\n           uint32 indexId,\n           bool approved,\n           uint128 units,\n           uint256 pendingDistribution\n       )\n    {\n        bool exist;\n        bytes32 iId;\n        IndexData memory idata;\n        SubscriptionData memory sdata;\n\n        (exist, sdata) = _getSubscriptionData(token, agreementId);\n        require(exist, \"IDA: E_NO_SUBS\");\n\n        publisher = sdata.publisher;\n        indexId = sdata.indexId;\n        iId = _getPublisherId(publisher, indexId);\n        (exist, idata) = _getIndexData(token, iId);\n        assert(exist);\n\n        approved = sdata.subId != _UNALLOCATED_SUB_ID;\n        units = sdata.units;\n        pendingDistribution = approved ? 0 :\n            uint256(idata.indexValue - sdata.indexValue) * uint256(sdata.units);\n    }\n\n    /// @dev IInstantDistributionAgreementV1.listSubscriptions implementation\n    function listSubscriptions(\n        ISuperfluidToken token,\n        address subscriber\n    )\n        external view override\n        returns(\n            address[] memory publishers,\n            uint32[] memory indexIds,\n            uint128[] memory unitsList)\n    {\n        uint32[] memory slotIds;\n        bytes32[] memory sidList;\n        (slotIds, sidList) = _listSubscriptionIds(token, subscriber);\n        bool exist;\n        SubscriptionData memory sdata;\n        publishers = new address[](sidList.length);\n        indexIds = new uint32[](sidList.length);\n        unitsList = new uint128[](sidList.length);\n        for (uint32 i = 0; i < sidList.length; ++i) {\n            uint32 subId = slotIds[i];\n            bytes32 sId = sidList[i];\n            (exist, sdata) = _getSubscriptionData(token, sId);\n            assert(exist);\n            assert(sdata.subId == subId);\n            publishers[i] = sdata.publisher;\n            indexIds[i] = sdata.indexId;\n            unitsList[i] = sdata.units;\n        }\n    }\n\n    /// @dev IInstantDistributionAgreementV1.deleteSubscription implementation\n    function deleteSubscription(\n        ISuperfluidToken token,\n        address publisher,\n        uint32 indexId,\n        address subscriber,\n        bytes calldata ctx\n    )\n        external override\n        returns(bytes memory newCtx)\n    {\n        _SubscriptionOperationVars memory vars;\n        AgreementLibrary.CallbackInputs memory cbStates;\n        address sender;\n        bytes memory userData;\n        {\n            ISuperfluid.Context memory context = AgreementLibrary.authorizeTokenAccess(token, ctx);\n            sender = context.msgSender;\n            userData = context.userData;\n        }\n        require(subscriber != address(0), \"IDA: E_NO_ZERO_SUBS\");\n\n        // only publisher can delete a subscription\n        // follows from the invariant that only the publisher\n        // has the ability to modify the units a subscriber has\n        require(sender == publisher, \"IDA: E_NOT_ALLOWED\");\n\n        (\n            vars.iId,\n            vars.sId,\n            vars.idata,\n            ,\n            vars.sdata\n        ) = _loadAllData(token, publisher, subscriber, indexId, true);\n\n        cbStates = AgreementLibrary.createCallbackInputs(\n            token,\n            subscriber,\n            vars.sId,\n            \"\");\n        newCtx = ctx;\n\n        cbStates.noopBit = SuperAppDefinitions.BEFORE_AGREEMENT_TERMINATED_NOOP;\n        vars.cbdata = AgreementLibrary.callAppBeforeCallback(cbStates, newCtx);\n        // NOTE casting these values to int256 is okay because the original values\n        // are uint128\n        int256 balanceDelta = int256(uint256(vars.idata.indexValue - vars.sdata.indexValue))\n            * int256(uint256(vars.sdata.units));\n\n        // update publisher index agreement data\n        if (vars.sdata.subId != _UNALLOCATED_SUB_ID) {\n            vars.idata.totalUnitsApproved = vars.idata.totalUnitsApproved - vars.sdata.units;\n        } else {\n            vars.idata.totalUnitsPending = vars.idata.totalUnitsPending - vars.sdata.units;\n        }\n        token.updateAgreementData(vars.iId, _encodeIndexData(vars.idata));\n\n        // remove subscription from subscriber's bitmap\n        if (vars.sdata.subId != _UNALLOCATED_SUB_ID) {\n            _clearSubsBitmap(token, subscriber, vars.sdata.subId);\n        }\n\n        // move from publisher's deposit to static balance\n        if (vars.sdata.subId == _UNALLOCATED_SUB_ID) {\n            _adjustPublisherDeposit(token, publisher, -balanceDelta);\n            token.settleBalance(publisher, -balanceDelta);\n        }\n\n        // terminate subscription agreement data\n        token.terminateAgreement(vars.sId, 2);\n\n        // settle subscriber static balance\n        token.settleBalance(subscriber, balanceDelta);\n\n        cbStates.noopBit = SuperAppDefinitions.AFTER_AGREEMENT_TERMINATED_NOOP;\n        (, newCtx) = AgreementLibrary.callAppAfterCallback(cbStates, vars.cbdata, newCtx);\n\n        emit IndexUnsubscribed(token, publisher, indexId, subscriber, userData);\n        emit SubscriptionRevoked(token, subscriber, publisher, indexId, userData);\n        emit IndexUnitsUpdated(token, publisher, indexId, subscriber, 0, userData);\n        emit SubscriptionUnitsUpdated(token, subscriber, publisher, indexId, 0, userData);\n    }\n\n    function claim(\n        ISuperfluidToken token,\n        address publisher,\n        uint32 indexId,\n        address subscriber,\n        bytes calldata ctx\n    )\n        external override\n        returns(bytes memory newCtx)\n    {\n        AgreementLibrary.authorizeTokenAccess(token, ctx);\n        require(subscriber != address(0), \"IDA: E_NO_ZERO_SUBS\");\n\n        _SubscriptionOperationVars memory vars;\n        AgreementLibrary.CallbackInputs memory cbStates;\n\n        (\n            vars.iId,\n            vars.sId,\n            vars.idata,\n            ,\n            vars.sdata\n        ) = _loadAllData(token, publisher, subscriber, indexId, true);\n\n        // required condition check\n        require(vars.sdata.subId == _UNALLOCATED_SUB_ID, \"IDA: E_SUBS_APPROVED\");\n\n        uint256 pendingDistribution = uint256(vars.idata.indexValue - vars.sdata.indexValue)\n            * uint256(vars.sdata.units);\n\n        cbStates = AgreementLibrary.createCallbackInputs(\n            token,\n            publisher,\n            vars.sId,\n            \"\");\n        newCtx = ctx;\n\n        if (pendingDistribution > 0) {\n            cbStates.noopBit = SuperAppDefinitions.BEFORE_AGREEMENT_UPDATED_NOOP;\n            vars.cbdata = AgreementLibrary.callAppBeforeCallback(cbStates, newCtx);\n\n            // adjust publisher's deposits\n            _adjustPublisherDeposit(token, publisher, -int256(pendingDistribution));\n            token.settleBalance(publisher, -int256(pendingDistribution));\n\n            // update subscription data and adjust subscriber's balance\n            vars.sdata.indexValue = vars.idata.indexValue;\n            token.updateAgreementData(vars.sId, _encodeSubscriptionData(vars.sdata));\n            token.settleBalance(subscriber, int256(pendingDistribution));\n\n            emit IndexDistributionClaimed(token, publisher, indexId, subscriber, pendingDistribution);\n            emit SubscriptionDistributionClaimed(token, subscriber, publisher, indexId, pendingDistribution);\n\n            cbStates.noopBit = SuperAppDefinitions.AFTER_AGREEMENT_UPDATED_NOOP;\n            (, newCtx) = AgreementLibrary.callAppAfterCallback(cbStates, vars.cbdata, newCtx);\n        } else {\n            // nothing to be recorded in this case\n            newCtx = ctx;\n        }\n    }\n\n    function _loadAllData(\n        ISuperfluidToken token,\n        address publisher,\n        address subscriber,\n        uint32 indexId,\n        bool requireSubscriptionExisting\n    )\n        private view\n        returns (\n            bytes32 iId,\n            bytes32 sId,\n            IndexData memory idata,\n            bool subscriptionExists,\n            SubscriptionData memory sdata\n        )\n    {\n        bool indexExists;\n        iId = _getPublisherId(publisher, indexId);\n        sId = _getSubscriptionId(subscriber, iId);\n        (indexExists, idata) = _getIndexData(token, iId);\n        require(indexExists, \"IDA: E_NO_INDEX\");\n        (subscriptionExists, sdata) = _getSubscriptionData(token, sId);\n        if (requireSubscriptionExisting) {\n            require(subscriptionExists, \"IDA: E_NO_SUBS\");\n             // sanity check\n            assert(sdata.publisher == publisher);\n            assert(sdata.indexId == indexId);\n        }\n    }\n\n    /**************************************************************************\n     * internal helpers\n     *************************************************************************/\n\n    function _getPublisherId(\n        address publisher,\n        uint32 indexId\n    )\n        private pure\n        returns (bytes32 iId)\n    {\n        return keccak256(abi.encodePacked(\"publisher\", publisher, indexId));\n    }\n\n    function _getSubscriptionId(\n        address subscriber,\n        bytes32 iId\n    )\n        private pure\n        returns (bytes32 sId)\n    {\n        return keccak256(abi.encodePacked(\"subscription\", subscriber, iId));\n    }\n\n    // # Index data operations\n    //\n    // Data packing:\n    //\n    // WORD 1: | existence bit  | indexValue |\n    //         | 128b           | 128b       |\n    // WORD 2: | totalUnitsPending | totalUnitsApproved |\n    //         | 128b              | 12b                |\n\n    function _encodeIndexData(\n        IndexData memory idata\n    )\n        private pure\n        returns (bytes32[] memory data) {\n        data = new bytes32[](2);\n        data[0] = bytes32(\n            uint256(1 << 128) /* existance bit */ |\n            uint256(idata.indexValue)\n        );\n        data[1] = bytes32(\n            (uint256(idata.totalUnitsApproved)) |\n            (uint256(idata.totalUnitsPending) << 128)\n        );\n    }\n\n    function _hasIndexData(\n        ISuperfluidToken token,\n        bytes32 iId\n    )\n        private view\n        returns (bool exist)\n    {\n        bytes32[] memory adata = token.getAgreementData(address(this), iId, 2);\n        uint256 a = uint256(adata[0]);\n        exist = a > 0;\n    }\n\n    function _getIndexData(\n        ISuperfluidToken token,\n        bytes32 iId\n    )\n        private view\n        returns (bool exist, IndexData memory idata)\n    {\n        bytes32[] memory adata = token.getAgreementData(address(this), iId, 2);\n        uint256 a = uint256(adata[0]);\n        uint256 b = uint256(adata[1]);\n        exist = a > 0;\n        if (exist) {\n            // NOTE We will do an unsafe downcast from uint256 => uint128\n            // as we know this is safe\n            // see https://gist.github.com/0xdavinchee/9834dc689543f19ec07872ad7d766b09\n            idata.indexValue = uint128(a);\n            idata.totalUnitsApproved = uint128(b);\n            idata.totalUnitsPending = uint128(b >> 128);\n        }\n    }\n\n\n    // # Publisher's deposit amount\n    //\n    // It is stored in state slot in one word\n\n    function _getPublisherDeposit(\n        ISuperfluidToken token,\n        address publisher\n    )\n        private view\n        returns (uint256)\n    {\n        bytes32[] memory data = token.getAgreementStateSlot(\n            address(this),\n            publisher,\n            _PUBLISHER_DEPOSIT_STATE_SLOT_ID,\n            1);\n        return uint256(data[0]);\n    }\n\n    function _adjustPublisherDeposit(\n        ISuperfluidToken token,\n        address publisher,\n        int256 delta\n    )\n        private\n    {\n        if (delta == 0) return;\n        bytes32[] memory data = token.getAgreementStateSlot(\n            address(this),\n            publisher,\n            _PUBLISHER_DEPOSIT_STATE_SLOT_ID,\n            1);\n        data[0] = bytes32(uint256(uint256(data[0]).toInt256() + delta));\n        token.updateAgreementStateSlot(\n            publisher,\n            _PUBLISHER_DEPOSIT_STATE_SLOT_ID,\n            data);\n    }\n\n    // # Subscription data operations\n    //\n    // Data packing:\n    //\n    // WORD 1: | publisher | RESERVED | indexId | subId |\n    //         | 160b      | 32b      | 32b     | 32b   |\n    // WORD 2: | units | indexValue |\n    //         | 128b  | 128b       |\n\n    function _encodeSubscriptionData(\n        SubscriptionData memory sdata\n    )\n        private pure\n        returns (bytes32[] memory data)\n    {\n        data = new bytes32[](2);\n        data[0] = bytes32(\n            (uint256(uint160(sdata.publisher)) << (12*8)) |\n            (uint256(sdata.indexId) << 32) |\n            uint256(sdata.subId)\n        );\n        data[1] = bytes32(\n            uint256(sdata.indexValue) |\n            (uint256(sdata.units) << 128)\n        );\n    }\n\n    function _getSubscriptionData(\n        ISuperfluidToken token,\n        bytes32 sId\n    )\n        private view\n        returns (bool exist, SubscriptionData memory sdata)\n    {\n        bytes32[] memory adata = token.getAgreementData(address(this), sId, 2);\n        uint256 a = uint256(adata[0]);\n        uint256 b = uint256(adata[1]);\n        exist = a > 0;\n        if (exist) {\n            sdata.publisher = address(uint160(a >> (12*8)));\n            sdata.indexId = uint32((a >> 32) & type(uint32).max);\n            sdata.subId = uint32(a & type(uint32).max);\n            // NOTE We will do an unsafe downcast from uint256 => uint128\n            // as we know this is safe\n            // see https://gist.github.com/0xdavinchee/9834dc689543f19ec07872ad7d766b09\n            sdata.indexValue = uint128(b);\n            sdata.units = uint128(b >> 128);\n        }\n    }\n\n    // # Subscription bitmap operations\n    //\n    // ## Subscription bitmap state slot\n    //\n    // slotId: _SUBSCRIBER_SUBS_BITMAP_STATE_SLOT_ID)\n    //\n    // Subscriber can store up to _MAX_NUM_SUBS amount of subscriptions.\n    // For each subscription approved it allocated with a subId with a value in [0, _MAX_NUM_SUBS).\n    // The allocation is to fill one bit in the subscription bitmap.\n    //\n    // ## Subscription reference state slots\n    //\n    // slotId: _SUBSCRIBER_SUB_DATA_STATE_SLOT_ID_START + subId)\n    //\n    // It stores the index data ID.\n\n    function _findAndFillSubsBitmap(\n        ISuperfluidToken token,\n        address subscriber,\n        bytes32 iId\n    )\n        private\n        returns (uint32 subId)\n    {\n        return SlotsBitmapLibrary.findEmptySlotAndFill(\n            token,\n            subscriber,\n            _SUBSCRIBER_SUBS_BITMAP_STATE_SLOT_ID,\n            _SUBSCRIBER_SUB_DATA_STATE_SLOT_ID_START,\n            iId);\n    }\n\n    function _clearSubsBitmap(\n        ISuperfluidToken token,\n        address subscriber,\n        uint32 subId\n    )\n        private\n    {\n        SlotsBitmapLibrary.clearSlot(\n            token,\n            subscriber,\n            _SUBSCRIBER_SUBS_BITMAP_STATE_SLOT_ID,\n            subId);\n    }\n\n    function _listSubscriptionIds(\n       ISuperfluidToken token,\n       address subscriber\n    )\n        private view\n        returns (\n            uint32[] memory slotIds,\n            bytes32[] memory sidList)\n    {\n        (slotIds, sidList) = SlotsBitmapLibrary.listData(\n            token,\n            subscriber,\n            _SUBSCRIBER_SUBS_BITMAP_STATE_SLOT_ID,\n            _SUBSCRIBER_SUB_DATA_STATE_SLOT_ID_START);\n        // map data to subId\n        for (uint i = 0; i < sidList.length; ++i) {\n            sidList[i] = _getSubscriptionId(subscriber, sidList[i]);\n        }\n    }\n\n}\n",
  "sourcePath": "/Users/alo/protocol-monorepo/packages/ethereum-contracts/contracts/agreements/InstantDistributionAgreementV1.sol",
  "compiler": {
    "name": "solc",
    "version": "0.8.14+commit.80d49f37.Emscripten.clang"
  },
  "schemaVersion": "3.4.8",
  "updatedAt": "2022-07-15T06:25:31.277Z",
  "devdoc": {
    "author": "Superfluid",
    "details": "Please read IInstantDistributionAgreementV1 for implementation notes.For more technical notes, please visit protocol-monorepo wiki area.",
    "kind": "dev",
    "methods": {
      "agreementType()": {
        "details": "ISuperAgreement.agreementType implementation"
      },
      "approveSubscription(address,address,uint32,bytes)": {
        "details": "IInstantDistributionAgreementV1.approveSubscription implementation"
      },
      "calculateDistribution(address,address,uint32,uint256)": {
        "details": "IInstantDistributionAgreementV1.calculateDistribution implementation"
      },
      "claim(address,address,uint32,address,bytes)": {
        "details": "Claim pending distributions",
        "params": {
          "ctx": "Context bytes (see ISuperfluid.sol for Context struct)",
          "indexId": "Id of the index",
          "publisher": "The publisher of the index",
          "subscriber": "The subscriber's address",
          "token": "Super token address"
        }
      },
      "createIndex(address,uint32,bytes)": {
        "details": "IInstantDistributionAgreementV1.createIndex implementation"
      },
      "deleteSubscription(address,address,uint32,address,bytes)": {
        "details": "IInstantDistributionAgreementV1.deleteSubscription implementation"
      },
      "distribute(address,uint32,uint256,bytes)": {
        "details": "IInstantDistributionAgreementV1.distribute implementation"
      },
      "getCodeAddress()": {
        "details": "Get current implementation code address."
      },
      "getIndex(address,address,uint32)": {
        "details": "IInstantDistributionAgreementV1.getIndex implementation"
      },
      "getSubscription(address,address,uint32,address)": {
        "details": "IInstantDistributionAgreementV1.getSubscription implementation"
      },
      "getSubscriptionByID(address,bytes32)": {
        "details": "IInstantDistributionAgreementV1.getSubscriptionByID implementation"
      },
      "listSubscriptions(address,address)": {
        "details": "IInstantDistributionAgreementV1.listSubscriptions implementation"
      },
      "proxiableUUID()": {
        "details": "Proxiable UUID marker function, this would help to avoid wrong logic      contract to be used for upgrading. NOTE: The semantics of the UUID deviates from the actual UUPS standard,       where it is equivalent of _IMPLEMENTATION_SLOT."
      },
      "realtimeBalanceOf(address,address,uint256)": {
        "details": "ISuperAgreement.realtimeBalanceOf implementation"
      },
      "revokeSubscription(address,address,uint32,bytes)": {
        "details": "IInstantDistributionAgreementV1.revokeSubscription implementation"
      },
      "updateIndex(address,uint32,uint128,bytes)": {
        "details": "IInstantDistributionAgreementV1.updateIndex implementation"
      },
      "updateSubscription(address,uint32,address,uint128,bytes)": {
        "details": "IInstantDistributionAgreementV1.updateSubscription implementation"
      }
    },
    "stateVariables": {
      "_MAX_NUM_SUBS": {
        "details": "Maximum number of subscriptions a subscriber can have"
      },
      "_PUBLISHER_DEPOSIT_STATE_SLOT_ID": {
        "details": "Publisher state slot id for storing its deposit amount"
      },
      "_SUBSCRIBER_SUBS_BITMAP_STATE_SLOT_ID": {
        "details": "Subscriber state slot id for storing subs bitmap"
      },
      "_SUBSCRIBER_SUB_DATA_STATE_SLOT_ID_START": {
        "details": "Subscriber state slot id starting ptoint for subscription data"
      },
      "_UNALLOCATED_SUB_ID": {
        "details": "A special id that indicating the subscription is not approved yet"
      }
    },
    "title": "InstantDistributionAgreementV1 contract",
    "version": 1
  },
  "userdoc": {
    "kind": "user",
    "methods": {},
    "version": 1
  }
}