{
  "contractName": "MockSmartWallet",
  "abi": [
    {
      "inputs": [
        {
          "internalType": "contract IERC20",
          "name": "token",
          "type": "address"
        },
        {
          "internalType": "address",
          "name": "spender",
          "type": "address"
        },
        {
          "internalType": "uint256",
          "name": "amount",
          "type": "uint256"
        }
      ],
      "name": "approveTest",
      "outputs": [],
      "stateMutability": "nonpayable",
      "type": "function"
    },
    {
      "inputs": [
        {
          "internalType": "contract ISuperToken",
          "name": "superToken",
          "type": "address"
        },
        {
          "internalType": "address",
          "name": "to",
          "type": "address"
        },
        {
          "internalType": "uint256",
          "name": "amount",
          "type": "uint256"
        },
        {
          "internalType": "bytes",
          "name": "data",
          "type": "bytes"
        }
      ],
      "name": "upgradeToTest",
      "outputs": [],
      "stateMutability": "nonpayable",
      "type": "function"
    }
  ],
  "bytecode": "0x608060405234801561001057600080fd5b506102e6806100206000396000f3fe608060405234801561001057600080fd5b50600436106100365760003560e01c80632ed8c4b91461003b578063eefa3cde14610050575b600080fd5b61004e61004936600461015f565b610063565b005b61004e61005e3660046101fe565b6100ce565b6040516316e7427360e21b81526001600160a01b03861690635b9d09cc9061009590879087908790879060040161023f565b600060405180830381600087803b1580156100af57600080fd5b505af11580156100c3573d6000803e3d6000fd5b505050505050505050565b60405163095ea7b360e01b81526001600160a01b0383811660048301526024820183905284169063095ea7b3906044016020604051808303816000875af115801561011d573d6000803e3d6000fd5b505050506040513d601f19601f820116820180604052508101906101419190610287565b50505050565b6001600160a01b038116811461015c57600080fd5b50565b60008060008060006080868803121561017757600080fd5b853561018281610147565b9450602086013561019281610147565b935060408601359250606086013567ffffffffffffffff808211156101b657600080fd5b818801915088601f8301126101ca57600080fd5b8135818111156101d957600080fd5b8960208285010111156101eb57600080fd5b9699959850939650602001949392505050565b60008060006060848603121561021357600080fd5b833561021e81610147565b9250602084013561022e81610147565b929592945050506040919091013590565b6001600160a01b0385168152602081018490526060604082018190528101829052818360808301376000818301608090810191909152601f909201601f191601019392505050565b60006020828403121561029957600080fd5b815180151581146102a957600080fd5b939250505056fea264697066735822122030e05be54d50e1f3dac4ee3b792c18bff99a7f5496955a4d7caef990a785075564736f6c634300080e0033",
  "immutableReferences": {},
  "source": "// SPDX-License-Identifier: AGPLv3\npragma solidity 0.8.14;\n\nimport { ISuperToken, IERC20 } from \"../superfluid/Superfluid.sol\";\n\ncontract MockSmartWallet {\n\n    function approveTest(IERC20 token, address spender, uint256 amount) external {\n        token.approve(spender, amount);\n    }\n\n    function upgradeToTest(ISuperToken superToken, address to, uint256 amount, bytes calldata data) external {\n        superToken.upgradeTo(to, amount, data);\n    }\n}",
  "sourcePath": "/Users/alo/protocol-monorepo/packages/ethereum-contracts/contracts/mocks/MockSmartWallet.sol",
  "compiler": {
    "name": "solc",
    "version": "0.8.14+commit.80d49f37.Emscripten.clang"
  },
  "schemaVersion": "3.4.8",
  "updatedAt": "2022-07-15T06:25:31.541Z",
  "devdoc": {
    "kind": "dev",
    "methods": {},
    "version": 1
  },
  "userdoc": {
    "kind": "user",
    "methods": {},
    "version": 1
  }
}