{
  "contractName": "MultiFlowTesterApp",
  "abi": [
    {
      "inputs": [
        {
          "internalType": "contract IConstantFlowAgreementV1",
          "name": "cfa",
          "type": "address"
        },
        {
          "internalType": "contract ISuperfluid",
          "name": "superfluid",
          "type": "address"
        }
      ],
      "stateMutability": "nonpayable",
      "type": "constructor"
    },
    {
      "inputs": [
        {
          "internalType": "contract ISuperToken",
          "name": "",
          "type": "address"
        },
        {
          "internalType": "address",
          "name": "",
          "type": "address"
        },
        {
          "internalType": "bytes32",
          "name": "",
          "type": "bytes32"
        },
        {
          "internalType": "bytes",
          "name": "",
          "type": "bytes"
        },
        {
          "internalType": "bytes",
          "name": "",
          "type": "bytes"
        }
      ],
      "name": "beforeAgreementCreated",
      "outputs": [
        {
          "internalType": "bytes",
          "name": "",
          "type": "bytes"
        }
      ],
      "stateMutability": "view",
      "type": "function"
    },
    {
      "inputs": [
        {
          "internalType": "contract ISuperToken",
          "name": "",
          "type": "address"
        },
        {
          "internalType": "address",
          "name": "",
          "type": "address"
        },
        {
          "internalType": "bytes32",
          "name": "",
          "type": "bytes32"
        },
        {
          "internalType": "bytes",
          "name": "",
          "type": "bytes"
        },
        {
          "internalType": "bytes",
          "name": "",
          "type": "bytes"
        }
      ],
      "name": "beforeAgreementTerminated",
      "outputs": [
        {
          "internalType": "bytes",
          "name": "",
          "type": "bytes"
        }
      ],
      "stateMutability": "view",
      "type": "function"
    },
    {
      "inputs": [
        {
          "internalType": "contract ISuperToken",
          "name": "superToken",
          "type": "address"
        },
        {
          "internalType": "address",
          "name": "receiver",
          "type": "address"
        },
        {
          "internalType": "int96",
          "name": "flowRate",
          "type": "int96"
        },
        {
          "internalType": "bytes",
          "name": "ctx",
          "type": "bytes"
        }
      ],
      "name": "createFlow",
      "outputs": [
        {
          "internalType": "bytes",
          "name": "newCtx",
          "type": "bytes"
        }
      ],
      "stateMutability": "nonpayable",
      "type": "function"
    },
    {
      "inputs": [
        {
          "internalType": "contract ISuperToken",
          "name": "superToken",
          "type": "address"
        },
        {
          "internalType": "address",
          "name": "agreementClass",
          "type": "address"
        },
        {
          "internalType": "bytes32",
          "name": "agreementId",
          "type": "bytes32"
        },
        {
          "internalType": "bytes",
          "name": "agreementData",
          "type": "bytes"
        },
        {
          "internalType": "bytes",
          "name": "",
          "type": "bytes"
        },
        {
          "internalType": "bytes",
          "name": "ctx",
          "type": "bytes"
        }
      ],
      "name": "afterAgreementCreated",
      "outputs": [
        {
          "internalType": "bytes",
          "name": "newCtx",
          "type": "bytes"
        }
      ],
      "stateMutability": "nonpayable",
      "type": "function"
    },
    {
      "inputs": [
        {
          "internalType": "contract ISuperToken",
          "name": "superToken",
          "type": "address"
        },
        {
          "internalType": "address",
          "name": "agreementClass",
          "type": "address"
        },
        {
          "internalType": "bytes32",
          "name": "agreementId",
          "type": "bytes32"
        },
        {
          "internalType": "bytes",
          "name": "",
          "type": "bytes"
        },
        {
          "internalType": "bytes",
          "name": "",
          "type": "bytes"
        }
      ],
      "name": "beforeAgreementUpdated",
      "outputs": [
        {
          "internalType": "bytes",
          "name": "cbdata",
          "type": "bytes"
        }
      ],
      "stateMutability": "view",
      "type": "function"
    },
    {
      "inputs": [
        {
          "internalType": "contract ISuperToken",
          "name": "superToken",
          "type": "address"
        },
        {
          "internalType": "address",
          "name": "agreementClass",
          "type": "address"
        },
        {
          "internalType": "bytes32",
          "name": "agreementId",
          "type": "bytes32"
        },
        {
          "internalType": "bytes",
          "name": "agreementData",
          "type": "bytes"
        },
        {
          "internalType": "bytes",
          "name": "",
          "type": "bytes"
        },
        {
          "internalType": "bytes",
          "name": "ctx",
          "type": "bytes"
        }
      ],
      "name": "afterAgreementUpdated",
      "outputs": [
        {
          "internalType": "bytes",
          "name": "newCtx",
          "type": "bytes"
        }
      ],
      "stateMutability": "nonpayable",
      "type": "function"
    },
    {
      "inputs": [
        {
          "internalType": "contract ISuperToken",
          "name": "superToken",
          "type": "address"
        },
        {
          "internalType": "address",
          "name": "agreementClass",
          "type": "address"
        },
        {
          "internalType": "bytes32",
          "name": "",
          "type": "bytes32"
        },
        {
          "internalType": "bytes",
          "name": "agreementData",
          "type": "bytes"
        },
        {
          "internalType": "bytes",
          "name": "",
          "type": "bytes"
        },
        {
          "internalType": "bytes",
          "name": "ctx",
          "type": "bytes"
        }
      ],
      "name": "afterAgreementTerminated",
      "outputs": [
        {
          "internalType": "bytes",
          "name": "newCtx",
          "type": "bytes"
        }
      ],
      "stateMutability": "nonpayable",
      "type": "function"
    }
  ],
  "bytecode": "0x60806040523480156200001157600080fd5b5060405162001fee38038062001fee833981016040819052620000349162000127565b6001600160a01b0382166200004d576200004d62000166565b6001600160a01b03811662000066576200006662000166565b600080546001600160a01b038085166001600160a01b03199283161790925560018054928416929091168217905560405163bd1c448b60e01b8152641100000001919063bd1c448b90620000d190849060040190815260406020820181905260009082015260600190565b600060405180830381600087803b158015620000ec57600080fd5b505af115801562000101573d6000803e3d6000fd5b505050505050506200017c565b6001600160a01b03811681146200012457600080fd5b50565b600080604083850312156200013b57600080fd5b825162000148816200010e565b60208401519092506200015b816200010e565b809150509250929050565b634e487b7160e01b600052600160045260246000fd5b611e62806200018c6000396000f3fe608060405234801561001057600080fd5b506004361061007d5760003560e01c80635f9e7d771161005b5780635f9e7d77146100d157806362fc305e146100e4578063884d1f40146100f7578063d86ed3e51461010a57600080fd5b8063230dbd291461008257806330d9c915146100ab57806353c11f99146100be575b600080fd5b6100956100903660046113bf565b61011d565b6040516100a291906114e6565b60405180910390f35b6100956100b9366004611500565b610312565b6100956100cc3660046113bf565b61037a565b6100956100df366004611500565b6108f9565b6100956100f23660046115ae565b610960565b610095610105366004611500565b610a60565b6100956101183660046113bf565b610b48565b6001546060906001600160a01b0316331461013a5761013a61162a565b6000546001600160a01b038a81169116146101575761015761162a565b61015f6112c9565b600154604051631fb6491d60e11b81526001600160a01b0390911690633f6c923a906101919087908790600401611669565b600060405180830381865afa1580156101ae573d6000803e3d6000fd5b505050506040513d6000823e601f3d908101601f191682016040526101d69190810190611793565b80825260a001516101e690610d2d565b60408301526001600160a01b031660208201526102058789018961189a565b6001600160a01b039081166080840152908116606080840182905283510151909116146102345761023461162a565b60808101516001600160a01b031630146102505761025061162a565b805160c001516102625761026261162a565b60008054604051631557a4cd60e31b81526001600160a01b038e81166004830152602482018d90529091169063aabd266890604401608060405180830381865afa1580156102b4573d6000803e3d6000fd5b505050506040513d601f19601f820116820180604052508101906102d891906118d3565b50506040840151845160c001519193506103029250908e906328104d3160e11b9085908a8a610ea6565b9c9b505050505050505050505050565b60405162461bcd60e51b815260206004820152602f60248201527f556e737570706f727465642063616c6c6261636b202d204265666f726520416760448201526e1c99595b595b9d0810dc99585d1959608a1b60648201526060906084015b60405180910390fd5b6001546060906001600160a01b031633146103975761039761162a565b6000546001600160a01b038a81169116146103b4576103b461162a565b6103bc6112c9565b600154604051631fb6491d60e11b81526001600160a01b0390911690633f6c923a906103ee9087908790600401611669565b600060405180830381865afa15801561040b573d6000803e3d6000fd5b505050506040513d6000823e601f3d908101601f191682016040526104339190810190611793565b80825260a0015161044390610d2d565b60408301526001600160a01b031660208201526104628789018961189a565b6001600160a01b0390811660808401521660608201819052301480610493575060808101516001600160a01b031630145b61049f5761049f61162a565b606084848080601f0160208091040260200160405190810160405280939291908181526020018383808284376000920191909152505050506080830151909350306001600160a01b03909116036106405760005b8260400151602001515181101561063a5760008054906101000a90046001600160a01b03166001600160a01b031663b4b333c68e30866040015160200151858151811061054257610542611911565b602090810291909101810151516040805160008152928301905261056b93929160448101611927565b60408051601f19818403018152918152602080830180516001600160e01b031660e09590951b9490941790935260015460008054835191825294810192839052634329d29360e01b9092529195506001600160a01b039182169350634329d293926105de92169086908960248201611965565b6000604051808303816000875af11580156105fd573d6000803e3d6000fd5b505050506040513d6000823e601f3d908101601f1916820160405261062591908101906119ba565b5093508061063281611a34565b9150506104f3565b506108ea565b60005b826040015160200151518110156107ce5782608001516001600160a01b0316836040015160200151828151811061067c5761067c611911565b6020026020010151600001516001600160a01b031603156107bc5760008054906101000a90046001600160a01b03166001600160a01b031663b4b333c68e3086604001516020015185815181106106d5576106d5611911565b60209081029190910181015151604080516000815292830190526106fe93929160448101611927565b60408051601f19818403018152918152602080830180516001600160e01b031660e09590951b9490941790935260015460008054835191825294810192839052634329d29360e01b9092529195506001600160a01b039182169350634329d2939261077192169086908960248201611965565b6000604051808303816000875af1158015610790573d6000803e3d6000fd5b505050506040513d6000823e601f3d908101601f191682016040526107b891908101906119ba565b5093505b806107c681611a34565b915050610643565b506000805460208401516001600160a01b039091169163b4b333c6918f9130906040519080825280601f01601f191660200182016040528015610818576020820181803683370190505b5060405160240161082c9493929190611927565b60408051601f19818403018152918152602080830180516001600160e01b031660e09590951b9490941790935260015460008054835191825294810192839052634329d29360e01b9092529194506001600160a01b039182169350634329d2939261089f92169085908860248201611965565b6000604051808303816000875af11580156108be573d6000803e3d6000fd5b505050506040513d6000823e601f3d908101601f191682016040526108e691908101906119ba565b5092505b50509998505050505050505050565b60405162461bcd60e51b815260206004820152603360248201527f556e737570706f727465642063616c6c6261636b202d20204265666f7265204160448201527219dc99595b595b9d0815195c9b5a5b985d1959606a1b6064820152606090608401610371565b600080546040805183815260208101909152606092916001600160a01b0316906362fc305e90610999908a908a908a9060448101611a4d565b60408051601f19818403018152918152602080830180516001600160e01b031660e09590951b9490941790935260015460008054835191825294810192839052634329d29360e01b9092529194506001600160a01b039182169350634329d29392610a0d9216908590898960248301611a83565b6000604051808303816000875af1158015610a2c573d6000803e3d6000fd5b505050506040513d6000823e601f3d908101601f19168201604052610a5491908101906119ba565b50979650505050505050565b6001546060906001600160a01b03163314610a7d57610a7d61162a565b6000546001600160a01b03888116911614610a9a57610a9a61162a565b60008054604051631557a4cd60e31b81526001600160a01b038b81166004830152602482018a90529091169063aabd266890604401608060405180830381865afa158015610aec573d6000803e3d6000fd5b505050506040513d601f19601f82011682018060405250810190610b1091906118d3565b5050600b0b91505080604051602001610b2b91815260200190565b604051602081830303815290604052915050979650505050505050565b6001546060906001600160a01b03163314610b6557610b6561162a565b6000546001600160a01b038a8116911614610b8257610b8261162a565b610b8a6112c9565b600154604051631fb6491d60e11b81526001600160a01b0390911690633f6c923a90610bbc9087908790600401611669565b600060405180830381865afa158015610bd9573d6000803e3d6000fd5b505050506040513d6000823e601f3d908101601f19168201604052610c019190810190611793565b80825260a00151610c1190610d2d565b60408301526001600160a01b03166020820152610c308789018961189a565b6001600160a01b03908116608084015290811660608084018290528351015190911614610c5f57610c5f61162a565b60808101516001600160a01b03163014610c7b57610c7b61162a565b805160c00151610c8d57610c8d61162a565b60008054604051631557a4cd60e31b81526001600160a01b038e81166004830152602482018d90529091169063aabd266890604401608060405180830381865afa158015610cdf573d6000803e3d6000fd5b505050506040513d601f19601f82011682018060405250810190610d0391906118d3565b50506040840151845160c001519193506103029250908e9063317e182f60e11b9085908a8a610ea6565b6040805180820190915260008082526060602083015290600060608085806020019051810190610d5d9190611b69565b80518251949950929650909450925014610d7957610d7961162a565b60ff83168452815167ffffffffffffffff811115610d9957610d99611685565b604051908082528060200260200182016040528015610dde57816020015b6040805180820190915260008082526020820152815260200190600190039081610db75790505b50602085015260005b8251811015610e9d576000828281518110610e0457610e04611911565b602002602001015111610e1957610e1961162a565b6040518060400160405280848381518110610e3657610e36611911565b60200260200101516001600160a01b03168152602001838381518110610e5e57610e5e611911565b602002602001015181525085602001518281518110610e7f57610e7f611911565b60200260200101819052508080610e9590611a34565b915050610de7565b50505050915091565b60606000610eb78960200151611279565b905083838080601f01602080910402602001604051908101604052809392919081815260200183838082843760009201829052508054949650936001600160a01b03169250630602f7db91508b9050610f1160018a611c51565b6040516001600160e01b031960e085901b1681526001600160a01b0390921660048301526024820152604401602060405180830381865afa158015610f5a573d6000803e3d6000fd5b505050506040513d601f19601f82011682018060405250810190610f7e9190611c68565b6000546040516346ccbfb760e11b81526001600160a01b038c81166004830152600b84900b6024830152929350911690638d997f6e90604401602060405180830381865afa158015610fd4573d6000803e3d6000fd5b505050506040513d601f19601f82011682018060405250810190610ff89190611c85565b8a5190965060649061100d9060ff1688611c9e565b6110179190611cd3565b8a5190965060649061102c9060ff1689611ce7565b6110369190611d81565b965060005b8a60200151518110156112575760008b60200151828151811061106057611060611911565b6020026020010151905060008482602001518a61107d9190611c9e565b6110879190611cd3565b905060008060009054906101000a90046001600160a01b03166001600160a01b0316630602f7db8e846040518363ffffffff1660e01b81526004016110e19291906001600160a01b03929092168252602082015260400190565b602060405180830381865afa1580156110fe573d6000803e3d6000fd5b505050506040513d601f19601f820116820180604052508101906111229190611c68565b905061112e818c611dc4565b8351909b506000908d908f9084846040519080825280601f01601f191660200182016040528015611166576020820181803683370190505b5060405160240161117a9493929190611a4d565b60408051601f19818403018152918152602080830180516001600160e01b03166001600160e01b0319959095169490941790935260015460008054835191825294810192839052634329d29360e01b9092529193506001600160a01b0391821692634329d293926111f49291169085908d60248201611965565b6000604051808303816000875af1158015611213573d6000803e3d6000fd5b505050506040513d6000823e601f3d908101601f1916820160405261123b91908101906119ba565b508098505050505050808061124f90611a34565b91505061103b565b50600087600b0b121561126c5761126c61162a565b5050979650505050505050565b6000805b82518110156112c35782818151811061129857611298611911565b602002602001015160200151826112af9190611e14565b9150806112bb81611a34565b91505061127d565b50919050565b6040805161020081018252600060a0820181815260c0830182905260e083018290526101008301829052610120830182905260606101408401819052610160840183905261018084018390526101a084018390526101c084018390526101e084018390529083526020808401839052845180860186529283528201529091820190815260006020820181905260409091015290565b6001600160a01b038116811461137357600080fd5b50565b60008083601f84011261138857600080fd5b50813567ffffffffffffffff8111156113a057600080fd5b6020830191508360208285010111156113b857600080fd5b9250929050565b600080600080600080600080600060c08a8c0312156113dd57600080fd5b89356113e88161135e565b985060208a01356113f88161135e565b975060408a0135965060608a013567ffffffffffffffff8082111561141c57600080fd5b6114288d838e01611376565b909850965060808c013591508082111561144157600080fd5b61144d8d838e01611376565b909650945060a08c013591508082111561146657600080fd5b506114738c828d01611376565b915080935050809150509295985092959850929598565b60005b838110156114a557818101518382015260200161148d565b838111156114b4576000848401525b50505050565b600081518084526114d281602086016020860161148a565b601f01601f19169290920160200192915050565b6020815260006114f960208301846114ba565b9392505050565b600080600080600080600060a0888a03121561151b57600080fd5b87356115268161135e565b965060208801356115368161135e565b955060408801359450606088013567ffffffffffffffff8082111561155a57600080fd5b6115668b838c01611376565b909650945060808a013591508082111561157f57600080fd5b5061158c8a828b01611376565b989b979a50959850939692959293505050565b80600b0b811461137357600080fd5b6000806000806000608086880312156115c657600080fd5b85356115d18161135e565b945060208601356115e18161135e565b935060408601356115f18161159f565b9250606086013567ffffffffffffffff81111561160d57600080fd5b61161988828901611376565b969995985093965092949392505050565b634e487b7160e01b600052600160045260246000fd5b81835281816020850137506000828201602090810191909152601f909101601f19169091010190565b60208152600061167d602083018486611640565b949350505050565b634e487b7160e01b600052604160045260246000fd5b604051610160810167ffffffffffffffff811182821017156116bf576116bf611685565b60405290565b604051601f8201601f1916810167ffffffffffffffff811182821017156116ee576116ee611685565b604052919050565b805160ff8116811461170757600080fd5b919050565b80516117078161135e565b80516001600160e01b03198116811461170757600080fd5b600082601f83011261174057600080fd5b815167ffffffffffffffff81111561175a5761175a611685565b61176d601f8201601f19166020016116c5565b81815284602083860101111561178257600080fd5b61167d82602083016020870161148a565b6000602082840312156117a557600080fd5b815167ffffffffffffffff808211156117bd57600080fd5b9083019061016082860312156117d257600080fd5b6117da61169b565b6117e3836116f6565b81526117f1602084016116f6565b60208201526040830151604082015261180c6060840161170c565b606082015261181d60808401611717565b608082015260a08301518281111561183457600080fd5b6118408782860161172f565b60a08301525060c083015160c082015260e083015160e082015261010091508183015182820152610120915061187782840161170c565b82820152610140915061188b82840161170c565b91810191909152949350505050565b600080604083850312156118ad57600080fd5b82356118b88161135e565b915060208301356118c88161135e565b809150509250929050565b600080600080608085870312156118e957600080fd5b8451935060208501516118fb8161159f565b6040860151606090960151949790965092505050565b634e487b7160e01b600052603260045260246000fd5b6001600160a01b03858116825284811660208301528316604082015260806060820181905260009061195b908301846114ba565b9695505050505050565b6001600160a01b0385168152608060208201819052600090611989908301866114ba565b828103604084015261199b81866114ba565b905082810360608401526119af81856114ba565b979650505050505050565b600080604083850312156119cd57600080fd5b825167ffffffffffffffff808211156119e557600080fd5b6119f18683870161172f565b93506020850151915080821115611a0757600080fd5b50611a148582860161172f565b9150509250929050565b634e487b7160e01b600052601160045260246000fd5b600060018201611a4657611a46611a1e565b5060010190565b6001600160a01b03858116825284166020820152600b83900b604082015260806060820181905260009061195b908301846114ba565b6001600160a01b0386168152608060208201819052600090611aa7908301876114ba565b8281036040840152611ab981876114ba565b90508281036060840152611ace818587611640565b98975050505050505050565b600067ffffffffffffffff821115611af457611af4611685565b5060051b60200190565b600082601f830112611b0f57600080fd5b81516020611b24611b1f83611ada565b6116c5565b82815260059290921b84018101918181019086841115611b4357600080fd5b8286015b84811015611b5e5780518352918301918301611b47565b509695505050505050565b60008060008060808587031215611b7f57600080fd5b8451611b8a8161135e565b93506020611b998682016116f6565b9350604086015167ffffffffffffffff80821115611bb657600080fd5b818801915088601f830112611bca57600080fd5b8151611bd8611b1f82611ada565b81815260059190911b8301840190848101908b831115611bf757600080fd5b938501935b82851015611c1e578451611c0f8161135e565b82529385019390850190611bfc565b60608b01519097509450505080831115611c3757600080fd5b5050611c4587828801611afe565b91505092959194509250565b600082821015611c6357611c63611a1e565b500390565b600060208284031215611c7a57600080fd5b81516114f98161159f565b600060208284031215611c9757600080fd5b5051919050565b6000816000190483118215151615611cb857611cb8611a1e565b500290565b634e487b7160e01b600052601260045260246000fd5b600082611ce257611ce2611cbd565b500490565b600081600b0b83600b0b60016001605f1b03600082136000841383830485118282161615611d1757611d17611a1e565b6b7fffffffffffffffffffffff196000851282811687830587121615611d3f57611d3f611a1e565b60008712925085820587128484161615611d5b57611d5b611a1e565b85850587128184161615611d7157611d71611a1e565b5050509290910295945050505050565b600081600b0b83600b0b80611d9857611d98611cbd565b6b7fffffffffffffffffffffff19821460001982141615611dbb57611dbb611a1e565b90059392505050565b600081600b0b83600b0b600081128160016001605f1b031901831281151615611def57611def611a1e565b8160016001605f1b03018313811615611e0a57611e0a611a1e565b5090039392505050565b60008219821115611e2757611e27611a1e565b50019056fea26469706673582212209efdde3194609ab496b56b73701f9a9fa62dfee173da10382c26279d7b6f8c8364736f6c634300080e0033",
  "immutableReferences": {},
  "source": "// SPDX-License-Identifier: AGPLv3\npragma solidity 0.8.14;\n\nimport {\n    ISuperfluid,\n    ISuperToken,\n    SuperAppBase,\n    SuperAppDefinitions\n} from \"../apps/SuperAppBase.sol\";\nimport { IConstantFlowAgreementV1 } from \"../interfaces/agreements/IConstantFlowAgreementV1.sol\";\n\n/**\n * @title Multi Flow tester App (MFA)\n * @author Superfluid\n * @dev A super app that can split incoming flows to multiple outgoing flows.\n *      This is used for testing CFA callbacks logic.\n */\ncontract MultiFlowTesterApp is SuperAppBase {\n\n    struct ReceiverData {\n        address to;\n        uint256 proportion;\n    }\n\n    struct Configuration {\n        uint8 ratioPct;\n        ReceiverData[] receivers;\n    }\n\n    IConstantFlowAgreementV1 private _cfa;\n    ISuperfluid private _host;\n\n    constructor(IConstantFlowAgreementV1 cfa, ISuperfluid superfluid) {\n        assert(address(cfa) != address(0));\n        assert(address(superfluid) != address(0));\n        _cfa = cfa;\n        _host = superfluid;\n\n        uint256 configWord =\n            SuperAppDefinitions.APP_LEVEL_FINAL |\n            SuperAppDefinitions.BEFORE_AGREEMENT_CREATED_NOOP |\n            SuperAppDefinitions.BEFORE_AGREEMENT_TERMINATED_NOOP;\n\n        _host.registerAppWithKey(configWord, \"\");\n    }\n\n    function _parseUserData(\n        bytes memory userData\n    )\n        private pure\n        returns (address sender, Configuration memory configuration)\n    {\n        // parse user data\n        uint8 ratioPct;\n        address[] memory receivers;\n        uint256[] memory proportions;\n        (sender, ratioPct, receivers, proportions) = abi.decode(\n            userData, (address, uint8, address[], uint256[]));\n        assert(receivers.length == proportions.length);\n\n        configuration.ratioPct = ratioPct;\n        configuration.receivers = new ReceiverData[](receivers.length);\n        for(uint256 i = 0; i < receivers.length; i++) {\n            assert(proportions[i] > 0);\n            configuration.receivers[i] = ReceiverData(receivers[i], proportions[i]);\n        }\n    }\n\n    function _sumProportions(ReceiverData[] memory receivers) internal pure returns(uint256 sum) {\n        for(uint256 i = 0; i < receivers.length; i++) {\n            sum += receivers[i].proportion;\n        }\n    }\n\n    function _updateMultiFlow(\n        Configuration memory configuration,\n        ISuperToken superToken,\n        bytes4 selector,\n        int96 flowRate,\n        uint256 appAllowanceGranted,\n        bytes calldata ctx\n    )\n        private\n        returns (bytes memory newCtx)\n    {\n        uint256 sum = _sumProportions(configuration.receivers);\n\n        newCtx = ctx;\n\n        // in case of mfa, we underutlize the app allowance for simplicity\n        int96 safeFlowRate = _cfa.getMaximumFlowRateFromDeposit(superToken, appAllowanceGranted - 1);\n        appAllowanceGranted = _cfa.getDepositRequiredForFlowRate(superToken, safeFlowRate);\n\n        // scale the flow rate and app allowance numbers\n        appAllowanceGranted = appAllowanceGranted * configuration.ratioPct / 100;\n        // NOTE casting to int96 is okay here because ratioPct is uint8\n        flowRate = flowRate * int96(uint96(configuration.ratioPct)) / 100;\n\n        for(uint256 i = 0; i < configuration.receivers.length; i++) {\n            ReceiverData memory receiverData = configuration.receivers[i];\n            uint256 targetAllowance = appAllowanceGranted * receiverData.proportion / sum;\n            int96 targetFlowRate = _cfa.getMaximumFlowRateFromDeposit(\n                superToken,\n                targetAllowance\n            );\n            flowRate -= targetFlowRate;\n            bytes memory callData = abi.encodeWithSelector(\n                selector,\n                superToken,\n                receiverData.to,\n                targetFlowRate,\n                new bytes(0)\n            );\n            (newCtx, ) = _host.callAgreementWithContext(\n                _cfa,\n                callData,\n                new bytes(0), // user data\n                newCtx\n            );\n        }\n        assert(flowRate >= 0);\n    }\n\n    // this function is for testing purpose\n    function createFlow(\n        ISuperToken superToken,\n        address receiver,\n        int96 flowRate,\n        bytes calldata ctx\n    )\n        external\n        returns (bytes memory newCtx)\n    {\n        bytes memory callData = abi.encodeCall(\n            _cfa.createFlow,\n            (\n                superToken,\n                receiver,\n                flowRate,\n                new bytes(0)\n            )\n        );\n        (newCtx, ) = _host.callAgreementWithContext(\n            _cfa,\n            callData,\n            new bytes(0), // user data\n            ctx\n        );\n    }\n\n    struct StackVars {\n    \tISuperfluid.Context context;\n        address mfaSender;\n        Configuration configuration;\n        address flowSender;\n        address flowReceiver;\n    }\n\n    function afterAgreementCreated(\n        ISuperToken superToken,\n        address agreementClass,\n        bytes32 agreementId,\n        bytes calldata agreementData,\n        bytes calldata /*cbdata*/,\n        bytes calldata ctx\n    )\n        external override\n        onlyHost\n        returns(bytes memory newCtx)\n    {\n        assert(agreementClass == address(_cfa));\n        StackVars memory vars;\n\n        vars.context = _host.decodeCtx(ctx);\n        // parse user data\n        (vars.mfaSender, vars.configuration) = _parseUserData(vars.context.userData);\n        // validate the context\n        {\n            (vars.flowSender, vars.flowReceiver) = abi.decode(agreementData, (address, address));\n            assert(vars.flowSender == vars.context.msgSender);\n            assert(vars.flowReceiver == address(this));\n            assert(vars.context.appAllowanceGranted > 0);\n        }\n        int96 flowRate;\n        (,flowRate,,) = _cfa.getFlowByID(superToken, agreementId);\n        newCtx = _updateMultiFlow(\n            vars.configuration,\n            superToken,\n            _cfa.createFlow.selector,\n            flowRate,\n            vars.context.appAllowanceGranted,\n            ctx);\n    }\n\n    function beforeAgreementUpdated(\n        ISuperToken superToken,\n        address agreementClass,\n        bytes32 agreementId,\n        bytes calldata /*agreementData*/,\n        bytes calldata /*ctx*/\n    )\n        external view override\n        onlyHost\n        returns (bytes memory cbdata)\n    {\n        assert(agreementClass == address(_cfa));\n        (, int256 oldFlowRate, ,) = _cfa.getFlowByID(superToken, agreementId);\n        return abi.encode(oldFlowRate);\n    }\n\n    function afterAgreementUpdated(\n        ISuperToken superToken,\n        address agreementClass,\n        bytes32 agreementId,\n        bytes calldata agreementData,\n        bytes calldata /* cbdata */,\n        bytes calldata ctx\n    )\n        external override\n        onlyHost\n        returns (bytes memory newCtx)\n    {\n        assert(agreementClass == address(_cfa));\n        StackVars memory vars;\n\n        vars.context = _host.decodeCtx(ctx);\n        // parse user data\n        (vars.mfaSender, vars.configuration) = _parseUserData(vars.context.userData);\n        // validate the context\n        {\n            (vars.flowSender, vars.flowReceiver) = abi.decode(agreementData, (address, address));\n            assert(vars.flowSender == vars.context.msgSender);\n            assert(vars.flowReceiver == address(this));\n            assert(vars.context.appAllowanceGranted > 0);\n        }\n        int96 flowRate;\n        (,flowRate,,) = _cfa.getFlowByID(superToken, agreementId);\n        newCtx = _updateMultiFlow(\n            vars.configuration,\n            superToken,\n            _cfa.updateFlow.selector,\n            flowRate,\n            vars.context.appAllowanceGranted,\n            ctx);\n    }\n\n    function afterAgreementTerminated(\n        ISuperToken superToken,\n        address agreementClass,\n        bytes32 /*agreementId*/,\n        bytes calldata agreementData,\n        bytes calldata /*cbdata*/,\n        bytes calldata ctx\n    )\n\n        external override\n        onlyHost\n        returns (bytes memory newCtx)\n    {\n        assert(agreementClass == address(_cfa));\n        StackVars memory vars;\n\n        vars.context = _host.decodeCtx(ctx);\n\n        // parse user data\n        (vars.mfaSender, vars.configuration) = _parseUserData(vars.context.userData);\n        // validate the context\n        (vars.flowSender, vars.flowReceiver) = abi.decode(agreementData, (address, address));\n        assert(vars.flowSender == address(this) || vars.flowReceiver == address(this));\n\n        bytes memory callData;\n        newCtx = ctx;\n        if (vars.flowReceiver == address(this)) {\n            for(uint256 i = 0; i < vars.configuration.receivers.length; i++) {\n                callData = abi.encodeCall(\n                    _cfa.deleteFlow,\n                    (\n                        superToken,\n                        address(this),\n                        vars.configuration.receivers[i].to,\n                        new bytes(0) //placeholder ctx\n                    )\n                );\n                (newCtx, ) = _host.callAgreementWithContext(\n                    _cfa,\n                    callData,\n                    new bytes(0), // user data\n                    newCtx\n                );\n            }\n        } else /* if (vars.flowSender == address(this)) */ {\n            for(uint256 i = 0; i < vars.configuration.receivers.length; i++) {\n                // skip current closed flow\n                if (vars.configuration.receivers[i].to == vars.flowReceiver) continue;\n                // close the rest of the mfa receiver flows\n                callData = abi.encodeCall(\n                    _cfa.deleteFlow,\n                    (\n                        superToken,\n                        address(this),\n                        vars.configuration.receivers[i].to,\n                        new bytes(0) //placeholder ctx\n                    )\n                );\n                (newCtx, ) = _host.callAgreementWithContext(\n                    _cfa,\n                    callData,\n                    new bytes(0), // user data\n                    newCtx\n                );\n            }\n            // close the mfa sender flow\n            callData = abi.encodeCall(\n                _cfa.deleteFlow,\n                (\n                    superToken,\n                    vars.mfaSender,\n                    address(this),\n                    new bytes(0) //placeholder ctx\n                )\n            );\n            (newCtx, ) = _host.callAgreementWithContext(\n                _cfa,\n                callData,\n                new bytes(0), // user data\n                newCtx\n            );\n        }\n    }\n\n    modifier onlyHost() {\n        assert(msg.sender == address(_host));\n        _;\n    }\n}\n",
  "sourcePath": "/Users/alo/protocol-monorepo/packages/ethereum-contracts/contracts/mocks/MultiFlowTesterApp.sol",
  "compiler": {
    "name": "solc",
    "version": "0.8.14+commit.80d49f37.Emscripten.clang"
  },
  "schemaVersion": "3.4.8",
  "updatedAt": "2022-07-15T06:25:31.542Z",
  "devdoc": {
    "author": "Superfluid",
    "details": "A super app that can split incoming flows to multiple outgoing flows.      This is used for testing CFA callbacks logic.",
    "kind": "dev",
    "methods": {},
    "title": "Multi Flow tester App (MFA)",
    "version": 1
  },
  "userdoc": {
    "kind": "user",
    "methods": {},
    "version": 1
  }
}