{
  "contractName": "SuperToken",
  "abi": [
    {
      "inputs": [
        {
          "internalType": "contract ISuperfluid",
          "name": "host",
          "type": "address"
        }
      ],
      "stateMutability": "nonpayable",
      "type": "constructor"
    },
    {
      "anonymous": false,
      "inputs": [
        {
          "indexed": true,
          "internalType": "address",
          "name": "agreementClass",
          "type": "address"
        },
        {
          "indexed": false,
          "internalType": "bytes32",
          "name": "id",
          "type": "bytes32"
        },
        {
          "indexed": false,
          "internalType": "bytes32[]",
          "name": "data",
          "type": "bytes32[]"
        }
      ],
      "name": "AgreementCreated",
      "type": "event"
    },
    {
      "anonymous": false,
      "inputs": [
        {
          "indexed": true,
          "internalType": "address",
          "name": "agreementClass",
          "type": "address"
        },
        {
          "indexed": false,
          "internalType": "bytes32",
          "name": "id",
          "type": "bytes32"
        },
        {
          "indexed": true,
          "internalType": "address",
          "name": "penaltyAccount",
          "type": "address"
        },
        {
          "indexed": true,
          "internalType": "address",
          "name": "rewardAccount",
          "type": "address"
        },
        {
          "indexed": false,
          "internalType": "uint256",
          "name": "rewardAmount",
          "type": "uint256"
        }
      ],
      "name": "AgreementLiquidated",
      "type": "event"
    },
    {
      "anonymous": false,
      "inputs": [
        {
          "indexed": false,
          "internalType": "address",
          "name": "liquidatorAccount",
          "type": "address"
        },
        {
          "indexed": true,
          "internalType": "address",
          "name": "agreementClass",
          "type": "address"
        },
        {
          "indexed": false,
          "internalType": "bytes32",
          "name": "id",
          "type": "bytes32"
        },
        {
          "indexed": true,
          "internalType": "address",
          "name": "penaltyAccount",
          "type": "address"
        },
        {
          "indexed": true,
          "internalType": "address",
          "name": "bondAccount",
          "type": "address"
        },
        {
          "indexed": false,
          "internalType": "uint256",
          "name": "rewardAmount",
          "type": "uint256"
        },
        {
          "indexed": false,
          "internalType": "uint256",
          "name": "bailoutAmount",
          "type": "uint256"
        }
      ],
      "name": "AgreementLiquidatedBy",
      "type": "event"
    },
    {
      "anonymous": false,
      "inputs": [
        {
          "indexed": true,
          "internalType": "address",
          "name": "agreementClass",
          "type": "address"
        },
        {
          "indexed": false,
          "internalType": "bytes32",
          "name": "id",
          "type": "bytes32"
        },
        {
          "indexed": true,
          "internalType": "address",
          "name": "liquidatorAccount",
          "type": "address"
        },
        {
          "indexed": true,
          "internalType": "address",
          "name": "targetAccount",
          "type": "address"
        },
        {
          "indexed": false,
          "internalType": "address",
          "name": "rewardAmountReceiver",
          "type": "address"
        },
        {
          "indexed": false,
          "internalType": "uint256",
          "name": "rewardAmount",
          "type": "uint256"
        },
        {
          "indexed": false,
          "internalType": "int256",
          "name": "targetAccountBalanceDelta",
          "type": "int256"
        },
        {
          "indexed": false,
          "internalType": "bytes",
          "name": "liquidationTypeData",
          "type": "bytes"
        }
      ],
      "name": "AgreementLiquidatedV2",
      "type": "event"
    },
    {
      "anonymous": false,
      "inputs": [
        {
          "indexed": true,
          "internalType": "address",
          "name": "agreementClass",
          "type": "address"
        },
        {
          "indexed": true,
          "internalType": "address",
          "name": "account",
          "type": "address"
        },
        {
          "indexed": false,
          "internalType": "uint256",
          "name": "slotId",
          "type": "uint256"
        }
      ],
      "name": "AgreementStateUpdated",
      "type": "event"
    },
    {
      "anonymous": false,
      "inputs": [
        {
          "indexed": true,
          "internalType": "address",
          "name": "agreementClass",
          "type": "address"
        },
        {
          "indexed": false,
          "internalType": "bytes32",
          "name": "id",
          "type": "bytes32"
        }
      ],
      "name": "AgreementTerminated",
      "type": "event"
    },
    {
      "anonymous": false,
      "inputs": [
        {
          "indexed": true,
          "internalType": "address",
          "name": "agreementClass",
          "type": "address"
        },
        {
          "indexed": false,
          "internalType": "bytes32",
          "name": "id",
          "type": "bytes32"
        },
        {
          "indexed": false,
          "internalType": "bytes32[]",
          "name": "data",
          "type": "bytes32[]"
        }
      ],
      "name": "AgreementUpdated",
      "type": "event"
    },
    {
      "anonymous": false,
      "inputs": [
        {
          "indexed": true,
          "internalType": "address",
          "name": "owner",
          "type": "address"
        },
        {
          "indexed": true,
          "internalType": "address",
          "name": "spender",
          "type": "address"
        },
        {
          "indexed": false,
          "internalType": "uint256",
          "name": "value",
          "type": "uint256"
        }
      ],
      "name": "Approval",
      "type": "event"
    },
    {
      "anonymous": false,
      "inputs": [
        {
          "indexed": true,
          "internalType": "address",
          "name": "operator",
          "type": "address"
        },
        {
          "indexed": true,
          "internalType": "address",
          "name": "tokenHolder",
          "type": "address"
        }
      ],
      "name": "AuthorizedOperator",
      "type": "event"
    },
    {
      "anonymous": false,
      "inputs": [
        {
          "indexed": true,
          "internalType": "address",
          "name": "bailoutAccount",
          "type": "address"
        },
        {
          "indexed": false,
          "internalType": "uint256",
          "name": "bailoutAmount",
          "type": "uint256"
        }
      ],
      "name": "Bailout",
      "type": "event"
    },
    {
      "anonymous": false,
      "inputs": [
        {
          "indexed": true,
          "internalType": "address",
          "name": "operator",
          "type": "address"
        },
        {
          "indexed": true,
          "internalType": "address",
          "name": "from",
          "type": "address"
        },
        {
          "indexed": false,
          "internalType": "uint256",
          "name": "amount",
          "type": "uint256"
        },
        {
          "indexed": false,
          "internalType": "bytes",
          "name": "data",
          "type": "bytes"
        },
        {
          "indexed": false,
          "internalType": "bytes",
          "name": "operatorData",
          "type": "bytes"
        }
      ],
      "name": "Burned",
      "type": "event"
    },
    {
      "anonymous": false,
      "inputs": [
        {
          "indexed": false,
          "internalType": "bytes32",
          "name": "uuid",
          "type": "bytes32"
        },
        {
          "indexed": false,
          "internalType": "address",
          "name": "codeAddress",
          "type": "address"
        }
      ],
      "name": "CodeUpdated",
      "type": "event"
    },
    {
      "anonymous": false,
      "inputs": [
        {
          "indexed": false,
          "internalType": "uint8",
          "name": "version",
          "type": "uint8"
        }
      ],
      "name": "Initialized",
      "type": "event"
    },
    {
      "anonymous": false,
      "inputs": [
        {
          "indexed": true,
          "internalType": "address",
          "name": "operator",
          "type": "address"
        },
        {
          "indexed": true,
          "internalType": "address",
          "name": "to",
          "type": "address"
        },
        {
          "indexed": false,
          "internalType": "uint256",
          "name": "amount",
          "type": "uint256"
        },
        {
          "indexed": false,
          "internalType": "bytes",
          "name": "data",
          "type": "bytes"
        },
        {
          "indexed": false,
          "internalType": "bytes",
          "name": "operatorData",
          "type": "bytes"
        }
      ],
      "name": "Minted",
      "type": "event"
    },
    {
      "anonymous": false,
      "inputs": [
        {
          "indexed": true,
          "internalType": "address",
          "name": "operator",
          "type": "address"
        },
        {
          "indexed": true,
          "internalType": "address",
          "name": "tokenHolder",
          "type": "address"
        }
      ],
      "name": "RevokedOperator",
      "type": "event"
    },
    {
      "anonymous": false,
      "inputs": [
        {
          "indexed": true,
          "internalType": "address",
          "name": "operator",
          "type": "address"
        },
        {
          "indexed": true,
          "internalType": "address",
          "name": "from",
          "type": "address"
        },
        {
          "indexed": true,
          "internalType": "address",
          "name": "to",
          "type": "address"
        },
        {
          "indexed": false,
          "internalType": "uint256",
          "name": "amount",
          "type": "uint256"
        },
        {
          "indexed": false,
          "internalType": "bytes",
          "name": "data",
          "type": "bytes"
        },
        {
          "indexed": false,
          "internalType": "bytes",
          "name": "operatorData",
          "type": "bytes"
        }
      ],
      "name": "Sent",
      "type": "event"
    },
    {
      "anonymous": false,
      "inputs": [
        {
          "indexed": true,
          "internalType": "address",
          "name": "account",
          "type": "address"
        },
        {
          "indexed": false,
          "internalType": "uint256",
          "name": "amount",
          "type": "uint256"
        }
      ],
      "name": "TokenDowngraded",
      "type": "event"
    },
    {
      "anonymous": false,
      "inputs": [
        {
          "indexed": true,
          "internalType": "address",
          "name": "account",
          "type": "address"
        },
        {
          "indexed": false,
          "internalType": "uint256",
          "name": "amount",
          "type": "uint256"
        }
      ],
      "name": "TokenUpgraded",
      "type": "event"
    },
    {
      "anonymous": false,
      "inputs": [
        {
          "indexed": true,
          "internalType": "address",
          "name": "from",
          "type": "address"
        },
        {
          "indexed": true,
          "internalType": "address",
          "name": "to",
          "type": "address"
        },
        {
          "indexed": false,
          "internalType": "uint256",
          "name": "value",
          "type": "uint256"
        }
      ],
      "name": "Transfer",
      "type": "event"
    },
    {
      "inputs": [
        {
          "internalType": "bytes32",
          "name": "id",
          "type": "bytes32"
        },
        {
          "internalType": "bytes32[]",
          "name": "data",
          "type": "bytes32[]"
        }
      ],
      "name": "createAgreement",
      "outputs": [],
      "stateMutability": "nonpayable",
      "type": "function"
    },
    {
      "inputs": [
        {
          "internalType": "address",
          "name": "account",
          "type": "address"
        }
      ],
      "name": "getAccountActiveAgreements",
      "outputs": [
        {
          "internalType": "contract ISuperAgreement[]",
          "name": "",
          "type": "address[]"
        }
      ],
      "stateMutability": "view",
      "type": "function"
    },
    {
      "inputs": [
        {
          "internalType": "address",
          "name": "agreementClass",
          "type": "address"
        },
        {
          "internalType": "bytes32",
          "name": "id",
          "type": "bytes32"
        },
        {
          "internalType": "uint256",
          "name": "dataLength",
          "type": "uint256"
        }
      ],
      "name": "getAgreementData",
      "outputs": [
        {
          "internalType": "bytes32[]",
          "name": "data",
          "type": "bytes32[]"
        }
      ],
      "stateMutability": "view",
      "type": "function"
    },
    {
      "inputs": [
        {
          "internalType": "address",
          "name": "agreementClass",
          "type": "address"
        },
        {
          "internalType": "address",
          "name": "account",
          "type": "address"
        },
        {
          "internalType": "uint256",
          "name": "slotId",
          "type": "uint256"
        },
        {
          "internalType": "uint256",
          "name": "dataLength",
          "type": "uint256"
        }
      ],
      "name": "getAgreementStateSlot",
      "outputs": [
        {
          "internalType": "bytes32[]",
          "name": "slotData",
          "type": "bytes32[]"
        }
      ],
      "stateMutability": "view",
      "type": "function"
    },
    {
      "inputs": [],
      "name": "getCodeAddress",
      "outputs": [
        {
          "internalType": "address",
          "name": "codeAddress",
          "type": "address"
        }
      ],
      "stateMutability": "view",
      "type": "function"
    },
    {
      "inputs": [],
      "name": "getHost",
      "outputs": [
        {
          "internalType": "address",
          "name": "host",
          "type": "address"
        }
      ],
      "stateMutability": "view",
      "type": "function"
    },
    {
      "inputs": [
        {
          "internalType": "address",
          "name": "account",
          "type": "address"
        },
        {
          "internalType": "uint256",
          "name": "timestamp",
          "type": "uint256"
        }
      ],
      "name": "isAccountCritical",
      "outputs": [
        {
          "internalType": "bool",
          "name": "isCritical",
          "type": "bool"
        }
      ],
      "stateMutability": "view",
      "type": "function"
    },
    {
      "inputs": [
        {
          "internalType": "address",
          "name": "account",
          "type": "address"
        }
      ],
      "name": "isAccountCriticalNow",
      "outputs": [
        {
          "internalType": "bool",
          "name": "isCritical",
          "type": "bool"
        }
      ],
      "stateMutability": "view",
      "type": "function"
    },
    {
      "inputs": [
        {
          "internalType": "address",
          "name": "account",
          "type": "address"
        },
        {
          "internalType": "uint256",
          "name": "timestamp",
          "type": "uint256"
        }
      ],
      "name": "isAccountSolvent",
      "outputs": [
        {
          "internalType": "bool",
          "name": "isSolvent",
          "type": "bool"
        }
      ],
      "stateMutability": "view",
      "type": "function"
    },
    {
      "inputs": [
        {
          "internalType": "address",
          "name": "account",
          "type": "address"
        }
      ],
      "name": "isAccountSolventNow",
      "outputs": [
        {
          "internalType": "bool",
          "name": "isSolvent",
          "type": "bool"
        }
      ],
      "stateMutability": "view",
      "type": "function"
    },
    {
      "inputs": [
        {
          "internalType": "bytes32",
          "name": "id",
          "type": "bytes32"
        },
        {
          "internalType": "bytes",
          "name": "liquidationTypeData",
          "type": "bytes"
        },
        {
          "internalType": "address",
          "name": "liquidatorAccount",
          "type": "address"
        },
        {
          "internalType": "bool",
          "name": "useDefaultRewardAccount",
          "type": "bool"
        },
        {
          "internalType": "address",
          "name": "targetAccount",
          "type": "address"
        },
        {
          "internalType": "uint256",
          "name": "rewardAmount",
          "type": "uint256"
        },
        {
          "internalType": "int256",
          "name": "targetAccountBalanceDelta",
          "type": "int256"
        }
      ],
      "name": "makeLiquidationPayoutsV2",
      "outputs": [],
      "stateMutability": "nonpayable",
      "type": "function"
    },
    {
      "inputs": [
        {
          "internalType": "address",
          "name": "account",
          "type": "address"
        },
        {
          "internalType": "uint256",
          "name": "timestamp",
          "type": "uint256"
        }
      ],
      "name": "realtimeBalanceOf",
      "outputs": [
        {
          "internalType": "int256",
          "name": "availableBalance",
          "type": "int256"
        },
        {
          "internalType": "uint256",
          "name": "deposit",
          "type": "uint256"
        },
        {
          "internalType": "uint256",
          "name": "owedDeposit",
          "type": "uint256"
        }
      ],
      "stateMutability": "view",
      "type": "function"
    },
    {
      "inputs": [
        {
          "internalType": "address",
          "name": "account",
          "type": "address"
        }
      ],
      "name": "realtimeBalanceOfNow",
      "outputs": [
        {
          "internalType": "int256",
          "name": "availableBalance",
          "type": "int256"
        },
        {
          "internalType": "uint256",
          "name": "deposit",
          "type": "uint256"
        },
        {
          "internalType": "uint256",
          "name": "owedDeposit",
          "type": "uint256"
        },
        {
          "internalType": "uint256",
          "name": "timestamp",
          "type": "uint256"
        }
      ],
      "stateMutability": "view",
      "type": "function"
    },
    {
      "inputs": [
        {
          "internalType": "address",
          "name": "account",
          "type": "address"
        },
        {
          "internalType": "int256",
          "name": "delta",
          "type": "int256"
        }
      ],
      "name": "settleBalance",
      "outputs": [],
      "stateMutability": "nonpayable",
      "type": "function"
    },
    {
      "inputs": [
        {
          "internalType": "bytes32",
          "name": "id",
          "type": "bytes32"
        },
        {
          "internalType": "uint256",
          "name": "dataLength",
          "type": "uint256"
        }
      ],
      "name": "terminateAgreement",
      "outputs": [],
      "stateMutability": "nonpayable",
      "type": "function"
    },
    {
      "inputs": [
        {
          "internalType": "bytes32",
          "name": "id",
          "type": "bytes32"
        },
        {
          "internalType": "bytes32[]",
          "name": "data",
          "type": "bytes32[]"
        }
      ],
      "name": "updateAgreementData",
      "outputs": [],
      "stateMutability": "nonpayable",
      "type": "function"
    },
    {
      "inputs": [
        {
          "internalType": "address",
          "name": "account",
          "type": "address"
        },
        {
          "internalType": "uint256",
          "name": "slotId",
          "type": "uint256"
        },
        {
          "internalType": "bytes32[]",
          "name": "slotData",
          "type": "bytes32[]"
        }
      ],
      "name": "updateAgreementStateSlot",
      "outputs": [],
      "stateMutability": "nonpayable",
      "type": "function"
    },
    {
      "inputs": [
        {
          "internalType": "contract IERC20",
          "name": "underlyingToken",
          "type": "address"
        },
        {
          "internalType": "uint8",
          "name": "underlyingDecimals",
          "type": "uint8"
        },
        {
          "internalType": "string",
          "name": "n",
          "type": "string"
        },
        {
          "internalType": "string",
          "name": "s",
          "type": "string"
        }
      ],
      "name": "initialize",
      "outputs": [],
      "stateMutability": "nonpayable",
      "type": "function"
    },
    {
      "inputs": [],
      "name": "proxiableUUID",
      "outputs": [
        {
          "internalType": "bytes32",
          "name": "",
          "type": "bytes32"
        }
      ],
      "stateMutability": "pure",
      "type": "function"
    },
    {
      "inputs": [
        {
          "internalType": "address",
          "name": "newAddress",
          "type": "address"
        }
      ],
      "name": "updateCode",
      "outputs": [],
      "stateMutability": "nonpayable",
      "type": "function"
    },
    {
      "inputs": [],
      "name": "name",
      "outputs": [
        {
          "internalType": "string",
          "name": "",
          "type": "string"
        }
      ],
      "stateMutability": "view",
      "type": "function"
    },
    {
      "inputs": [],
      "name": "symbol",
      "outputs": [
        {
          "internalType": "string",
          "name": "",
          "type": "string"
        }
      ],
      "stateMutability": "view",
      "type": "function"
    },
    {
      "inputs": [],
      "name": "decimals",
      "outputs": [
        {
          "internalType": "uint8",
          "name": "",
          "type": "uint8"
        }
      ],
      "stateMutability": "pure",
      "type": "function"
    },
    {
      "inputs": [],
      "name": "totalSupply",
      "outputs": [
        {
          "internalType": "uint256",
          "name": "",
          "type": "uint256"
        }
      ],
      "stateMutability": "view",
      "type": "function"
    },
    {
      "inputs": [
        {
          "internalType": "address",
          "name": "account",
          "type": "address"
        }
      ],
      "name": "balanceOf",
      "outputs": [
        {
          "internalType": "uint256",
          "name": "balance",
          "type": "uint256"
        }
      ],
      "stateMutability": "view",
      "type": "function"
    },
    {
      "inputs": [
        {
          "internalType": "address",
          "name": "recipient",
          "type": "address"
        },
        {
          "internalType": "uint256",
          "name": "amount",
          "type": "uint256"
        }
      ],
      "name": "transfer",
      "outputs": [
        {
          "internalType": "bool",
          "name": "",
          "type": "bool"
        }
      ],
      "stateMutability": "nonpayable",
      "type": "function"
    },
    {
      "inputs": [
        {
          "internalType": "address",
          "name": "account",
          "type": "address"
        },
        {
          "internalType": "address",
          "name": "spender",
          "type": "address"
        }
      ],
      "name": "allowance",
      "outputs": [
        {
          "internalType": "uint256",
          "name": "",
          "type": "uint256"
        }
      ],
      "stateMutability": "view",
      "type": "function"
    },
    {
      "inputs": [
        {
          "internalType": "address",
          "name": "spender",
          "type": "address"
        },
        {
          "internalType": "uint256",
          "name": "amount",
          "type": "uint256"
        }
      ],
      "name": "approve",
      "outputs": [
        {
          "internalType": "bool",
          "name": "",
          "type": "bool"
        }
      ],
      "stateMutability": "nonpayable",
      "type": "function"
    },
    {
      "inputs": [
        {
          "internalType": "address",
          "name": "holder",
          "type": "address"
        },
        {
          "internalType": "address",
          "name": "recipient",
          "type": "address"
        },
        {
          "internalType": "uint256",
          "name": "amount",
          "type": "uint256"
        }
      ],
      "name": "transferFrom",
      "outputs": [
        {
          "internalType": "bool",
          "name": "",
          "type": "bool"
        }
      ],
      "stateMutability": "nonpayable",
      "type": "function"
    },
    {
      "inputs": [
        {
          "internalType": "address",
          "name": "spender",
          "type": "address"
        },
        {
          "internalType": "uint256",
          "name": "addedValue",
          "type": "uint256"
        }
      ],
      "name": "increaseAllowance",
      "outputs": [
        {
          "internalType": "bool",
          "name": "",
          "type": "bool"
        }
      ],
      "stateMutability": "nonpayable",
      "type": "function"
    },
    {
      "inputs": [
        {
          "internalType": "address",
          "name": "spender",
          "type": "address"
        },
        {
          "internalType": "uint256",
          "name": "subtractedValue",
          "type": "uint256"
        }
      ],
      "name": "decreaseAllowance",
      "outputs": [
        {
          "internalType": "bool",
          "name": "",
          "type": "bool"
        }
      ],
      "stateMutability": "nonpayable",
      "type": "function"
    },
    {
      "inputs": [],
      "name": "granularity",
      "outputs": [
        {
          "internalType": "uint256",
          "name": "",
          "type": "uint256"
        }
      ],
      "stateMutability": "pure",
      "type": "function"
    },
    {
      "inputs": [
        {
          "internalType": "address",
          "name": "recipient",
          "type": "address"
        },
        {
          "internalType": "uint256",
          "name": "amount",
          "type": "uint256"
        },
        {
          "internalType": "bytes",
          "name": "data",
          "type": "bytes"
        }
      ],
      "name": "send",
      "outputs": [],
      "stateMutability": "nonpayable",
      "type": "function"
    },
    {
      "inputs": [
        {
          "internalType": "uint256",
          "name": "amount",
          "type": "uint256"
        },
        {
          "internalType": "bytes",
          "name": "data",
          "type": "bytes"
        }
      ],
      "name": "burn",
      "outputs": [],
      "stateMutability": "nonpayable",
      "type": "function"
    },
    {
      "inputs": [
        {
          "internalType": "address",
          "name": "operator",
          "type": "address"
        },
        {
          "internalType": "address",
          "name": "tokenHolder",
          "type": "address"
        }
      ],
      "name": "isOperatorFor",
      "outputs": [
        {
          "internalType": "bool",
          "name": "",
          "type": "bool"
        }
      ],
      "stateMutability": "view",
      "type": "function"
    },
    {
      "inputs": [
        {
          "internalType": "address",
          "name": "operator",
          "type": "address"
        }
      ],
      "name": "authorizeOperator",
      "outputs": [],
      "stateMutability": "nonpayable",
      "type": "function"
    },
    {
      "inputs": [
        {
          "internalType": "address",
          "name": "operator",
          "type": "address"
        }
      ],
      "name": "revokeOperator",
      "outputs": [],
      "stateMutability": "nonpayable",
      "type": "function"
    },
    {
      "inputs": [],
      "name": "defaultOperators",
      "outputs": [
        {
          "internalType": "address[]",
          "name": "",
          "type": "address[]"
        }
      ],
      "stateMutability": "view",
      "type": "function"
    },
    {
      "inputs": [
        {
          "internalType": "address",
          "name": "sender",
          "type": "address"
        },
        {
          "internalType": "address",
          "name": "recipient",
          "type": "address"
        },
        {
          "internalType": "uint256",
          "name": "amount",
          "type": "uint256"
        },
        {
          "internalType": "bytes",
          "name": "data",
          "type": "bytes"
        },
        {
          "internalType": "bytes",
          "name": "operatorData",
          "type": "bytes"
        }
      ],
      "name": "operatorSend",
      "outputs": [],
      "stateMutability": "nonpayable",
      "type": "function"
    },
    {
      "inputs": [
        {
          "internalType": "address",
          "name": "account",
          "type": "address"
        },
        {
          "internalType": "uint256",
          "name": "amount",
          "type": "uint256"
        },
        {
          "internalType": "bytes",
          "name": "data",
          "type": "bytes"
        },
        {
          "internalType": "bytes",
          "name": "operatorData",
          "type": "bytes"
        }
      ],
      "name": "operatorBurn",
      "outputs": [],
      "stateMutability": "nonpayable",
      "type": "function"
    },
    {
      "inputs": [
        {
          "internalType": "address",
          "name": "account",
          "type": "address"
        },
        {
          "internalType": "uint256",
          "name": "amount",
          "type": "uint256"
        },
        {
          "internalType": "bytes",
          "name": "userData",
          "type": "bytes"
        }
      ],
      "name": "selfMint",
      "outputs": [],
      "stateMutability": "nonpayable",
      "type": "function"
    },
    {
      "inputs": [
        {
          "internalType": "address",
          "name": "account",
          "type": "address"
        },
        {
          "internalType": "uint256",
          "name": "amount",
          "type": "uint256"
        },
        {
          "internalType": "bytes",
          "name": "userData",
          "type": "bytes"
        }
      ],
      "name": "selfBurn",
      "outputs": [],
      "stateMutability": "nonpayable",
      "type": "function"
    },
    {
      "inputs": [
        {
          "internalType": "address",
          "name": "account",
          "type": "address"
        },
        {
          "internalType": "address",
          "name": "spender",
          "type": "address"
        },
        {
          "internalType": "uint256",
          "name": "amount",
          "type": "uint256"
        }
      ],
      "name": "selfApproveFor",
      "outputs": [],
      "stateMutability": "nonpayable",
      "type": "function"
    },
    {
      "inputs": [
        {
          "internalType": "address",
          "name": "holder",
          "type": "address"
        },
        {
          "internalType": "address",
          "name": "spender",
          "type": "address"
        },
        {
          "internalType": "address",
          "name": "recipient",
          "type": "address"
        },
        {
          "internalType": "uint256",
          "name": "amount",
          "type": "uint256"
        }
      ],
      "name": "selfTransferFrom",
      "outputs": [],
      "stateMutability": "nonpayable",
      "type": "function"
    },
    {
      "inputs": [
        {
          "internalType": "address",
          "name": "recipient",
          "type": "address"
        }
      ],
      "name": "transferAll",
      "outputs": [],
      "stateMutability": "nonpayable",
      "type": "function"
    },
    {
      "inputs": [],
      "name": "getUnderlyingToken",
      "outputs": [
        {
          "internalType": "address",
          "name": "",
          "type": "address"
        }
      ],
      "stateMutability": "view",
      "type": "function"
    },
    {
      "inputs": [
        {
          "internalType": "uint256",
          "name": "amount",
          "type": "uint256"
        }
      ],
      "name": "upgrade",
      "outputs": [],
      "stateMutability": "nonpayable",
      "type": "function"
    },
    {
      "inputs": [
        {
          "internalType": "address",
          "name": "to",
          "type": "address"
        },
        {
          "internalType": "uint256",
          "name": "amount",
          "type": "uint256"
        },
        {
          "internalType": "bytes",
          "name": "data",
          "type": "bytes"
        }
      ],
      "name": "upgradeTo",
      "outputs": [],
      "stateMutability": "nonpayable",
      "type": "function"
    },
    {
      "inputs": [
        {
          "internalType": "uint256",
          "name": "amount",
          "type": "uint256"
        }
      ],
      "name": "downgrade",
      "outputs": [],
      "stateMutability": "nonpayable",
      "type": "function"
    },
    {
      "inputs": [
        {
          "internalType": "address",
          "name": "account",
          "type": "address"
        },
        {
          "internalType": "address",
          "name": "spender",
          "type": "address"
        },
        {
          "internalType": "uint256",
          "name": "amount",
          "type": "uint256"
        }
      ],
      "name": "operationApprove",
      "outputs": [],
      "stateMutability": "nonpayable",
      "type": "function"
    },
    {
      "inputs": [
        {
          "internalType": "address",
          "name": "account",
          "type": "address"
        },
        {
          "internalType": "address",
          "name": "spender",
          "type": "address"
        },
        {
          "internalType": "address",
          "name": "recipient",
          "type": "address"
        },
        {
          "internalType": "uint256",
          "name": "amount",
          "type": "uint256"
        }
      ],
      "name": "operationTransferFrom",
      "outputs": [],
      "stateMutability": "nonpayable",
      "type": "function"
    },
    {
      "inputs": [
        {
          "internalType": "address",
          "name": "account",
          "type": "address"
        },
        {
          "internalType": "uint256",
          "name": "amount",
          "type": "uint256"
        }
      ],
      "name": "operationUpgrade",
      "outputs": [],
      "stateMutability": "nonpayable",
      "type": "function"
    },
    {
      "inputs": [
        {
          "internalType": "address",
          "name": "account",
          "type": "address"
        },
        {
          "internalType": "uint256",
          "name": "amount",
          "type": "uint256"
        }
      ],
      "name": "operationDowngrade",
      "outputs": [],
      "stateMutability": "nonpayable",
      "type": "function"
    }
  ],
  "bytecode": "0x60a06040523480156200001157600080fd5b50604051620049f6380380620049f6833981016040819052620000349162000046565b6001600160a01b031660805262000078565b6000602082840312156200005957600080fd5b81516001600160a01b03811681146200007157600080fd5b9392505050565b6080516148f9620000fd600039600081816103f701528181610a8101528181610aef01528181610d9301528181610eed01528181610fbc015281816112230152818161137101528181611505015281816117ec015281816118ae01528181611935015281816121c101528181612258015281816133ac015261362c01526148f96000f3fe608060405234801561001057600080fd5b50600436106103275760003560e01c806362aa5287116101b8578063a9059cbb11610104578063d9d078d6116100a2578063ee719bc81161007c578063ee719bc81461076f578063fad8b32a14610780578063fc673c4f14610793578063fe9d9303146107a657600080fd5b8063d9d078d6146106f5578063dd62ed3e14610708578063eb3537cc1461074157600080fd5b8063c68d4283116100de578063c68d4283146106a9578063ca789464146106bc578063cf97256d146106cf578063d95b6371146106e257600080fd5b8063a9059cbb14610670578063b84cdd4a14610683578063bb0d196e1461069657600080fd5b8063959b8c3f116101715780639d8767411161014b5780639d87674114610624578063a1b2bf8b14610637578063a3a7e7f31461064a578063a457c2d71461065d57600080fd5b8063959b8c3f146105f657806395d89b41146106095780639bd9bbc61461061157600080fd5b806362aa52871461058457806362ad1b831461059757806366a12fb6146105aa5780636c2d9f2f146105bd57806370a08231146105d057806379359f6f146105e357600080fd5b80632ec8eec71161027757806345977d031161023057806350d75d251161020a57806350d75d251461053c57806352d1902d14610544578063556f0dc71461056a5780635b9d09cc1461057157600080fd5b806345977d03146104f657806346951954146105095780634b61cc331461051c57600080fd5b80632ec8eec714610468578063313ce5671461049b578063386fa221146104aa57806339509351146104bd57806341b706be146104d057806342fe0980146104e357600080fd5b806316d055d6116102e457806320bc4425116102be57806320bc4425146103f557806323b872dd1461042f578063245887fc14610442578063270483971461045557600080fd5b806316d055d6146103bd57806318160ddd146103d05780631863e809146103e257600080fd5b806306e485381461032c57806306fdde031461034a578063090c415e1461035f578063095ea7b31461037457806311bcc81e1461039757806312a6a3f8146103aa575b600080fd5b6103346107b9565b604051610341919061390b565b60405180910390f35b6103526107ca565b60405161034191906139b0565b61037261036d366004613a23565b61085c565b005b610387610382366004613a7e565b610910565b6040519015158152602001610341565b6103726103a5366004613aaa565b610927565b6103726103b8366004613ac3565b610955565b6103726103cb366004613b0e565b610a7f565b6003545b604051908152602001610341565b6103726103f0366004613c22565b610ada565b7f00000000000000000000000000000000000000000000000000000000000000005b6040516001600160a01b039091168152602001610341565b61038761043d366004613cb4565b610d79565b610372610450366004613a7e565b610d91565b610372610463366004613cf5565b610e08565b61047b610476366004613d17565b610ee5565b604080519485526020850193909352918301526060820152608001610341565b60405160128152602001610341565b6103346104b8366004613d17565b610f88565b6103876104cb366004613a7e565b61102b565b6103726104de366004613b0e565b611067565b6103726104f1366004613d75565b611092565b610372610504366004613aaa565b6111ec565b610372610517366004613d17565b611218565b61052f61052a366004613e0f565b6112a7565b6040516103419190613e55565b6104176112ec565b7f6bfbb132610e56cb96575dba244667b9d6dbfeffe22b68a79fa16f2d18eb00196103d4565b60016103d4565b61037261057f366004613e8d565b611316565b610372610592366004613cb4565b61136f565b6103726105a5366004613edc565b6113c7565b6103726105b8366004613cb4565b611474565b61052f6105cb366004613f7a565b611493565b6103d46105de366004613d17565b6114d5565b6103876105f1366004613d17565b6114fd565b610372610604366004613d17565b611585565b6103526115d6565b61037261061f366004613e8d565b6115e5565b610372610632366004613faf565b611639565b610372610645366004613ac3565b611678565b610372610658366004613d17565b611722565b61038761066b366004613a7e565b611736565b61038761067e366004613a7e565b611785565b610387610691366004613a7e565b611793565b6103876106a4366004613d17565b6117e4565b6103726106b7366004613faf565b61186c565b6103726106ca366004613a7e565b6118ac565b6103726106dd366004613a7e565b611920565b6103876106f0366004614007565b611a08565b610387610703366004613a7e565b611a16565b6103d4610716366004614007565b6001600160a01b03918216600090815260116020908152604080832093909416825291909152205490565b61075461074f366004613a7e565b611a30565b60408051938452602084019290925290820152606001610341565b600e546001600160a01b0316610417565b61037261078e366004613d17565b611b6c565b6103726107a1366004614040565b611bbd565b6103726107b4366004614087565b611c5c565b60606107c56012611cac565b905090565b6060600f80546107d9906140c5565b80601f0160208091040260200160405190810160405280929190818152602001828054610805906140c5565b80156108525780601f1061082757610100808354040283529160200191610852565b820191906000526020600020905b81548152906001019060200180831161083557829003601f168201915b5050505050905090565b6000338585604051602001610873939291906140ff565b6040516020818303038152906040528051906020012090506108c881848480806020026020016040519081016040528093929190818152602001838360200280828437600092019190915250611d1292505050565b6040518481526001600160a01b0386169033907f30f416fa68fca014a0f334464c64b000ba53e99b6d2afdea9d5ca756372d5985906020015b60405180910390a35050505050565b600061091d338484611d53565b5060015b92915050565b6109523333836040518060200160405280600081525060405180602001604052806000815250611e7b565b50565b604051339060009061096d9083908790602001614148565b60408051601f19818403018152919052805160209091012090506109918184612062565b156109f65760405162461bcd60e51b815260206004820152602a60248201527f5375706572666c756964546f6b656e3a2061677265656d656e7420616c726561604482015269191e4818dc99585d195960b21b60648201526084015b60405180910390fd5b610a3381858580806020026020016040519081016040528093929190818152602001838360200280828437600092019190915250611d1292505050565b816001600160a01b03167f770ea40a13a4644573ed785e5c7116890709947918747febc5add46feb531e2d868686604051610a7093929190614185565b60405180910390a25050505050565b7f00000000000000000000000000000000000000000000000000000000000000006001600160a01b03163314610ac75760405162461bcd60e51b81526004016109ed906141c9565b610ad38484848461209e565b5050505050565b604051632329212160e21b81523360048201527f00000000000000000000000000000000000000000000000000000000000000006001600160a01b031690638ca4848490602401602060405180830381865afa158015610b3e573d6000803e3d6000fd5b505050506040513d601f19601f82011682018060405250810190610b629190614214565b610b7e5760405162461bcd60e51b81526004016109ed90614231565b6000610b886121bc565b90506001600160a01b038116610b9b5750845b600085610ba85786610baa565b815b905060008313610c4757610bbd8361428e565b610bc685612301565b14610bd357610bd36142aa565b610bdc84612301565b6001600160a01b03821660009081526002602052604081208054909190610c049084906142c0565b90915550506001600160a01b03851660009081526002602052604081208054859290610c319084906142c0565b90915550610c42905085828661236f565b610d11565b8515610c5557610c556142aa565b82610c5f85612301565b610c6991906142c0565b6001600160a01b03831660009081526002602052604081208054909190610c91908490614301565b90915550610ca0905084612301565b6001600160a01b03881660009081526002602052604081208054909190610cc89084906142c0565b90915550506001600160a01b03851660009081526002602052604081208054859290610cf59084906142c0565b90915550610d06905082888661236f565b610d1182868561236f565b846001600160a01b0316876001600160a01b0316336001600160a01b03167fb8381a3ce157650e06186e3e8f4dd4dc29236f2688b6eed1893d0a60d7c6386f8c8589898f604051610d66959493929190614340565b60405180910390a4505050505050505050565b6000610d873385858561209e565b90505b9392505050565b7f00000000000000000000000000000000000000000000000000000000000000006001600160a01b03163314610dd95760405162461bcd60e51b81526004016109ed906141c9565b610e043383836040518060200160405280600081525060405180602001604052806000815250611e7b565b5050565b6040513390600090610e209083908690602001614148565b604051602081830303815290604052805190602001209050610e428184612062565b610ea05760405162461bcd60e51b815260206004820152602960248201527f5375706572666c756964546f6b656e3a2061677265656d656e7420646f6573206044820152681b9bdd08195e1a5cdd60ba1b60648201526084016109ed565b610eaa81846123a2565b60405184815233907f71a63dc095de07aa5512ad57a7596a39516317e316981a1cd71000057be1537b9060200160405180910390a250505050565b6000806000807f00000000000000000000000000000000000000000000000000000000000000006001600160a01b031663bbe4fd506040518163ffffffff1660e01b8152600401602060405180830381865afa158015610f49573d6000803e3d6000fd5b505050506040513d601f19601f82011682018060405250810190610f6d9190614373565b9050610f798582611a30565b91979096509094509092509050565b6001600160a01b038181166000908152600160205260409081902054905163c56a069d60e01b8152901960048201526060917f0000000000000000000000000000000000000000000000000000000000000000169063c56a069d90602401600060405180830381865afa158015611003573d6000803e3d6000fd5b505050506040513d6000823e601f3d908101601f19168201604052610921919081019061438c565b3360008181526011602090815260408083206001600160a01b0387168452909152812054909161091d91859061106290869061443d565b611d53565b3330146110865760405162461bcd60e51b81526004016109ed90614455565b610ad38385848461209e565b600054610100900460ff16158080156110b25750600054600160ff909116105b806110cc5750303b1580156110cc575060005460ff166001145b61112f5760405162461bcd60e51b815260206004820152602e60248201527f496e697469616c697a61626c653a20636f6e747261637420697320616c72656160448201526d191e481a5b9a5d1a585b1a5e995960921b60648201526084016109ed565b6000805460ff191660011790558015611152576000805461ff0019166101001790555b600e805460ff8816600160a01b026001600160a81b03199091166001600160a01b038a1617179055611186600f868661387b565b506111936010848461387b565b5061119d306123c3565b80156111e3576000805461ff0019169055604051600181527f7f26b83ff96e1f2b6a682f133852f6798a09c465da95921460cefb38474024989060200160405180910390a15b50505050505050565b6109523333338460405180602001604052806000815250604051806020016040528060008152506124f1565b336001600160a01b037f0000000000000000000000000000000000000000000000000000000000000000161461129e5760405162461bcd60e51b815260206004820152602560248201527f5375706572546f6b656e3a206f6e6c7920686f73742063616e2075706461746560448201526420636f646560d81b60648201526084016109ed565b610952816126f4565b606060008585856040516020016112c0939291906140ff565b6040516020818303038152906040528051906020012090506112e28184612934565b9695505050505050565b60006107c57f360894a13ba1a3210667c828492db98dca3e2076cc3735a920a3ca505d382bbc5490565b611369333386866040518060200160405280600081525087878080601f0160208091040260200160405190810160405280939291908181526020018383808284376000920191909152506124f192505050565b50505050565b7f00000000000000000000000000000000000000000000000000000000000000006001600160a01b031633146113b75760405162461bcd60e51b81526004016109ed906141c9565b6113c2838383611d53565b505050565b336113d46012828a6129c3565b6113f05760405162461bcd60e51b81526004016109ed9061448c565b61146a8189898989898080601f01602080910402602001604051908101604052809392919081815260200183838082843760009201919091525050604080516020601f8d018190048102820181019092528b815292508b91508a908190840183828082843760009201919091525060019250612a6c915050565b5050505050505050565b3330146113b75760405162461bcd60e51b81526004016109ed90614455565b6060600084846040516020016114aa929190614148565b6040516020818303038152906040528051906020012090506114cc8184612934565b95945050505050565b6000806114e183610ee5565b5050509050600081126114f45780610d8a565b60009392505050565b6000610921827f00000000000000000000000000000000000000000000000000000000000000006001600160a01b031663bbe4fd506040518163ffffffff1660e01b8152600401602060405180830381865afa158015611561573d6000803e3d6000fd5b505050506040513d601f19601f820116820180604052508101906107039190614373565b3361159260128284612ae3565b806001600160a01b0316826001600160a01b03167ff4caeb2d6ca8932a215a353d0703c326ec2d81fc68170f320eb2ab49e9df61f960405160405180910390a35050565b6060601080546107d9906140c5565b6113693333868686868080601f01602080910402602001604051908101604052809392919081815260200183838082843760009201829052506040805160208101909152908152925060019150612a6c9050565b3330146116585760405162461bcd60e51b81526004016109ed90614455565b6040805160008152602081019091526113c2903390859085908590612be7565b60405133906000906116909083908790602001614148565b6040516020818303038152906040528051906020012090506116e581858580806020026020016040519081016040528093929190818152602001838360200280828437600092019190915250611d1292505050565b336001600160a01b03167f0c4c547b3a4fcaa5be8353b3111472b124155bccc86de811d4a481c9e6e9faca868686604051610a7093929190614185565b610e04333383611731336114d5565b61209e565b600061091d3384611062856040518060600160405280602a815260200161484d602a91393360009081526011602090815260408083206001600160a01b038d1684529091529020549190612cdc565b6000610d8a3333858561209e565b6000806000806117a38686611a30565b92509250925060006117cb8284116117bc576000612301565b6117c683856144dc565b612301565b6117d590856142c0565b60001315979650505050505050565b6000610921827f00000000000000000000000000000000000000000000000000000000000000006001600160a01b031663bbe4fd506040518163ffffffff1660e01b8152600401602060405180830381865afa158015611848573d6000803e3d6000fd5b505050506040513d601f19601f820116820180604052508101906106919190614373565b33301461188b5760405162461bcd60e51b81526004016109ed90614455565b604080516000808252602082019092526113c2913391869186918690612d08565b7f00000000000000000000000000000000000000000000000000000000000000006001600160a01b031633146118f45760405162461bcd60e51b81526004016109ed906141c9565b610e043383848460405180602001604052806000815250604051806020016040528060008152506124f1565b604051632329212160e21b81523360048201527f00000000000000000000000000000000000000000000000000000000000000006001600160a01b031690638ca4848490602401602060405180830381865afa158015611984573d6000803e3d6000fd5b505050506040513d601f19601f820116820180604052508101906119a89190614214565b6119c45760405162461bcd60e51b81526004016109ed90614231565b6001600160a01b0382166000908152600260205260409020546119e89082906142c0565b6001600160a01b0390921660009081526002602052604090209190915550565b6000610d8a601284846129c3565b600080611a238484611a30565b5050600013949350505050565b6001600160a01b038216600090815260026020526040812054908080611a5586610f88565b905060005b8151811015611b63576000806000848481518110611a7a57611a7a6144f3565b60209081029190910101516040516326cb922f60e21b81523060048201526001600160a01b038c81166024830152604482018c905290911690639b2e48bc90606401606060405180830381865afa158015611ad9573d6000803e3d6000fd5b505050506040513d601f19601f82011682018060405250810190611afd9190614509565b91945092509050611b0e828861443d565b9650611b1a818761443d565b9550611b37818311611b2d576000612301565b6117c682846144dc565b611b41848a6142c0565b611b4b9190614301565b97505050508080611b5b90614537565b915050611a5a565b50509250925092565b33611b7960128284612dff565b806001600160a01b0316826001600160a01b03167f50546e66e5f44d728365dc3908c63bc5cfeeab470722c1677e3073a6ac294aa160405160405180910390a35050565b33611bca601282896129c3565b611be65760405162461bcd60e51b81526004016109ed9061448c565b6111e381888888888080601f01602080910402602001604051908101604052809392919081815260200183838082843760009201919091525050604080516020601f8c018190048102820181019092528a815292508a9150899081908401838280828437600092019190915250611e7b92505050565b6113c233338585858080601f016020809104026020016040519081016040528093929190818152602001838380828437600092018290525060408051602081019091529081529250611e7b915050565b606081600001805480602002602001604051908101604052809291908181526020018280548015611d0657602002820191906000526020600020905b81546001600160a01b03168152600190910190602001808311611ce8575b50505050509050919050565b60005b81518110156113c2576000828281518110611d3257611d326144f3565b6020026020010151905080828501555080611d4c90614537565b9050611d15565b6001600160a01b038316611db75760405162461bcd60e51b815260206004820152602560248201527f5375706572546f6b656e3a20617070726f76652066726f6d207a65726f206164604482015264647265737360d81b60648201526084016109ed565b6001600160a01b038216611e195760405162461bcd60e51b815260206004820152602360248201527f5375706572546f6b656e3a20617070726f766520746f207a65726f206164647260448201526265737360e81b60648201526084016109ed565b6001600160a01b0383811660008181526011602090815260408083209487168084529482529182902085905590518481527f8c5be1e5ebec7d5bd14f71427d1e84f3dd0314c0f7b2291e5b200ac8c7c3b92591015b60405180910390a3505050565b600e546001600160a01b0316611ed35760405162461bcd60e51b815260206004820152601f60248201527f5375706572546f6b656e3a206e6f20756e6465726c79696e6720746f6b656e0060448201526064016109ed565b600080611edf85612ef7565b91509150611ef08787838787612be7565b600e546040516370a0823160e01b81523060048201526000916001600160a01b0316906370a0823190602401602060405180830381865afa158015611f39573d6000803e3d6000fd5b505050506040513d601f19601f82011682018060405250810190611f5d9190614373565b600e54909150611f77906001600160a01b03168885612fb3565b600e546040516370a0823160e01b81523060048201526000916001600160a01b0316906370a0823190602401602060405180830381865afa158015611fc0573d6000803e3d6000fd5b505050506040513d601f19601f82011682018060405250810190611fe49190614373565b90506000611ff282846144dc565b90508085146120135760405162461bcd60e51b81526004016109ed90614550565b886001600160a01b03167f3bc27981aebbb57f9247dc00fde9d6cd91e4b230083fec3238fedbcba1f9ab3d8560405161204e91815260200190565b60405180910390a250505050505050505050565b6000805b828110156120945783810154801561208357600192505050610921565b5061208d81614537565b9050612066565b5060009392505050565b60006001600160a01b0384166120c65760405162461bcd60e51b81526004016109ed906145ad565b6001600160a01b0383166120ec5760405162461bcd60e51b81526004016109ed906145f3565b600033905061211d818686866040518060200160405280600081525060405180602001604052806000815250613016565b846001600160a01b0316866001600160a01b0316146121b0576121b08587611062866040518060600160405280602d8152602001614897602d9139601160008c6001600160a01b03166001600160a01b0316815260200190815260200160002060008d6001600160a01b03166001600160a01b0316815260200190815260200160002054612cdc9092919063ffffffff16565b50600195945050505050565b6000807f00000000000000000000000000000000000000000000000000000000000000006001600160a01b031663289b3c0d6040518163ffffffff1660e01b8152600401602060405180830381865afa15801561221d573d6000803e3d6000fd5b505050506040513d601f19601f820116820180604052508101906122419190614637565b604051638369a0f160e01b81526001600160a01b037f0000000000000000000000000000000000000000000000000000000000000000811660048301523060248301527f9f60ae461adf056670e03ae602566409933242392cb06744f5747c9f38b05d09604483015291925090821690638369a0f190606401602060405180830381865afa1580156122d7573d6000803e3d6000fd5b505050506040513d601f19601f820116820180604052508101906122fb9190614637565b91505090565b60006001600160ff1b0382111561236b5760405162461bcd60e51b815260206004820152602860248201527f53616665436173743a2076616c756520646f65736e27742066697420696e2061604482015267371034b73a191a9b60c11b60648201526084016109ed565b5090565b816001600160a01b0316836001600160a01b031660008051602061487783398151915283604051611e6e91815260200190565b60005b818110156113c2576000838201556123bc81614537565b90506123a5565b6040516329965a1d60e01b81526001600160a01b03821660048201527fac7fbab5f54a3ca8194167523c6753bfeb96a445279294b6125b68cce21770546024820152306044820152731820a4b7618bde71dce8cdc73aab6c95905fad24906329965a1d90606401600060405180830381600087803b15801561244457600080fd5b505af1158015612458573d6000803e3d6000fd5b50506040516329965a1d60e01b81526001600160a01b03841660048201527faea199e31a596269b42cdafd93407f14436db6e4cad65417994c2eb37381e05a6024820152306044820152731820a4b7618bde71dce8cdc73aab6c95905fad2492506329965a1d9150606401600060405180830381600087803b1580156124dd57600080fd5b505af1158015610ad3573d6000803e3d6000fd5b600e546001600160a01b03166125495760405162461bcd60e51b815260206004820152601f60248201527f5375706572546f6b656e3a206e6f20756e6465726c79696e6720746f6b656e0060448201526064016109ed565b60008061255585612ef7565b600e546040516370a0823160e01b81523060048201529294509092506000916001600160a01b03909116906370a0823190602401602060405180830381865afa1580156125a6573d6000803e3d6000fd5b505050506040513d601f19601f820116820180604052508101906125ca9190614373565b600e549091506125e5906001600160a01b03168930866130b5565b600e546040516370a0823160e01b81523060048201526000916001600160a01b0316906370a0823190602401602060405180830381865afa15801561262e573d6000803e3d6000fd5b505050506040513d601f19601f820116820180604052508101906126529190614373565b9050600061266083836144dc565b90508085146126815760405162461bcd60e51b81526004016109ed90614550565b6126a48b8a868c6001600160a01b03168e6001600160a01b031614158b8b612d08565b886001600160a01b03167f25ca84076773b0455db53621c459ddc84fe40840e4932a62706a032566f399df856040516126df91815260200190565b60405180910390a25050505050505050505050565b600061271e7f360894a13ba1a3210667c828492db98dca3e2076cc3735a920a3ca505d382bbc5490565b6001600160a01b0316036127745760405162461bcd60e51b815260206004820152601d60248201527f5555505350726f786961626c653a206e6f742075706772616461626c6500000060448201526064016109ed565b806001600160a01b03166352d1902d6040518163ffffffff1660e01b8152600401602060405180830381865afa1580156127b2573d6000803e3d6000fd5b505050506040513d601f19601f820116820180604052508101906127d69190614373565b7f6bfbb132610e56cb96575dba244667b9d6dbfeffe22b68a79fa16f2d18eb0019146128505760405162461bcd60e51b815260206004820152602360248201527f5555505350726f786961626c653a206e6f7420636f6d70617469626c65206c6f60448201526267696360e81b60648201526084016109ed565b6001600160a01b03811630036128a85760405162461bcd60e51b815260206004820152601960248201527f5555505350726f786961626c653a2070726f7879206c6f6f700000000000000060448201526064016109ed565b6128d0817f360894a13ba1a3210667c828492db98dca3e2076cc3735a920a3ca505d382bbc55565b7fe011bc04c286c344a8fcbb8de77f953da762c3e25d8cdea984147fc4168a5dcc7f6bfbb132610e56cb96575dba244667b9d6dbfeffe22b68a79fa16f2d18eb0019604080519182526001600160a01b03841660208301520160405180910390a150565b6060816001600160401b0381111561294e5761294e613b5f565b604051908082528060200260200182016040528015612977578160200160208202803683370190505b50905060005b828110156129bc576000818501549050808383815181106129a0576129a06144f3565b6020908102919091010152506129b581614537565b905061297d565b5092915050565b6000816001600160a01b0316836001600160a01b03161480612a3257506001600160a01b038316600090815260018501602052604090205460ff168015612a3257506001600160a01b03808316600090815260038601602090815260408083209387168352929052205460ff16155b80610d8757506001600160a01b03808316600090815260028601602090815260408083209387168352929052205460ff1690509392505050565b6001600160a01b038616612a925760405162461bcd60e51b81526004016109ed906145ad565b6001600160a01b038516612ab85760405162461bcd60e51b81526004016109ed906145f3565b612ac68787878787876130ed565b612ad4878787878787613016565b6111e387878787878787613214565b806001600160a01b0316826001600160a01b031603612b5a5760405162461bcd60e51b815260206004820152602d60248201527f4552433737374f70657261746f72733a20617574686f72697a696e672073656c60448201526c331030b99037b832b930ba37b960991b60648201526084016109ed565b6001600160a01b038116600090815260018401602052604090205460ff1615612bb0576001600160a01b03918216600090815260039390930160209081526040808520929093168452529020805460ff19169055565b6001600160a01b0380831660009081526002850160209081526040808320938516835292905220805460ff19166001179055505050565b6001600160a01b038416612c485760405162461bcd60e51b815260206004820152602260248201527f5375706572546f6b656e3a206275726e2066726f6d207a65726f206164647265604482015261737360f01b60648201526084016109ed565b612c57858560008686866130ed565b612c6184846133a4565b836001600160a01b0316856001600160a01b03167fa78a9be3a7b862d26933ad85fb11d80ef66b8f972d7cbba06621d583943a4098858585604051612ca893929190614654565b60405180910390a36040518381526000906001600160a01b0386169060008051602061487783398151915290602001610901565b60008184841115612d005760405162461bcd60e51b81526004016109ed91906139b0565b505050900390565b6001600160a01b038516612d5e5760405162461bcd60e51b815260206004820181905260248201527f5375706572546f6b656e3a206d696e7420746f207a65726f206164647265737360448201526064016109ed565b612d6885856134f8565b612d788660008787868689613214565b846001600160a01b0316866001600160a01b03167f2fe5be0146f74c5bce36c0b80911af6c7d86ff27e89d5cfa61fc681327954e5d868585604051612dbf93929190614654565b60405180910390a36040518481526001600160a01b03861690600090600080516020614877833981519152906020015b60405180910390a3505050505050565b336001600160a01b03821603612e6a5760405162461bcd60e51b815260206004820152602a60248201527f4552433737374f70657261746f72733a207265766f6b696e672073656c662061604482015269399037b832b930ba37b960b11b60648201526084016109ed565b6001600160a01b038116600090815260018401602052604090205460ff1615612ec4576001600160a01b0380831660009081526003850160209081526040808320938516835292905220805460ff19166001179055505050565b6001600160a01b03918216600090815260029390930160209081526040808520929093168452529020805460ff19169055565b600e54600090819081906012600160a01b90910460ff161015612f5657600e54612f2c90600160a01b900460ff16601261467f565b612f3790600a614786565b9050612f438185614795565b9250612f4f81846147b7565b9150612fad565b600e546012600160a01b90910460ff161115612fa657600e54612f8590601290600160a01b900460ff1661467f565b612f9090600a614786565b9050612f9c81856147b7565b9250839150612fad565b8391508192505b50915091565b6040516001600160a01b0383166024820152604481018290526113c290849063a9059cbb60e01b906064015b60408051601f198184030181529190526020810180516001600160e01b03166001600160e01b031990931692909217909152613552565b613029858561302486612301565b613624565b836001600160a01b0316856001600160a01b0316876001600160a01b03167f06b541ddaa720db2b10a4d0cdac39b8d360425fc073085fac19bc8261467798786868660405161307a93929190614654565b60405180910390a4836001600160a01b0316856001600160a01b031660008051602061487783398151915285604051612def91815260200190565b6040516001600160a01b03808516602483015283166044820152606481018290526113699085906323b872dd60e01b90608401612fdf565b60405163555ddc6560e11b81526001600160a01b03861660048201527f29ddb589b1fb5fc7cf394961c1adf5f8c6454761adf795e67fe149f658abe8956024820152600090731820a4b7618bde71dce8cdc73aab6c95905fad249063aabbb8ca90604401602060405180830381865afa15801561316e573d6000803e3d6000fd5b505050506040513d601f19601f820116820180604052508101906131929190614637565b90506001600160a01b038116156111e357604051633ad5cbc160e11b81526001600160a01b038216906375ab9782906131d9908a908a908a908a908a908a906004016147d6565b600060405180830381600087803b1580156131f357600080fd5b505af1158015613207573d6000803e3d6000fd5b5050505050505050505050565b60405163555ddc6560e11b81526001600160a01b03861660048201527fb281fc8c12954d22544db45de3159a39272895b169a852b314f9cc762e44c53b6024820152600090731820a4b7618bde71dce8cdc73aab6c95905fad249063aabbb8ca90604401602060405180830381865afa158015613295573d6000803e3d6000fd5b505050506040513d601f19601f820116820180604052508101906132b99190614637565b90506001600160a01b03811615613335576040516223de2960e01b81526001600160a01b038216906223de29906132fe908b908b908b908b908b908b906004016147d6565b600060405180830381600087803b15801561331857600080fd5b505af115801561332c573d6000803e3d6000fd5b5050505061146a565b811561146a576001600160a01b0386163b1561146a5760405162461bcd60e51b815260206004820152602860248201527f5375706572546f6b656e3a206e6f7420616e20455243373737546f6b656e73526044820152671958da5c1a595b9d60c21b60648201526084016109ed565b600061342c837f00000000000000000000000000000000000000000000000000000000000000006001600160a01b031663bbe4fd506040518163ffffffff1660e01b8152600401602060405180830381865afa158015613408573d6000803e3d6000fd5b505050506040513d601f19601f8201168201806040525081019061074f9190614373565b5050905061343982612301565b81121561349d5760405162461bcd60e51b815260206004820152602c60248201527f5375706572666c756964546f6b656e3a206275726e20616d6f756e742065786360448201526b656564732062616c616e636560a01b60648201526084016109ed565b6134a682612301565b6001600160a01b0384166000908152600260205260409020546134c99190614301565b6001600160a01b0384166000908152600260205260409020556003546134f09083906144dc565b600355505050565b61350181612301565b6001600160a01b03831660009081526002602052604090205461352491906142c0565b6001600160a01b03831660009081526002602052604090205560035461354b90829061443d565b6003555050565b60006135a7826040518060400160405280602081526020017f5361666545524332303a206c6f772d6c6576656c2063616c6c206661696c6564815250856001600160a01b03166137679092919063ffffffff16565b8051909150156113c257808060200190518101906135c59190614214565b6113c25760405162461bcd60e51b815260206004820152602a60248201527f5361666545524332303a204552433230206f7065726174696f6e20646964206e6044820152691bdd081cdd58d8d9595960b21b60648201526084016109ed565b6000613688847f00000000000000000000000000000000000000000000000000000000000000006001600160a01b031663bbe4fd506040518163ffffffff1660e01b8152600401602060405180830381865afa158015613408573d6000803e3d6000fd5b50509050818112156136f15760405162461bcd60e51b815260206004820152602c60248201527f5375706572666c756964546f6b656e3a206d6f766520616d6f756e742065786360448201526b656564732062616c616e636560a01b60648201526084016109ed565b6001600160a01b038416600090815260026020526040902054613715908390614301565b6001600160a01b0380861660009081526002602052604080822093909355908516815220546137459083906142c0565b6001600160a01b03909316600090815260026020526040902092909255505050565b6060610d878484600085856001600160a01b0385163b6137c95760405162461bcd60e51b815260206004820152601d60248201527f416464726573733a2063616c6c20746f206e6f6e2d636f6e747261637400000060448201526064016109ed565b600080866001600160a01b031685876040516137e59190614830565b60006040518083038185875af1925050503d8060008114613822576040519150601f19603f3d011682016040523d82523d6000602084013e613827565b606091505b5091509150613837828286613842565b979650505050505050565b60608315613851575081610d8a565b8251156138615782518084602001fd5b8160405162461bcd60e51b81526004016109ed91906139b0565b828054613887906140c5565b90600052602060002090601f0160209004810192826138a957600085556138ef565b82601f106138c25782800160ff198235161785556138ef565b828001600101855582156138ef579182015b828111156138ef5782358255916020019190600101906138d4565b5061236b9291505b8082111561236b57600081556001016138f7565b6020808252825182820181905260009190848201906040850190845b8181101561394c5783516001600160a01b031683529284019291840191600101613927565b50909695505050505050565b60005b8381101561397357818101518382015260200161395b565b838111156113695750506000910152565b6000815180845261399c816020860160208601613958565b601f01601f19169290920160200192915050565b602081526000610d8a6020830184613984565b6001600160a01b038116811461095257600080fd5b60008083601f8401126139ea57600080fd5b5081356001600160401b03811115613a0157600080fd5b6020830191508360208260051b8501011115613a1c57600080fd5b9250929050565b60008060008060608587031215613a3957600080fd5b8435613a44816139c3565b93506020850135925060408501356001600160401b03811115613a6657600080fd5b613a72878288016139d8565b95989497509550505050565b60008060408385031215613a9157600080fd5b8235613a9c816139c3565b946020939093013593505050565b600060208284031215613abc57600080fd5b5035919050565b600080600060408486031215613ad857600080fd5b8335925060208401356001600160401b03811115613af557600080fd5b613b01868287016139d8565b9497909650939450505050565b60008060008060808587031215613b2457600080fd5b8435613b2f816139c3565b93506020850135613b3f816139c3565b92506040850135613b4f816139c3565b9396929550929360600135925050565b634e487b7160e01b600052604160045260246000fd5b604051601f8201601f191681016001600160401b0381118282101715613b9d57613b9d613b5f565b604052919050565b600082601f830112613bb657600080fd5b81356001600160401b03811115613bcf57613bcf613b5f565b613be2601f8201601f1916602001613b75565b818152846020838601011115613bf757600080fd5b816020850160208301376000918101602001919091529392505050565b801515811461095257600080fd5b600080600080600080600060e0888a031215613c3d57600080fd5b8735965060208801356001600160401b03811115613c5a57600080fd5b613c668a828b01613ba5565b9650506040880135613c77816139c3565b94506060880135613c8781613c14565b93506080880135613c97816139c3565b9699959850939692959460a0840135945060c09093013592915050565b600080600060608486031215613cc957600080fd5b8335613cd4816139c3565b92506020840135613ce4816139c3565b929592945050506040919091013590565b60008060408385031215613d0857600080fd5b50508035926020909101359150565b600060208284031215613d2957600080fd5b8135610d8a816139c3565b60008083601f840112613d4657600080fd5b5081356001600160401b03811115613d5d57600080fd5b602083019150836020828501011115613a1c57600080fd5b60008060008060008060808789031215613d8e57600080fd5b8635613d99816139c3565b9550602087013560ff81168114613daf57600080fd5b945060408701356001600160401b0380821115613dcb57600080fd5b613dd78a838b01613d34565b90965094506060890135915080821115613df057600080fd5b50613dfd89828a01613d34565b979a9699509497509295939492505050565b60008060008060808587031215613e2557600080fd5b8435613e30816139c3565b93506020850135613e40816139c3565b93969395505050506040820135916060013590565b6020808252825182820181905260009190848201906040850190845b8181101561394c57835183529284019291840191600101613e71565b60008060008060608587031215613ea357600080fd5b8435613eae816139c3565b93506020850135925060408501356001600160401b03811115613ed057600080fd5b613a7287828801613d34565b600080600080600080600060a0888a031215613ef757600080fd5b8735613f02816139c3565b96506020880135613f12816139c3565b95506040880135945060608801356001600160401b0380821115613f3557600080fd5b613f418b838c01613d34565b909650945060808a0135915080821115613f5a57600080fd5b50613f678a828b01613d34565b989b979a50959850939692959293505050565b600080600060608486031215613f8f57600080fd5b8335613f9a816139c3565b95602085013595506040909401359392505050565b600080600060608486031215613fc457600080fd5b8335613fcf816139c3565b92506020840135915060408401356001600160401b03811115613ff157600080fd5b613ffd86828701613ba5565b9150509250925092565b6000806040838503121561401a57600080fd5b8235614025816139c3565b91506020830135614035816139c3565b809150509250929050565b6000806000806000806080878903121561405957600080fd5b8635614064816139c3565b95506020870135945060408701356001600160401b0380821115613dcb57600080fd5b60008060006040848603121561409c57600080fd5b8335925060208401356001600160401b038111156140b957600080fd5b613b0186828701613d34565b600181811c908216806140d957607f821691505b6020821081036140f957634e487b7160e01b600052602260045260246000fd5b50919050565b6080808252600e908201526d41677265656d656e74537461746560901b60a08201526001600160a01b039384166020820152919092166040820152606081019190915260c00190565b6060808252600d908201526c41677265656d656e744461746160981b60808201526001600160a01b03929092166020830152604082015260a00190565b838152604060208201819052810182905260006001600160fb1b038311156141ac57600080fd5b8260051b8085606085013760009201606001918252509392505050565b6020808252602b908201527f5375706572666c756964546f6b656e3a204f6e6c7920686f737420636f6e747260408201526a1858dd08185b1b1bddd95960aa1b606082015260800190565b60006020828403121561422657600080fd5b8151610d8a81613c14565b60208082526027908201527f5375706572666c756964546f6b656e3a206f6e6c79206c6973746564206167726040820152661959595b595b9d60ca1b606082015260800190565b634e487b7160e01b600052601160045260246000fd5b6000600160ff1b82016142a3576142a3614278565b5060000390565b634e487b7160e01b600052600160045260246000fd5b600080821280156001600160ff1b03849003851316156142e2576142e2614278565b600160ff1b83900384128116156142fb576142fb614278565b50500190565b60008083128015600160ff1b85018412161561431f5761431f614278565b6001600160ff1b038401831381161561433a5761433a614278565b50500390565b85815260018060a01b038516602082015283604082015282606082015260a06080820152600061383760a0830184613984565b60006020828403121561438557600080fd5b5051919050565b6000602080838503121561439f57600080fd5b82516001600160401b03808211156143b657600080fd5b818501915085601f8301126143ca57600080fd5b8151818111156143dc576143dc613b5f565b8060051b91506143ed848301613b75565b818152918301840191848101908884111561440757600080fd5b938501935b838510156144315784519250614421836139c3565b828252938501939085019061440c565b98975050505050505050565b6000821982111561445057614450614278565b500190565b6020808252601d908201527f5375706572546f6b656e3a206f6e6c792073656c6620616c6c6f776564000000604082015260600190565b60208082526030908201527f5375706572546f6b656e3a2063616c6c6572206973206e6f7420616e206f706560408201526f3930ba37b9103337b9103437b63232b960811b606082015260800190565b6000828210156144ee576144ee614278565b500390565b634e487b7160e01b600052603260045260246000fd5b60008060006060848603121561451e57600080fd5b8351925060208401519150604084015190509250925092565b60006001820161454957614549614278565b5060010190565b6020808252603a908201527f5375706572546f6b656e3a20696e666c6174696f6e6172792f6465666c61746960408201527f6f6e61727920746f6b656e73206e6f7420737570706f72746564000000000000606082015260800190565b60208082526026908201527f5375706572546f6b656e3a207472616e736665722066726f6d207a65726f206160408201526564647265737360d01b606082015260800190565b60208082526024908201527f5375706572546f6b656e3a207472616e7366657220746f207a65726f206164646040820152637265737360e01b606082015260800190565b60006020828403121561464957600080fd5b8151610d8a816139c3565b83815260606020820152600061466d6060830185613984565b82810360408401526112e28185613984565b600060ff821660ff84168082101561469957614699614278565b90039392505050565b600181815b808511156146dd5781600019048211156146c3576146c3614278565b808516156146d057918102915b93841c93908002906146a7565b509250929050565b6000826146f457506001610921565b8161470157506000610921565b816001811461471757600281146147215761473d565b6001915050610921565b60ff84111561473257614732614278565b50506001821b610921565b5060208310610133831016604e8410600b8410161715614760575081810a610921565b61476a83836146a2565b806000190482111561477e5761477e614278565b029392505050565b6000610d8a60ff8416836146e5565b6000826147b257634e487b7160e01b600052601260045260246000fd5b500490565b60008160001904831182151516156147d1576147d1614278565b500290565b6001600160a01b0387811682528681166020830152851660408201526060810184905260c06080820181905260009061481190830185613984565b82810360a08401526148238185613984565b9998505050505050505050565b60008251614842818460208701613958565b919091019291505056fe5375706572546f6b656e3a2064656372656173656420616c6c6f77616e63652062656c6f77207a65726fddf252ad1be2c89b69c2b068fc378daa952ba7f163c4a11628f55a4df523b3ef5375706572546f6b656e3a207472616e7366657220616d6f756e74206578636565647320616c6c6f77616e6365a26469706673582212205f1dd260cd238b50a1edaf5f348950b056eed1d3807768391ff28f47a7b6a30c64736f6c634300080e0033",
  "immutableReferences": {
    "35215": [
      {
        "length": 32,
        "start": 1015
      },
      {
        "length": 32,
        "start": 2689
      },
      {
        "length": 32,
        "start": 2799
      },
      {
        "length": 32,
        "start": 3475
      },
      {
        "length": 32,
        "start": 3821
      },
      {
        "length": 32,
        "start": 4028
      },
      {
        "length": 32,
        "start": 4643
      },
      {
        "length": 32,
        "start": 4977
      },
      {
        "length": 32,
        "start": 5381
      },
      {
        "length": 32,
        "start": 6124
      },
      {
        "length": 32,
        "start": 6318
      },
      {
        "length": 32,
        "start": 6453
      },
      {
        "length": 32,
        "start": 8641
      },
      {
        "length": 32,
        "start": 8792
      },
      {
        "length": 32,
        "start": 13228
      },
      {
        "length": 32,
        "start": 13868
      }
    ]
  },
  "source": "// SPDX-License-Identifier: AGPLv3\npragma solidity 0.8.14;\n\nimport { UUPSProxiable } from \"../upgradability/UUPSProxiable.sol\";\n\nimport {\n    ISuperfluid,\n    ISuperfluidGovernance,\n    ISuperToken,\n    ISuperAgreement,\n    IERC20,\n    IERC777,\n    TokenInfo\n} from \"../interfaces/superfluid/ISuperfluid.sol\";\nimport { ISuperfluidToken, SuperfluidToken } from \"./SuperfluidToken.sol\";\n\nimport { ERC777Helper } from \"../libs/ERC777Helper.sol\";\n\nimport { SafeERC20 } from \"@openzeppelin/contracts/token/ERC20/utils/SafeERC20.sol\";\nimport { SafeMath } from \"@openzeppelin/contracts/utils/math/SafeMath.sol\";\nimport { SafeCast } from \"@openzeppelin/contracts/utils/math/SafeCast.sol\";\nimport { IERC777Recipient } from \"@openzeppelin/contracts/token/ERC777/IERC777Recipient.sol\";\nimport { IERC777Sender } from \"@openzeppelin/contracts/token/ERC777/IERC777Sender.sol\";\nimport { Address } from \"@openzeppelin/contracts/utils/Address.sol\";\n\n\n/**\n * @title Superfluid's super token implementation\n *\n * @author Superfluid\n */\ncontract SuperToken is\n    UUPSProxiable,\n    SuperfluidToken,\n    ISuperToken\n{\n\n    using SafeMath for uint256;\n    using SafeCast for uint256;\n    using Address for address;\n    using ERC777Helper for ERC777Helper.Operators;\n    using SafeERC20 for IERC20;\n\n    uint8 constant private _STANDARD_DECIMALS = 18;\n\n    /* WARNING: NEVER RE-ORDER VARIABLES! Including the base contracts.\n       Always double-check that new\n       variables are added APPEND-ONLY. Re-ordering variables can\n       permanently BREAK the deployed proxy contract. */\n\n    /// @dev The underlying ERC20 token\n    IERC20 internal _underlyingToken;\n\n    /// @dev Decimals of the underlying token\n    uint8 internal _underlyingDecimals;\n\n    /// @dev TokenInfo Name property\n    string internal _name;\n\n    /// @dev TokenInfo Symbol property\n    string internal _symbol;\n\n    /// @dev ERC20 Allowances Storage\n    mapping(address => mapping (address => uint256)) internal _allowances;\n\n    /// @dev ERC777 operators support data\n    ERC777Helper.Operators internal _operators;\n\n    // NOTE: for future compatibility, these are reserved solidity slots\n    // The sub-class of SuperToken solidity slot will start after _reserve22\n    uint256 internal _reserve22;\n    uint256 private _reserve23;\n    uint256 private _reserve24;\n    uint256 private _reserve25;\n    uint256 private _reserve26;\n    uint256 private _reserve27;\n    uint256 private _reserve28;\n    uint256 private _reserve29;\n    uint256 private _reserve30;\n    uint256 internal _reserve31;\n\n    constructor(\n        ISuperfluid host\n    )\n        SuperfluidToken(host)\n        // solhint-disable-next-line no-empty-blocks\n    {\n    }\n\n    function initialize(\n        IERC20 underlyingToken,\n        uint8 underlyingDecimals,\n        string calldata n,\n        string calldata s\n    )\n        external override\n        initializer // OpenZeppelin Initializable\n    {\n        _underlyingToken = underlyingToken;\n        _underlyingDecimals = underlyingDecimals;\n\n        _name = n;\n        _symbol = s;\n\n        // register interfaces\n        ERC777Helper.register(address(this));\n    }\n\n    function proxiableUUID() public pure override returns (bytes32) {\n        return keccak256(\"org.superfluid-finance.contracts.SuperToken.implementation\");\n    }\n\n    function updateCode(address newAddress) external override {\n        require(msg.sender == address(_host), \"SuperToken: only host can update code\");\n        UUPSProxiable._updateCodeAddress(newAddress);\n    }\n\n    /**************************************************************************\n     * ERC20 Token Info\n     *************************************************************************/\n\n    function name() external view override returns (string memory) {\n        return _name;\n    }\n\n    function symbol() external view override returns (string memory) {\n        return _symbol;\n    }\n\n    function decimals() external pure override returns (uint8) {\n        return _STANDARD_DECIMALS;\n    }\n\n    /**************************************************************************\n     * (private) Token Logics\n     *************************************************************************/\n\n    /**\n     * @notice in the original openzeppelin implementation, transfer() and transferFrom()\n     * did invoke the send and receive hooks, as required by ERC777.\n     * This hooks were removed from super tokens for ERC20 transfers in order to protect\n     * interfacing contracts which don't expect invocations of ERC20 transfers to potentially reenter.\n     * Interactions relying on ERC777 hooks need to use the ERC777 interface.\n     * For more context, see https://github.com/superfluid-finance/protocol-monorepo/wiki/About-ERC-777\n     */\n    function _transferFrom(address spender, address holder, address recipient, uint amount)\n        internal returns (bool)\n    {\n        require(holder != address(0), \"SuperToken: transfer from zero address\");\n        require(recipient != address(0), \"SuperToken: transfer to zero address\");\n\n        address operator = msg.sender;\n\n        _move(operator, holder, recipient, amount, \"\", \"\");\n\n        if (spender != holder) {\n            _approve(\n                holder,\n                spender,\n                _allowances[holder][spender].sub(amount, \"SuperToken: transfer amount exceeds allowance\"));\n        }\n\n        return true;\n    }\n\n    /**\n     * @dev Send tokens\n     * @param operator address operator address\n     * @param from address token holder address\n     * @param to address recipient address\n     * @param amount uint256 amount of tokens to transfer\n     * @param userData bytes extra information provided by the token holder (if any)\n     * @param operatorData bytes extra information provided by the operator (if any)\n     * @param requireReceptionAck if true, contract recipients are required to implement ERC777TokensRecipient\n     */\n    function _send(\n        address operator,\n        address from,\n        address to,\n        uint256 amount,\n        bytes memory userData,\n        bytes memory operatorData,\n        bool requireReceptionAck\n    )\n        private\n    {\n        require(from != address(0), \"SuperToken: transfer from zero address\");\n        require(to != address(0), \"SuperToken: transfer to zero address\");\n\n        _callTokensToSend(operator, from, to, amount, userData, operatorData);\n\n        _move(operator, from, to, amount, userData, operatorData);\n\n        _callTokensReceived(operator, from, to, amount, userData, operatorData, requireReceptionAck);\n    }\n\n    function _move(\n        address operator,\n        address from,\n        address to,\n        uint256 amount,\n        bytes memory userData,\n        bytes memory operatorData\n    )\n        private\n    {\n        SuperfluidToken._move(from, to, amount.toInt256());\n\n        emit Sent(operator, from, to, amount, userData, operatorData);\n        emit Transfer(from, to, amount);\n    }\n\n    /**\n     * @dev Creates `amount` tokens and assigns them to `account`, increasing\n     * the total supply.\n     *\n     * If a send hook is registered for `account`, the corresponding function\n     * will be called with `operator`, `data` and `operatorData`.\n     *\n     * See {IERC777Sender} and {IERC777Recipient}.\n     *\n     * Emits {Minted} and {IERC20-Transfer} events.\n     *\n     * Requirements\n     *\n     * - `account` cannot be the zero address.\n     * - if `account` is a contract, it must implement the {IERC777Recipient}\n     * interface.\n     */\n    function _mint(\n        address operator,\n        address account,\n        uint256 amount,\n        bool requireReceptionAck,\n        bytes memory userData,\n        bytes memory operatorData\n    )\n        internal\n    {\n        require(account != address(0), \"SuperToken: mint to zero address\");\n\n        SuperfluidToken._mint(account, amount);\n\n        _callTokensReceived(operator, address(0), account, amount, userData, operatorData, requireReceptionAck);\n\n        emit Minted(operator, account, amount, userData, operatorData);\n        emit Transfer(address(0), account, amount);\n    }\n\n    /**\n     * @dev Burn tokens\n     * @param from address token holder address\n     * @param amount uint256 amount of tokens to burn\n     * @param userData bytes extra information provided by the token holder\n     * @param operatorData bytes extra information provided by the operator (if any)\n     */\n    function _burn(\n        address operator,\n        address from,\n        uint256 amount,\n        bytes memory userData,\n        bytes memory operatorData\n    )\n        internal\n    {\n        require(from != address(0), \"SuperToken: burn from zero address\");\n\n        _callTokensToSend(operator, from, address(0), amount, userData, operatorData);\n\n        SuperfluidToken._burn(from, amount);\n\n        emit Burned(operator, from, amount, userData, operatorData);\n        emit Transfer(from, address(0), amount);\n    }\n\n    /**\n     * @notice Sets `amount` as the allowance of `spender` over the `account`s tokens.\n     *\n     * This is internal function is equivalent to `approve`, and can be used to\n     * e.g. set automatic allowances for certain subsystems, etc.\n     *\n     * Emits an {Approval} event.\n     *\n     * Requirements:\n     *\n     * - `account` cannot be the zero address.\n     * - `spender` cannot be the zero address.\n     */\n    function _approve(address account, address spender, uint256 amount)\n        internal\n    {\n        require(account != address(0), \"SuperToken: approve from zero address\");\n        require(spender != address(0), \"SuperToken: approve to zero address\");\n\n        _allowances[account][spender] = amount;\n        emit Approval(account, spender, amount);\n    }\n\n    /**\n     * @dev Call from.tokensToSend() if the interface is registered\n     * @param operator address operator requesting the transfer\n     * @param from address token holder address\n     * @param to address recipient address\n     * @param amount uint256 amount of tokens to transfer\n     * @param userData bytes extra information provided by the token holder (if any)\n     * @param operatorData bytes extra information provided by the operator (if any)\n     */\n    function _callTokensToSend(\n        address operator,\n        address from,\n        address to,\n        uint256 amount,\n        bytes memory userData,\n        bytes memory operatorData\n    )\n        private\n    {\n        address implementer = ERC777Helper._ERC1820_REGISTRY.getInterfaceImplementer(\n            from, ERC777Helper._TOKENS_SENDER_INTERFACE_HASH);\n        if (implementer != address(0)) {\n            IERC777Sender(implementer).tokensToSend(operator, from, to, amount, userData, operatorData);\n        }\n    }\n\n    /**\n     * @dev Call to.tokensReceived() if the interface is registered. Reverts if the recipient is a contract but\n     * tokensReceived() was not registered for the recipient\n     * @param operator address operator requesting the transfer\n     * @param from address token holder address\n     * @param to address recipient address\n     * @param amount uint256 amount of tokens to transfer\n     * @param userData bytes extra information provided by the token holder (if any)\n     * @param operatorData bytes extra information provided by the operator (if any)\n     * @param requireReceptionAck if true, contract recipients are required to implement ERC777TokensRecipient\n     */\n    function _callTokensReceived(\n        address operator,\n        address from,\n        address to,\n        uint256 amount,\n        bytes memory userData,\n        bytes memory operatorData,\n        bool requireReceptionAck\n    )\n        private\n    {\n        address implementer = ERC777Helper._ERC1820_REGISTRY.getInterfaceImplementer(\n            to, ERC777Helper._TOKENS_RECIPIENT_INTERFACE_HASH);\n        if (implementer != address(0)) {\n            IERC777Recipient(implementer).tokensReceived(operator, from, to, amount, userData, operatorData);\n        } else if (requireReceptionAck) {\n            require(\n                !to.isContract(),\n                \"SuperToken: not an ERC777TokensRecipient\");\n        }\n    }\n\n    /**************************************************************************\n     * ERC20 Implementations\n     *************************************************************************/\n\n    function totalSupply()\n        public view override returns (uint256)\n    {\n        return _totalSupply;\n    }\n\n    function balanceOf(\n        address account\n    )\n        public\n        view\n        override\n        returns(uint256 balance)\n    {\n        // solhint-disable-next-line not-rely-on-time\n        (int256 availableBalance, , ,) = super.realtimeBalanceOfNow(account);\n        return availableBalance < 0 ? 0 : uint256(availableBalance);\n    }\n\n    function transfer(address recipient, uint256 amount)\n        public override returns (bool)\n    {\n        return _transferFrom(msg.sender, msg.sender, recipient, amount);\n    }\n\n    function allowance(address account, address spender)\n        public view override returns (uint256)\n    {\n        return _allowances[account][spender];\n    }\n\n    function approve(address spender, uint256 amount)\n        public override\n        returns (bool)\n    {\n        _approve(msg.sender, spender, amount);\n        return true;\n    }\n\n    function transferFrom(address holder, address recipient, uint256 amount)\n        public override returns (bool)\n    {\n        return _transferFrom(msg.sender, holder, recipient, amount);\n    }\n\n    function increaseAllowance(address spender, uint256 addedValue)\n        public override returns (bool) {\n        _approve(msg.sender, spender, _allowances[msg.sender][spender] + addedValue);\n        return true;\n    }\n\n    function decreaseAllowance(address spender, uint256 subtractedValue)\n        public override returns (bool) {\n        _approve(msg.sender, spender, _allowances[msg.sender][spender].sub(subtractedValue,\n            \"SuperToken: decreased allowance below zero\"));\n        return true;\n    }\n\n    /**************************************************************************\n     * ERC-777 functions\n     *************************************************************************/\n\n    function granularity() external pure override returns (uint256) { return 1; }\n\n    function send(address recipient, uint256 amount, bytes calldata data) external override {\n        _send(msg.sender, msg.sender, recipient, amount, data, \"\", true);\n    }\n\n    function burn(uint256 amount, bytes calldata data) external override {\n        _downgrade(msg.sender, msg.sender, amount, data, \"\");\n    }\n\n    function isOperatorFor(address operator, address tokenHolder) external override view returns (bool) {\n        return _operators.isOperatorFor(operator, tokenHolder);\n    }\n\n    function authorizeOperator(address operator) external override {\n        address holder = msg.sender;\n        _operators.authorizeOperator(holder, operator);\n        emit AuthorizedOperator(operator, holder);\n    }\n\n    function revokeOperator(address operator) external override {\n        address holder = msg.sender;\n        _operators.revokeOperator(holder, operator);\n        emit RevokedOperator(operator, holder);\n    }\n\n    function defaultOperators() external override view returns (address[] memory) {\n        return ERC777Helper.defaultOperators(_operators);\n    }\n\n    function operatorSend(\n        address sender,\n        address recipient,\n        uint256 amount,\n        bytes calldata data,\n        bytes calldata operatorData\n    ) external override {\n        address operator = msg.sender;\n        require(_operators.isOperatorFor(operator, sender), \"SuperToken: caller is not an operator for holder\");\n        _send(operator, sender, recipient, amount, data, operatorData, true);\n    }\n\n    function operatorBurn(\n        address account,\n        uint256 amount,\n        bytes calldata data,\n        bytes calldata operatorData\n    ) external override {\n        address operator = msg.sender;\n        require(_operators.isOperatorFor(operator, account), \"SuperToken: caller is not an operator for holder\");\n        _downgrade(operator, account, amount, data, operatorData);\n    }\n\n    function _setupDefaultOperators(address[] memory operators) internal {\n        _operators.setupDefaultOperators(operators);\n    }\n\n    /**************************************************************************\n     * SuperToken custom token functions\n     *************************************************************************/\n\n    function selfMint(\n        address account,\n        uint256 amount,\n        bytes memory userData\n    )\n        external override\n        onlySelf\n    {\n        _mint(msg.sender, account, amount,\n            false /* requireReceptionAck */, userData, new bytes(0));\n    }\n\n    function selfBurn(\n       address account,\n       uint256 amount,\n       bytes memory userData\n    )\n       external override\n       onlySelf\n    {\n       _burn(msg.sender, account, amount, userData, new bytes(0));\n    }\n\n    function selfApproveFor(\n        address account,\n        address spender,\n        uint256 amount\n    )\n        external override\n        onlySelf\n    {\n        _approve(account, spender, amount);\n    }\n\n    function selfTransferFrom(\n        address holder,\n        address spender,\n        address recipient,\n        uint256 amount\n    )\n        external override\n        onlySelf\n    {\n        _transferFrom(spender, holder, recipient, amount);\n    }\n\n    /**************************************************************************\n     * SuperToken extra functions\n     *************************************************************************/\n\n    function transferAll(address recipient)\n        external override\n    {\n        _transferFrom(msg.sender, msg.sender, recipient, balanceOf(msg.sender));\n    }\n\n    /**************************************************************************\n     * ERC20 wrapping\n     *************************************************************************/\n\n    /// @dev ISuperfluidGovernance.getUnderlyingToken implementation\n    function getUnderlyingToken() external view override returns(address) {\n        return address(_underlyingToken);\n    }\n\n    /// @dev ISuperToken.upgrade implementation\n    function upgrade(uint256 amount) external override {\n        _upgrade(msg.sender, msg.sender, msg.sender, amount, \"\", \"\");\n    }\n\n    /// @dev ISuperToken.upgradeTo implementation\n    function upgradeTo(address to, uint256 amount, bytes calldata data) external override {\n        _upgrade(msg.sender, msg.sender, to, amount, \"\", data);\n    }\n\n    /// @dev ISuperToken.downgrade implementation\n    function downgrade(uint256 amount) external override {\n        _downgrade(msg.sender, msg.sender, amount, \"\", \"\");\n    }\n\n    function _upgrade(\n        address operator,\n        address account,\n        address to,\n        uint256 amount,\n        bytes memory userData,\n        bytes memory operatorData\n    ) private {\n        require(address(_underlyingToken) != address(0), \"SuperToken: no underlying token\");\n\n        (uint256 underlyingAmount, uint256 adjustedAmount) = _toUnderlyingAmount(amount);\n\n        uint256 amountBefore = _underlyingToken.balanceOf(address(this));\n        _underlyingToken.safeTransferFrom(account, address(this), underlyingAmount);\n        uint256 amountAfter = _underlyingToken.balanceOf(address(this));\n        uint256 actualUpgradedAmount = amountAfter - amountBefore;\n        require(\n            underlyingAmount == actualUpgradedAmount,\n            \"SuperToken: inflationary/deflationary tokens not supported\");\n\n        _mint(operator, to, adjustedAmount,\n            // if `to` is diffferent from `account`, we requireReceptionAck\n            account != to, userData, operatorData);\n\n        emit TokenUpgraded(to, adjustedAmount);\n    }\n\n    function _downgrade(\n        address operator,\n        address account,\n        uint256 amount,\n        bytes memory data,\n        bytes memory operatorData) private {\n        require(address(_underlyingToken) != address(0), \"SuperToken: no underlying token\");\n\n        (uint256 underlyingAmount, uint256 adjustedAmount) = _toUnderlyingAmount(amount);\n\n         // _burn will check the (actual) amount availability again\n         _burn(operator, account, adjustedAmount, data, operatorData);\n\n        uint256 amountBefore = _underlyingToken.balanceOf(address(this));\n        _underlyingToken.safeTransfer(account, underlyingAmount);\n        uint256 amountAfter = _underlyingToken.balanceOf(address(this));\n        uint256 actualDowngradedAmount = amountBefore - amountAfter;\n        require(\n            underlyingAmount == actualDowngradedAmount,\n            \"SuperToken: inflationary/deflationary tokens not supported\");\n\n        emit TokenDowngraded(account, adjustedAmount);\n    }\n\n    /**\n     * @dev Handle decimal differences between underlying token and super token\n     */\n    function _toUnderlyingAmount(uint256 amount)\n        private view\n        returns (uint256 underlyingAmount, uint256 adjustedAmount)\n    {\n        uint256 factor;\n        if (_underlyingDecimals < _STANDARD_DECIMALS) {\n            // if underlying has less decimals\n            // one can upgrade less \"granualar\" amount of tokens\n            factor = 10 ** (_STANDARD_DECIMALS - _underlyingDecimals);\n            underlyingAmount = amount / factor;\n            // remove precision errors\n            adjustedAmount = underlyingAmount * factor;\n        } else if (_underlyingDecimals > _STANDARD_DECIMALS) {\n            // if underlying has more decimals\n            // one can upgrade more \"granualar\" amount of tokens\n            factor = 10 ** (_underlyingDecimals - _STANDARD_DECIMALS);\n            underlyingAmount = amount * factor;\n            adjustedAmount = amount;\n        } else {\n            underlyingAmount = adjustedAmount = amount;\n        }\n    }\n\n    /**************************************************************************\n     * Superfluid Batch Operations\n     *************************************************************************/\n\n    function operationApprove(\n        address account,\n        address spender,\n        uint256 amount\n    )\n        external override\n        onlyHost\n    {\n        _approve(account, spender, amount);\n    }\n\n    function operationTransferFrom(\n        address account,\n        address spender,\n        address recipient,\n        uint256 amount\n    )\n        external override\n        onlyHost\n    {\n        _transferFrom(account, spender, recipient, amount);\n    }\n\n    function operationUpgrade(address account, uint256 amount)\n        external override\n        onlyHost\n    {\n        _upgrade(msg.sender, account, account, amount, \"\", \"\");\n    }\n\n    function operationDowngrade(address account, uint256 amount)\n        external override\n        onlyHost\n    {\n        _downgrade(msg.sender, account, amount, \"\", \"\");\n    }\n\n    /**************************************************************************\n    * Modifiers\n    *************************************************************************/\n\n    modifier onlySelf() {\n        require(msg.sender == address(this), \"SuperToken: only self allowed\");\n        _;\n    }\n\n}\n",
  "sourcePath": "/Users/alo/protocol-monorepo/packages/ethereum-contracts/contracts/superfluid/SuperToken.sol",
  "compiler": {
    "name": "solc",
    "version": "0.8.14+commit.80d49f37.Emscripten.clang"
  },
  "schemaVersion": "3.4.8",
  "updatedAt": "2022-07-15T06:25:31.680Z",
  "devdoc": {
    "author": "Superfluid",
    "kind": "dev",
    "methods": {
      "approve(address,uint256)": {
        "details": "Sets `amount` as the allowance of `spender` over the caller's tokens.",
        "returns": {
          "_0": "Returns Success a boolean value indicating whether the operation succeeded."
        }
      },
      "authorizeOperator(address)": {
        "details": "Make an account an operator of the caller. See {isOperatorFor}."
      },
      "balanceOf(address)": {
        "details": "Returns the amount of tokens owned by an account (`owner`)."
      },
      "burn(uint256,bytes)": {
        "details": "Destroys `amount` tokens from the caller's account, reducing the total supply. If a send hook is registered for the caller, the corresponding function will be called with `data` and empty `operatorData`. See {IERC777Sender}."
      },
      "createAgreement(bytes32,bytes32[])": {
        "details": "ISuperfluidToken.createAgreement implementation"
      },
      "decimals()": {
        "details": "Returns the number of decimals used to get its user representation. For example, if `decimals` equals `2`, a balance of `505` tokens should be displayed to a user as `5,05` (`505 / 10 ** 2`). Tokens usually opt for a value of 18, imitating the relationship between Ether and Wei. This is the value {ERC20} uses, unless {_setupDecimals} is called."
      },
      "decreaseAllowance(address,uint256)": {
        "details": "Atomically decreases the allowance granted to `spender` by the caller. This is an alternative to {approve} that can be used as a mitigation for problems described in {IERC20-approve}."
      },
      "defaultOperators()": {
        "details": "Returns the list of default operators. These accounts are operators for all token holders, even if {authorizeOperator} was never called on them. This list is immutable, but individual holders may revoke these via {revokeOperator}, in which case {isOperatorFor} will return false."
      },
      "downgrade(uint256)": {
        "details": "ISuperToken.downgrade implementation"
      },
      "getAccountActiveAgreements(address)": {
        "details": "ISuperfluidToken.getAccountActiveAgreements implementation"
      },
      "getAgreementData(address,bytes32,uint256)": {
        "details": "ISuperfluidToken.getAgreementData implementation"
      },
      "getAgreementStateSlot(address,address,uint256,uint256)": {
        "details": "ISuperfluidToken.getAgreementState implementation"
      },
      "getCodeAddress()": {
        "details": "Get current implementation code address."
      },
      "getHost()": {
        "details": "ISuperfluidToken.getHost implementation"
      },
      "getUnderlyingToken()": {
        "details": "ISuperfluidGovernance.getUnderlyingToken implementation"
      },
      "granularity()": {
        "details": "Returns the smallest part of the token that is not divisible. This         means all token operations (creation, movement and destruction) must have         amounts that are a multiple of this number."
      },
      "increaseAllowance(address,uint256)": {
        "details": "Atomically increases the allowance granted to `spender` by the caller. This is an alternative to {approve} that can be used as a mitigation for problems described in {IERC20-approve}."
      },
      "initialize(address,uint8,string,string)": {
        "details": "Initialize the contract"
      },
      "isAccountCritical(address,uint256)": {
        "details": "A critical account is when availableBalance < 0",
        "params": {
          "account": "The account to check",
          "timestamp": "The time we'd like to check if the account is critical (should use future)"
        },
        "returns": {
          "isCritical": "Whether the account is critical"
        }
      },
      "isAccountCriticalNow(address)": {
        "details": "A critical account is when availableBalance < 0",
        "params": {
          "account": "The account to check"
        },
        "returns": {
          "isCritical": "Whether the account is critical"
        }
      },
      "isAccountSolvent(address,uint256)": {
        "details": "An account is insolvent when the sum of deposits for a token can't cover the negative availableBalance",
        "params": {
          "account": "The account to check",
          "timestamp": "The time we'd like to check if the account is solvent (should use future)"
        },
        "returns": {
          "isSolvent": "True if the account is solvent, false otherwise"
        }
      },
      "isAccountSolventNow(address)": {
        "details": "An account is insolvent when the sum of deposits for a token can't cover the negative availableBalance",
        "params": {
          "account": "The account to check"
        },
        "returns": {
          "isSolvent": "True if the account is solvent, false otherwise"
        }
      },
      "isOperatorFor(address,address)": {
        "details": "Returns true if an account is an operator of `tokenHolder`. Operators can send and burn tokens on behalf of their owners. All accounts are their own operator. See {operatorSend} and {operatorBurn}."
      },
      "makeLiquidationPayoutsV2(bytes32,bytes,address,bool,address,uint256,int256)": {
        "details": "ISuperfluidToken.makeLiquidationPayoutsV2 implementation"
      },
      "name()": {
        "details": "Returns the name of the token."
      },
      "operationApprove(address,address,uint256)": {
        "details": "Perform ERC20 approve by host contract.",
        "params": {
          "account": "The account owner to be approved.",
          "amount": "Number of tokens to be approved.",
          "spender": "The spender of account owner's funds."
        }
      },
      "operationDowngrade(address,uint256)": {
        "details": "Downgrade ERC20 to SuperToken by host contract.",
        "params": {
          "account": "The account to be changed.",
          "amount": "Number of tokens to be downgraded (in 18 decimals)"
        }
      },
      "operationTransferFrom(address,address,address,uint256)": {
        "details": "Perform ERC20 transfer from by host contract.",
        "params": {
          "account": "The account to spend sender's funds.",
          "amount": "Number of tokens to be transferred.",
          "recipient": "The recipient of thefunds.",
          "spender": "The account where the funds is sent from."
        }
      },
      "operationUpgrade(address,uint256)": {
        "details": "Upgrade ERC20 to SuperToken by host contract.",
        "params": {
          "account": "The account to be changed.",
          "amount": "Number of tokens to be upgraded (in 18 decimals)"
        }
      },
      "operatorBurn(address,uint256,bytes,bytes)": {
        "details": "Destroys `amount` tokens from `account`, reducing the total supply. The caller must be an operator of `account`. If a send hook is registered for `account`, the corresponding function will be called with `data` and `operatorData`. See {IERC777Sender}."
      },
      "operatorSend(address,address,uint256,bytes,bytes)": {
        "details": "Moves `amount` tokens from `sender` to `recipient`. The caller must be an operator of `sender`. If send or receive hooks are registered for `sender` and `recipient`, the corresponding functions will be called with `data` and `operatorData`. See {IERC777Sender} and {IERC777Recipient}."
      },
      "proxiableUUID()": {
        "details": "Proxiable UUID marker function, this would help to avoid wrong logic      contract to be used for upgrading. NOTE: The semantics of the UUID deviates from the actual UUPS standard,       where it is equivalent of _IMPLEMENTATION_SLOT."
      },
      "realtimeBalanceOf(address,uint256)": {
        "details": "ISuperfluidToken.realtimeBalanceOf implementation"
      },
      "realtimeBalanceOfNow(address)": {
        "details": "ISuperfluidToken.realtimeBalanceOfNow implementation"
      },
      "revokeOperator(address)": {
        "details": "Revoke an account's operator status for the caller. See {isOperatorFor} and {defaultOperators}."
      },
      "selfApproveFor(address,address,uint256)": {
        "details": "Give `spender`, `amount` allowance to spend the tokens of `account`."
      },
      "selfBurn(address,uint256,bytes)": {
        "details": "Burn existing tokens for the account"
      },
      "selfMint(address,uint256,bytes)": {
        "details": "Mint new tokens for the account"
      },
      "send(address,uint256,bytes)": {
        "details": "Moves `amount` tokens from the caller's account to `recipient`.If send or receive hooks are registered for the caller and `recipient`,      the corresponding functions will be called with `data` and empty      `operatorData`. See {IERC777Sender} and {IERC777Recipient}."
      },
      "settleBalance(address,int256)": {
        "details": "ISuperfluidToken.settleBalance implementation"
      },
      "symbol()": {
        "details": "Returns the symbol of the token, usually a shorter version of the name."
      },
      "terminateAgreement(bytes32,uint256)": {
        "details": "ISuperfluidToken.terminateAgreement implementation"
      },
      "totalSupply()": {
        "details": "See {IERC20-totalSupply}."
      },
      "transfer(address,uint256)": {
        "details": "Moves `amount` tokens from the caller's account to `recipient`.",
        "returns": {
          "_0": "Returns Success a boolean value indicating whether the operation succeeded."
        }
      },
      "transferAll(address)": {
        "details": "Transfer all available balance from `msg.sender` to `recipient`"
      },
      "updateAgreementData(bytes32,bytes32[])": {
        "details": "ISuperfluidToken.updateAgreementData implementation"
      },
      "updateAgreementStateSlot(address,uint256,bytes32[])": {
        "details": "ISuperfluidToken.updateAgreementState implementation"
      },
      "upgrade(uint256)": {
        "details": "ISuperToken.upgrade implementation"
      },
      "upgradeTo(address,uint256,bytes)": {
        "details": "ISuperToken.upgradeTo implementation"
      }
    },
    "stateVariables": {
      "_allowances": {
        "details": "ERC20 Allowances Storage"
      },
      "_name": {
        "details": "TokenInfo Name property"
      },
      "_operators": {
        "details": "ERC777 operators support data"
      },
      "_symbol": {
        "details": "TokenInfo Symbol property"
      },
      "_underlyingDecimals": {
        "details": "Decimals of the underlying token"
      },
      "_underlyingToken": {
        "details": "The underlying ERC20 token"
      }
    },
    "title": "Superfluid's super token implementation",
    "version": 1
  },
  "userdoc": {
    "kind": "user",
    "methods": {
      "isAccountCritical(address,uint256)": {
        "notice": "Check if account is critical"
      },
      "isAccountCriticalNow(address)": {
        "notice": "Check if account is critical now (current host.getNow())"
      },
      "isAccountSolvent(address,uint256)": {
        "notice": "Check if account is solvent"
      },
      "isAccountSolventNow(address)": {
        "notice": "Check if account is solvent now"
      }
    },
    "version": 1
  }
}