{
  "contractName": "SuperAppMockReturningEmptyCtx",
  "abi": [
    {
      "inputs": [
        {
          "internalType": "contract ISuperfluid",
          "name": "host",
          "type": "address"
        }
      ],
      "stateMutability": "nonpayable",
      "type": "constructor"
    },
    {
      "inputs": [
        {
          "internalType": "contract ISuperToken",
          "name": "",
          "type": "address"
        },
        {
          "internalType": "address",
          "name": "",
          "type": "address"
        },
        {
          "internalType": "bytes32",
          "name": "",
          "type": "bytes32"
        },
        {
          "internalType": "bytes",
          "name": "",
          "type": "bytes"
        },
        {
          "internalType": "bytes",
          "name": "",
          "type": "bytes"
        }
      ],
      "name": "beforeAgreementCreated",
      "outputs": [],
      "stateMutability": "pure",
      "type": "function"
    },
    {
      "inputs": [
        {
          "internalType": "contract ISuperToken",
          "name": "",
          "type": "address"
        },
        {
          "internalType": "address",
          "name": "",
          "type": "address"
        },
        {
          "internalType": "bytes32",
          "name": "",
          "type": "bytes32"
        },
        {
          "internalType": "bytes",
          "name": "",
          "type": "bytes"
        },
        {
          "internalType": "bytes",
          "name": "",
          "type": "bytes"
        },
        {
          "internalType": "bytes",
          "name": "",
          "type": "bytes"
        }
      ],
      "name": "afterAgreementCreated",
      "outputs": [],
      "stateMutability": "pure",
      "type": "function"
    },
    {
      "inputs": [
        {
          "internalType": "contract ISuperToken",
          "name": "",
          "type": "address"
        },
        {
          "internalType": "address",
          "name": "",
          "type": "address"
        },
        {
          "internalType": "bytes32",
          "name": "",
          "type": "bytes32"
        },
        {
          "internalType": "bytes",
          "name": "",
          "type": "bytes"
        },
        {
          "internalType": "bytes",
          "name": "",
          "type": "bytes"
        }
      ],
      "name": "beforeAgreementTerminated",
      "outputs": [],
      "stateMutability": "pure",
      "type": "function"
    },
    {
      "inputs": [
        {
          "internalType": "contract ISuperToken",
          "name": "",
          "type": "address"
        },
        {
          "internalType": "address",
          "name": "",
          "type": "address"
        },
        {
          "internalType": "bytes32",
          "name": "",
          "type": "bytes32"
        },
        {
          "internalType": "bytes",
          "name": "",
          "type": "bytes"
        },
        {
          "internalType": "bytes",
          "name": "",
          "type": "bytes"
        },
        {
          "internalType": "bytes",
          "name": "",
          "type": "bytes"
        }
      ],
      "name": "afterAgreementTerminated",
      "outputs": [],
      "stateMutability": "pure",
      "type": "function"
    }
  ],
  "bytecode": "0x608060405234801561001057600080fd5b5060405161037638038061037683398101604081905261002f916100b3565b600080546001600160a01b0319166001600160a01b03831690811782556040805163bd1c448b60e01b815260016004820152602481019190915260448101929092529063bd1c448b90606401600060405180830381600087803b15801561009557600080fd5b505af11580156100a9573d6000803e3d6000fd5b50505050506100e3565b6000602082840312156100c557600080fd5b81516001600160a01b03811681146100dc57600080fd5b9392505050565b610284806100f26000396000f3fe608060405234801561001057600080fd5b506004361061004c5760003560e01c806330d9c9151461005157806353c11f991461006a5780635f9e7d7714610051578063d86ed3e51461006a575b600080fd5b61006861005f3660046100e4565b50505050505050565b005b610068610078366004610183565b505050505050505050565b6001600160a01b038116811461009857600080fd5b50565b60008083601f8401126100ad57600080fd5b50813567ffffffffffffffff8111156100c557600080fd5b6020830191508360208285010111156100dd57600080fd5b9250929050565b600080600080600080600060a0888a0312156100ff57600080fd5b873561010a81610083565b9650602088013561011a81610083565b955060408801359450606088013567ffffffffffffffff8082111561013e57600080fd5b61014a8b838c0161009b565b909650945060808a013591508082111561016357600080fd5b506101708a828b0161009b565b989b979a50959850939692959293505050565b600080600080600080600080600060c08a8c0312156101a157600080fd5b89356101ac81610083565b985060208a01356101bc81610083565b975060408a0135965060608a013567ffffffffffffffff808211156101e057600080fd5b6101ec8d838e0161009b565b909850965060808c013591508082111561020557600080fd5b6102118d838e0161009b565b909650945060a08c013591508082111561022a57600080fd5b506102378c828d0161009b565b91508093505080915050929598509295985092959856fea26469706673582212204a13e7ab13d6c3e5b447ab086490ad40d7be0433f32ca4a7f9e7034a45e0d51464736f6c634300080e0033",
  "immutableReferences": {},
  "source": "// SPDX-License-Identifier: AGPLv3\npragma solidity 0.8.14;\n\nimport {\n    ISuperfluid,\n    ISuperToken,\n    ISuperApp,\n    ISuperAgreement,\n    SuperAppDefinitions\n} from \"../superfluid/Superfluid.sol\";\nimport { AgreementMock } from \"./AgreementMock.sol\";\n\n\ncontract SuperAppMockAux {\n\n    function actionPingAgreement(ISuperfluid host, AgreementMock agreement, uint256 ping, bytes calldata ctx)\n        external\n    {\n        host.callAgreementWithContext(\n            agreement,\n            abi.encodeCall(\n                agreement.pingMe,\n                (\n                    address(this), // expectedMsgSender\n                    ping,\n                    new bytes(0)\n                )\n            ),\n            new bytes(0), // user data\n            ctx);\n    }\n\n    function actionCallActionNoop(ISuperfluid host, SuperAppMock app, bytes calldata ctx)\n        external\n    {\n        host.callAppActionWithContext(\n            app,\n            abi.encodeCall(\n                app.actionNoop,\n                (new bytes(0))\n            ),\n            ctx);\n    }\n}\n\n// The default SuperApp mock that does many tricks\ncontract SuperAppMock is ISuperApp {\n\n    ISuperfluid private _host;\n    SuperAppMockAux private _aux;\n\n    constructor(ISuperfluid host, uint256 configWord, bool doubleRegistration) {\n        _host = host;\n        _host.registerAppWithKey(configWord, \"\");\n        if (doubleRegistration) {\n            _host.registerAppWithKey(configWord, \"\");\n        }\n        _aux = new SuperAppMockAux();\n    }\n\n    function tryRegisterApp(uint256 configWord) external {\n        _host.registerApp(configWord);\n    }\n\n    function allowCompositeApp(ISuperApp target) external {\n        _host.allowCompositeApp(target);\n    }\n\n    /*************************************************************************\n    * Test App Actions\n    **************************************************************************/\n\n    event NoopEvent(\n        uint8 appLevel,\n        uint8 callType,\n        bytes4 agreementSelector);\n\n    function actionNoop(bytes calldata ctx) external requireValidCtx(ctx) returns (bytes memory newCtx) {\n        ISuperfluid.Context memory context = ISuperfluid(msg.sender).decodeCtx(ctx);\n        emit NoopEvent(\n            context.appLevel,\n            context.callType,\n            context.agreementSelector);\n        return ctx;\n    }\n\n    function actionExpectMsgSender(address expectedMsgSender, bytes calldata ctx)\n        external\n        requireValidCtx(ctx)\n        returns (bytes memory newCtx)\n    {\n        ISuperfluid.Context memory context = ISuperfluid(msg.sender).decodeCtx(ctx);\n        assert(context.msgSender == expectedMsgSender);\n        emit NoopEvent(\n            context.appLevel,\n            context.callType,\n            context.agreementSelector);\n        return ctx;\n    }\n\n    function actionAssert(bytes calldata ctx) external view requireValidCtx(ctx) {\n        assert(false);\n    }\n\n    function actionRevert(bytes calldata ctx) external view requireValidCtx(ctx) {\n        // solhint-disable-next-line reason-string\n        revert();\n    }\n\n    function actionRevertWithReason(string calldata reason, bytes calldata ctx) external view requireValidCtx(ctx) {\n        revert(reason);\n    }\n\n    function actionCallAgreementWithoutCtx(bytes calldata ctx) external requireValidCtx(ctx) {\n        // this should fail, action should call agreement with ctx\n        _host.callAgreement(ISuperAgreement(address(0)), new bytes(0), new bytes(0));\n    }\n\n    function actionCallAppActionWithoutCtx(bytes calldata ctx) external requireValidCtx(ctx) {\n        // this should fail, action should call agreement with ctx\n        _host.callAppAction(ISuperApp(address(0)), new bytes(0));\n    }\n\n    function actionAlteringCtx(bytes calldata ctx)\n        external view\n        requireValidCtx(ctx)\n        returns (bytes memory newCtx)\n    {\n        return abi.encode(42);\n    }\n\n    function actionReturnEmptyCtx(bytes calldata ctx)\n        external view\n        requireValidCtx(ctx)\n    // solhint-disable-next-line no-empty-blocks\n    {\n    }\n\n    function actionPingAgreementThroughAux(AgreementMock agreement, uint256 ping, bytes calldata ctx)\n        external\n        requireValidCtx(ctx)\n    {\n        // this should fail\n        _aux.actionPingAgreement(_host, agreement, ping, ctx);\n    }\n\n    function actionCallActionNoopThroughAux(bytes calldata ctx)\n        external\n        requireValidCtx(ctx)\n    {\n        // this should fail\n        _aux.actionCallActionNoop(_host, this, ctx);\n    }\n\n    function actionPingAgreement(AgreementMock agreement, uint256 ping, bytes calldata ctx)\n        external\n        requireValidCtx(ctx)\n        returns (bytes memory newCtx)\n    {\n        (newCtx, ) = _host.callAgreementWithContext(\n            agreement,\n            abi.encodeCall(\n                agreement.pingMe,\n                (\n                    address(this), // expectedMsgSender\n                    ping,\n                    new bytes(0)\n                )\n            ),\n            new bytes(0), // user data\n            ctx);\n    }\n\n    function actionAgreementRevert(AgreementMock agreement, string calldata reason, bytes calldata ctx)\n        external\n        requireValidCtx(ctx)\n        returns (bytes memory newCtx)\n    {\n        (newCtx, ) = _host.callAgreementWithContext(\n            agreement,\n            abi.encodeCall(\n                agreement.doRevert,\n                (\n                    reason,\n                    new bytes(0)\n                )\n            ),\n            new bytes(0), // user data\n            ctx);\n    }\n\n    function actionCallActionNoop(bytes calldata ctx)\n        external\n        requireValidCtx(ctx)\n        returns (bytes memory newCtx)\n    {\n        newCtx = _host.callAppActionWithContext(\n            this,\n            abi.encodeCall(\n                this.actionNoop,\n                (new bytes(0))\n            ),\n            ctx);\n    }\n\n    function actionCallActionRevert(string calldata reason, bytes calldata ctx)\n        external\n        requireValidCtx(ctx)\n        returns (bytes memory newCtx)\n    {\n        newCtx = _host.callAppActionWithContext(\n            this,\n            abi.encodeCall(\n                this.actionRevertWithReason,\n                (\n                    reason,\n                    new bytes(0)\n                )\n            ),\n            ctx);\n    }\n\n    function actionCallAgreementWithInvalidCtx(AgreementMock agreement, bytes calldata ctx)\n        external\n        requireValidCtx(ctx)\n        returns (bytes memory newCtx)\n    {\n        (newCtx, ) = _host.callAgreementWithContext(\n            agreement,\n            abi.encodeCall(\n                agreement.pingMe,\n                (\n                    address(this), // expectedMsgSender\n                    42,\n                    new bytes(0)\n                )\n            ),\n            new bytes(0), // user data\n            abi.encode(42));\n    }\n\n    function actionCallActionWithInvalidCtx(string calldata reason, bytes calldata ctx)\n        external\n        requireValidCtx(ctx)\n        returns (bytes memory newCtx)\n    {\n        newCtx = _host.callAppActionWithContext(\n            this,\n            abi.encodeCall(\n                this.actionRevertWithReason,\n                (\n                    reason,\n                    new bytes(0)\n                )\n            ),\n            abi.encode(42));\n    }\n\n    function actionCallBadAction(bytes calldata ctx)\n        external\n        requireValidCtx(ctx)\n    {\n        _host.callAppActionWithContext(\n            this,\n            abi.encodeCall(\n                this.actionAlteringCtx,\n                (new bytes(0))\n            ),\n            ctx);\n        assert(false);\n    }\n\n    /*************************************************************************\n    * Callbacks\n    **************************************************************************/\n\n    enum NextCallbackActionType {\n        Noop, // 0\n        Assert, // 1\n        Revert, // 2\n        RevertWithReason, // 3\n        AlteringCtx, // 4\n        BurnGas, // 5\n        ReturnEmptyCtx // 6\n    }\n\n    struct NextCallbackAction {\n        NextCallbackActionType actionType;\n        bytes data;\n    }\n\n    NextCallbackAction private _nextCallbackAction;\n\n    function setNextCallbackAction(\n        NextCallbackActionType actionType,\n        bytes calldata data)\n        external\n    {\n        _nextCallbackAction.actionType = actionType;\n        _nextCallbackAction.data = data;\n    }\n\n    function _executeBeforeCallbackAction()\n        private view\n        returns (bytes memory cbdata)\n    {\n        if (_nextCallbackAction.actionType == NextCallbackActionType.Noop) {\n            return \"Noop\";\n        } else if (_nextCallbackAction.actionType == NextCallbackActionType.Assert) {\n            assert(false);\n        } else if (_nextCallbackAction.actionType == NextCallbackActionType.Revert) {\n            // solhint-disable-next-line reason-string\n            revert();\n        } else if (_nextCallbackAction.actionType == NextCallbackActionType.RevertWithReason) {\n            revert(abi.decode(_nextCallbackAction.data, (string)));\n        } else if (_nextCallbackAction.actionType == NextCallbackActionType.BurnGas) {\n            uint256 gasToBurn = abi.decode(_nextCallbackAction.data, (uint256));\n            _burnGas(gasToBurn);\n        } else assert(false);\n    }\n\n    function _executeAfterCallbackAction(bytes memory ctx)\n        private\n        returns (bytes memory newCtx)\n    {\n        ISuperfluid.Context memory context = ISuperfluid(msg.sender).decodeCtx(ctx);\n        if (_nextCallbackAction.actionType == NextCallbackActionType.Noop) {\n            emit NoopEvent(\n                context.appLevel,\n                context.callType,\n                context.agreementSelector);\n            return ctx;\n        } else if (_nextCallbackAction.actionType == NextCallbackActionType.Assert) {\n            assert(false);\n        } else if (_nextCallbackAction.actionType == NextCallbackActionType.Revert) {\n            // solhint-disable-next-line reason-string\n            revert();\n        } else if (_nextCallbackAction.actionType == NextCallbackActionType.RevertWithReason) {\n            revert(abi.decode(_nextCallbackAction.data, (string)));\n        } else if (_nextCallbackAction.actionType == NextCallbackActionType.AlteringCtx) {\n            return new bytes(42);\n        } else if (_nextCallbackAction.actionType == NextCallbackActionType.BurnGas) {\n            uint256 gasToBurn = abi.decode(_nextCallbackAction.data, (uint256));\n            _burnGas(gasToBurn);\n        } else if (_nextCallbackAction.actionType == NextCallbackActionType.ReturnEmptyCtx) {\n            return new bytes(0);\n        } else assert(false);\n    }\n\n    function beforeAgreementCreated(\n        ISuperToken /*superToken*/,\n        address /*agreementClass*/,\n        bytes32 /*agreementId*/,\n        bytes calldata /*agreementData*/,\n        bytes calldata ctx\n    )\n        external view\n        requireValidCtx(ctx)\n        virtual override\n        returns (bytes memory /*cbdata*/)\n    {\n        return _executeBeforeCallbackAction();\n    }\n\n    function afterAgreementCreated(\n        ISuperToken /*superToken*/,\n        address /*agreementClass*/,\n        bytes32 /*agreementId*/,\n        bytes calldata /*agreementData*/,\n        bytes calldata /*cbdata*/,\n        bytes calldata ctx\n    )\n        external\n        requireValidCtx(ctx)\n        virtual override\n        returns (bytes memory newCtx)\n    {\n        return _executeAfterCallbackAction(ctx);\n    }\n\n    function beforeAgreementUpdated(\n        ISuperToken /*superToken*/,\n        address /*agreementClass*/,\n        bytes32 /*agreementId*/,\n        bytes calldata /*agreementData*/,\n        bytes calldata ctx\n    )\n        external view\n        requireValidCtx(ctx)\n        virtual override\n        returns (bytes memory /*cbdata*/)\n    {\n        return _executeBeforeCallbackAction();\n    }\n\n    function afterAgreementUpdated(\n        ISuperToken /*superToken*/,\n        address /*agreementClass*/,\n        bytes32 /*agreementId*/,\n        bytes calldata /*agreementData*/,\n        bytes calldata /*cbdata*/,\n        bytes calldata ctx\n    )\n        external\n        requireValidCtx(ctx)\n        virtual override\n        returns (bytes memory newCtx)\n    {\n        return _executeAfterCallbackAction(ctx);\n    }\n\n    function beforeAgreementTerminated(\n        ISuperToken /*superToken*/,\n        address /*agreementClass*/,\n        bytes32 /*agreementId*/,\n        bytes calldata /*agreementData*/,\n        bytes calldata ctx\n    )\n        external view\n        requireValidCtx(ctx)\n        virtual override\n        returns (bytes memory /*cbdata*/)\n    {\n        return _executeBeforeCallbackAction();\n    }\n\n    function afterAgreementTerminated(\n        ISuperToken /*superToken*/,\n        address /*agreementClass*/,\n        bytes32 /*agreementId*/,\n        bytes calldata /*agreementData*/,\n        bytes calldata /*cbdata*/,\n        bytes calldata ctx\n    )\n        external\n        requireValidCtx(ctx)\n        virtual override\n        returns (bytes memory newCtx)\n    {\n        return _executeAfterCallbackAction(ctx);\n    }\n\n    function _burnGas(uint256 gasToBurn) private view {\n        uint256 gasStart = gasleft();\n        uint256 gasNow = gasleft();\n        while ((gasStart - gasNow) < gasToBurn - 1000 /* some margin for other things*/) {\n            gasNow = gasleft();\n        }\n    }\n\n    modifier requireValidCtx(bytes calldata ctx) {\n        require(ISuperfluid(msg.sender).isCtxValid(ctx), \"AgreementMock: ctx not valid before\");\n        _;\n    }\n}\n\n// Bad super app! This one returns empty ctx\ncontract SuperAppMockReturningEmptyCtx {\n\n    ISuperfluid private _host;\n\n    constructor(ISuperfluid host) {\n        _host = host;\n        _host.registerAppWithKey(SuperAppDefinitions.APP_LEVEL_FINAL, \"\");\n    }\n\n    function beforeAgreementCreated(\n        ISuperToken /*superToken*/,\n        address /*agreementClass*/,\n        bytes32 /*agreementId*/,\n        bytes calldata /*agreementData*/,\n        bytes calldata /*ctx*/\n    )\n        external pure\n        // solhint-disable-next-line no-empty-blocks\n    {\n    }\n\n    function afterAgreementCreated(\n        ISuperToken /*superToken*/,\n        address /*agreementClass*/,\n        bytes32 /*agreementId*/,\n        bytes calldata /*agreementData*/,\n        bytes calldata /*cbdata*/,\n        bytes calldata /*ctx*/\n    )\n        external pure\n        // solhint-disable-next-line no-empty-blocks\n    {\n    }\n\n    function beforeAgreementTerminated(\n        ISuperToken /*superToken*/,\n        address /*agreementClass*/,\n        bytes32 /*agreementId*/,\n        bytes calldata /*agreementData*/,\n        bytes calldata /*ctx*/\n    )\n        external pure\n        // solhint-disable-next-line no-empty-blocks\n    {\n    }\n\n    function afterAgreementTerminated(\n        ISuperToken /*superToken*/,\n        address /*agreementClass*/,\n        bytes32 /*agreementId*/,\n        bytes calldata /*agreementData*/,\n        bytes calldata /*cbdata*/,\n        bytes calldata /*ctx*/\n    )\n        external pure\n        // solhint-disable-next-line no-empty-blocks\n    {\n    }\n}\n\n// Bad super app! This one returns invalid ctx\ncontract SuperAppMockReturningInvalidCtx {\n\n    ISuperfluid private _host;\n\n    constructor(ISuperfluid host) {\n        _host = host;\n        _host.registerAppWithKey(SuperAppDefinitions.APP_LEVEL_FINAL, \"\");\n    }\n\n    function afterAgreementCreated(\n        ISuperToken /*superToken*/,\n        address /*agreementClass*/,\n        bytes32 /*agreementId*/,\n        bytes calldata /*agreementData*/,\n        bytes calldata /*cbdata*/,\n        bytes calldata /*ctx*/\n    )\n        external pure\n        returns (uint256)\n    {\n        return 42;\n    }\n\n    function afterAgreementTerminated(\n        ISuperToken /*superToken*/,\n        address /*agreementClass*/,\n        bytes32 /*agreementId*/,\n        bytes calldata /*agreementData*/,\n        bytes calldata /*cbdata*/,\n        bytes calldata /*ctx*/\n    )\n        external pure\n        returns (uint256)\n    {\n        return 42;\n    }\n}\n\n// Bad super app! A second level app that calls other app\ncontract SuperAppMock2ndLevel {\n\n    ISuperfluid private _host;\n    SuperAppMock private _app;\n    AgreementMock private _agreement;\n\n    constructor(ISuperfluid host, SuperAppMock app, AgreementMock agreement) {\n        _host = host;\n        _host.registerAppWithKey(SuperAppDefinitions.APP_LEVEL_SECOND, \"\");\n        _app = app;\n        _agreement = agreement;\n    }\n\n    function allowCompositeApp() external {\n        _host.allowCompositeApp(_app);\n    }\n\n    function afterAgreementCreated(\n        ISuperToken /*superToken*/,\n        address /*agreementClass*/,\n        bytes32 /*agreementId*/,\n        bytes calldata /*agreementData*/,\n        bytes calldata /*cbdata*/,\n        bytes calldata ctx\n    )\n        external\n        returns (bytes memory newCtx)\n    {\n        (newCtx, ) = _host.callAgreementWithContext(\n            _agreement,\n            abi.encodeCall(\n                _agreement.callAppAfterAgreementCreatedCallback,\n                (\n                    _app,\n                    new bytes(0)\n                )\n            ),\n            new bytes(0), // user data\n            ctx);\n    }\n}\n\n// An Super App that uses registerAppWithKey\ncontract SuperAppMockWithRegistrationkey {\n    constructor(ISuperfluid host, uint256 configWord, string memory registrationKey) {\n        host.registerAppWithKey(configWord, registrationKey);\n    }\n}\n\n// An Super App that uses registerAppWithKey\ncontract SuperAppMockUsingDeprecatedRegisterApp {\n    constructor(ISuperfluid host, uint256 configWord) {\n        host.registerApp(configWord);\n    }\n}\n\n// minimal fake SuperApp contract\n// solhint-disable-next-line no-empty-blocks\ncontract SuperAppMockNotSelfRegistering { }\n\n// Factory which allows anybody to deploy arbitrary contracts as app (do NOT allow this in a real factory!)\ncontract SuperAppFactoryMock {\n    function registerAppWithHost(ISuperfluid host, ISuperApp app, uint256 configWord) external {\n        host.registerAppByFactory(app, configWord);\n    }\n}\n",
  "sourcePath": "/Users/alo/protocol-monorepo/packages/ethereum-contracts/contracts/mocks/SuperAppMocks.sol",
  "compiler": {
    "name": "solc",
    "version": "0.8.14+commit.80d49f37.Emscripten.clang"
  },
  "schemaVersion": "3.4.8",
  "updatedAt": "2022-07-15T06:25:31.587Z",
  "devdoc": {
    "kind": "dev",
    "methods": {},
    "version": 1
  },
  "userdoc": {
    "kind": "user",
    "methods": {},
    "version": 1
  }
}