{
  "contractName": "SuperTokenFactoryStorageLayoutTester",
  "abi": [
    {
      "inputs": [
        {
          "internalType": "contract ISuperfluid",
          "name": "host",
          "type": "address"
        }
      ],
      "stateMutability": "nonpayable",
      "type": "constructor"
    },
    {
      "anonymous": false,
      "inputs": [
        {
          "indexed": false,
          "internalType": "bytes32",
          "name": "uuid",
          "type": "bytes32"
        },
        {
          "indexed": false,
          "internalType": "address",
          "name": "codeAddress",
          "type": "address"
        }
      ],
      "name": "CodeUpdated",
      "type": "event"
    },
    {
      "anonymous": false,
      "inputs": [
        {
          "indexed": true,
          "internalType": "contract ISuperToken",
          "name": "token",
          "type": "address"
        }
      ],
      "name": "CustomSuperTokenCreated",
      "type": "event"
    },
    {
      "anonymous": false,
      "inputs": [
        {
          "indexed": false,
          "internalType": "uint8",
          "name": "version",
          "type": "uint8"
        }
      ],
      "name": "Initialized",
      "type": "event"
    },
    {
      "anonymous": false,
      "inputs": [
        {
          "indexed": true,
          "internalType": "contract ISuperToken",
          "name": "token",
          "type": "address"
        }
      ],
      "name": "SuperTokenCreated",
      "type": "event"
    },
    {
      "anonymous": false,
      "inputs": [
        {
          "indexed": true,
          "internalType": "contract ISuperToken",
          "name": "tokenLogic",
          "type": "address"
        }
      ],
      "name": "SuperTokenLogicCreated",
      "type": "event"
    },
    {
      "inputs": [
        {
          "internalType": "contract ERC20WithTokenInfo",
          "name": "underlyingToken",
          "type": "address"
        },
        {
          "internalType": "enum ISuperTokenFactory.Upgradability",
          "name": "upgradability",
          "type": "uint8"
        },
        {
          "internalType": "string",
          "name": "name",
          "type": "string"
        },
        {
          "internalType": "string",
          "name": "symbol",
          "type": "string"
        }
      ],
      "name": "createERC20Wrapper",
      "outputs": [
        {
          "internalType": "contract ISuperToken",
          "name": "superToken",
          "type": "address"
        }
      ],
      "stateMutability": "nonpayable",
      "type": "function"
    },
    {
      "inputs": [
        {
          "internalType": "contract IERC20",
          "name": "underlyingToken",
          "type": "address"
        },
        {
          "internalType": "uint8",
          "name": "underlyingDecimals",
          "type": "uint8"
        },
        {
          "internalType": "enum ISuperTokenFactory.Upgradability",
          "name": "upgradability",
          "type": "uint8"
        },
        {
          "internalType": "string",
          "name": "name",
          "type": "string"
        },
        {
          "internalType": "string",
          "name": "symbol",
          "type": "string"
        }
      ],
      "name": "createERC20Wrapper",
      "outputs": [
        {
          "internalType": "contract ISuperToken",
          "name": "superToken",
          "type": "address"
        }
      ],
      "stateMutability": "nonpayable",
      "type": "function"
    },
    {
      "inputs": [],
      "name": "getCodeAddress",
      "outputs": [
        {
          "internalType": "address",
          "name": "codeAddress",
          "type": "address"
        }
      ],
      "stateMutability": "view",
      "type": "function"
    },
    {
      "inputs": [],
      "name": "getHost",
      "outputs": [
        {
          "internalType": "address",
          "name": "host",
          "type": "address"
        }
      ],
      "stateMutability": "view",
      "type": "function"
    },
    {
      "inputs": [],
      "name": "getSuperTokenLogic",
      "outputs": [
        {
          "internalType": "contract ISuperToken",
          "name": "",
          "type": "address"
        }
      ],
      "stateMutability": "view",
      "type": "function"
    },
    {
      "inputs": [],
      "name": "initialize",
      "outputs": [],
      "stateMutability": "nonpayable",
      "type": "function"
    },
    {
      "inputs": [
        {
          "internalType": "address",
          "name": "customSuperTokenProxy",
          "type": "address"
        }
      ],
      "name": "initializeCustomSuperToken",
      "outputs": [],
      "stateMutability": "nonpayable",
      "type": "function"
    },
    {
      "inputs": [],
      "name": "proxiableUUID",
      "outputs": [
        {
          "internalType": "bytes32",
          "name": "",
          "type": "bytes32"
        }
      ],
      "stateMutability": "pure",
      "type": "function"
    },
    {
      "inputs": [
        {
          "internalType": "address",
          "name": "newAddress",
          "type": "address"
        }
      ],
      "name": "updateCode",
      "outputs": [],
      "stateMutability": "nonpayable",
      "type": "function"
    },
    {
      "inputs": [],
      "name": "validateStorageLayout",
      "outputs": [],
      "stateMutability": "pure",
      "type": "function"
    },
    {
      "inputs": [
        {
          "internalType": "contract ISuperfluid",
          "name": "",
          "type": "address"
        }
      ],
      "name": "createSuperTokenLogic",
      "outputs": [
        {
          "internalType": "address",
          "name": "",
          "type": "address"
        }
      ],
      "stateMutability": "pure",
      "type": "function"
    }
  ],
  "bytecode": "0x60a060405234801561001057600080fd5b506040516112f43803806112f483398101604081905261002f91610040565b6001600160a01b0316608052610070565b60006020828403121561005257600080fd5b81516001600160a01b038116811461006957600080fd5b9392505050565b60805161125561009f6000396000818160b00152818161022c0152818161048f01526109d601526112556000f3fe608060405234801561001057600080fd5b50600436106100a95760003560e01c806352d1902d1161007157806352d1902d146101315780638129fc1c1461015f5780639470a5b214610167578063a6d0c5341461017e578063d412d34414610191578063f99a38c41461011357600080fd5b806320bc4425146100ae578063431f1481146100ed57806346951954146101005780634dcc4d791461011557806350d75d2514610129575b600080fd5b7f00000000000000000000000000000000000000000000000000000000000000005b6040516001600160a01b0390911681526020015b60405180910390f35b6100d06100fb366004610b2d565b6101a4565b61011361010e366004610bc0565b610221565b005b6100d0610123366004610bc0565b50600090565b6100d06102c7565b6040517fb146a22bc9644a3313a7e28592f37d32718a2b618d3d136aa524b0d86b87b62081526020016100e4565b6101136102f6565b6000546201000090046001600160a01b03166100d0565b6100d061018c366004610bf3565b610407565b61011361019f366004610bc0565b6106e7565b600061021687886001600160a01b031663313ce5676040518163ffffffff1660e01b8152600401602060405180830381865afa1580156101e8573d6000803e3d6000fd5b505050506040513d601f19601f8201168201806040525081019061020c9190610c99565b8888888888610407565b979650505050505050565b336001600160a01b037f000000000000000000000000000000000000000000000000000000000000000016146102b35760405162461bcd60e51b815260206004820152602c60248201527f5375706572546f6b656e466163746f72793a206f6e6c7920686f73742063616e60448201526b2075706461746520636f646560a01b60648201526084015b60405180910390fd5b6102bc81610785565b6102c46109bf565b50565b60006102f17f360894a13ba1a3210667c828492db98dca3e2076cc3735a920a3ca505d382bbc5490565b905090565b600054610100900460ff16158080156103165750600054600160ff909116105b806103305750303b158015610330575060005460ff166001145b6103935760405162461bcd60e51b815260206004820152602e60248201527f496e697469616c697a61626c653a20636f6e747261637420697320616c72656160448201526d191e481a5b9a5d1a585b1a5e995960921b60648201526084016102aa565b6000805460ff1916600117905580156103b6576000805461ff0019166101001790555b6103be6109bf565b80156102c4576000805461ff0019169055604051600181527f7f26b83ff96e1f2b6a682f133852f6798a09c465da95921460cefb3847402498906020015b60405180910390a150565b60006001600160a01b03881661045f5760405162461bcd60e51b815260206004820152601f60248201527f5375706572546f6b656e466163746f72793a207a65726f20616464726573730060448201526064016102aa565b600086600281111561047357610473610cb6565b0361050957604051634dcc4d7960e01b81526001600160a01b037f00000000000000000000000000000000000000000000000000000000000000001660048201523090634dcc4d79906024016020604051808303816000875af11580156104de573d6000803e3d6000fd5b505050506040513d601f19601f820116820180604052508101906105029190610ccc565b9050610641565b600186600281111561051d5761051d610cb6565b036105bd57600060405161053090610aa1565b604051809103906000f08015801561054c573d6000803e3d6000fd5b50600054604051634a0687ef60e01b81526001600160a01b036201000090920482166004820152919250821690634a0687ef90602401600060405180830381600087803b15801561059c57600080fd5b505af11580156105b0573d6000803e3d6000fd5b5050505080915050610641565b60006040516105cb90610aae565b604051809103906000f0801580156105e7573d6000803e3d6000fd5b509050806001600160a01b0316638129fc1c6040518163ffffffff1660e01b8152600401600060405180830381600087803b15801561062557600080fd5b505af1158015610639573d6000803e3d6000fd5b509293505050505b6040516285fc1360e71b81526001600160a01b038216906342fe098090610676908b908b908a908a908a908a90600401610d12565b600060405180830381600087803b15801561069057600080fd5b505af11580156106a4573d6000803e3d6000fd5b50506040516001600160a01b03841692507fb52c6d9d122e8c07769b96d7bb14e66db58ee03fdebaaa2f92547e9c7ef0e65f9150600090a2979650505050505050565b600054604051634a0687ef60e01b81526001600160a01b0362010000909204821660048201528291821690634a0687ef90602401600060405180830381600087803b15801561073557600080fd5b505af1158015610749573d6000803e3d6000fd5b50506040516001600160a01b03851692507f437790724a6e97b75d23117f28cdd4b1beeafc34f7a0911ef256e9334f4369a59150600090a25050565b60006107af7f360894a13ba1a3210667c828492db98dca3e2076cc3735a920a3ca505d382bbc5490565b6001600160a01b0316036108055760405162461bcd60e51b815260206004820152601d60248201527f5555505350726f786961626c653a206e6f742075706772616461626c6500000060448201526064016102aa565b806001600160a01b03166352d1902d6040518163ffffffff1660e01b8152600401602060405180830381865afa158015610843573d6000803e3d6000fd5b505050506040513d601f19601f820116820180604052508101906108679190610d60565b7fb146a22bc9644a3313a7e28592f37d32718a2b618d3d136aa524b0d86b87b620146108e15760405162461bcd60e51b815260206004820152602360248201527f5555505350726f786961626c653a206e6f7420636f6d70617469626c65206c6f60448201526267696360e81b60648201526084016102aa565b6001600160a01b03811630036109395760405162461bcd60e51b815260206004820152601960248201527f5555505350726f786961626c653a2070726f7879206c6f6f700000000000000060448201526064016102aa565b610961817f360894a13ba1a3210667c828492db98dca3e2076cc3735a920a3ca505d382bbc55565b7fe011bc04c286c344a8fcbb8de77f953da762c3e25d8cdea984147fc4168a5dcc7fb146a22bc9644a3313a7e28592f37d32718a2b618d3d136aa524b0d86b87b620604080519182526001600160a01b0384166020830152016103fc565b604051634dcc4d7960e01b81526001600160a01b037f00000000000000000000000000000000000000000000000000000000000000001660048201523090634dcc4d79906024016020604051808303816000875af1158015610a25573d6000803e3d6000fd5b505050506040513d601f19601f82011682018060405250810190610a499190610ccc565b6000805462010000600160b01b031916620100006001600160a01b03938416810291909117808355604051919004909216917fc13fb19d60857980e565bf5dae406b8802d3c1cec50c6156b30b12b8740297839190a2565b61024a80610d7a83390190565b61025c80610fc483390190565b6001600160a01b03811681146102c457600080fd5b803560038110610adf57600080fd5b919050565b60008083601f840112610af657600080fd5b50813567ffffffffffffffff811115610b0e57600080fd5b602083019150836020828501011115610b2657600080fd5b9250929050565b60008060008060008060808789031215610b4657600080fd5b8635610b5181610abb565b9550610b5f60208801610ad0565b9450604087013567ffffffffffffffff80821115610b7c57600080fd5b610b888a838b01610ae4565b90965094506060890135915080821115610ba157600080fd5b50610bae89828a01610ae4565b979a9699509497509295939492505050565b600060208284031215610bd257600080fd5b8135610bdd81610abb565b9392505050565b60ff811681146102c457600080fd5b600080600080600080600060a0888a031215610c0e57600080fd5b8735610c1981610abb565b96506020880135610c2981610be4565b9550610c3760408901610ad0565b9450606088013567ffffffffffffffff80821115610c5457600080fd5b610c608b838c01610ae4565b909650945060808a0135915080821115610c7957600080fd5b50610c868a828b01610ae4565b989b979a50959850939692959293505050565b600060208284031215610cab57600080fd5b8151610bdd81610be4565b634e487b7160e01b600052602160045260246000fd5b600060208284031215610cde57600080fd5b8151610bdd81610abb565b81835281816020850137506000828201602090810191909152601f909101601f19169091010190565b6001600160a01b038716815260ff86166020820152608060408201819052600090610d409083018688610ce9565b8281036060840152610d53818587610ce9565b9998505050505050505050565b600060208284031215610d7257600080fd5b505191905056fe608060405234801561001057600080fd5b5061022a806100206000396000f3fe6080604052600436106100225760003560e01c80634a0687ef1461003957610031565b366100315761002f610059565b005b61002f610059565b34801561004557600080fd5b5061002f6100543660046101c4565b61006b565b610069610064610171565b6101a0565b565b6001600160a01b0381166100c65760405162461bcd60e51b815260206004820152601760248201527f5555505350726f78793a207a65726f206164647265737300000000000000000060448201526064015b60405180910390fd5b60006100f07f360894a13ba1a3210667c828492db98dca3e2076cc3735a920a3ca505d382bbc5490565b6001600160a01b0316146101465760405162461bcd60e51b815260206004820152601e60248201527f5555505350726f78793a20616c726561647920696e697469616c697a6564000060448201526064016100bd565b61016e817f360894a13ba1a3210667c828492db98dca3e2076cc3735a920a3ca505d382bbc55565b50565b600061019b7f360894a13ba1a3210667c828492db98dca3e2076cc3735a920a3ca505d382bbc5490565b905090565b3660008037600080366000845af43d6000803e8080156101bf573d6000f35b3d6000fd5b6000602082840312156101d657600080fd5b81356001600160a01b03811681146101ed57600080fd5b939250505056fea26469706673582212203110f9cfe43ac366756bef2f6f0b1e6afd1bbf53cf028337b713e0338f22a45864736f6c634300080e0033608060405234801561001057600080fd5b5061023c806100206000396000f3fe6080604052600436106100225760003560e01c80638129fc1c1461003957610031565b366100315761002f61004e565b005b61002f61004e565b34801561004557600080fd5b5061002f610060565b61005e6100596100f9565b61019c565b565b7fb8fcd5719b3ddf8626f3664705a89b7fc476129a58c1aa5eda57c600cc1821a0546001600160a01b038116156100d35760405162461bcd60e51b8152602060048201526013602482015272105b1c9958591e481a5b9a5d1a585b1a5e9959606a1b604482015260640160405180910390fd5b50337fb8fcd5719b3ddf8626f3664705a89b7fc476129a58c1aa5eda57c600cc1821a055565b7fb8fcd5719b3ddf8626f3664705a89b7fc476129a58c1aa5eda57c600cc1821a0546000906001600160a01b038116610134576101346101c0565b806001600160a01b0316639470a5b26040518163ffffffff1660e01b8152600401602060405180830381865afa158015610172573d6000803e3d6000fd5b505050506040513d601f19601f8201168201806040525081019061019691906101d6565b91505090565b3660008037600080366000845af43d6000803e8080156101bb573d6000f35b3d6000fd5b634e487b7160e01b600052600160045260246000fd5b6000602082840312156101e857600080fd5b81516001600160a01b03811681146101ff57600080fd5b939250505056fea2646970667358221220a84acbb824ac831cdca2903dd89d7fd722a30106f852e8fd803f71598e01ba8d64736f6c634300080e0033a264697066735822122093dce363b1100fdedb22b1af1ced387fc41cc39d3d72b46b6a2f2e057691c04e64736f6c634300080e0033",
  "immutableReferences": {
    "31907": [
      {
        "length": 32,
        "start": 176
      },
      {
        "length": 32,
        "start": 556
      },
      {
        "length": 32,
        "start": 1167
      },
      {
        "length": 32,
        "start": 2518
      }
    ]
  },
  "source": "// SPDX-License-Identifier: AGPLv3\npragma solidity 0.8.14;\n\nimport { SuperTokenMock } from \"./SuperTokenMock.sol\";\nimport {\n    SuperTokenFactoryBase,\n    ISuperfluid\n} from \"../superfluid/SuperTokenFactory.sol\";\n\ncontract SuperTokenFactoryStorageLayoutTester is SuperTokenFactoryBase {\n\n    constructor(\n        ISuperfluid host\n    )\n        SuperTokenFactoryBase(host)\n        // solhint-disable-next-line no-empty-blocks\n    {\n    }\n\n    // @dev Make sure the storage layout never change over the course of the development\n    function validateStorageLayout() external pure {\n        uint256 slot;\n        uint256 offset;\n\n        // Initializable bool _initialized and bool _initialized\n\n        assembly { slot:= _superTokenLogic.slot offset := _superTokenLogic.offset }\n        require (slot == 0 && offset == 2, \"_superTokenLogic changed location\");\n    }\n\n    // dummy impl\n    function createSuperTokenLogic(ISuperfluid)\n        external pure override\n        returns (address)\n    {\n        return address(0);\n    }\n}\n\n// spliting this off because the contract is getting bigger\ncontract SuperTokenFactoryMockHelper {\n    function create(ISuperfluid host, uint256 waterMark)\n        external\n        returns (address logic)\n    {\n        SuperTokenMock superToken = new SuperTokenMock(host, waterMark);\n        return address(superToken);\n    }\n}\n\ncontract SuperTokenFactoryMock is SuperTokenFactoryBase\n{\n    SuperTokenFactoryMockHelper immutable private _helper;\n\n    constructor(\n        ISuperfluid host,\n        SuperTokenFactoryMockHelper helper\n    )\n        SuperTokenFactoryBase(host)\n    {\n        _helper = helper;\n    }\n\n    function createSuperTokenLogic(ISuperfluid host)\n        external override\n        returns (address logic)\n    {\n        return _helper.create(host, 0);\n    }\n\n}\n\ncontract SuperTokenFactoryMock42 is SuperTokenFactoryBase\n{\n\n    SuperTokenFactoryMockHelper immutable private _helper;\n\n    constructor(\n        ISuperfluid host,\n        SuperTokenFactoryMockHelper helper\n    )\n        SuperTokenFactoryBase(host)\n    {\n        _helper = helper;\n    }\n\n    function createSuperTokenLogic(ISuperfluid host)\n        external override\n        returns (address logic)\n    {\n        return _helper.create(host, 42);\n    }\n\n}\n",
  "sourcePath": "/Users/alo/protocol-monorepo/packages/ethereum-contracts/contracts/mocks/SuperTokenFactoryMock.sol",
  "compiler": {
    "name": "solc",
    "version": "0.8.14+commit.80d49f37.Emscripten.clang"
  },
  "schemaVersion": "3.4.8",
  "updatedAt": "2022-07-15T06:25:31.617Z",
  "devdoc": {
    "kind": "dev",
    "methods": {
      "createERC20Wrapper(address,uint8,string,string)": {
        "details": "Create new super token wrapper for the underlying ERC20 token with extra token info",
        "params": {
          "name": "Super token name",
          "symbol": "Super token symbol NOTE: - It assumes token provide the .decimals() function",
          "underlyingToken": "Underlying ERC20 token",
          "upgradability": "Upgradability mode"
        }
      },
      "createERC20Wrapper(address,uint8,uint8,string,string)": {
        "details": "Create new super token wrapper for the underlying ERC20 token",
        "params": {
          "name": "Super token name",
          "symbol": "Super token symbol",
          "underlyingDecimals": "Underlying token decimals",
          "underlyingToken": "Underlying ERC20 token",
          "upgradability": "Upgradability mode"
        }
      },
      "getCodeAddress()": {
        "details": "Get current implementation code address."
      },
      "getHost()": {
        "details": "ISuperTokenFactory.getHost implementation"
      },
      "getSuperTokenLogic()": {
        "details": "Get the current super token logic used by the factory"
      },
      "initialize()": {
        "details": "Initialize the contract"
      },
      "proxiableUUID()": {
        "details": "Proxiable UUID marker function, this would help to avoid wrong logic      contract to be used for upgrading. NOTE: The semantics of the UUID deviates from the actual UUPS standard,       where it is equivalent of _IMPLEMENTATION_SLOT."
      }
    },
    "version": 1
  },
  "userdoc": {
    "kind": "user",
    "methods": {},
    "version": 1
  }
}