{
  "contractName": "SuperfluidMock",
  "abi": [
    {
      "inputs": [
        {
          "internalType": "bool",
          "name": "nonUpgradable",
          "type": "bool"
        },
        {
          "internalType": "bool",
          "name": "appWhiteListingEnabled",
          "type": "bool"
        }
      ],
      "stateMutability": "nonpayable",
      "type": "constructor"
    },
    {
      "anonymous": false,
      "inputs": [
        {
          "indexed": false,
          "internalType": "bytes32",
          "name": "agreementType",
          "type": "bytes32"
        },
        {
          "indexed": false,
          "internalType": "address",
          "name": "code",
          "type": "address"
        }
      ],
      "name": "AgreementClassRegistered",
      "type": "event"
    },
    {
      "anonymous": false,
      "inputs": [
        {
          "indexed": false,
          "internalType": "bytes32",
          "name": "agreementType",
          "type": "bytes32"
        },
        {
          "indexed": false,
          "internalType": "address",
          "name": "code",
          "type": "address"
        }
      ],
      "name": "AgreementClassUpdated",
      "type": "event"
    },
    {
      "anonymous": false,
      "inputs": [
        {
          "indexed": true,
          "internalType": "contract ISuperApp",
          "name": "app",
          "type": "address"
        }
      ],
      "name": "AppRegistered",
      "type": "event"
    },
    {
      "anonymous": false,
      "inputs": [
        {
          "indexed": false,
          "internalType": "bytes32",
          "name": "uuid",
          "type": "bytes32"
        },
        {
          "indexed": false,
          "internalType": "address",
          "name": "codeAddress",
          "type": "address"
        }
      ],
      "name": "CodeUpdated",
      "type": "event"
    },
    {
      "anonymous": false,
      "inputs": [
        {
          "indexed": false,
          "internalType": "contract ISuperfluidGovernance",
          "name": "oldGov",
          "type": "address"
        },
        {
          "indexed": false,
          "internalType": "contract ISuperfluidGovernance",
          "name": "newGov",
          "type": "address"
        }
      ],
      "name": "GovernanceReplaced",
      "type": "event"
    },
    {
      "anonymous": false,
      "inputs": [
        {
          "indexed": false,
          "internalType": "uint8",
          "name": "version",
          "type": "uint8"
        }
      ],
      "name": "Initialized",
      "type": "event"
    },
    {
      "anonymous": false,
      "inputs": [
        {
          "indexed": true,
          "internalType": "contract ISuperApp",
          "name": "app",
          "type": "address"
        },
        {
          "indexed": false,
          "internalType": "uint256",
          "name": "reason",
          "type": "uint256"
        }
      ],
      "name": "Jail",
      "type": "event"
    },
    {
      "anonymous": false,
      "inputs": [
        {
          "indexed": false,
          "internalType": "contract ISuperTokenFactory",
          "name": "newFactory",
          "type": "address"
        }
      ],
      "name": "SuperTokenFactoryUpdated",
      "type": "event"
    },
    {
      "anonymous": false,
      "inputs": [
        {
          "indexed": true,
          "internalType": "contract ISuperToken",
          "name": "token",
          "type": "address"
        },
        {
          "indexed": false,
          "internalType": "address",
          "name": "code",
          "type": "address"
        }
      ],
      "name": "SuperTokenLogicUpdated",
      "type": "event"
    },
    {
      "inputs": [],
      "name": "APP_WHITE_LISTING_ENABLED",
      "outputs": [
        {
          "internalType": "bool",
          "name": "",
          "type": "bool"
        }
      ],
      "stateMutability": "view",
      "type": "function"
    },
    {
      "inputs": [],
      "name": "CALLBACK_GAS_LIMIT",
      "outputs": [
        {
          "internalType": "uint64",
          "name": "",
          "type": "uint64"
        }
      ],
      "stateMutability": "view",
      "type": "function"
    },
    {
      "inputs": [],
      "name": "MAX_APP_LEVEL",
      "outputs": [
        {
          "internalType": "uint256",
          "name": "",
          "type": "uint256"
        }
      ],
      "stateMutability": "view",
      "type": "function"
    },
    {
      "inputs": [],
      "name": "NON_UPGRADABLE_DEPLOYMENT",
      "outputs": [
        {
          "internalType": "bool",
          "name": "",
          "type": "bool"
        }
      ],
      "stateMutability": "view",
      "type": "function"
    },
    {
      "inputs": [
        {
          "internalType": "uint256",
          "name": "bitmap",
          "type": "uint256"
        },
        {
          "internalType": "bytes32",
          "name": "agreementType",
          "type": "bytes32"
        }
      ],
      "name": "addToAgreementClassesBitmap",
      "outputs": [
        {
          "internalType": "uint256",
          "name": "newBitmap",
          "type": "uint256"
        }
      ],
      "stateMutability": "view",
      "type": "function"
    },
    {
      "inputs": [
        {
          "internalType": "contract ISuperApp",
          "name": "targetApp",
          "type": "address"
        }
      ],
      "name": "allowCompositeApp",
      "outputs": [],
      "stateMutability": "nonpayable",
      "type": "function"
    },
    {
      "inputs": [
        {
          "internalType": "bytes",
          "name": "ctx",
          "type": "bytes"
        },
        {
          "internalType": "int256",
          "name": "appAllowanceUsedDelta",
          "type": "int256"
        }
      ],
      "name": "appCallbackPop",
      "outputs": [
        {
          "internalType": "bytes",
          "name": "newCtx",
          "type": "bytes"
        }
      ],
      "stateMutability": "nonpayable",
      "type": "function"
    },
    {
      "inputs": [
        {
          "internalType": "bytes",
          "name": "ctx",
          "type": "bytes"
        },
        {
          "internalType": "contract ISuperApp",
          "name": "app",
          "type": "address"
        },
        {
          "internalType": "uint256",
          "name": "appAllowanceGranted",
          "type": "uint256"
        },
        {
          "internalType": "int256",
          "name": "appAllowanceUsed",
          "type": "int256"
        },
        {
          "internalType": "contract ISuperfluidToken",
          "name": "appAllowanceToken",
          "type": "address"
        }
      ],
      "name": "appCallbackPush",
      "outputs": [
        {
          "internalType": "bytes",
          "name": "appCtx",
          "type": "bytes"
        }
      ],
      "stateMutability": "nonpayable",
      "type": "function"
    },
    {
      "inputs": [
        {
          "components": [
            {
              "internalType": "uint32",
              "name": "operationType",
              "type": "uint32"
            },
            {
              "internalType": "address",
              "name": "target",
              "type": "address"
            },
            {
              "internalType": "bytes",
              "name": "data",
              "type": "bytes"
            }
          ],
          "internalType": "struct ISuperfluid.Operation[]",
          "name": "operations",
          "type": "tuple[]"
        }
      ],
      "name": "batchCall",
      "outputs": [],
      "stateMutability": "nonpayable",
      "type": "function"
    },
    {
      "inputs": [
        {
          "internalType": "contract ISuperAgreement",
          "name": "agreementClass",
          "type": "address"
        },
        {
          "internalType": "bytes",
          "name": "callData",
          "type": "bytes"
        },
        {
          "internalType": "bytes",
          "name": "userData",
          "type": "bytes"
        }
      ],
      "name": "callAgreement",
      "outputs": [
        {
          "internalType": "bytes",
          "name": "returnedData",
          "type": "bytes"
        }
      ],
      "stateMutability": "nonpayable",
      "type": "function"
    },
    {
      "inputs": [
        {
          "internalType": "contract ISuperAgreement",
          "name": "agreementClass",
          "type": "address"
        },
        {
          "internalType": "bytes",
          "name": "callData",
          "type": "bytes"
        },
        {
          "internalType": "bytes",
          "name": "userData",
          "type": "bytes"
        },
        {
          "internalType": "bytes",
          "name": "ctx",
          "type": "bytes"
        }
      ],
      "name": "callAgreementWithContext",
      "outputs": [
        {
          "internalType": "bytes",
          "name": "newCtx",
          "type": "bytes"
        },
        {
          "internalType": "bytes",
          "name": "returnedData",
          "type": "bytes"
        }
      ],
      "stateMutability": "nonpayable",
      "type": "function"
    },
    {
      "inputs": [
        {
          "internalType": "contract ISuperApp",
          "name": "app",
          "type": "address"
        },
        {
          "internalType": "bytes",
          "name": "callData",
          "type": "bytes"
        }
      ],
      "name": "callAppAction",
      "outputs": [
        {
          "internalType": "bytes",
          "name": "returnedData",
          "type": "bytes"
        }
      ],
      "stateMutability": "nonpayable",
      "type": "function"
    },
    {
      "inputs": [
        {
          "internalType": "contract ISuperApp",
          "name": "app",
          "type": "address"
        },
        {
          "internalType": "bytes",
          "name": "callData",
          "type": "bytes"
        },
        {
          "internalType": "bytes",
          "name": "ctx",
          "type": "bytes"
        }
      ],
      "name": "callAppActionWithContext",
      "outputs": [
        {
          "internalType": "bytes",
          "name": "newCtx",
          "type": "bytes"
        }
      ],
      "stateMutability": "nonpayable",
      "type": "function"
    },
    {
      "inputs": [
        {
          "internalType": "contract ISuperApp",
          "name": "app",
          "type": "address"
        },
        {
          "internalType": "bytes",
          "name": "callData",
          "type": "bytes"
        },
        {
          "internalType": "bool",
          "name": "isTermination",
          "type": "bool"
        },
        {
          "internalType": "bytes",
          "name": "ctx",
          "type": "bytes"
        }
      ],
      "name": "callAppAfterCallback",
      "outputs": [
        {
          "internalType": "bytes",
          "name": "newCtx",
          "type": "bytes"
        }
      ],
      "stateMutability": "nonpayable",
      "type": "function"
    },
    {
      "inputs": [
        {
          "internalType": "contract ISuperApp",
          "name": "app",
          "type": "address"
        },
        {
          "internalType": "bytes",
          "name": "callData",
          "type": "bytes"
        },
        {
          "internalType": "bool",
          "name": "isTermination",
          "type": "bool"
        },
        {
          "internalType": "bytes",
          "name": "ctx",
          "type": "bytes"
        }
      ],
      "name": "callAppBeforeCallback",
      "outputs": [
        {
          "internalType": "bytes",
          "name": "cbdata",
          "type": "bytes"
        }
      ],
      "stateMutability": "nonpayable",
      "type": "function"
    },
    {
      "inputs": [
        {
          "internalType": "bytes",
          "name": "ctx",
          "type": "bytes"
        },
        {
          "internalType": "uint256",
          "name": "appAllowanceWantedMore",
          "type": "uint256"
        },
        {
          "internalType": "int256",
          "name": "appAllowanceUsedDelta",
          "type": "int256"
        }
      ],
      "name": "ctxUseAllowance",
      "outputs": [
        {
          "internalType": "bytes",
          "name": "newCtx",
          "type": "bytes"
        }
      ],
      "stateMutability": "nonpayable",
      "type": "function"
    },
    {
      "inputs": [
        {
          "internalType": "bytes",
          "name": "ctx",
          "type": "bytes"
        }
      ],
      "name": "decodeCtx",
      "outputs": [
        {
          "components": [
            {
              "internalType": "uint8",
              "name": "appLevel",
              "type": "uint8"
            },
            {
              "internalType": "uint8",
              "name": "callType",
              "type": "uint8"
            },
            {
              "internalType": "uint256",
              "name": "timestamp",
              "type": "uint256"
            },
            {
              "internalType": "address",
              "name": "msgSender",
              "type": "address"
            },
            {
              "internalType": "bytes4",
              "name": "agreementSelector",
              "type": "bytes4"
            },
            {
              "internalType": "bytes",
              "name": "userData",
              "type": "bytes"
            },
            {
              "internalType": "uint256",
              "name": "appAllowanceGranted",
              "type": "uint256"
            },
            {
              "internalType": "uint256",
              "name": "appAllowanceWanted",
              "type": "uint256"
            },
            {
              "internalType": "int256",
              "name": "appAllowanceUsed",
              "type": "int256"
            },
            {
              "internalType": "address",
              "name": "appAddress",
              "type": "address"
            },
            {
              "internalType": "contract ISuperfluidToken",
              "name": "appAllowanceToken",
              "type": "address"
            }
          ],
          "internalType": "struct ISuperfluid.Context",
          "name": "context",
          "type": "tuple"
        }
      ],
      "stateMutability": "pure",
      "type": "function"
    },
    {
      "inputs": [
        {
          "components": [
            {
              "internalType": "uint32",
              "name": "operationType",
              "type": "uint32"
            },
            {
              "internalType": "address",
              "name": "target",
              "type": "address"
            },
            {
              "internalType": "bytes",
              "name": "data",
              "type": "bytes"
            }
          ],
          "internalType": "struct ISuperfluid.Operation[]",
          "name": "operations",
          "type": "tuple[]"
        }
      ],
      "name": "forwardBatchCall",
      "outputs": [],
      "stateMutability": "nonpayable",
      "type": "function"
    },
    {
      "inputs": [
        {
          "internalType": "bytes32",
          "name": "agreementType",
          "type": "bytes32"
        }
      ],
      "name": "getAgreementClass",
      "outputs": [
        {
          "internalType": "contract ISuperAgreement",
          "name": "agreementClass",
          "type": "address"
        }
      ],
      "stateMutability": "view",
      "type": "function"
    },
    {
      "inputs": [
        {
          "internalType": "contract ISuperApp",
          "name": "appAddr",
          "type": "address"
        }
      ],
      "name": "getAppLevel",
      "outputs": [
        {
          "internalType": "uint8",
          "name": "",
          "type": "uint8"
        }
      ],
      "stateMutability": "view",
      "type": "function"
    },
    {
      "inputs": [
        {
          "internalType": "contract ISuperApp",
          "name": "app",
          "type": "address"
        }
      ],
      "name": "getAppManifest",
      "outputs": [
        {
          "internalType": "bool",
          "name": "isSuperApp",
          "type": "bool"
        },
        {
          "internalType": "bool",
          "name": "isJailed",
          "type": "bool"
        },
        {
          "internalType": "uint256",
          "name": "noopMask",
          "type": "uint256"
        }
      ],
      "stateMutability": "view",
      "type": "function"
    },
    {
      "inputs": [],
      "name": "getCodeAddress",
      "outputs": [
        {
          "internalType": "address",
          "name": "codeAddress",
          "type": "address"
        }
      ],
      "stateMutability": "view",
      "type": "function"
    },
    {
      "inputs": [],
      "name": "getGovernance",
      "outputs": [
        {
          "internalType": "contract ISuperfluidGovernance",
          "name": "",
          "type": "address"
        }
      ],
      "stateMutability": "view",
      "type": "function"
    },
    {
      "inputs": [],
      "name": "getNow",
      "outputs": [
        {
          "internalType": "uint256",
          "name": "",
          "type": "uint256"
        }
      ],
      "stateMutability": "view",
      "type": "function"
    },
    {
      "inputs": [],
      "name": "getSuperTokenFactory",
      "outputs": [
        {
          "internalType": "contract ISuperTokenFactory",
          "name": "factory",
          "type": "address"
        }
      ],
      "stateMutability": "view",
      "type": "function"
    },
    {
      "inputs": [],
      "name": "getSuperTokenFactoryLogic",
      "outputs": [
        {
          "internalType": "address",
          "name": "logic",
          "type": "address"
        }
      ],
      "stateMutability": "view",
      "type": "function"
    },
    {
      "inputs": [
        {
          "internalType": "contract ISuperfluidGovernance",
          "name": "gov",
          "type": "address"
        }
      ],
      "name": "initialize",
      "outputs": [],
      "stateMutability": "nonpayable",
      "type": "function"
    },
    {
      "inputs": [
        {
          "internalType": "contract ISuperAgreement",
          "name": "agreementClass",
          "type": "address"
        }
      ],
      "name": "isAgreementClassListed",
      "outputs": [
        {
          "internalType": "bool",
          "name": "yes",
          "type": "bool"
        }
      ],
      "stateMutability": "view",
      "type": "function"
    },
    {
      "inputs": [
        {
          "internalType": "bytes32",
          "name": "agreementType",
          "type": "bytes32"
        }
      ],
      "name": "isAgreementTypeListed",
      "outputs": [
        {
          "internalType": "bool",
          "name": "yes",
          "type": "bool"
        }
      ],
      "stateMutability": "view",
      "type": "function"
    },
    {
      "inputs": [
        {
          "internalType": "contract ISuperApp",
          "name": "app",
          "type": "address"
        }
      ],
      "name": "isApp",
      "outputs": [
        {
          "internalType": "bool",
          "name": "",
          "type": "bool"
        }
      ],
      "stateMutability": "view",
      "type": "function"
    },
    {
      "inputs": [
        {
          "internalType": "contract ISuperApp",
          "name": "app",
          "type": "address"
        }
      ],
      "name": "isAppJailed",
      "outputs": [
        {
          "internalType": "bool",
          "name": "",
          "type": "bool"
        }
      ],
      "stateMutability": "view",
      "type": "function"
    },
    {
      "inputs": [
        {
          "internalType": "contract ISuperApp",
          "name": "app",
          "type": "address"
        },
        {
          "internalType": "contract ISuperApp",
          "name": "targetApp",
          "type": "address"
        }
      ],
      "name": "isCompositeAppAllowed",
      "outputs": [
        {
          "internalType": "bool",
          "name": "",
          "type": "bool"
        }
      ],
      "stateMutability": "view",
      "type": "function"
    },
    {
      "inputs": [
        {
          "internalType": "bytes",
          "name": "ctx",
          "type": "bytes"
        }
      ],
      "name": "isCtxValid",
      "outputs": [
        {
          "internalType": "bool",
          "name": "",
          "type": "bool"
        }
      ],
      "stateMutability": "view",
      "type": "function"
    },
    {
      "inputs": [
        {
          "internalType": "address",
          "name": "forwarder",
          "type": "address"
        }
      ],
      "name": "isTrustedForwarder",
      "outputs": [
        {
          "internalType": "bool",
          "name": "",
          "type": "bool"
        }
      ],
      "stateMutability": "view",
      "type": "function"
    },
    {
      "inputs": [
        {
          "internalType": "uint256",
          "name": "bitmap",
          "type": "uint256"
        }
      ],
      "name": "mapAgreementClasses",
      "outputs": [
        {
          "internalType": "contract ISuperAgreement[]",
          "name": "agreementClasses",
          "type": "address[]"
        }
      ],
      "stateMutability": "view",
      "type": "function"
    },
    {
      "inputs": [],
      "name": "proxiableUUID",
      "outputs": [
        {
          "internalType": "bytes32",
          "name": "",
          "type": "bytes32"
        }
      ],
      "stateMutability": "pure",
      "type": "function"
    },
    {
      "inputs": [
        {
          "internalType": "contract ISuperAgreement",
          "name": "agreementClassLogic",
          "type": "address"
        }
      ],
      "name": "registerAgreementClass",
      "outputs": [],
      "stateMutability": "nonpayable",
      "type": "function"
    },
    {
      "inputs": [
        {
          "internalType": "uint256",
          "name": "configWord",
          "type": "uint256"
        }
      ],
      "name": "registerApp",
      "outputs": [],
      "stateMutability": "nonpayable",
      "type": "function"
    },
    {
      "inputs": [
        {
          "internalType": "contract ISuperApp",
          "name": "app",
          "type": "address"
        },
        {
          "internalType": "uint256",
          "name": "configWord",
          "type": "uint256"
        }
      ],
      "name": "registerAppByFactory",
      "outputs": [],
      "stateMutability": "nonpayable",
      "type": "function"
    },
    {
      "inputs": [
        {
          "internalType": "uint256",
          "name": "configWord",
          "type": "uint256"
        },
        {
          "internalType": "string",
          "name": "registrationKey",
          "type": "string"
        }
      ],
      "name": "registerAppWithKey",
      "outputs": [],
      "stateMutability": "nonpayable",
      "type": "function"
    },
    {
      "inputs": [
        {
          "internalType": "uint256",
          "name": "bitmap",
          "type": "uint256"
        },
        {
          "internalType": "bytes32",
          "name": "agreementType",
          "type": "bytes32"
        }
      ],
      "name": "removeFromAgreementClassesBitmap",
      "outputs": [
        {
          "internalType": "uint256",
          "name": "newBitmap",
          "type": "uint256"
        }
      ],
      "stateMutability": "view",
      "type": "function"
    },
    {
      "inputs": [
        {
          "internalType": "contract ISuperfluidGovernance",
          "name": "newGov",
          "type": "address"
        }
      ],
      "name": "replaceGovernance",
      "outputs": [],
      "stateMutability": "nonpayable",
      "type": "function"
    },
    {
      "inputs": [
        {
          "internalType": "contract ISuperAgreement",
          "name": "agreementClassLogic",
          "type": "address"
        }
      ],
      "name": "updateAgreementClass",
      "outputs": [],
      "stateMutability": "nonpayable",
      "type": "function"
    },
    {
      "inputs": [
        {
          "internalType": "address",
          "name": "newAddress",
          "type": "address"
        }
      ],
      "name": "updateCode",
      "outputs": [],
      "stateMutability": "nonpayable",
      "type": "function"
    },
    {
      "inputs": [
        {
          "internalType": "contract ISuperTokenFactory",
          "name": "newFactory",
          "type": "address"
        }
      ],
      "name": "updateSuperTokenFactory",
      "outputs": [],
      "stateMutability": "nonpayable",
      "type": "function"
    },
    {
      "inputs": [
        {
          "internalType": "contract ISuperToken",
          "name": "token",
          "type": "address"
        }
      ],
      "name": "updateSuperTokenLogic",
      "outputs": [],
      "stateMutability": "nonpayable",
      "type": "function"
    },
    {
      "inputs": [],
      "name": "versionRecipient",
      "outputs": [
        {
          "internalType": "string",
          "name": "",
          "type": "string"
        }
      ],
      "stateMutability": "pure",
      "type": "function"
    },
    {
      "inputs": [
        {
          "internalType": "uint256",
          "name": "n",
          "type": "uint256"
        },
        {
          "internalType": "bytes",
          "name": "ctx",
          "type": "bytes"
        }
      ],
      "name": "ctxFunc1",
      "outputs": [
        {
          "internalType": "uint256",
          "name": "",
          "type": "uint256"
        },
        {
          "internalType": "bytes",
          "name": "",
          "type": "bytes"
        }
      ],
      "stateMutability": "pure",
      "type": "function"
    },
    {
      "inputs": [
        {
          "internalType": "address",
          "name": "superToken",
          "type": "address"
        },
        {
          "internalType": "address",
          "name": "agreementClass",
          "type": "address"
        },
        {
          "internalType": "bytes32",
          "name": "agreementId",
          "type": "bytes32"
        },
        {
          "internalType": "bytes",
          "name": "agreementData",
          "type": "bytes"
        },
        {
          "internalType": "bytes",
          "name": "cbdata",
          "type": "bytes"
        },
        {
          "internalType": "bytes",
          "name": "ctx",
          "type": "bytes"
        }
      ],
      "name": "ctxFunc2",
      "outputs": [
        {
          "internalType": "address",
          "name": "",
          "type": "address"
        },
        {
          "internalType": "address",
          "name": "",
          "type": "address"
        },
        {
          "internalType": "bytes32",
          "name": "",
          "type": "bytes32"
        },
        {
          "internalType": "bytes",
          "name": "",
          "type": "bytes"
        },
        {
          "internalType": "bytes",
          "name": "",
          "type": "bytes"
        },
        {
          "internalType": "bytes",
          "name": "",
          "type": "bytes"
        }
      ],
      "stateMutability": "pure",
      "type": "function"
    },
    {
      "inputs": [
        {
          "internalType": "bytes",
          "name": "dataWithPlaceHolderCtx",
          "type": "bytes"
        },
        {
          "internalType": "bytes",
          "name": "ctx",
          "type": "bytes"
        }
      ],
      "name": "testCtxFuncX",
      "outputs": [
        {
          "internalType": "bytes",
          "name": "returnedData",
          "type": "bytes"
        }
      ],
      "stateMutability": "view",
      "type": "function"
    },
    {
      "inputs": [
        {
          "internalType": "contract ISuperApp",
          "name": "app",
          "type": "address"
        }
      ],
      "name": "jailApp",
      "outputs": [],
      "stateMutability": "nonpayable",
      "type": "function"
    },
    {
      "inputs": [
        {
          "internalType": "bytes",
          "name": "ctx",
          "type": "bytes"
        },
        {
          "internalType": "contract ISuperApp",
          "name": "app",
          "type": "address"
        },
        {
          "internalType": "uint256",
          "name": "reason",
          "type": "uint256"
        }
      ],
      "name": "jailApp",
      "outputs": [
        {
          "internalType": "bytes",
          "name": "newCtx",
          "type": "bytes"
        }
      ],
      "stateMutability": "nonpayable",
      "type": "function"
    }
  ],
  "bytecode": "0x610100604052600160c052622dc6c060e0523480156200001e57600080fd5b5060405162005b5038038062005b50833981016040819052620000419162000068565b901515608052151560a052620000a0565b805180151581146200006357600080fd5b919050565b600080604083850312156200007c57600080fd5b620000878362000052565b9150620000976020840162000052565b90509250929050565b60805160a05160c05160e051615a226200012e600039600081816103f00152818161301f01526130ad0152600081816107c70152612e5c0152600081816106040152818161201d015281816126260152612be101526000818161075d0152818161088201528181610ca80152818161138d01528181611501015281816116600152612ae40152615a226000f3fe608060405234801561001057600080fd5b506004361061030c5760003560e01c8063768fabb01161019d578063bd1c448b116100e9578063e8dccb7d116100a2578063f2e55caf1161007c578063f2e55caf146107e9578063f3733052146107f1578063f539866114610804578063f9f522f41461081757600080fd5b8063e8dccb7d1461077f578063eb5bf901146107a1578063f213bb02146107c257600080fd5b8063bd1c448b146106da578063bf428734146106ed578063c4d66de814610700578063c56a069d14610713578063c6ae797314610733578063cd312ec41461075857600080fd5b8063ad3915c811610156578063ba48b5f811610130578063ba48b5f814610672578063bb84cfa114610685578063bbe4fd50146106c1578063bced3ddc146106c757600080fd5b8063ad3915c814610639578063b6d200de1461064c578063b724211e1461065f57600080fd5b8063768fabb0146105b3578063787afde7146105c65780638ca48484146105d9578063989b0c3e146105ec5780639d297e30146105ff578063a5dbbbcd1461062657600080fd5b8063469519541161025c578063572b6c05116102155780636b4f3335116101ef5780636b4f3335146105695780637283100c1461057c578063731aed6e1461058f57806374041e02146105a057600080fd5b8063572b6c0514610530578063670e77e3146105435780636ad3ca7d1461055657600080fd5b806346951954146104a1578063486ff0cd146104b457806350d75d25146104d257806352d1902d146104da57806354fbc4931461050a57806357121e0c1461051d57600080fd5b8063289b3c0d116102c957806339255d5b116102a357806339255d5b1461042a5780633ca3ad4e1461043d5780633f6c923a146104605780634329d2931461048057600080fd5b8063289b3c0d146103ad57806333511863146103d857806333d608f1146103eb57600080fd5b806306cecba8146103115780630792f20a14610326578063133490461461034f57806315a024e1146103745780631e6d0a84146103875780631e855cf31461039a575b600080fd5b61032461031f3660046145e2565b610847565b005b610339610334366004614647565b610a24565b60405161034691906146ef565b60405180910390f35b61036261035d3660046145e2565b610b1c565b60405160ff9091168152602001610346565b6103246103823660046145e2565b610b3f565b610339610395366004614710565b610e0b565b6103396103a8366004614891565b611079565b6000546201000090046001600160a01b03165b6040516001600160a01b039091168152602001610346565b6103246103e63660046145e2565b61108d565b6104127f000000000000000000000000000000000000000000000000000000000000000081565b6040516001600160401b039091168152602001610346565b6103396104383660046148e0565b61109c565b61045061044b3660046145e2565b6110b2565b6040519015158152602001610346565b61047361046e366004614955565b6110cf565b6040516103469190614989565b61049361048e366004614a6a565b6110e0565b604051610346929190614b16565b6103246104af3660046145e2565b61135b565b604080518082019091526002815261763160f01b6020820152610339565b6103c0611490565b7fcd355cae2c435f8c5e0c626c4691d22fd85aa7422a424c6f0bced6e64c7aba745b604051908152602001610346565b6103246105183660046145e2565b6114bf565b61032461052b3660046145e2565b611740565b61045061053e3660046145e2565b611896565b610324610551366004614b3b565b611920565b610324610564366004614b3b565b611931565b6104506105773660046145e2565b61193b565b61032461058a3660046145e2565b61195f565b6003546001600160a01b03166103c0565b6103396105ae366004614710565b611a06565b6103396105c1366004614c54565b611b80565b6103246105d43660046145e2565b611d38565b6104506105e73660046145e2565b611e7a565b6103396105fa366004614ccf565b611f3f565b6104507f000000000000000000000000000000000000000000000000000000000000000081565b6104fc610634366004614d1a565b611fd2565b610324610647366004614d3c565b61201b565b6103c061065a366004614d3c565b6120a6565b61033961066d366004614d55565b61210c565b610339610680366004614db1565b6121cc565b610450610693366004614e33565b6001600160a01b03918216600090815260056020908152604080832093909416825291909152205460ff1690565b426104fc565b6104fc6106d5366004614d1a565b612598565b6103246106e8366004614e6c565b6125e0565b6104506106fb366004614eb7565b612735565b61032461070e3660046145e2565b612776565b610726610721366004614d3c565b6128a2565b6040516103469190614ef8565b610746610741366004614f45565b61298c565b6040516103469695949392919061500f565b6104507f000000000000000000000000000000000000000000000000000000000000000081565b61045061078d366004614d3c565b600090815260026020526040902054151590565b6107b46107af366004614e6c565b612a79565b604051610346929190615068565b6104fc7f000000000000000000000000000000000000000000000000000000000000000081565b6103c0612ac7565b6103246107ff366004615081565b612b8f565b6103396108123660046150ad565b612cf1565b61082a6108253660046145e2565b612de9565b604080519315158452911515602084015290820152606001610346565b6000546201000090046001600160a01b031633146108805760405162461bcd60e51b815260040161087790615118565b60405180910390fd5b7f0000000000000000000000000000000000000000000000000000000000000000156108be5760405162461bcd60e51b81526004016108779061514f565b6000816001600160a01b0316637730599e6040518163ffffffff1660e01b8152600401602060405180830381865afa1580156108fe573d6000803e3d6000fd5b505050506040513d601f19601f82011682018060405250810190610922919061517b565b6000818152600260205260408120549192508190036109535760405162461bcd60e51b815260040161087790615194565b6000600161096181846151ec565b8154811061097157610971615203565b6000918252602090912001546040516311a5465560e21b81526001600160a01b03868116600483015290911691508190634695195490602401600060405180830381600087803b1580156109c457600080fd5b505af11580156109d8573d6000803e3d6000fd5b5050604080518681526001600160a01b03881660208201527f9279aa773f2b588996032d8de89911555039f28b13a11a7c17074330bc082d9a935001905060405180910390a150505050565b6060610a2f33611e7a565b610a4b5760405162461bcd60e51b815260040161087790615219565b84848080601f016020809104026020016040519081016040528093929190818152602001838380828437600092019190915250610a8d9250839150612e389050565b610a9957610a9961525c565b6000610ada87878080601f0160208091040260200160405190810160405280939291908181526020018383808284376000920191909152506110cf92505050565b9050848160e00151610aec9190615272565b60e0820152610100810151610b0290859061528a565b610100820152610b1181612e58565b979650505050505050565b6001600160a01b03811660009081526004602052604081205460ff165b92915050565b6000546201000090046001600160a01b03163314610b6f5760405162461bcd60e51b815260040161087790615118565b6000816001600160a01b0316637730599e6040518163ffffffff1660e01b8152600401602060405180830381865afa158015610baf573d6000803e3d6000fd5b505050506040513d601f19601f82011682018060405250810190610bd3919061517b565b60008181526002602052604090205490915015610c415760405162461bcd60e51b815260206004820152602660248201527f53463a2061677265656d656e7420636c61737320616c726561647920726567696044820152651cdd195c995960d21b6064820152608401610877565b60015461010011610ca45760405162461bcd60e51b815260206004820152602760248201527f53463a20737570706f727420757020746f203235362061677265656d656e7420604482015266636c617373657360c81b6064820152608401610877565b60007f0000000000000000000000000000000000000000000000000000000000000000610d5e576000604051610cd990614565565b604051809103906000f080158015610cf5573d6000803e3d6000fd5b50604051634a0687ef60e01b81526001600160a01b03868116600483015291925090821690634a0687ef90602401600060405180830381600087803b158015610d3d57600080fd5b505af1158015610d51573d6000803e3d6000fd5b5050505080915050610d61565b50815b6001805480820182557fb10e2d527612073b26eecdfd717e6a320cf44b4afac2b0732d9fcbe2b7fa0cf60180546001600160a01b0384166001600160a01b0319909116179055546000838152600260205260409081902091909155517f878135063a6cfb3bc333e534b1fdc83f4f12221cad6705c31c0567048a8bd3d190610dfe90849086909182526001600160a01b0316602082015260400190565b60405180910390a1505050565b6060610e1633611e7a565b610e325760405162461bcd60e51b815260040161087790615219565b82828080601f016020809104026020016040519081016040528093929190818152602001838380828437600092019190915250610e749250839150612e389050565b610e8057610e8061525c565b600080610efa8a6000898c8c8080601f01602080910402602001604051908101604052809392919081815260200183838082843760009201919091525050604080516020601f8f018190048102820181019092528d815292508d91508c9081908401838280828437600092019190915250612fe292505050565b91509150811561103257610f0d816131a9565b15610f9e5780806020019051810190610f269190615310565b9350610f3184612e38565b610f995786610f525760405162461bcd60e51b815260040161087790615344565b85858080601f016020809104026020016040519081016040528093929190818152602001838380828437600092019190915250929650610f9992508c9150601490506131fd565b61106c565b86610feb5760405162461bcd60e51b815260206004820152601f60248201527f53463a204150505f52554c455f4354585f49535f4d414c464f524d41544544006044820152606401610877565b85858080601f016020809104026020016040519081016040528093929190818152602001838380828437600092019190915250929650610f9992508c9150601690506131fd565b85858080601f0160208091040260200160405190810160405280939291908181526020018383808284376000920191909152509296505050505b5050509695505050505050565b6060611086338484613272565b9392505050565b61109981611b1e6131fd565b50565b60606110aa33858585613550565b949350505050565b6001600160a01b0316600090815260046020526040902054151590565b6110d7614572565b610b39826136a3565b60608083838080601f0160208091040260200160405190810160405280939291908181526020018383808284376000920191909152506111259250839150612e389050565b6111715760405162461bcd60e51b815260206004820152601d60248201527f53463a204150505f52554c455f4354585f49535f4e4f545f56414c49440000006044820152606401610877565b8961117b81611e7a565b6111975760405162461bcd60e51b81526004016108779061537b565b60006111d887878080601f0160208091040260200160405190810160405280939291908181526020018383808284376000920191909152506110cf92505050565b6101208101519091506001600160a01b031633146112505760405162461bcd60e51b815260206004820152602f60248201527f53463a2063616c6c41677265656d656e7457697468436f6e746578742066726f60448201526e6d2077726f6e67206164647265737360881b6064820152608401610877565b60608101805133909152604080516020601f8c018190048102820181019092528a8152908b908b908190840183828082843760009201919091525050505060a083015261129c82612e58565b955060006112e28e8e8e8080601f0160208091040260200160405190810160405280939291908181526020018383808284376000920191909152508c925061376e915050565b96509050801561134157858060200190518101906113009190615310565b965061130b87612e38565b6113175761131761525c565b611320876110cf565b6001600160a01b0383166060820152925061133a83612e58565b965061134a565b61134a8661384b565b505050505097509795505050505050565b6000546201000090046001600160a01b0316331461138b5760405162461bcd60e51b815260040161087790615118565b7f0000000000000000000000000000000000000000000000000000000000000000156113c95760405162461bcd60e51b81526004016108779061514f565b806001600160a01b031663cd312ec46040518163ffffffff1660e01b8152600401602060405180830381865afa158015611407573d6000803e3d6000fd5b505050506040513d601f19601f8201168201806040525081019061142b91906153bd565b156114875760405162461bcd60e51b815260206004820152602660248201527f53463a2063616e6e6f7420646f776e677261646520746f206e6f6e2075706772604482015265616461626c6560d01b6064820152608401610877565b61109981613956565b60006114ba7f360894a13ba1a3210667c828492db98dca3e2076cc3735a920a3ca505d382bbc5490565b905090565b6000546201000090046001600160a01b031633146114ef5760405162461bcd60e51b815260040161087790615118565b6003546001600160a01b031661165e577f00000000000000000000000000000000000000000000000000000000000000006115d557600060405161153290614565565b604051809103906000f08015801561154e573d6000803e3d6000fd5b50604051634a0687ef60e01b81526001600160a01b03848116600483015291925090821690634a0687ef90602401600060405180830381600087803b15801561159657600080fd5b505af11580156115aa573d6000803e3d6000fd5b5050600380546001600160a01b0319166001600160a01b039490941693909317909255506115f19050565b600380546001600160a01b0319166001600160a01b0383161790555b600360009054906101000a90046001600160a01b03166001600160a01b0316638129fc1c6040518163ffffffff1660e01b8152600401600060405180830381600087803b15801561164157600080fd5b505af1158015611655573d6000803e3d6000fd5b505050506116fc565b7f00000000000000000000000000000000000000000000000000000000000000001561169c5760405162461bcd60e51b81526004016108779061514f565b6003546040516311a5465560e21b81526001600160a01b03838116600483015290911690634695195490602401600060405180830381600087803b1580156116e357600080fd5b505af11580156116f7573d6000803e3d6000fd5b505050505b6003546040516001600160a01b0390911681527fce13a9895a1719ad4493b2ac1a9bfb36070566161abab408e7ecbe586da8d499906020015b60405180910390a150565b3361174a816110b2565b6117965760405162461bcd60e51b815260206004820152601860248201527f53463a2073656e646572206973206e6f7420616e2061707000000000000000006044820152606401610877565b61179f826110b2565b6117eb5760405162461bcd60e51b815260206004820152601860248201527f53463a20746172676574206973206e6f7420616e2061707000000000000000006044820152606401610877565b6117f482610b1c565b60ff1661180082610b1c565b60ff16116118645760405162461bcd60e51b815260206004820152602b60248201527f53463a20736f75726365206170702073686f756c64206861766520686967686560448201526a1c88185c1c081b195d995b60aa1b6064820152608401610877565b503360009081526005602090815260408083206001600160a01b0394909416835292905220805460ff19166001179055565b600080546201000090046001600160a01b03166380f70cba30836118b986613b90565b6040518463ffffffff1660e01b81526004016118d7939291906153da565b602060405180830381865afa1580156118f4573d6000803e3d6000fd5b505050506040513d601f19601f82011682018060405250810190611918919061517b565b151592915050565b61109961192b613c18565b82613c80565b6110993382613c80565b6001600160a01b038116600090815260046020526040812054618000161515610b39565b6000546201000090046001600160a01b0316331461198f5760405162461bcd60e51b815260040161087790615118565b600054604080516001600160a01b03620100009093048316815291831660208301527f13abda02e63c790d0e2818b251282cfe5cbe0a8abd69c54bf5d2260c0907bd2e910160405180910390a1600080546001600160a01b03909216620100000262010000600160b01b0319909216919091179055565b6060611a1133611e7a565b611a2d5760405162461bcd60e51b815260040161087790615219565b82828080601f016020809104026020016040519081016040528093929190818152602001838380828437600092019190915250611a6f9250839150612e389050565b611a7b57611a7b61525c565b600080611af58a6001898c8c8080601f01602080910402602001604051908101604052809392919081815260200183838082843760009201919091525050604080516020601f8f018190048102820181019092528d815292508d91508c9081908401838280828437600092019190915250612fe292505050565b91509150811561106c57611b08816131a9565b15611b285780806020019051810190611b219190615310565b935061106c565b86611b755760405162461bcd60e51b815260206004820152601f60248201527f53463a204150505f52554c455f4354585f49535f4d414c464f524d41544544006044820152606401610877565b61106c8a60166131fd565b6060611b8b33611e7a565b611ba75760405162461bcd60e51b815260040161087790615219565b86868080601f016020809104026020016040519081016040528093929190818152602001838380828437600092019190915250611be99250839150612e389050565b611bf557611bf561525c565b6000611c3689898080601f0160208091040260200160405190810160405280939291908181526020018383808284376000920191909152506110cf92505050565b9050611c4581606001516110b2565b15611cda5760608101516001600160a01b039081166000908152600560209081526040808320938b168352929052205460ff16611cda5760405162461bcd60e51b815260206004820152602d60248201527f53463a204150505f52554c455f434f4d504f534954455f4150505f49535f4e4f60448201526c1517d5d2125511531254d51151609a1b6064820152608401610877565b805181611ce6826153fe565b60ff169052506003602082015260c08101869052600060e082015261010081018590526001600160a01b038088166101208301528416610140820152611d2b81612e58565b9998505050505050505050565b6000546201000090046001600160a01b03163314611d685760405162461bcd60e51b815260040161087790615118565b60035460408051634a3852d960e11b815290516000926001600160a01b031691639470a5b29160048083019260209291908290030181865afa158015611db2573d6000803e3d6000fd5b505050506040513d601f19601f82011682018060405250810190611dd6919061541d565b6040516311a5465560e21b81526001600160a01b03808316600483015291925090831690634695195490602401600060405180830381600087803b158015611e1d57600080fd5b505af1158015611e31573d6000803e3d6000fd5b50506040516001600160a01b038481168252851692507f840acbd291b38534819f47f875839277e502f40e1c7bfea2c5fc2c8017442cd391506020015b60405180910390a25050565b600080826001600160a01b0316637730599e6040518163ffffffff1660e01b8152600401602060405180830381865afa158015611ebb573d6000803e3d6000fd5b505050506040513d601f19601f82011682018060405250810190611edf919061517b565b60008181526002602052604090205490915080158015906110aa57506001600160a01b0384166001611f1181846151ec565b81548110611f2157611f21615203565b6000918252602090912001546001600160a01b031614949350505050565b6060611f4a33611e7a565b611f665760405162461bcd60e51b815260040161087790615219565b6000611fa785858080601f0160208091040260200160405190810160405280939291908181526020018383808284376000920191909152506110cf92505050565b905082816101000151611fba919061528a565b610100820152611fc981612e58565b95945050505050565b6000818152600260205260408120548082036120005760405162461bcd60e51b815260040161087790615194565b61200b6001826151ec565b6001901b19841691505092915050565b7f00000000000000000000000000000000000000000000000000000000000000001561209a5760405162461bcd60e51b815260206004820152602860248201527f53463a2061707020726567697374726174696f6e2072657175697265732070656044820152673936b4b9b9b4b7b760c11b6064820152608401610877565b611099813360016140c4565b6000818152600260205260408120548082036120d45760405162461bcd60e51b815260040161087790615194565b60016120e081836151ec565b815481106120f0576120f0615203565b6000918252602090912001546001600160a01b03169392505050565b606061211733611e7a565b6121335760405162461bcd60e51b815260040161087790615219565b84848080601f0160208091040260200160405190810160405280939291908181526020018383808284376000920191909152506121759250839150612e389050565b6121815761218161525c565b61218b84846131fd565b85858080601f016020809104026020016040519081016040528093929190818152602001838380828437600092019190915250929998505050505050505050565b606082828080601f0160208091040260200160405190810160405280939291908181526020018383808284376000920191909152506122109250839150612e389050565b61225c5760405162461bcd60e51b815260206004820152601d60248201527f53463a204150505f52554c455f4354585f49535f4e4f545f56414c49440000006044820152606401610877565b6001600160a01b0387166000908152600460205260409020548790806122ba5760405162461bcd60e51b8152602060048201526013602482015272053463a206e6f7420612073757065722061707606c1b6044820152606401610877565b6180008116156123005760405162461bcd60e51b815260206004820152601160248201527014d18e88185c1c081a5cc81a985a5b1959607a1b6044820152606401610877565b87878080601f0160208091040260200160405190810160405280939291908181526020018383808284376000920182905250925061234191508390506142bb565b90506001600160e01b031981166330d9c91560e01b148061237257506001600160e01b0319811663d86ed3e560e01b145b8061238d57506001600160e01b03198116630221347d60e61b145b806123a857506001600160e01b0319811663230dbd2960e01b145b806123c357506001600160e01b03198116635f9e7d7760e01b145b806123de57506001600160e01b031981166353c11f9960e01b145b156123fb5760405162461bcd60e51b81526004016108779061543a565b600061243c89898080601f0160208091040260200160405190810160405280939291908181526020018383808284376000920191909152506110cf92505050565b6101208101519091506001600160a01b031633146124b45760405162461bcd60e51b815260206004820152602f60248201527f53463a2063616c6c417070416374696f6e57697468436f6e746578742066726f60448201526e6d2077726f6e67206164647265737360881b6064820152608401610877565b606081018051339091526124c782612e58565b975060008061250e8f8f8f8080601f0160208091040260200160405190810160405280939291908181526020018383808284376000920191909152508f925061376e915050565b91509150811561257d578080602001905181019061252c9190615310565b99506125378a612e38565b6125535760405162461bcd60e51b815260040161087790615344565b61255c8a6110cf565b6001600160a01b0384166060820152935061257684612e58565b9950612586565b6125868161384b565b50505050505050505095945050505050565b6000818152600260205260408120548082036125c65760405162461bcd60e51b815260040161087790615194565b6125d16001826151ec565b6001901b841791505092915050565b60006126223284848080601f01602080910402602001604051908101604052809392919081815260200183838082843760009201919091525061431792505050565b90507f000000000000000000000000000000000000000000000000000000000000000015612723576000805460405163407b865d60e11b81524292620100009092046001600160a01b0316916380f70cba9161268491309187906004016153da565b602060405180830381865afa1580156126a1573d6000803e3d6000fd5b505050506040513d601f19601f820116820180604052508101906126c5919061517b565b10156127235760405162461bcd60e51b815260206004820152602760248201527f53463a20696e76616c6964206f72206578706972656420726567697374726174604482015266696f6e206b657960c81b6064820152608401610877565b61272f843360016140c4565b50505050565b600061108683838080601f016020809104026020016040519081016040528093929190818152602001838380828437600092019190915250612e3892505050565b600054610100900460ff16158080156127965750600054600160ff909116105b806127b05750303b1580156127b0575060005460ff166001145b6128135760405162461bcd60e51b815260206004820152602e60248201527f496e697469616c697a61626c653a20636f6e747261637420697320616c72656160448201526d191e481a5b9a5d1a585b1a5e995960921b6064820152608401610877565b6000805460ff191660011790558015612836576000805461ff0019166101001790555b6000805462010000600160b01b031916620100006001600160a01b03851602179055801561289e576000805461ff0019169055604051600181527f7f26b83ff96e1f2b6a682f133852f6798a09c465da95921460cefb38474024989060200160405180910390a15b5050565b60606000806001805490506001600160401b038111156128c4576128c46147a6565b6040519080825280602002602001820160405280156128ed578160200160208202803683370190505b50925060009050600091505b600154821015612984576001821b841615612974576001828154811061292157612921615203565b6000918252602090912001546001600160a01b031683826129418161547e565b93508151811061295357612953615203565b60200260200101906001600160a01b031690816001600160a01b0316815250505b61297d8261547e565b91506128f9565b825250919050565b600080600060608060608e8e8e8e8e8e8e8e8e85858080601f01602080910402602001604051908101604052809392919081815260200183838082843760009201919091525050604080516020601f890181900481028201810190925287815293995096975094959394509192909150859085908190840183828082843760009201919091525050604080516020601f87018190048102820181019092528581529397509495509293919250849184915081908401838280828437600092019190915250999f50979d50959b50939950919750919550505050505099509950995099509950999350505050565b6000606084848481818080601f01602080910402602001604051908101604052809392919081815260200183838082843760009201919091525095975091955050505050505b935093915050565b6003546000906001600160a01b0316612ae257612ae261525c565b7f000000000000000000000000000000000000000000000000000000000000000015612b1857506003546001600160a01b031690565b600360009054906101000a90046001600160a01b03166001600160a01b03166350d75d256040518163ffffffff1660e01b8152600401602060405180830381865afa158015612b6b573d6000803e3d6000fd5b505050506040513d601f19601f820116820180604052508101906114ba919061541d565b333b80612bde5760405162461bcd60e51b815260206004820152601e60248201527f53463a20666163746f7279206d757374206265206120636f6e747261637400006044820152606401610877565b507f000000000000000000000000000000000000000000000000000000000000000015612ce5576000612c103361434a565b6000805460405163407b865d60e11b81529293509091620100009091046001600160a01b0316906380f70cba90612c4f903090859087906004016153da565b602060405180830381865afa158015612c6c573d6000803e3d6000fd5b505050506040513d601f19601f82011682018060405250810190612c90919061517b565b600114905080612ce25760405162461bcd60e51b815260206004820152601f60248201527f53463a20617574686f72697a656420666163746f7279207265717569726564006044820152606401610877565b50505b61289e818360006140c4565b60606000612d6886868080601f01602080910402602001604051908101604052809392919081815260200183838082843760009201919091525050604080516020601f8a0181900481028201810190925288815292508891508790819084018382808284376000920191909152506143c492505050565b90506000306001600160a01b031682604051612d849190615497565b600060405180830381855afa9150503d8060008114612dbf576040519150601f19603f3d011682016040523d82523d6000602084013e612dc4565b606091505b50935090508015612dd65750506110aa565b612ddf8361384b565b5050949350505050565b6001600160a01b038116600090815260046020908152604080832081519283019091525480825215801592918291612e3057805161800081161515935064ff000000001691505b509193909250565b60008151600014158015610b395750600654825160208401201492915050565b60607f0000000000000000000000000000000000000000000000000000000000000000826000015160ff161115612edc5760405162461bcd60e51b815260206004820152602260248201527f53463a204150505f52554c455f4d41585f4150505f4c4556454c5f5245414348604482015261115160f21b6064820152608401610877565b815160208084015160009260ff1664ff000000009190921b1617905060006080612f098560e001516144bf565b6001600160801b0316901b612f218560c001516144bf565b6001600160801b0316179050818460400151856060015186608001518760a00151604051602001612f569594939291906154b3565b60408051601f1981840301815282825261010087015161012088015161014089015160208601879052938501919091526001600160a01b03908116606085015290911660808301529060a00160408051601f1981840301815290829052612fc09291602001614b16565b60408051601f1981840301815291905280516020820120600655949350505050565b600060606001600160a01b038716612ffc57612ffc61525c565b61300684846143c4565b935060005a905086156130a157876001600160a01b03167f00000000000000000000000000000000000000000000000000000000000000006001600160401b0316866040516130559190615497565b6000604051808303818686fa925050503d8060008114613091576040519150601f19603f3d011682016040523d82523d6000602084013e613096565b606091505b50909350915061312d565b876001600160a01b03167f00000000000000000000000000000000000000000000000000000000000000006001600160401b0316866040516130e39190615497565b60006040518083038160008787f1925050503d8060008114613121576040519150601f19603f3d011682016040523d82523d6000602084013e613126565b606091505b5090935091505b8261319e5761313d603f826154f4565b5a11156131625785613157576131528261384b565b61319e565b61315288600a6131fd565b60405162461bcd60e51b815260206004820152601160248201527053463a206e656564206d6f72652067617360781b6044820152606401610877565b509550959350505050565b60006040825110156131bd57506000919050565b6020828101519060009082146131d7575060009392505050565b5060408301516131e68161452c565b6131f1906040615272565b84511492505050919050565b6001600160a01b03821660009081526004602052604081205461800016900361289e576001600160a01b038216600081815260046020526040908190208054618000179055517fbe3aa33bd245135e4e26b223d79d14ea479a47bff09f2b03c53838af1edbb14b90611e6e9084815260200190565b600654606090156132c55760405162461bcd60e51b815260206004820152601d60248201527f53463a204150505f52554c455f4354585f49535f4e4f545f434c45414e0000006044820152606401610877565b6001600160a01b0383166000908152600460205260409020548390806133235760405162461bcd60e51b8152602060048201526013602482015272053463a206e6f7420612073757065722061707606c1b6044820152606401610877565b6180008116156133695760405162461bcd60e51b815260206004820152601160248201527014d18e88185c1c081a5cc81a985a5b1959607a1b6044820152606401610877565b836000613375826142bb565b90506001600160e01b031981166330d9c91560e01b14806133a657506001600160e01b0319811663d86ed3e560e01b145b806133c157506001600160e01b03198116630221347d60e61b145b806133dc57506001600160e01b0319811663230dbd2960e01b145b806133f757506001600160e01b03198116635f9e7d7760e01b145b8061341257506001600160e01b031981166353c11f9960e01b145b1561342f5760405162461bcd60e51b81526004016108779061543a565b60006134db6040518061016001604052806134498c6110b2565b613454576000613457565b60015b60ff168152600260208201526040014281526020018b6001600160a01b03168152602001600060e01b6001600160e01b03191681526020016040518060200160405280600081525081526020016000815260200160008152602001600081526020018a6001600160a01b0316815260200160006001600160a01b0316815250612e58565b905060006134ea89898461376e565b97509050801561353457868060200190518101906135089190615310565b915061351382612e38565b61352f5760405162461bcd60e51b815260040161087790615344565b61353d565b61353d8761384b565b5050600060065550929695505050505050565b600654606090156135a35760405162461bcd60e51b815260206004820152601d60248201527f53463a204150505f52554c455f4354585f49535f4e4f545f434c45414e0000006044820152606401610877565b836135ad81611e7a565b6135c95760405162461bcd60e51b81526004016108779061537b565b60006135d4856142bb565b905060006136706040518061016001604052806135f08b6110b2565b6135fb5760006135fe565b60015b60ff168152600160208201526040014281526020018a6001600160a01b03168152602001846001600160e01b031916815260200187815260200160008152602001600081526020016000815260200160006001600160a01b0316815260200160006001600160a01b0316815250612e58565b9050600061367f88888461376e565b9550905080613691576136918561384b565b50506000600655509095945050505050565b6136ab614572565b606080838060200190518101906136c29190615516565b815191935091506000906136df908401602090810190850161556f565b60a08901526001600160e01b03191660808801526001600160a01b031660608701526040860152602081811c600f168187015260ff90911685528251600092506137309190840181019084016155f3565b6001600160a01b03908116610140890152166101208701526101008601526001600160801b03811660c086015260801c60e085015250919392505050565b600060606001600160a01b0385166137885761378861525c565b61379284846143c4565b9350846001600160a01b0316846040516137ac9190615497565b6000604051808303816000865af19150503d80600081146137e9576040519150601f19603f3d011682016040523d82523d6000602084013e6137ee565b606091505b5090925090508115612abf576000815111612abf5760405162461bcd60e51b815260206004820152601960248201527f53463a204150505f52554c455f4354585f49535f454d505459000000000000006044820152606401610877565b60048151101561389d5760405162461bcd60e51b815260206004820152601a60248201527f43616c6c5574696c733a207461726765742072657665727428290000000000006044820152606401610877565b602081015163b1b7848f60e01b6001600160e01b031982160161394d5760408051808201825260208082527f43616c6c5574696c733a207461726765742070616e69636b65643a2030785f5f90820190815260248501517f43616c6c5574696c733a207461726765742070616e69636b65643a2030780000600482811c600f908116603090810160081b918516011791909117909252925162461bcd60e51b8152919291610877918491016146ef565b81518060208401fd5b60006139807f360894a13ba1a3210667c828492db98dca3e2076cc3735a920a3ca505d382bbc5490565b6001600160a01b0316036139d65760405162461bcd60e51b815260206004820152601d60248201527f5555505350726f786961626c653a206e6f742075706772616461626c650000006044820152606401610877565b806001600160a01b03166352d1902d6040518163ffffffff1660e01b8152600401602060405180830381865afa158015613a14573d6000803e3d6000fd5b505050506040513d601f19601f82011682018060405250810190613a38919061517b565b7fcd355cae2c435f8c5e0c626c4691d22fd85aa7422a424c6f0bced6e64c7aba7414613ab25760405162461bcd60e51b815260206004820152602360248201527f5555505350726f786961626c653a206e6f7420636f6d70617469626c65206c6f60448201526267696360e81b6064820152608401610877565b6001600160a01b0381163003613b0a5760405162461bcd60e51b815260206004820152601960248201527f5555505350726f786961626c653a2070726f7879206c6f6f70000000000000006044820152606401610877565b613b32817f360894a13ba1a3210667c828492db98dca3e2076cc3735a920a3ca505d382bbc55565b7fe011bc04c286c344a8fcbb8de77f953da762c3e25d8cdea984147fc4168a5dcc7fcd355cae2c435f8c5e0c626c4691d22fd85aa7422a424c6f0bced6e64c7aba74604080519182526001600160a01b038416602083015201611735565b6040805160208101829052603260608201527f6f72672e7375706572666c7569642d66696e616e63652e7375706572666c756960808201527132173a393ab9ba32b22337b93bb0b93232b960711b60a08201526001600160a01b0383169181019190915260009060c0015b604051602081830303815290604052805190602001209050919050565b600060183610801590613c2f5750613c2f33611896565b613c735760405162461bcd60e51b81526020600482015260156024820152742737ba103a393ab9ba32b2103337b93bb0b93232b960591b6044820152606401610877565b5060131936013560601c90565b60005b81518110156140bf576000828281518110613ca057613ca0615203565b6020026020010151600001519050600163ffffffff168163ffffffff1603613d8057600080848481518110613cd757613cd7615203565b602002602001015160400151806020019051810190613cf6919061563e565b91509150848481518110613d0c57613d0c615203565b6020026020010151602001516001600160a01b03166362aa52878784846040518463ffffffff1660e01b8152600401613d47939291906153da565b600060405180830381600087803b158015613d6157600080fd5b505af1158015613d75573d6000803e3d6000fd5b5050505050506140ac565b60011963ffffffff821601613e66576000806000858581518110613da657613da6615203565b602002602001015160400151806020019051810190613dc5919061566c565b925092509250858581518110613ddd57613ddd615203565b6020908102919091018101510151604051630b682aeb60e11b81526001600160a01b0389811660048301528581166024830152848116604483015260648201849052909116906316d055d690608401600060405180830381600087803b158015613e4657600080fd5b505af1158015613e5a573d6000803e3d6000fd5b505050505050506140ac565b60641963ffffffff821601613f3657828281518110613e8757613e87615203565b6020026020010151602001516001600160a01b031663ca78946485858581518110613eb457613eb4615203565b602002602001015160400151806020019051810190613ed3919061517b565b6040516001600160e01b031960e085901b1681526001600160a01b0390921660048301526024820152604401600060405180830381600087803b158015613f1957600080fd5b505af1158015613f2d573d6000803e3d6000fd5b505050506140ac565b60651963ffffffff821601613f8457828281518110613f5757613f57615203565b6020026020010151602001516001600160a01b031663245887fc85858581518110613eb457613eb4615203565b60c81963ffffffff821601613ffc57600080848481518110613fa857613fa8615203565b602002602001015160400151806020019051810190613fc79190615516565b91509150613ff486868681518110613fe157613fe1615203565b6020026020010151602001518484613550565b5050506140ac565b60c91963ffffffff821601614056576140508484848151811061402157614021615203565b60200260200101516020015185858151811061403f5761403f615203565b602002602001015160400151613272565b506140ac565b60405162461bcd60e51b815260206004820152602560248201527f53463a20756e6b6e6f776e2062617463682063616c6c206f7065726174696f6e604482015264207479706560d81b6064820152608401610877565b50806140b78161547e565b915050613c83565b505050565b32330361411f5760405162461bcd60e51b8152602060048201526024808201527f53463a204150505f52554c455f4e4f5f524547495354524154494f4e5f464f526044820152635f454f4160e01b6064820152608401610877565b801561418d57813b801561418b5760405162461bcd60e51b815260206004820152602d60248201527f53463a204150505f52554c455f524547495354524154494f4e5f4f4e4c595f4960448201526c272fa1a7a729aa292aa1aa27a960991b6064820152608401610877565b505b64ff000080ff1983161580156141a5575060ff831615155b80156141b357506180008316155b6141ff5760405162461bcd60e51b815260206004820152601760248201527f53463a20696e76616c696420636f6e66696720776f72640000000000000000006044820152606401610877565b6001600160a01b038216600090815260046020526040902054156142655760405162461bcd60e51b815260206004820152601a60248201527f53463a2061707020616c726561647920726567697374657265640000000000006044820152606401610877565b60408051602080820183528582526001600160a01b038516600081815260049092528382209251909255915190917f0d540ad8f39e07d19909687352b9fa017405d93c91a6760981fbae9cf28bfef791a2505050565b600060048251101561430f5760405162461bcd60e51b815260206004820152601b60248201527f43616c6c5574696c733a20696e76616c69642063616c6c4461746100000000006044820152606401610877565b506020015190565b6000828260405160200161432c9291906156af565b60405160208183030381529060405280519060200120905092915050565b6040805160208101829052603960608201527f6f72672e7375706572666c7569642d66696e616e63652e7375706572666c756960808201527f642e61707057686974654c697374696e672e666163746f72790000000000000060a08201526001600160a01b0383169181019190915260009060c001613bfb565b8151808301516060919080156144315760405162461bcd60e51b815260206004820152602c60248201527f53463a20706c61636572686f6c646572206374782073686f756c64206861766560448201526b040f4cae4de40d8cadccee8d60a31b6064820152608401610877565b50601f19810184528251849084816144488161452c565b61445291906151ec565b6001600160401b03811115614469576144696147a6565b6040519080825280601f01601f191660200182016040528015614493576020820181803683370190505b506040516020016144a79493929190615734565b60405160208183030381529060405291505092915050565b60006001600160801b038211156145285760405162461bcd60e51b815260206004820152602760248201527f53616665436173743a2076616c756520646f65736e27742066697420696e20316044820152663238206269747360c81b6064820152608401610877565b5090565b60008082601f161161453f576000614542565b60015b60ff166145506020846154f4565b61455a9190615272565b610b39906020615783565b61024a806157a383390190565b604080516101608101825260008082526020820181905291810182905260608082018390526080820183905260a082015260c0810182905260e081018290526101008101829052610120810182905261014081019190915290565b6001600160a01b038116811461109957600080fd5b6000602082840312156145f457600080fd5b8135611086816145cd565b60008083601f84011261461157600080fd5b5081356001600160401b0381111561462857600080fd5b60208301915083602082850101111561464057600080fd5b9250929050565b6000806000806060858703121561465d57600080fd5b84356001600160401b0381111561467357600080fd5b61467f878288016145ff565b90989097506020870135966040013595509350505050565b60005b838110156146b257818101518382015260200161469a565b8381111561272f5750506000910152565b600081518084526146db816020860160208601614697565b601f01601f19169290920160200192915050565b60208152600061108660208301846146c3565b801515811461109957600080fd5b6000806000806000806080878903121561472957600080fd5b8635614734816145cd565b955060208701356001600160401b038082111561475057600080fd5b61475c8a838b016145ff565b90975095506040890135915061477182614702565b9093506060880135908082111561478757600080fd5b5061479489828a016145ff565b979a9699509497509295939492505050565b634e487b7160e01b600052604160045260246000fd5b604051606081016001600160401b03811182821017156147de576147de6147a6565b60405290565b604051601f8201601f191681016001600160401b038111828210171561480c5761480c6147a6565b604052919050565b60006001600160401b0382111561482d5761482d6147a6565b50601f01601f191660200190565b600082601f83011261484c57600080fd5b813561485f61485a82614814565b6147e4565b81815284602083860101111561487457600080fd5b816020850160208301376000918101602001919091529392505050565b600080604083850312156148a457600080fd5b82356148af816145cd565b915060208301356001600160401b038111156148ca57600080fd5b6148d68582860161483b565b9150509250929050565b6000806000606084860312156148f557600080fd5b8335614900816145cd565b925060208401356001600160401b038082111561491c57600080fd5b6149288783880161483b565b9350604086013591508082111561493e57600080fd5b5061494b8682870161483b565b9150509250925092565b60006020828403121561496757600080fd5b81356001600160401b0381111561497d57600080fd5b6110aa8482850161483b565b6020815261499d60208201835160ff169052565b600060208301516149b3604084018260ff169052565b506040830151606083015260608301516149d860808401826001600160a01b03169052565b5060808301516001600160e01b0319811660a08401525060a08301516101608060c0850152614a0b6101808501836146c3565b915060c085015160e085015260e0850151610100818187015280870151915050610120818187015280870151915050610140614a51818701836001600160a01b03169052565b909501516001600160a01b031693019290925250919050565b60008060008060008060006080888a031215614a8557600080fd5b8735614a90816145cd565b965060208801356001600160401b0380821115614aac57600080fd5b614ab88b838c016145ff565b909850965060408a0135915080821115614ad157600080fd5b614add8b838c016145ff565b909650945060608a0135915080821115614af657600080fd5b50614b038a828b016145ff565b989b979a50959850939692959293505050565b604081526000614b2960408301856146c3565b8281036020840152611fc981856146c3565b60006020808385031215614b4e57600080fd5b82356001600160401b0380821115614b6557600080fd5b818501915085601f830112614b7957600080fd5b813581811115614b8b57614b8b6147a6565b8060051b614b9a8582016147e4565b9182528381018501918581019089841115614bb457600080fd5b86860192505b83831015611d2b57823585811115614bd25760008081fd5b86016060818c03601f1901811315614bea5760008081fd5b614bf26147bc565b8983013563ffffffff81168114614c095760008081fd5b8152604083810135614c1a816145cd565b828c0152918301359188831115614c315760008081fd5b614c3f8e8c8587010161483b565b90820152845250509186019190860190614bba565b60008060008060008060a08789031215614c6d57600080fd5b86356001600160401b03811115614c8357600080fd5b614c8f89828a016145ff565b9097509550506020870135614ca3816145cd565b935060408701359250606087013591506080870135614cc1816145cd565b809150509295509295509295565b600080600060408486031215614ce457600080fd5b83356001600160401b03811115614cfa57600080fd5b614d06868287016145ff565b909790965060209590950135949350505050565b60008060408385031215614d2d57600080fd5b50508035926020909101359150565b600060208284031215614d4e57600080fd5b5035919050565b60008060008060608587031215614d6b57600080fd5b84356001600160401b03811115614d8157600080fd5b614d8d878288016145ff565b9095509350506020850135614da1816145cd565b9396929550929360400135925050565b600080600080600060608688031215614dc957600080fd5b8535614dd4816145cd565b945060208601356001600160401b0380821115614df057600080fd5b614dfc89838a016145ff565b90965094506040880135915080821115614e1557600080fd5b50614e22888289016145ff565b969995985093965092949392505050565b60008060408385031215614e4657600080fd5b8235614e51816145cd565b91506020830135614e61816145cd565b809150509250929050565b600080600060408486031215614e8157600080fd5b8335925060208401356001600160401b03811115614e9e57600080fd5b614eaa868287016145ff565b9497909650939450505050565b60008060208385031215614eca57600080fd5b82356001600160401b03811115614ee057600080fd5b614eec858286016145ff565b90969095509350505050565b6020808252825182820181905260009190848201906040850190845b81811015614f395783516001600160a01b031683529284019291840191600101614f14565b50909695505050505050565b600080600080600080600080600060c08a8c031215614f6357600080fd5b8935614f6e816145cd565b985060208a0135614f7e816145cd565b975060408a0135965060608a01356001600160401b0380821115614fa157600080fd5b614fad8d838e016145ff565b909850965060808c0135915080821115614fc657600080fd5b614fd28d838e016145ff565b909650945060a08c0135915080821115614feb57600080fd5b50614ff88c828d016145ff565b915080935050809150509295985092959850929598565b6001600160a01b038781168252861660208201526040810185905260c060608201819052600090615042908301866146c3565b828103608084015261505481866146c3565b905082810360a0840152611d2b81856146c3565b8281526040602082015260006110aa60408301846146c3565b6000806040838503121561509457600080fd5b823561509f816145cd565b946020939093013593505050565b600080600080604085870312156150c357600080fd5b84356001600160401b03808211156150da57600080fd5b6150e6888389016145ff565b909650945060208701359150808211156150ff57600080fd5b5061510c878288016145ff565b95989497509550505050565b6020808252601b908201527f53463a206f6e6c7920676f7665726e616e636520616c6c6f7765640000000000604082015260600190565b60208082526012908201527153463a206e6f6e2075706772616461626c6560701b604082015260600190565b60006020828403121561518d57600080fd5b5051919050565b60208082526022908201527f53463a2061677265656d656e7420636c617373206e6f74207265676973746572604082015261195960f21b606082015260800190565b634e487b7160e01b600052601160045260246000fd5b6000828210156151fe576151fe6151d6565b500390565b634e487b7160e01b600052603260045260246000fd5b60208082526023908201527f53463a2073656e646572206973206e6f74206c6973746564206167726565656d604082015262195b9d60ea1b606082015260800190565b634e487b7160e01b600052600160045260246000fd5b60008219821115615285576152856151d6565b500190565b600080821280156001600160ff1b03849003851316156152ac576152ac6151d6565b600160ff1b83900384128116156152c5576152c56151d6565b50500190565b600082601f8301126152dc57600080fd5b81516152ea61485a82614814565b8181528460208386010111156152ff57600080fd5b6110aa826020830160208701614697565b60006020828403121561532257600080fd5b81516001600160401b0381111561533857600080fd5b6110aa848285016152cb565b6020808252601c908201527f53463a204150505f52554c455f4354585f49535f524541444f4e4c5900000000604082015260600190565b60208082526022908201527f53463a206f6e6c79206c6973746564206167726565656d656e7420616c6c6f77604082015261195960f21b606082015260800190565b6000602082840312156153cf57600080fd5b815161108681614702565b6001600160a01b039384168152919092166020820152604081019190915260600190565b600060ff821660ff8103615414576154146151d6565b60010192915050565b60006020828403121561542f57600080fd5b8151611086816145cd565b60208082526024908201527f53463a2061677265656d656e742063616c6c6261636b206973206e6f742061636040820152633a34b7b760e11b606082015260800190565b600060018201615490576154906151d6565b5060010190565b600082516154a9818460208701614697565b9190910192915050565b858152602081018590526001600160a01b03841660408201526001600160e01b03198316606082015260a060808201819052600090610b11908301846146c3565b60008261551157634e487b7160e01b600052601260045260246000fd5b500490565b6000806040838503121561552957600080fd5b82516001600160401b038082111561554057600080fd5b61554c868387016152cb565b9350602085015191508082111561556257600080fd5b506148d6858286016152cb565b600080600080600060a0868803121561558757600080fd5b855194506020860151935060408601516155a0816145cd565b60608701519093506001600160e01b0319811681146155be57600080fd5b60808701519092506001600160401b038111156155da57600080fd5b6155e6888289016152cb565b9150509295509295909350565b6000806000806080858703121561560957600080fd5b84519350602085015192506040850151615622816145cd565b6060860151909250615633816145cd565b939692955090935050565b6000806040838503121561565157600080fd5b825161565c816145cd565b6020939093015192949293505050565b60008060006060848603121561568157600080fd5b835161568c816145cd565b602085015190935061569d816145cd565b80925050604084015190509250925092565b60608152604160608201527f6f72672e7375706572666c7569642d66696e616e63652e7375706572666c756960808201527f642e61707057686974654c697374696e672e726567697374726174696f6e4b6560a0820152607960f81b60c082015260018060a01b038316602082015260e0604082015260006110aa60e08301846146c3565b6000855160206157478285838b01614697565b8184019150868252855161576081838501848a01614697565b855192019161577481838501848901614697565b91909101019695505050505050565b600081600019048311821515161561579d5761579d6151d6565b50029056fe608060405234801561001057600080fd5b5061022a806100206000396000f3fe6080604052600436106100225760003560e01c80634a0687ef1461003957610031565b366100315761002f610059565b005b61002f610059565b34801561004557600080fd5b5061002f6100543660046101c4565b61006b565b610069610064610171565b6101a0565b565b6001600160a01b0381166100c65760405162461bcd60e51b815260206004820152601760248201527f5555505350726f78793a207a65726f206164647265737300000000000000000060448201526064015b60405180910390fd5b60006100f07f360894a13ba1a3210667c828492db98dca3e2076cc3735a920a3ca505d382bbc5490565b6001600160a01b0316146101465760405162461bcd60e51b815260206004820152601e60248201527f5555505350726f78793a20616c726561647920696e697469616c697a6564000060448201526064016100bd565b61016e817f360894a13ba1a3210667c828492db98dca3e2076cc3735a920a3ca505d382bbc55565b50565b600061019b7f360894a13ba1a3210667c828492db98dca3e2076cc3735a920a3ca505d382bbc5490565b905090565b3660008037600080366000845af43d6000803e8080156101bf573d6000f35b3d6000fd5b6000602082840312156101d657600080fd5b81356001600160a01b03811681146101ed57600080fd5b939250505056fea26469706673582212203110f9cfe43ac366756bef2f6f0b1e6afd1bbf53cf028337b713e0338f22a45864736f6c634300080e0033a26469706673582212207b2872338c7b293d4e408d3f4dae74d7477c7bdb1c802fa423e928e859e6f97564736f6c634300080e0033",
  "immutableReferences": {
    "32294": [
      {
        "length": 32,
        "start": 1885
      },
      {
        "length": 32,
        "start": 2178
      },
      {
        "length": 32,
        "start": 3240
      },
      {
        "length": 32,
        "start": 5005
      },
      {
        "length": 32,
        "start": 5377
      },
      {
        "length": 32,
        "start": 5728
      },
      {
        "length": 32,
        "start": 10980
      }
    ],
    "32296": [
      {
        "length": 32,
        "start": 1540
      },
      {
        "length": 32,
        "start": 8221
      },
      {
        "length": 32,
        "start": 9766
      },
      {
        "length": 32,
        "start": 11233
      }
    ],
    "32300": [
      {
        "length": 32,
        "start": 1991
      },
      {
        "length": 32,
        "start": 11868
      }
    ],
    "32303": [
      {
        "length": 32,
        "start": 1008
      },
      {
        "length": 32,
        "start": 12319
      },
      {
        "length": 32,
        "start": 12461
      }
    ]
  },
  "source": "// SPDX-License-Identifier: AGPLv3\npragma solidity 0.8.14;\n\nimport {\n    Superfluid,\n    ISuperApp\n} from \"../superfluid/Superfluid.sol\";\n\nimport { CallUtils } from \"../libs/CallUtils.sol\";\n\n\ncontract SuperfluidUpgradabilityTester is Superfluid {\n\n    constructor() Superfluid(false, false)\n    // solhint-disable-next-line no-empty-blocks\n    {\n    }\n\n    // @dev Make sure the storage layout never change over the course of the development\n    function validateStorageLayout()\n        external pure\n    {\n        uint256 slot;\n        uint256 offset;\n\n        assembly { slot:= _gov.slot offset := _gov.offset }\n        require(slot == 0 && offset == 2, \"_gov changed location\");\n\n        assembly { slot:= _agreementClasses.slot offset := _agreementClasses.offset }\n        require(slot == 1 && offset == 0, \"_agreementClasses changed location\");\n\n        assembly { slot:= _agreementClassIndices.slot offset := _agreementClassIndices.offset }\n        require(slot == 2 && offset == 0, \"_agreementClassIndices changed location\");\n\n        assembly { slot:= _superTokenFactory.slot offset := _superTokenFactory.offset }\n        require(slot == 3 && offset == 0, \"_superTokenFactory changed location\");\n\n        assembly { slot:= _appManifests.slot offset := _appManifests.offset }\n        require(slot == 4 && offset == 0, \"_appManifests changed location\");\n\n        assembly { slot:= _compositeApps.slot offset := _compositeApps.offset }\n        require(slot == 5 && offset == 0, \"_compositeApps changed location\");\n\n        assembly { slot:= _ctxStamp.slot offset := _ctxStamp.offset }\n        require(slot == 6 && offset == 0, \"_ctxStamp changed location\");\n\n        assembly { slot:= _appKeysUsedDeprecated.slot offset := _appKeysUsedDeprecated.offset }\n        require(slot == 7 && offset == 0, \"_appKeysUsedDeprecated changed location\");\n    }\n\n    // @dev Make sure the context struct layout never change over the course of the development\n    function validateContextStructLayout()\n        external pure\n    {\n        // context.appLevel\n        {\n            Context memory context;\n            assembly { mstore(add(context, mul(32, 0)), 42) }\n            require(context.appLevel == 42, \"appLevel changed location\");\n        }\n        // context.callType\n        {\n            Context memory context;\n            assembly { mstore(add(context, mul(32, 1)), 42) }\n            require(context.callType == 42, \"callType changed location\");\n        }\n        // context.timestamp\n        {\n            Context memory context;\n            assembly { mstore(add(context, mul(32, 2)), 42) }\n            require(context.timestamp == 42, \"timestamp changed location\");\n        }\n        // context.msgSender\n        {\n            Context memory context;\n            assembly { mstore(add(context, mul(32, 3)), 42) }\n            require(context.msgSender == address(42), \"msgSender changed location\");\n        }\n        // context.agreementSelector\n        {\n            Context memory context;\n            // be aware of the bytes4 endianness\n            assembly { mstore(add(context, mul(32, 4)), shl(224, 0xdeadbeef)) }\n            require(context.agreementSelector == bytes4(uint32(0xdeadbeef)), \"agreementSelector changed location\");\n        }\n        // context.userData\n        {\n            Context memory context;\n            context.userData = new bytes(42);\n            uint256 dataOffset;\n            assembly { dataOffset := mload(add(context, mul(32, 5))) }\n            require(dataOffset != 0, \"userData offset is zero\");\n            uint256 dataLen;\n            assembly { dataLen := mload(dataOffset) }\n            require(dataLen == 42, \"userData changed location\");\n        }\n        // context.appAllowanceGranted\n        {\n            Context memory context;\n            assembly { mstore(add(context, mul(32, 6)), 42) }\n            require(context.appAllowanceGranted == 42, \"appAllowanceGranted changed location\");\n        }\n        // context.appAllowanceGranted\n        {\n            Context memory context;\n            assembly { mstore(add(context, mul(32, 7)), 42) }\n            require(context.appAllowanceWanted == 42, \"appAllowanceWanted changed location\");\n        }\n        // context.appAllowanceGranted\n        {\n            Context memory context;\n            assembly { mstore(add(context, mul(32, 8)), 42) }\n            require(context.appAllowanceUsed == 42, \"appAllowanceUsed changed location\");\n        }\n        // context.appAllowanceGranted\n        {\n            Context memory context;\n            assembly { mstore(add(context, mul(32, 9)), 42) }\n            require(context.appAddress == address(42), \"appAddress changed location\");\n        }\n        // context.appAllowanceToken\n        {\n            Context memory context;\n            assembly { mstore(add(context, mul(32, 10)), 42) }\n            require(address(context.appAllowanceToken) == address(42), \"appAllowanceToken changed location\");\n        }\n    }\n}\n\ncontract SuperfluidMock is Superfluid {\n\n\n    constructor(bool nonUpgradable, bool appWhiteListingEnabled)\n        Superfluid(nonUpgradable, appWhiteListingEnabled)\n    // solhint-disable-next-line no-empty-blocks\n    {\n    }\n\n    function ctxFunc1(uint256 n, bytes calldata ctx)\n        external pure\n        returns (uint256, bytes memory)\n    {\n        return (n, ctx);\n    }\n\n    // same ABI to afterAgreementCreated\n    function ctxFunc2(\n        address superToken,\n        address agreementClass,\n        bytes32 agreementId,\n        bytes calldata agreementData,\n        bytes calldata cbdata,\n        bytes calldata ctx)\n        external pure\n        returns (address, address, bytes32, bytes memory, bytes memory, bytes memory)\n    {\n        return (superToken, agreementClass, agreementId, agreementData, cbdata, ctx);\n    }\n\n    function testCtxFuncX(bytes calldata dataWithPlaceHolderCtx, bytes calldata ctx)\n        external view\n        returns (bytes memory returnedData)\n    {\n        bytes memory data = _replacePlaceholderCtx(dataWithPlaceHolderCtx, ctx);\n        bool success;\n        (success, returnedData) = address(this).staticcall(data);\n        if (success) return returnedData;\n        else CallUtils.revertFromReturnedData(returnedData);\n    }\n\n    function jailApp(ISuperApp app)\n        external\n    {\n        _jailApp(app, 6942);\n    }\n\n}\n",
  "sourcePath": "/Users/alo/protocol-monorepo/packages/ethereum-contracts/contracts/mocks/SuperfluidMock.sol",
  "compiler": {
    "name": "solc",
    "version": "0.8.14+commit.80d49f37.Emscripten.clang"
  },
  "schemaVersion": "3.4.8",
  "updatedAt": "2022-07-15T06:25:31.650Z",
  "devdoc": {
    "kind": "dev",
    "methods": {
      "addToAgreementClassesBitmap(uint256,bytes32)": {
        "details": "agreementType is the keccak256 hash of: \"org.superfluid-finance.agreements.<AGREEMENT_NAME>.<VERSION>\"",
        "params": {
          "bitmap": "Agreement class bitmap"
        }
      },
      "allowCompositeApp(address)": {
        "details": "Whitelist the target app for app composition for the source app (msg.sender)",
        "params": {
          "targetApp": "The target super app address"
        }
      },
      "appCallbackPop(bytes,int256)": {
        "details": "(For agreements) Pop from the current app callback stack",
        "params": {
          "appAllowanceUsedDelta": "App allowance used by the app.",
          "ctx": "The ctx that was pushed before the callback stack."
        },
        "returns": {
          "newCtx": "                 The current context of the transaction."
        }
      },
      "appCallbackPush(bytes,address,uint256,int256,address)": {
        "details": "(For agreements) Create a new callback stack",
        "params": {
          "app": "The super app.",
          "appAllowanceGranted": "App allowance granted so far.",
          "appAllowanceUsed": "App allowance used so far.",
          "ctx": "The current ctx, it will be validated."
        },
        "returns": {
          "appCtx": "                 The current context of the transaction."
        }
      },
      "batchCall((uint32,address,bytes)[])": {
        "details": "ISuperfluid.batchCall implementation"
      },
      "callAgreement(address,bytes,bytes)": {
        "details": "Call agreement function",
        "params": {
          "agreementClass": "The agreement address you are calling",
          "callData": "The contextual call data with placeholder ctx",
          "userData": "Extra user data being sent to the super app callbacks"
        }
      },
      "callAppAction(address,bytes)": {
        "details": "Main use case is calling app action in a batch call via the host",
        "params": {
          "callData": "The contextual call data"
        }
      },
      "callAppAfterCallback(address,bytes,bool,bytes)": {
        "details": "(For agreements) Call the app after callback",
        "params": {
          "app": "The super app.",
          "callData": "The call data sending to the super app.",
          "ctx": "Current ctx, it will be validated.",
          "isTermination": "Is it a termination callback?"
        },
        "returns": {
          "newCtx": "           The current context of the transaction."
        }
      },
      "callAppBeforeCallback(address,bytes,bool,bytes)": {
        "details": "(For agreements) StaticCall the app before callback",
        "params": {
          "app": "The super app.",
          "callData": "The call data sending to the super app.",
          "ctx": "Current ctx, it will be validated.",
          "isTermination": "Is it a termination callback?"
        },
        "returns": {
          "cbdata": "           Data returned from the callback."
        }
      },
      "ctxUseAllowance(bytes,uint256,int256)": {
        "details": "(For agreements) Use app allowance.",
        "params": {
          "appAllowanceUsedDelta": "See app allowance for more details.",
          "appAllowanceWantedMore": "See app allowance for more details.",
          "ctx": "The current ctx, it will be validated."
        },
        "returns": {
          "newCtx": "                  The current context of the transaction."
        }
      },
      "forwardBatchCall((uint32,address,bytes)[])": {
        "details": "ISuperfluid.forwardBatchCall implementation"
      },
      "getAgreementClass(bytes32)": {
        "details": "agreementType is the keccak256 hash of: \"org.superfluid-finance.agreements.<AGREEMENT_NAME>.<VERSION>\""
      },
      "getAppManifest(address)": {
        "details": "Get the manifest of the super app",
        "params": {
          "app": "Super app address"
        }
      },
      "getCodeAddress()": {
        "details": "Get current implementation code address."
      },
      "getGovernance()": {
        "details": "Get the current governance address of the Superfluid host"
      },
      "getSuperTokenFactory()": {
        "details": "Get the super token factory",
        "returns": {
          "factory": "The factory"
        }
      },
      "getSuperTokenFactoryLogic()": {
        "details": "Get the super token factory logic (applicable to upgradable deployment)",
        "returns": {
          "logic": "The factory logic"
        }
      },
      "isAgreementClassListed(address)": {
        "details": "Check if the agreement class is whitelisted"
      },
      "isAgreementTypeListed(bytes32)": {
        "details": "agreementType is the keccak256 hash of: \"org.superfluid-finance.agreements.<AGREEMENT_NAME>.<VERSION>\""
      },
      "isApp(address)": {
        "details": "Query if the app is registered",
        "params": {
          "app": "Super app address"
        }
      },
      "isAppJailed(address)": {
        "details": "Query if the app has been jailed",
        "params": {
          "app": "Super app address"
        }
      },
      "isCompositeAppAllowed(address,address)": {
        "details": "Query if source app is allowed to call the target app as downstream app",
        "params": {
          "app": "Super app address",
          "targetApp": "The target super app address"
        }
      },
      "isTrustedForwarder(address)": {
        "details": "BaseRelayRecipient.isTrustedForwarder implementation"
      },
      "jailApp(bytes,address,uint256)": {
        "details": "(For agreements) Jail the app.",
        "params": {
          "app": "The super app.",
          "reason": "Jail reason code."
        },
        "returns": {
          "newCtx": "                 The current context of the transaction."
        }
      },
      "mapAgreementClasses(uint256)": {
        "details": "Map list of the agreement classes using a bitmap",
        "params": {
          "bitmap": "Agreement class bitmap"
        }
      },
      "proxiableUUID()": {
        "details": "Proxiable UUID marker function, this would help to avoid wrong logic      contract to be used for upgrading. NOTE: The semantics of the UUID deviates from the actual UUPS standard,       where it is equivalent of _IMPLEMENTATION_SLOT."
      },
      "registerAgreementClass(address)": {
        "details": "Register a new agreement class to the system",
        "params": {
          "agreementClassLogic": "Initial agreement class code"
        }
      },
      "registerApp(uint256)": {
        "details": "Message sender (must be a contract) declares itself as a super app.",
        "params": {
          "configWord": "The super app manifest configuration, flags are defined in `SuperAppDefinitions`"
        }
      },
      "registerAppByFactory(address,uint256)": {
        "details": "Message sender (must be a contract) declares app as a super app",
        "params": {
          "configWord": "The super app manifest configuration, flags are defined in `SuperAppDefinitions`"
        }
      },
      "registerAppWithKey(uint256,string)": {
        "details": "Message sender declares itself as a super app.",
        "params": {
          "configWord": "The super app manifest configuration, flags are defined in `SuperAppDefinitions`",
          "registrationKey": "The registration key issued by the governance, needed to register on a mainnet."
        }
      },
      "removeFromAgreementClassesBitmap(uint256,bytes32)": {
        "details": "agreementType is the keccak256 hash of: \"org.superfluid-finance.agreements.<AGREEMENT_NAME>.<VERSION>\"",
        "params": {
          "bitmap": "Agreement class bitmap"
        }
      },
      "replaceGovernance(address)": {
        "details": "Replace the current governance with a new one"
      },
      "updateAgreementClass(address)": {
        "details": "Update code of an agreement class",
        "params": {
          "agreementClassLogic": "New code for the agreement class"
        }
      },
      "updateSuperTokenFactory(address)": {
        "details": "Update super token factory",
        "params": {
          "newFactory": "New factory logic"
        }
      },
      "updateSuperTokenLogic(address)": {
        "details": "Refer to ISuperTokenFactory.Upgradability for expected behaviours"
      },
      "versionRecipient()": {
        "details": "IRelayRecipient.isTrustedForwarder implementation"
      }
    },
    "version": 1
  },
  "userdoc": {
    "events": {
      "AgreementClassRegistered(bytes32,address)": {
        "notice": "Agreement class registered event"
      },
      "AgreementClassUpdated(bytes32,address)": {
        "notice": "Agreement class updated event"
      }
    },
    "kind": "user",
    "methods": {
      "addToAgreementClassesBitmap(uint256,bytes32)": {
        "notice": "Create a new bitmask by adding a agreement class to it"
      },
      "callAppAction(address,bytes)": {
        "notice": "Call app action"
      },
      "getAgreementClass(bytes32)": {
        "notice": "Get agreement class"
      },
      "isAgreementTypeListed(bytes32)": {
        "notice": "Check if the agreement type is whitelisted"
      },
      "registerAppByFactory(address,uint256)": {
        "notice": "On mainnet deployments, only factory contracts pre-authorized by governance can use this. See https://github.com/superfluid-finance/protocol-monorepo/wiki/Super-App-White-listing-Guide"
      },
      "registerAppWithKey(uint256,string)": {
        "notice": "See https://github.com/superfluid-finance/protocol-monorepo/wiki/Super-App-White-listing-Guide On testnets or in dev environment, a placeholder (e.g. empty string) can be used. While the message sender must be the super app itself, the transaction sender (tx.origin) must be the deployer account the registration key was issued for."
      },
      "removeFromAgreementClassesBitmap(uint256,bytes32)": {
        "notice": "Create a new bitmask by removing a agreement class from it"
      },
      "updateSuperTokenLogic(address)": {
        "notice": "Update the super token logic to the latest"
      }
    },
    "version": 1
  }
}