{
  "contractName": "SuperTokenFactoryMockHelper",
  "abi": [
    {
      "inputs": [
        {
          "internalType": "contract ISuperfluid",
          "name": "host",
          "type": "address"
        },
        {
          "internalType": "uint256",
          "name": "waterMark",
          "type": "uint256"
        }
      ],
      "name": "create",
      "outputs": [
        {
          "internalType": "address",
          "name": "logic",
          "type": "address"
        }
      ],
      "stateMutability": "nonpayable",
      "type": "function"
    }
  ],
  "bytecode": "0x608060405234801561001057600080fd5b50614e33806100206000396000f3fe608060405234801561001057600080fd5b506004361061002b5760003560e01c80630ecaea7314610030575b600080fd5b61004361003e3660046100b7565b61005f565b6040516001600160a01b03909116815260200160405180910390f35b6000808383604051610070906100aa565b6001600160a01b0390921682526020820152604001604051809103906000f0801580156100a1573d6000803e3d6000fd5b50949350505050565b614d0e806100f083390190565b600080604083850312156100ca57600080fd5b82356001600160a01b03811681146100e157600080fd5b94602093909301359350505056fe60c06040523480156200001157600080fd5b5060405162004d0e38038062004d0e83398101604081905262000034916200004b565b6001600160a01b0390911660805260a05262000087565b600080604083850312156200005f57600080fd5b82516001600160a01b03811681146200007757600080fd5b6020939093015192949293505050565b60805160a051614bf862000116600039600061062901526000818161045e01528181610b5b01528181610bc901528181610e7f01528181610fd9015281816110a80152818161131801528181611470015281816115f4015281816118ea015281816119ac01528181611a33015281816122bf015281816123560152818161353f01526137bf0152614bf86000f3fe608060405234801561001057600080fd5b506004361061038e5760003560e01c80636154b102116101de578063a9059cbb1161010f578063d95b6371116100ad578063ee719bc81161007c578063ee719bc814610849578063fad8b32a1461085a578063fc673c4f1461086d578063fe9d93031461088057600080fd5b8063d95b6371146107bc578063d9d078d6146107cf578063dd62ed3e146107e2578063eb3537cc1461081b57600080fd5b8063bb0d196e116100e9578063bb0d196e14610770578063c68d428314610783578063ca78946414610796578063cf97256d146107a957600080fd5b8063a9059cbb14610737578063b1f0b5be1461074a578063b84cdd4a1461075d57600080fd5b8063959b8c3f1161017c5780639d876741116101565780639d876741146106eb578063a1b2bf8b146106fe578063a3a7e7f314610711578063a457c2d71461072457600080fd5b8063959b8c3f146106bd57806395d89b41146106d05780639bd9bbc6146106d857600080fd5b806366a12fb6116101b857806366a12fb6146106715780636c2d9f2f1461068457806370a082311461069757806379359f6f146106aa57600080fd5b80636154b1021461062457806362aa52871461064b57806362ad1b831461065e57600080fd5b80632ec8eec7116102c357806345977d031161026157806352d1902d1161023057806352d1902d146105d1578063556f0dc7146105f757806356189cb4146105fe5780635b9d09cc1461061157600080fd5b806345977d031461058357806346951954146105965780634b61cc33146105a957806350d75d25146105c957600080fd5b8063395093511161029d5780633950935114610537578063397be9311461054a57806341b706be1461055d57806342fe09801461057057600080fd5b80632ec8eec7146104e2578063313ce56714610515578063386fa2211461052457600080fd5b806318160ddd11610330578063222f5be01161030a578063222f5be01461049657806323b872dd146104a9578063245887fc146104bc57806327048397146104cf57600080fd5b806318160ddd146104375780631863e8091461044957806320bc44251461045c57600080fd5b8063095ea7b31161036c578063095ea7b3146103db57806311bcc81e146103fe57806312a6a3f81461041157806316d055d61461042457600080fd5b806306e485381461039357806306fdde03146103b1578063090c415e146103c6575b600080fd5b61039b610893565b6040516103a89190613af8565b60405180910390f35b6103b96108a4565b6040516103a89190613b9d565b6103d96103d4366004613c10565b610936565b005b6103ee6103e9366004613c6b565b6109ea565b60405190151581526020016103a8565b6103d961040c366004613c97565b610a01565b6103d961041f366004613cb0565b610a2f565b6103d9610432366004613cfb565b610b59565b6003545b6040519081526020016103a8565b6103d9610457366004613e0f565b610bb4565b7f00000000000000000000000000000000000000000000000000000000000000005b6040516001600160a01b0390911681526020016103a8565b6103d96104a4366004613ea1565b610e53565b6103ee6104b7366004613ea1565b610e65565b6103d96104ca366004613c6b565b610e7d565b6103d96104dd366004613ee2565b610ef4565b6104f56104f0366004613f04565b610fd1565b6040805194855260208501939093529183015260608201526080016103a8565b604051601281526020016103a8565b61039b610532366004613f04565b611074565b6103ee610545366004613c6b565b611117565b6103d9610558366004613f44565b611153565b6103d961056b366004613cfb565b61115c565b6103d961057e366004614018565b611187565b6103d9610591366004613c97565b6112e1565b6103d96105a4366004613f04565b61130d565b6105bc6105b73660046140b2565b61139c565b6040516103a891906140f8565b61047e6113e1565b7f6bfbb132610e56cb96575dba244667b9d6dbfeffe22b68a79fa16f2d18eb001961043b565b600161043b565b6103d961060c366004613ea1565b61140b565b6103d961061f366004614130565b61141b565b61043b7f000000000000000000000000000000000000000000000000000000000000000081565b6103d9610659366004613ea1565b61146e565b6103d961066c36600461417f565b6114b6565b6103d961067f366004613ea1565b611563565b6105bc61069236600461421d565b611582565b61043b6106a5366004613f04565b6115c4565b6103ee6106b8366004613f04565b6115ec565b6103d96106cb366004613f04565b611674565b6103b96116c5565b6103d96106e6366004614130565b6116d4565b6103d96106f9366004614252565b611728565b6103d961070c366004613cb0565b611767565b6103d961071f366004613f04565b611811565b6103ee610732366004613c6b565b611825565b6103ee610745366004613c6b565b611874565b6103d96107583660046142aa565b611882565b6103ee61076b366004613c6b565b611891565b6103ee61077e366004613f04565b6118e2565b6103d9610791366004614252565b61196a565b6103d96107a4366004613c6b565b6119aa565b6103d96107b7366004613c6b565b611a1e565b6103ee6107ca366004614329565b611b06565b6103ee6107dd366004613c6b565b611b14565b61043b6107f0366004614329565b6001600160a01b03918216600090815260116020908152604080832093909416825291909152205490565b61082e610829366004613c6b565b611b2e565b604080519384526020840192909252908201526060016103a8565b600e546001600160a01b031661047e565b6103d9610868366004613f04565b611c6a565b6103d961087b366004614362565b611cbb565b6103d961088e3660046143a9565b611d5a565b606061089f6012611daa565b905090565b6060600f80546108b3906143e7565b80601f01602080910402602001604051908101604052809291908181526020018280546108df906143e7565b801561092c5780601f106109015761010080835404028352916020019161092c565b820191906000526020600020905b81548152906001019060200180831161090f57829003601f168201915b5050505050905090565b600033858560405160200161094d93929190614421565b6040516020818303038152906040528051906020012090506109a281848480806020026020016040519081016040528093929190818152602001838360200280828437600092019190915250611e1092505050565b6040518481526001600160a01b0386169033907f30f416fa68fca014a0f334464c64b000ba53e99b6d2afdea9d5ca756372d5985906020015b60405180910390a35050505050565b60006109f7338484611e51565b5060015b92915050565b610a2c3333836040518060200160405280600081525060405180602001604052806000815250611f79565b50565b6040513390600090610a47908390879060200161446a565b60408051601f1981840301815291905280516020909101209050610a6b8184612160565b15610ad05760405162461bcd60e51b815260206004820152602a60248201527f5375706572666c756964546f6b656e3a2061677265656d656e7420616c726561604482015269191e4818dc99585d195960b21b60648201526084015b60405180910390fd5b610b0d81858580806020026020016040519081016040528093929190818152602001838360200280828437600092019190915250611e1092505050565b816001600160a01b03167f770ea40a13a4644573ed785e5c7116890709947918747febc5add46feb531e2d868686604051610b4a939291906144a7565b60405180910390a25050505050565b7f00000000000000000000000000000000000000000000000000000000000000006001600160a01b03163314610ba15760405162461bcd60e51b8152600401610ac7906144eb565b610bad8484848461219c565b5050505050565b604051632329212160e21b81523360048201527f00000000000000000000000000000000000000000000000000000000000000006001600160a01b031690638ca4848490602401602060405180830381865afa158015610c18573d6000803e3d6000fd5b505050506040513d601f19601f82011682018060405250810190610c3c9190614536565b610c585760405162461bcd60e51b8152600401610ac790614553565b6000610c626122ba565b90506001600160a01b038116610c755750845b600085610c825786610c84565b815b905060008313610d2157610c97836145b0565b610ca0856123ff565b14610cad57610cad6145cc565b610cb6846123ff565b6001600160a01b03821660009081526002602052604081208054909190610cde9084906145e2565b90915550506001600160a01b03851660009081526002602052604081208054859290610d0b9084906145e2565b90915550610d1c905085828661246d565b610deb565b8515610d2f57610d2f6145cc565b82610d39856123ff565b610d4391906145e2565b6001600160a01b03831660009081526002602052604081208054909190610d6b908490614623565b90915550610d7a9050846123ff565b6001600160a01b03881660009081526002602052604081208054909190610da29084906145e2565b90915550506001600160a01b03851660009081526002602052604081208054859290610dcf9084906145e2565b90915550610de0905082888661246d565b610deb82868561246d565b846001600160a01b0316876001600160a01b0316336001600160a01b03167fb8381a3ce157650e06186e3e8f4dd4dc29236f2688b6eed1893d0a60d7c6386f8c8589898f604051610e40959493929190614662565b60405180910390a4505050505050505050565b610e5f8384848461219c565b50505050565b6000610e733385858561219c565b90505b9392505050565b7f00000000000000000000000000000000000000000000000000000000000000006001600160a01b03163314610ec55760405162461bcd60e51b8152600401610ac7906144eb565b610ef03383836040518060200160405280600081525060405180602001604052806000815250611f79565b5050565b6040513390600090610f0c908390869060200161446a565b604051602081830303815290604052805190602001209050610f2e8184612160565b610f8c5760405162461bcd60e51b815260206004820152602960248201527f5375706572666c756964546f6b656e3a2061677265656d656e7420646f6573206044820152681b9bdd08195e1a5cdd60ba1b6064820152608401610ac7565b610f9681846124a0565b60405184815233907f71a63dc095de07aa5512ad57a7596a39516317e316981a1cd71000057be1537b9060200160405180910390a250505050565b6000806000807f00000000000000000000000000000000000000000000000000000000000000006001600160a01b031663bbe4fd506040518163ffffffff1660e01b8152600401602060405180830381865afa158015611035573d6000803e3d6000fd5b505050506040513d601f19601f820116820180604052508101906110599190614695565b90506110658582611b2e565b91979096509094509092509050565b6001600160a01b038181166000908152600160205260409081902054905163c56a069d60e01b8152901960048201526060917f0000000000000000000000000000000000000000000000000000000000000000169063c56a069d90602401600060405180830381865afa1580156110ef573d6000803e3d6000fd5b505050506040513d6000823e601f3d908101601f191682016040526109fb91908101906146ae565b3360008181526011602090815260408083206001600160a01b038716845290915281205490916109f791859061114e90869061473c565b611e51565b610a2c816124c1565b33301461117b5760405162461bcd60e51b8152600401610ac790614754565b610bad8385848461219c565b600054610100900460ff16158080156111a75750600054600160ff909116105b806111c15750303b1580156111c1575060005460ff166001145b6112245760405162461bcd60e51b815260206004820152602e60248201527f496e697469616c697a61626c653a20636f6e747261637420697320616c72656160448201526d191e481a5b9a5d1a585b1a5e995960921b6064820152608401610ac7565b6000805460ff191660011790558015611247576000805461ff0019166101001790555b600e805460ff8816600160a01b026001600160a81b03199091166001600160a01b038a161717905561127b600f8686613a0e565b5061128860108484613a0e565b50611292306124cc565b80156112d8576000805461ff0019169055604051600181527f7f26b83ff96e1f2b6a682f133852f6798a09c465da95921460cefb38474024989060200160405180910390a15b50505050505050565b610a2c3333338460405180602001604052806000815250604051806020016040528060008152506125fa565b336001600160a01b037f000000000000000000000000000000000000000000000000000000000000000016146113935760405162461bcd60e51b815260206004820152602560248201527f5375706572546f6b656e3a206f6e6c7920686f73742063616e2075706461746560448201526420636f646560d81b6064820152608401610ac7565b610a2c816127fd565b606060008585856040516020016113b593929190614421565b6040516020818303038152906040528051906020012090506113d78184612a3d565b9695505050505050565b600061089f7f360894a13ba1a3210667c828492db98dca3e2076cc3735a920a3ca505d382bbc5490565b611416838383611e51565b505050565b610e5f333386866040518060200160405280600081525087878080601f0160208091040260200160405190810160405280939291908181526020018383808284376000920191909152506125fa92505050565b7f00000000000000000000000000000000000000000000000000000000000000006001600160a01b0316331461140b5760405162461bcd60e51b8152600401610ac7906144eb565b336114c36012828a612acc565b6114df5760405162461bcd60e51b8152600401610ac79061478b565b6115598189898989898080601f01602080910402602001604051908101604052809392919081815260200183838082843760009201919091525050604080516020601f8d018190048102820181019092528b815292508b91508a908190840183828082843760009201919091525060019250612b75915050565b5050505050505050565b33301461140b5760405162461bcd60e51b8152600401610ac790614754565b60606000848460405160200161159992919061446a565b6040516020818303038152906040528051906020012090506115bb8184612a3d565b95945050505050565b6000806115d083610fd1565b5050509050600081126115e35780610e76565b60009392505050565b60006109fb827f00000000000000000000000000000000000000000000000000000000000000006001600160a01b031663bbe4fd506040518163ffffffff1660e01b8152600401602060405180830381865afa158015611650573d6000803e3d6000fd5b505050506040513d601f19601f820116820180604052508101906107dd9190614695565b3361168160128284612bec565b806001600160a01b0316826001600160a01b03167ff4caeb2d6ca8932a215a353d0703c326ec2d81fc68170f320eb2ab49e9df61f960405160405180910390a35050565b6060601080546108b3906143e7565b610e5f3333868686868080601f01602080910402602001604051908101604052809392919081815260200183838082843760009201829052506040805160208101909152908152925060019150612b759050565b3330146117475760405162461bcd60e51b8152600401610ac790614754565b604080516000815260208101909152611416903390859085908590612cf0565b604051339060009061177f908390879060200161446a565b6040516020818303038152906040528051906020012090506117d481858580806020026020016040519081016040528093929190818152602001838360200280828437600092019190915250611e1092505050565b336001600160a01b03167f0c4c547b3a4fcaa5be8353b3111472b124155bccc86de811d4a481c9e6e9faca868686604051610b4a939291906144a7565b610ef0333383611820336115c4565b61219c565b60006109f7338461114e856040518060600160405280602a8152602001614b4c602a91393360009081526011602090815260408083206001600160a01b038d1684529091529020549190612de5565b6000610e763333858561219c565b610e5f33858560018686612e11565b6000806000806118a18686611b2e565b92509250925060006118c98284116118ba5760006123ff565b6118c483856147db565b6123ff565b6118d390856145e2565b60001315979650505050505050565b60006109fb827f00000000000000000000000000000000000000000000000000000000000000006001600160a01b031663bbe4fd506040518163ffffffff1660e01b8152600401602060405180830381865afa158015611946573d6000803e3d6000fd5b505050506040513d601f19601f8201168201806040525081019061076b9190614695565b3330146119895760405162461bcd60e51b8152600401610ac790614754565b60408051600080825260208201909252611416913391869186918690612e11565b7f00000000000000000000000000000000000000000000000000000000000000006001600160a01b031633146119f25760405162461bcd60e51b8152600401610ac7906144eb565b610ef03383848460405180602001604052806000815250604051806020016040528060008152506125fa565b604051632329212160e21b81523360048201527f00000000000000000000000000000000000000000000000000000000000000006001600160a01b031690638ca4848490602401602060405180830381865afa158015611a82573d6000803e3d6000fd5b505050506040513d601f19601f82011682018060405250810190611aa69190614536565b611ac25760405162461bcd60e51b8152600401610ac790614553565b6001600160a01b038216600090815260026020526040902054611ae69082906145e2565b6001600160a01b0390921660009081526002602052604090209190915550565b6000610e7660128484612acc565b600080611b218484611b2e565b5050600013949350505050565b6001600160a01b038216600090815260026020526040812054908080611b5386611074565b905060005b8151811015611c61576000806000848481518110611b7857611b786147f2565b60209081029190910101516040516326cb922f60e21b81523060048201526001600160a01b038c81166024830152604482018c905290911690639b2e48bc90606401606060405180830381865afa158015611bd7573d6000803e3d6000fd5b505050506040513d601f19601f82011682018060405250810190611bfb9190614808565b91945092509050611c0c828861473c565b9650611c18818761473c565b9550611c35818311611c2b5760006123ff565b6118c482846147db565b611c3f848a6145e2565b611c499190614623565b97505050508080611c5990614836565b915050611b58565b50509250925092565b33611c7760128284612f08565b806001600160a01b0316826001600160a01b03167f50546e66e5f44d728365dc3908c63bc5cfeeab470722c1677e3073a6ac294aa160405160405180910390a35050565b33611cc860128289612acc565b611ce45760405162461bcd60e51b8152600401610ac79061478b565b6112d881888888888080601f01602080910402602001604051908101604052809392919081815260200183838082843760009201919091525050604080516020601f8c018190048102820181019092528a815292508a9150899081908401838280828437600092019190915250611f7992505050565b61141633338585858080601f016020809104026020016040519081016040528093929190818152602001838380828437600092018290525060408051602081019091529081529250611f79915050565b606081600001805480602002602001604051908101604052809291908181526020018280548015611e0457602002820191906000526020600020905b81546001600160a01b03168152600190910190602001808311611de6575b50505050509050919050565b60005b8151811015611416576000828281518110611e3057611e306147f2565b6020026020010151905080828501555080611e4a90614836565b9050611e13565b6001600160a01b038316611eb55760405162461bcd60e51b815260206004820152602560248201527f5375706572546f6b656e3a20617070726f76652066726f6d207a65726f206164604482015264647265737360d81b6064820152608401610ac7565b6001600160a01b038216611f175760405162461bcd60e51b815260206004820152602360248201527f5375706572546f6b656e3a20617070726f766520746f207a65726f206164647260448201526265737360e81b6064820152608401610ac7565b6001600160a01b0383811660008181526011602090815260408083209487168084529482529182902085905590518481527f8c5be1e5ebec7d5bd14f71427d1e84f3dd0314c0f7b2291e5b200ac8c7c3b92591015b60405180910390a3505050565b600e546001600160a01b0316611fd15760405162461bcd60e51b815260206004820152601f60248201527f5375706572546f6b656e3a206e6f20756e6465726c79696e6720746f6b656e006044820152606401610ac7565b600080611fdd85613000565b91509150611fee8787838787612cf0565b600e546040516370a0823160e01b81523060048201526000916001600160a01b0316906370a0823190602401602060405180830381865afa158015612037573d6000803e3d6000fd5b505050506040513d601f19601f8201168201806040525081019061205b9190614695565b600e54909150612075906001600160a01b031688856130bc565b600e546040516370a0823160e01b81523060048201526000916001600160a01b0316906370a0823190602401602060405180830381865afa1580156120be573d6000803e3d6000fd5b505050506040513d601f19601f820116820180604052508101906120e29190614695565b905060006120f082846147db565b90508085146121115760405162461bcd60e51b8152600401610ac79061484f565b886001600160a01b03167f3bc27981aebbb57f9247dc00fde9d6cd91e4b230083fec3238fedbcba1f9ab3d8560405161214c91815260200190565b60405180910390a250505050505050505050565b6000805b8281101561219257838101548015612181576001925050506109fb565b5061218b81614836565b9050612164565b5060009392505050565b60006001600160a01b0384166121c45760405162461bcd60e51b8152600401610ac7906148ac565b6001600160a01b0383166121ea5760405162461bcd60e51b8152600401610ac7906148f2565b600033905061221b81868686604051806020016040528060008152506040518060200160405280600081525061311f565b846001600160a01b0316866001600160a01b0316146122ae576122ae858761114e866040518060600160405280602d8152602001614b96602d9139601160008c6001600160a01b03166001600160a01b0316815260200190815260200160002060008d6001600160a01b03166001600160a01b0316815260200190815260200160002054612de59092919063ffffffff16565b50600195945050505050565b6000807f00000000000000000000000000000000000000000000000000000000000000006001600160a01b031663289b3c0d6040518163ffffffff1660e01b8152600401602060405180830381865afa15801561231b573d6000803e3d6000fd5b505050506040513d601f19601f8201168201806040525081019061233f9190614936565b604051638369a0f160e01b81526001600160a01b037f0000000000000000000000000000000000000000000000000000000000000000811660048301523060248301527f9f60ae461adf056670e03ae602566409933242392cb06744f5747c9f38b05d09604483015291925090821690638369a0f190606401602060405180830381865afa1580156123d5573d6000803e3d6000fd5b505050506040513d601f19601f820116820180604052508101906123f99190614936565b91505090565b60006001600160ff1b038211156124695760405162461bcd60e51b815260206004820152602860248201527f53616665436173743a2076616c756520646f65736e27742066697420696e2061604482015267371034b73a191a9b60c11b6064820152608401610ac7565b5090565b816001600160a01b0316836001600160a01b0316600080516020614b7683398151915283604051611f6c91815260200190565b60005b81811015611416576000838201556124ba81614836565b90506124a3565b610a2c6012826131be565b6040516329965a1d60e01b81526001600160a01b03821660048201527fac7fbab5f54a3ca8194167523c6753bfeb96a445279294b6125b68cce21770546024820152306044820152731820a4b7618bde71dce8cdc73aab6c95905fad24906329965a1d90606401600060405180830381600087803b15801561254d57600080fd5b505af1158015612561573d6000803e3d6000fd5b50506040516329965a1d60e01b81526001600160a01b03841660048201527faea199e31a596269b42cdafd93407f14436db6e4cad65417994c2eb37381e05a6024820152306044820152731820a4b7618bde71dce8cdc73aab6c95905fad2492506329965a1d9150606401600060405180830381600087803b1580156125e657600080fd5b505af1158015610bad573d6000803e3d6000fd5b600e546001600160a01b03166126525760405162461bcd60e51b815260206004820152601f60248201527f5375706572546f6b656e3a206e6f20756e6465726c79696e6720746f6b656e006044820152606401610ac7565b60008061265e85613000565b600e546040516370a0823160e01b81523060048201529294509092506000916001600160a01b03909116906370a0823190602401602060405180830381865afa1580156126af573d6000803e3d6000fd5b505050506040513d601f19601f820116820180604052508101906126d39190614695565b600e549091506126ee906001600160a01b0316893086613248565b600e546040516370a0823160e01b81523060048201526000916001600160a01b0316906370a0823190602401602060405180830381865afa158015612737573d6000803e3d6000fd5b505050506040513d601f19601f8201168201806040525081019061275b9190614695565b9050600061276983836147db565b905080851461278a5760405162461bcd60e51b8152600401610ac79061484f565b6127ad8b8a868c6001600160a01b03168e6001600160a01b031614158b8b612e11565b886001600160a01b03167f25ca84076773b0455db53621c459ddc84fe40840e4932a62706a032566f399df856040516127e891815260200190565b60405180910390a25050505050505050505050565b60006128277f360894a13ba1a3210667c828492db98dca3e2076cc3735a920a3ca505d382bbc5490565b6001600160a01b03160361287d5760405162461bcd60e51b815260206004820152601d60248201527f5555505350726f786961626c653a206e6f742075706772616461626c650000006044820152606401610ac7565b806001600160a01b03166352d1902d6040518163ffffffff1660e01b8152600401602060405180830381865afa1580156128bb573d6000803e3d6000fd5b505050506040513d601f19601f820116820180604052508101906128df9190614695565b7f6bfbb132610e56cb96575dba244667b9d6dbfeffe22b68a79fa16f2d18eb0019146129595760405162461bcd60e51b815260206004820152602360248201527f5555505350726f786961626c653a206e6f7420636f6d70617469626c65206c6f60448201526267696360e81b6064820152608401610ac7565b6001600160a01b03811630036129b15760405162461bcd60e51b815260206004820152601960248201527f5555505350726f786961626c653a2070726f7879206c6f6f70000000000000006044820152606401610ac7565b6129d9817f360894a13ba1a3210667c828492db98dca3e2076cc3735a920a3ca505d382bbc55565b7fe011bc04c286c344a8fcbb8de77f953da762c3e25d8cdea984147fc4168a5dcc7f6bfbb132610e56cb96575dba244667b9d6dbfeffe22b68a79fa16f2d18eb0019604080519182526001600160a01b03841660208301520160405180910390a150565b6060816001600160401b03811115612a5757612a57613d4c565b604051908082528060200260200182016040528015612a80578160200160208202803683370190505b50905060005b82811015612ac557600081850154905080838381518110612aa957612aa96147f2565b602090810291909101015250612abe81614836565b9050612a86565b5092915050565b6000816001600160a01b0316836001600160a01b03161480612b3b57506001600160a01b038316600090815260018501602052604090205460ff168015612b3b57506001600160a01b03808316600090815260038601602090815260408083209387168352929052205460ff16155b80610e7357506001600160a01b03808316600090815260028601602090815260408083209387168352929052205460ff1690509392505050565b6001600160a01b038616612b9b5760405162461bcd60e51b8152600401610ac7906148ac565b6001600160a01b038516612bc15760405162461bcd60e51b8152600401610ac7906148f2565b612bcf878787878787613280565b612bdd87878787878761311f565b6112d8878787878787876133a7565b806001600160a01b0316826001600160a01b031603612c635760405162461bcd60e51b815260206004820152602d60248201527f4552433737374f70657261746f72733a20617574686f72697a696e672073656c60448201526c331030b99037b832b930ba37b960991b6064820152608401610ac7565b6001600160a01b038116600090815260018401602052604090205460ff1615612cb9576001600160a01b03918216600090815260039390930160209081526040808520929093168452529020805460ff19169055565b6001600160a01b0380831660009081526002850160209081526040808320938516835292905220805460ff19166001179055505050565b6001600160a01b038416612d515760405162461bcd60e51b815260206004820152602260248201527f5375706572546f6b656e3a206275726e2066726f6d207a65726f206164647265604482015261737360f01b6064820152608401610ac7565b612d6085856000868686613280565b612d6a8484613537565b836001600160a01b0316856001600160a01b03167fa78a9be3a7b862d26933ad85fb11d80ef66b8f972d7cbba06621d583943a4098858585604051612db193929190614953565b60405180910390a36040518381526000906001600160a01b03861690600080516020614b76833981519152906020016109db565b60008184841115612e095760405162461bcd60e51b8152600401610ac79190613b9d565b505050900390565b6001600160a01b038516612e675760405162461bcd60e51b815260206004820181905260248201527f5375706572546f6b656e3a206d696e7420746f207a65726f20616464726573736044820152606401610ac7565b612e71858561368b565b612e8186600087878686896133a7565b846001600160a01b0316866001600160a01b03167f2fe5be0146f74c5bce36c0b80911af6c7d86ff27e89d5cfa61fc681327954e5d868585604051612ec893929190614953565b60405180910390a36040518481526001600160a01b03861690600090600080516020614b76833981519152906020015b60405180910390a3505050505050565b336001600160a01b03821603612f735760405162461bcd60e51b815260206004820152602a60248201527f4552433737374f70657261746f72733a207265766f6b696e672073656c662061604482015269399037b832b930ba37b960b11b6064820152608401610ac7565b6001600160a01b038116600090815260018401602052604090205460ff1615612fcd576001600160a01b0380831660009081526003850160209081526040808320938516835292905220805460ff19166001179055505050565b6001600160a01b03918216600090815260029390930160209081526040808520929093168452529020805460ff19169055565b600e54600090819081906012600160a01b90910460ff16101561305f57600e5461303590600160a01b900460ff16601261497e565b61304090600a614a85565b905061304c8185614a94565b92506130588184614ab6565b91506130b6565b600e546012600160a01b90910460ff1611156130af57600e5461308e90601290600160a01b900460ff1661497e565b61309990600a614a85565b90506130a58185614ab6565b92508391506130b6565b8391508192505b50915091565b6040516001600160a01b03831660248201526044810182905261141690849063a9059cbb60e01b906064015b60408051601f198184030181529190526020810180516001600160e01b03166001600160e01b0319909316929092179091526136e5565b613132858561312d866123ff565b6137b7565b836001600160a01b0316856001600160a01b0316876001600160a01b03167f06b541ddaa720db2b10a4d0cdac39b8d360425fc073085fac19bc8261467798786868660405161318393929190614953565b60405180910390a4836001600160a01b0316856001600160a01b0316600080516020614b7683398151915285604051612ef891815260200190565b8154156131cd576131cd6145cc565b80516131df9083906020840190613a8e565b5060005b8151811015611416576001836001016000848481518110613206576132066147f2565b6020908102919091018101516001600160a01b03168252810191909152604001600020805460ff191691151591909117905561324181614836565b90506131e3565b6040516001600160a01b0380851660248301528316604482015260648101829052610e5f9085906323b872dd60e01b906084016130e8565b60405163555ddc6560e11b81526001600160a01b03861660048201527f29ddb589b1fb5fc7cf394961c1adf5f8c6454761adf795e67fe149f658abe8956024820152600090731820a4b7618bde71dce8cdc73aab6c95905fad249063aabbb8ca90604401602060405180830381865afa158015613301573d6000803e3d6000fd5b505050506040513d601f19601f820116820180604052508101906133259190614936565b90506001600160a01b038116156112d857604051633ad5cbc160e11b81526001600160a01b038216906375ab97829061336c908a908a908a908a908a908a90600401614ad5565b600060405180830381600087803b15801561338657600080fd5b505af115801561339a573d6000803e3d6000fd5b5050505050505050505050565b60405163555ddc6560e11b81526001600160a01b03861660048201527fb281fc8c12954d22544db45de3159a39272895b169a852b314f9cc762e44c53b6024820152600090731820a4b7618bde71dce8cdc73aab6c95905fad249063aabbb8ca90604401602060405180830381865afa158015613428573d6000803e3d6000fd5b505050506040513d601f19601f8201168201806040525081019061344c9190614936565b90506001600160a01b038116156134c8576040516223de2960e01b81526001600160a01b038216906223de2990613491908b908b908b908b908b908b90600401614ad5565b600060405180830381600087803b1580156134ab57600080fd5b505af11580156134bf573d6000803e3d6000fd5b50505050611559565b8115611559576001600160a01b0386163b156115595760405162461bcd60e51b815260206004820152602860248201527f5375706572546f6b656e3a206e6f7420616e20455243373737546f6b656e73526044820152671958da5c1a595b9d60c21b6064820152608401610ac7565b60006135bf837f00000000000000000000000000000000000000000000000000000000000000006001600160a01b031663bbe4fd506040518163ffffffff1660e01b8152600401602060405180830381865afa15801561359b573d6000803e3d6000fd5b505050506040513d601f19601f820116820180604052508101906108299190614695565b505090506135cc826123ff565b8112156136305760405162461bcd60e51b815260206004820152602c60248201527f5375706572666c756964546f6b656e3a206275726e20616d6f756e742065786360448201526b656564732062616c616e636560a01b6064820152608401610ac7565b613639826123ff565b6001600160a01b03841660009081526002602052604090205461365c9190614623565b6001600160a01b0384166000908152600260205260409020556003546136839083906147db565b600355505050565b613694816123ff565b6001600160a01b0383166000908152600260205260409020546136b791906145e2565b6001600160a01b0383166000908152600260205260409020556003546136de90829061473c565b6003555050565b600061373a826040518060400160405280602081526020017f5361666545524332303a206c6f772d6c6576656c2063616c6c206661696c6564815250856001600160a01b03166138fa9092919063ffffffff16565b80519091501561141657808060200190518101906137589190614536565b6114165760405162461bcd60e51b815260206004820152602a60248201527f5361666545524332303a204552433230206f7065726174696f6e20646964206e6044820152691bdd081cdd58d8d9595960b21b6064820152608401610ac7565b600061381b847f00000000000000000000000000000000000000000000000000000000000000006001600160a01b031663bbe4fd506040518163ffffffff1660e01b8152600401602060405180830381865afa15801561359b573d6000803e3d6000fd5b50509050818112156138845760405162461bcd60e51b815260206004820152602c60248201527f5375706572666c756964546f6b656e3a206d6f766520616d6f756e742065786360448201526b656564732062616c616e636560a01b6064820152608401610ac7565b6001600160a01b0384166000908152600260205260409020546138a8908390614623565b6001600160a01b0380861660009081526002602052604080822093909355908516815220546138d89083906145e2565b6001600160a01b03909316600090815260026020526040902092909255505050565b6060610e738484600085856001600160a01b0385163b61395c5760405162461bcd60e51b815260206004820152601d60248201527f416464726573733a2063616c6c20746f206e6f6e2d636f6e74726163740000006044820152606401610ac7565b600080866001600160a01b031685876040516139789190614b2f565b60006040518083038185875af1925050503d80600081146139b5576040519150601f19603f3d011682016040523d82523d6000602084013e6139ba565b606091505b50915091506139ca8282866139d5565b979650505050505050565b606083156139e4575081610e76565b8251156139f45782518084602001fd5b8160405162461bcd60e51b8152600401610ac79190613b9d565b828054613a1a906143e7565b90600052602060002090601f016020900481019282613a3c5760008555613a82565b82601f10613a555782800160ff19823516178555613a82565b82800160010185558215613a82579182015b82811115613a82578235825591602001919060010190613a67565b50612469929150613ae3565b828054828255906000526020600020908101928215613a82579160200282015b82811115613a8257825182546001600160a01b0319166001600160a01b03909116178255602090920191600190910190613aae565b5b808211156124695760008155600101613ae4565b6020808252825182820181905260009190848201906040850190845b81811015613b395783516001600160a01b031683529284019291840191600101613b14565b50909695505050505050565b60005b83811015613b60578181015183820152602001613b48565b83811115610e5f5750506000910152565b60008151808452613b89816020860160208601613b45565b601f01601f19169290920160200192915050565b602081526000610e766020830184613b71565b6001600160a01b0381168114610a2c57600080fd5b60008083601f840112613bd757600080fd5b5081356001600160401b03811115613bee57600080fd5b6020830191508360208260051b8501011115613c0957600080fd5b9250929050565b60008060008060608587031215613c2657600080fd5b8435613c3181613bb0565b93506020850135925060408501356001600160401b03811115613c5357600080fd5b613c5f87828801613bc5565b95989497509550505050565b60008060408385031215613c7e57600080fd5b8235613c8981613bb0565b946020939093013593505050565b600060208284031215613ca957600080fd5b5035919050565b600080600060408486031215613cc557600080fd5b8335925060208401356001600160401b03811115613ce257600080fd5b613cee86828701613bc5565b9497909650939450505050565b60008060008060808587031215613d1157600080fd5b8435613d1c81613bb0565b93506020850135613d2c81613bb0565b92506040850135613d3c81613bb0565b9396929550929360600135925050565b634e487b7160e01b600052604160045260246000fd5b604051601f8201601f191681016001600160401b0381118282101715613d8a57613d8a613d4c565b604052919050565b600082601f830112613da357600080fd5b81356001600160401b03811115613dbc57613dbc613d4c565b613dcf601f8201601f1916602001613d62565b818152846020838601011115613de457600080fd5b816020850160208301376000918101602001919091529392505050565b8015158114610a2c57600080fd5b600080600080600080600060e0888a031215613e2a57600080fd5b8735965060208801356001600160401b03811115613e4757600080fd5b613e538a828b01613d92565b9650506040880135613e6481613bb0565b94506060880135613e7481613e01565b93506080880135613e8481613bb0565b9699959850939692959460a0840135945060c09093013592915050565b600080600060608486031215613eb657600080fd5b8335613ec181613bb0565b92506020840135613ed181613bb0565b929592945050506040919091013590565b60008060408385031215613ef557600080fd5b50508035926020909101359150565b600060208284031215613f1657600080fd5b8135610e7681613bb0565b60006001600160401b03821115613f3a57613f3a613d4c565b5060051b60200190565b60006020808385031215613f5757600080fd5b82356001600160401b03811115613f6d57600080fd5b8301601f81018513613f7e57600080fd5b8035613f91613f8c82613f21565b613d62565b81815260059190911b82018301908381019087831115613fb057600080fd5b928401925b828410156139ca578335613fc881613bb0565b82529284019290840190613fb5565b60008083601f840112613fe957600080fd5b5081356001600160401b0381111561400057600080fd5b602083019150836020828501011115613c0957600080fd5b6000806000806000806080878903121561403157600080fd5b863561403c81613bb0565b9550602087013560ff8116811461405257600080fd5b945060408701356001600160401b038082111561406e57600080fd5b61407a8a838b01613fd7565b9096509450606089013591508082111561409357600080fd5b506140a089828a01613fd7565b979a9699509497509295939492505050565b600080600080608085870312156140c857600080fd5b84356140d381613bb0565b935060208501356140e381613bb0565b93969395505050506040820135916060013590565b6020808252825182820181905260009190848201906040850190845b81811015613b3957835183529284019291840191600101614114565b6000806000806060858703121561414657600080fd5b843561415181613bb0565b93506020850135925060408501356001600160401b0381111561417357600080fd5b613c5f87828801613fd7565b600080600080600080600060a0888a03121561419a57600080fd5b87356141a581613bb0565b965060208801356141b581613bb0565b95506040880135945060608801356001600160401b03808211156141d857600080fd5b6141e48b838c01613fd7565b909650945060808a01359150808211156141fd57600080fd5b5061420a8a828b01613fd7565b989b979a50959850939692959293505050565b60008060006060848603121561423257600080fd5b833561423d81613bb0565b95602085013595506040909401359392505050565b60008060006060848603121561426757600080fd5b833561427281613bb0565b92506020840135915060408401356001600160401b0381111561429457600080fd5b6142a086828701613d92565b9150509250925092565b600080600080608085870312156142c057600080fd5b84356142cb81613bb0565b93506020850135925060408501356001600160401b03808211156142ee57600080fd5b6142fa88838901613d92565b9350606087013591508082111561431057600080fd5b5061431d87828801613d92565b91505092959194509250565b6000806040838503121561433c57600080fd5b823561434781613bb0565b9150602083013561435781613bb0565b809150509250929050565b6000806000806000806080878903121561437b57600080fd5b863561438681613bb0565b95506020870135945060408701356001600160401b038082111561406e57600080fd5b6000806000604084860312156143be57600080fd5b8335925060208401356001600160401b038111156143db57600080fd5b613cee86828701613fd7565b600181811c908216806143fb57607f821691505b60208210810361441b57634e487b7160e01b600052602260045260246000fd5b50919050565b6080808252600e908201526d41677265656d656e74537461746560901b60a08201526001600160a01b039384166020820152919092166040820152606081019190915260c00190565b6060808252600d908201526c41677265656d656e744461746160981b60808201526001600160a01b03929092166020830152604082015260a00190565b838152604060208201819052810182905260006001600160fb1b038311156144ce57600080fd5b8260051b8085606085013760009201606001918252509392505050565b6020808252602b908201527f5375706572666c756964546f6b656e3a204f6e6c7920686f737420636f6e747260408201526a1858dd08185b1b1bddd95960aa1b606082015260800190565b60006020828403121561454857600080fd5b8151610e7681613e01565b60208082526027908201527f5375706572666c756964546f6b656e3a206f6e6c79206c6973746564206167726040820152661959595b595b9d60ca1b606082015260800190565b634e487b7160e01b600052601160045260246000fd5b6000600160ff1b82016145c5576145c561459a565b5060000390565b634e487b7160e01b600052600160045260246000fd5b600080821280156001600160ff1b03849003851316156146045761460461459a565b600160ff1b839003841281161561461d5761461d61459a565b50500190565b60008083128015600160ff1b8501841216156146415761464161459a565b6001600160ff1b038401831381161561465c5761465c61459a565b50500390565b85815260018060a01b038516602082015283604082015282606082015260a0608082015260006139ca60a0830184613b71565b6000602082840312156146a757600080fd5b5051919050565b600060208083850312156146c157600080fd5b82516001600160401b038111156146d757600080fd5b8301601f810185136146e857600080fd5b80516146f6613f8c82613f21565b81815260059190911b8201830190838101908783111561471557600080fd5b928401925b828410156139ca57835161472d81613bb0565b8252928401929084019061471a565b6000821982111561474f5761474f61459a565b500190565b6020808252601d908201527f5375706572546f6b656e3a206f6e6c792073656c6620616c6c6f776564000000604082015260600190565b60208082526030908201527f5375706572546f6b656e3a2063616c6c6572206973206e6f7420616e206f706560408201526f3930ba37b9103337b9103437b63232b960811b606082015260800190565b6000828210156147ed576147ed61459a565b500390565b634e487b7160e01b600052603260045260246000fd5b60008060006060848603121561481d57600080fd5b8351925060208401519150604084015190509250925092565b6000600182016148485761484861459a565b5060010190565b6020808252603a908201527f5375706572546f6b656e3a20696e666c6174696f6e6172792f6465666c61746960408201527f6f6e61727920746f6b656e73206e6f7420737570706f72746564000000000000606082015260800190565b60208082526026908201527f5375706572546f6b656e3a207472616e736665722066726f6d207a65726f206160408201526564647265737360d01b606082015260800190565b60208082526024908201527f5375706572546f6b656e3a207472616e7366657220746f207a65726f206164646040820152637265737360e01b606082015260800190565b60006020828403121561494857600080fd5b8151610e7681613bb0565b83815260606020820152600061496c6060830185613b71565b82810360408401526113d78185613b71565b600060ff821660ff8416808210156149985761499861459a565b90039392505050565b600181815b808511156149dc5781600019048211156149c2576149c261459a565b808516156149cf57918102915b93841c93908002906149a6565b509250929050565b6000826149f3575060016109fb565b81614a00575060006109fb565b8160018114614a165760028114614a2057614a3c565b60019150506109fb565b60ff841115614a3157614a3161459a565b50506001821b6109fb565b5060208310610133831016604e8410600b8410161715614a5f575081810a6109fb565b614a6983836149a1565b8060001904821115614a7d57614a7d61459a565b029392505050565b6000610e7660ff8416836149e4565b600082614ab157634e487b7160e01b600052601260045260246000fd5b500490565b6000816000190483118215151615614ad057614ad061459a565b500290565b6001600160a01b0387811682528681166020830152851660408201526060810184905260c060808201819052600090614b1090830185613b71565b82810360a0840152614b228185613b71565b9998505050505050505050565b60008251614b41818460208701613b45565b919091019291505056fe5375706572546f6b656e3a2064656372656173656420616c6c6f77616e63652062656c6f77207a65726fddf252ad1be2c89b69c2b068fc378daa952ba7f163c4a11628f55a4df523b3ef5375706572546f6b656e3a207472616e7366657220616d6f756e74206578636565647320616c6c6f77616e6365a26469706673582212209cc78af3778dccb014af3edc5b48b72c67a355625dec6ff9d336a9996d7d334064736f6c634300080e0033a26469706673582212207de189e661bc01abbad5f2c7fa2750e45a2a0836b4ac43fc51577f6dafe9ccf164736f6c634300080e0033",
  "immutableReferences": {},
  "source": "// SPDX-License-Identifier: AGPLv3\npragma solidity 0.8.14;\n\nimport { SuperTokenMock } from \"./SuperTokenMock.sol\";\nimport {\n    SuperTokenFactoryBase,\n    ISuperfluid\n} from \"../superfluid/SuperTokenFactory.sol\";\n\ncontract SuperTokenFactoryStorageLayoutTester is SuperTokenFactoryBase {\n\n    constructor(\n        ISuperfluid host\n    )\n        SuperTokenFactoryBase(host)\n        // solhint-disable-next-line no-empty-blocks\n    {\n    }\n\n    // @dev Make sure the storage layout never change over the course of the development\n    function validateStorageLayout() external pure {\n        uint256 slot;\n        uint256 offset;\n\n        // Initializable bool _initialized and bool _initialized\n\n        assembly { slot:= _superTokenLogic.slot offset := _superTokenLogic.offset }\n        require (slot == 0 && offset == 2, \"_superTokenLogic changed location\");\n    }\n\n    // dummy impl\n    function createSuperTokenLogic(ISuperfluid)\n        external pure override\n        returns (address)\n    {\n        return address(0);\n    }\n}\n\n// spliting this off because the contract is getting bigger\ncontract SuperTokenFactoryMockHelper {\n    function create(ISuperfluid host, uint256 waterMark)\n        external\n        returns (address logic)\n    {\n        SuperTokenMock superToken = new SuperTokenMock(host, waterMark);\n        return address(superToken);\n    }\n}\n\ncontract SuperTokenFactoryMock is SuperTokenFactoryBase\n{\n    SuperTokenFactoryMockHelper immutable private _helper;\n\n    constructor(\n        ISuperfluid host,\n        SuperTokenFactoryMockHelper helper\n    )\n        SuperTokenFactoryBase(host)\n    {\n        _helper = helper;\n    }\n\n    function createSuperTokenLogic(ISuperfluid host)\n        external override\n        returns (address logic)\n    {\n        return _helper.create(host, 0);\n    }\n\n}\n\ncontract SuperTokenFactoryMock42 is SuperTokenFactoryBase\n{\n\n    SuperTokenFactoryMockHelper immutable private _helper;\n\n    constructor(\n        ISuperfluid host,\n        SuperTokenFactoryMockHelper helper\n    )\n        SuperTokenFactoryBase(host)\n    {\n        _helper = helper;\n    }\n\n    function createSuperTokenLogic(ISuperfluid host)\n        external override\n        returns (address logic)\n    {\n        return _helper.create(host, 42);\n    }\n\n}\n",
  "sourcePath": "/Users/alo/protocol-monorepo/packages/ethereum-contracts/contracts/mocks/SuperTokenFactoryMock.sol",
  "compiler": {
    "name": "solc",
    "version": "0.8.14+commit.80d49f37.Emscripten.clang"
  },
  "schemaVersion": "3.4.8",
  "updatedAt": "2022-07-15T06:25:31.615Z",
  "devdoc": {
    "kind": "dev",
    "methods": {},
    "version": 1
  },
  "userdoc": {
    "kind": "user",
    "methods": {},
    "version": 1
  }
}