{
  "contractName": "SuperAppMock",
  "abi": [
    {
      "inputs": [
        {
          "internalType": "contract ISuperfluid",
          "name": "host",
          "type": "address"
        },
        {
          "internalType": "uint256",
          "name": "configWord",
          "type": "uint256"
        },
        {
          "internalType": "bool",
          "name": "doubleRegistration",
          "type": "bool"
        }
      ],
      "stateMutability": "nonpayable",
      "type": "constructor"
    },
    {
      "anonymous": false,
      "inputs": [
        {
          "indexed": false,
          "internalType": "uint8",
          "name": "appLevel",
          "type": "uint8"
        },
        {
          "indexed": false,
          "internalType": "uint8",
          "name": "callType",
          "type": "uint8"
        },
        {
          "indexed": false,
          "internalType": "bytes4",
          "name": "agreementSelector",
          "type": "bytes4"
        }
      ],
      "name": "NoopEvent",
      "type": "event"
    },
    {
      "inputs": [
        {
          "internalType": "uint256",
          "name": "configWord",
          "type": "uint256"
        }
      ],
      "name": "tryRegisterApp",
      "outputs": [],
      "stateMutability": "nonpayable",
      "type": "function"
    },
    {
      "inputs": [
        {
          "internalType": "contract ISuperApp",
          "name": "target",
          "type": "address"
        }
      ],
      "name": "allowCompositeApp",
      "outputs": [],
      "stateMutability": "nonpayable",
      "type": "function"
    },
    {
      "inputs": [
        {
          "internalType": "bytes",
          "name": "ctx",
          "type": "bytes"
        }
      ],
      "name": "actionNoop",
      "outputs": [
        {
          "internalType": "bytes",
          "name": "newCtx",
          "type": "bytes"
        }
      ],
      "stateMutability": "nonpayable",
      "type": "function"
    },
    {
      "inputs": [
        {
          "internalType": "address",
          "name": "expectedMsgSender",
          "type": "address"
        },
        {
          "internalType": "bytes",
          "name": "ctx",
          "type": "bytes"
        }
      ],
      "name": "actionExpectMsgSender",
      "outputs": [
        {
          "internalType": "bytes",
          "name": "newCtx",
          "type": "bytes"
        }
      ],
      "stateMutability": "nonpayable",
      "type": "function"
    },
    {
      "inputs": [
        {
          "internalType": "bytes",
          "name": "ctx",
          "type": "bytes"
        }
      ],
      "name": "actionAssert",
      "outputs": [],
      "stateMutability": "view",
      "type": "function"
    },
    {
      "inputs": [
        {
          "internalType": "bytes",
          "name": "ctx",
          "type": "bytes"
        }
      ],
      "name": "actionRevert",
      "outputs": [],
      "stateMutability": "view",
      "type": "function"
    },
    {
      "inputs": [
        {
          "internalType": "string",
          "name": "reason",
          "type": "string"
        },
        {
          "internalType": "bytes",
          "name": "ctx",
          "type": "bytes"
        }
      ],
      "name": "actionRevertWithReason",
      "outputs": [],
      "stateMutability": "view",
      "type": "function"
    },
    {
      "inputs": [
        {
          "internalType": "bytes",
          "name": "ctx",
          "type": "bytes"
        }
      ],
      "name": "actionCallAgreementWithoutCtx",
      "outputs": [],
      "stateMutability": "nonpayable",
      "type": "function"
    },
    {
      "inputs": [
        {
          "internalType": "bytes",
          "name": "ctx",
          "type": "bytes"
        }
      ],
      "name": "actionCallAppActionWithoutCtx",
      "outputs": [],
      "stateMutability": "nonpayable",
      "type": "function"
    },
    {
      "inputs": [
        {
          "internalType": "bytes",
          "name": "ctx",
          "type": "bytes"
        }
      ],
      "name": "actionAlteringCtx",
      "outputs": [
        {
          "internalType": "bytes",
          "name": "newCtx",
          "type": "bytes"
        }
      ],
      "stateMutability": "view",
      "type": "function"
    },
    {
      "inputs": [
        {
          "internalType": "bytes",
          "name": "ctx",
          "type": "bytes"
        }
      ],
      "name": "actionReturnEmptyCtx",
      "outputs": [],
      "stateMutability": "view",
      "type": "function"
    },
    {
      "inputs": [
        {
          "internalType": "contract AgreementMock",
          "name": "agreement",
          "type": "address"
        },
        {
          "internalType": "uint256",
          "name": "ping",
          "type": "uint256"
        },
        {
          "internalType": "bytes",
          "name": "ctx",
          "type": "bytes"
        }
      ],
      "name": "actionPingAgreementThroughAux",
      "outputs": [],
      "stateMutability": "nonpayable",
      "type": "function"
    },
    {
      "inputs": [
        {
          "internalType": "bytes",
          "name": "ctx",
          "type": "bytes"
        }
      ],
      "name": "actionCallActionNoopThroughAux",
      "outputs": [],
      "stateMutability": "nonpayable",
      "type": "function"
    },
    {
      "inputs": [
        {
          "internalType": "contract AgreementMock",
          "name": "agreement",
          "type": "address"
        },
        {
          "internalType": "uint256",
          "name": "ping",
          "type": "uint256"
        },
        {
          "internalType": "bytes",
          "name": "ctx",
          "type": "bytes"
        }
      ],
      "name": "actionPingAgreement",
      "outputs": [
        {
          "internalType": "bytes",
          "name": "newCtx",
          "type": "bytes"
        }
      ],
      "stateMutability": "nonpayable",
      "type": "function"
    },
    {
      "inputs": [
        {
          "internalType": "contract AgreementMock",
          "name": "agreement",
          "type": "address"
        },
        {
          "internalType": "string",
          "name": "reason",
          "type": "string"
        },
        {
          "internalType": "bytes",
          "name": "ctx",
          "type": "bytes"
        }
      ],
      "name": "actionAgreementRevert",
      "outputs": [
        {
          "internalType": "bytes",
          "name": "newCtx",
          "type": "bytes"
        }
      ],
      "stateMutability": "nonpayable",
      "type": "function"
    },
    {
      "inputs": [
        {
          "internalType": "bytes",
          "name": "ctx",
          "type": "bytes"
        }
      ],
      "name": "actionCallActionNoop",
      "outputs": [
        {
          "internalType": "bytes",
          "name": "newCtx",
          "type": "bytes"
        }
      ],
      "stateMutability": "nonpayable",
      "type": "function"
    },
    {
      "inputs": [
        {
          "internalType": "string",
          "name": "reason",
          "type": "string"
        },
        {
          "internalType": "bytes",
          "name": "ctx",
          "type": "bytes"
        }
      ],
      "name": "actionCallActionRevert",
      "outputs": [
        {
          "internalType": "bytes",
          "name": "newCtx",
          "type": "bytes"
        }
      ],
      "stateMutability": "nonpayable",
      "type": "function"
    },
    {
      "inputs": [
        {
          "internalType": "contract AgreementMock",
          "name": "agreement",
          "type": "address"
        },
        {
          "internalType": "bytes",
          "name": "ctx",
          "type": "bytes"
        }
      ],
      "name": "actionCallAgreementWithInvalidCtx",
      "outputs": [
        {
          "internalType": "bytes",
          "name": "newCtx",
          "type": "bytes"
        }
      ],
      "stateMutability": "nonpayable",
      "type": "function"
    },
    {
      "inputs": [
        {
          "internalType": "string",
          "name": "reason",
          "type": "string"
        },
        {
          "internalType": "bytes",
          "name": "ctx",
          "type": "bytes"
        }
      ],
      "name": "actionCallActionWithInvalidCtx",
      "outputs": [
        {
          "internalType": "bytes",
          "name": "newCtx",
          "type": "bytes"
        }
      ],
      "stateMutability": "nonpayable",
      "type": "function"
    },
    {
      "inputs": [
        {
          "internalType": "bytes",
          "name": "ctx",
          "type": "bytes"
        }
      ],
      "name": "actionCallBadAction",
      "outputs": [],
      "stateMutability": "nonpayable",
      "type": "function"
    },
    {
      "inputs": [
        {
          "internalType": "enum SuperAppMock.NextCallbackActionType",
          "name": "actionType",
          "type": "uint8"
        },
        {
          "internalType": "bytes",
          "name": "data",
          "type": "bytes"
        }
      ],
      "name": "setNextCallbackAction",
      "outputs": [],
      "stateMutability": "nonpayable",
      "type": "function"
    },
    {
      "inputs": [
        {
          "internalType": "contract ISuperToken",
          "name": "",
          "type": "address"
        },
        {
          "internalType": "address",
          "name": "",
          "type": "address"
        },
        {
          "internalType": "bytes32",
          "name": "",
          "type": "bytes32"
        },
        {
          "internalType": "bytes",
          "name": "",
          "type": "bytes"
        },
        {
          "internalType": "bytes",
          "name": "ctx",
          "type": "bytes"
        }
      ],
      "name": "beforeAgreementCreated",
      "outputs": [
        {
          "internalType": "bytes",
          "name": "",
          "type": "bytes"
        }
      ],
      "stateMutability": "view",
      "type": "function"
    },
    {
      "inputs": [
        {
          "internalType": "contract ISuperToken",
          "name": "",
          "type": "address"
        },
        {
          "internalType": "address",
          "name": "",
          "type": "address"
        },
        {
          "internalType": "bytes32",
          "name": "",
          "type": "bytes32"
        },
        {
          "internalType": "bytes",
          "name": "",
          "type": "bytes"
        },
        {
          "internalType": "bytes",
          "name": "",
          "type": "bytes"
        },
        {
          "internalType": "bytes",
          "name": "ctx",
          "type": "bytes"
        }
      ],
      "name": "afterAgreementCreated",
      "outputs": [
        {
          "internalType": "bytes",
          "name": "newCtx",
          "type": "bytes"
        }
      ],
      "stateMutability": "nonpayable",
      "type": "function"
    },
    {
      "inputs": [
        {
          "internalType": "contract ISuperToken",
          "name": "",
          "type": "address"
        },
        {
          "internalType": "address",
          "name": "",
          "type": "address"
        },
        {
          "internalType": "bytes32",
          "name": "",
          "type": "bytes32"
        },
        {
          "internalType": "bytes",
          "name": "",
          "type": "bytes"
        },
        {
          "internalType": "bytes",
          "name": "ctx",
          "type": "bytes"
        }
      ],
      "name": "beforeAgreementUpdated",
      "outputs": [
        {
          "internalType": "bytes",
          "name": "",
          "type": "bytes"
        }
      ],
      "stateMutability": "view",
      "type": "function"
    },
    {
      "inputs": [
        {
          "internalType": "contract ISuperToken",
          "name": "",
          "type": "address"
        },
        {
          "internalType": "address",
          "name": "",
          "type": "address"
        },
        {
          "internalType": "bytes32",
          "name": "",
          "type": "bytes32"
        },
        {
          "internalType": "bytes",
          "name": "",
          "type": "bytes"
        },
        {
          "internalType": "bytes",
          "name": "",
          "type": "bytes"
        },
        {
          "internalType": "bytes",
          "name": "ctx",
          "type": "bytes"
        }
      ],
      "name": "afterAgreementUpdated",
      "outputs": [
        {
          "internalType": "bytes",
          "name": "newCtx",
          "type": "bytes"
        }
      ],
      "stateMutability": "nonpayable",
      "type": "function"
    },
    {
      "inputs": [
        {
          "internalType": "contract ISuperToken",
          "name": "",
          "type": "address"
        },
        {
          "internalType": "address",
          "name": "",
          "type": "address"
        },
        {
          "internalType": "bytes32",
          "name": "",
          "type": "bytes32"
        },
        {
          "internalType": "bytes",
          "name": "",
          "type": "bytes"
        },
        {
          "internalType": "bytes",
          "name": "ctx",
          "type": "bytes"
        }
      ],
      "name": "beforeAgreementTerminated",
      "outputs": [
        {
          "internalType": "bytes",
          "name": "",
          "type": "bytes"
        }
      ],
      "stateMutability": "view",
      "type": "function"
    },
    {
      "inputs": [
        {
          "internalType": "contract ISuperToken",
          "name": "",
          "type": "address"
        },
        {
          "internalType": "address",
          "name": "",
          "type": "address"
        },
        {
          "internalType": "bytes32",
          "name": "",
          "type": "bytes32"
        },
        {
          "internalType": "bytes",
          "name": "",
          "type": "bytes"
        },
        {
          "internalType": "bytes",
          "name": "",
          "type": "bytes"
        },
        {
          "internalType": "bytes",
          "name": "ctx",
          "type": "bytes"
        }
      ],
      "name": "afterAgreementTerminated",
      "outputs": [
        {
          "internalType": "bytes",
          "name": "newCtx",
          "type": "bytes"
        }
      ],
      "stateMutability": "nonpayable",
      "type": "function"
    }
  ],
  "bytecode": "0x60806040523480156200001157600080fd5b506040516200322538038062003225833981016040819052620000349162000190565b600080546001600160a01b0319166001600160a01b03851690811782556040805163bd1c448b60e01b815260048101869052602481019190915260448101929092529063bd1c448b90606401600060405180830381600087803b1580156200009b57600080fd5b505af1158015620000b0573d6000803e3d6000fd5b5050505080156200012c57600080546040805163bd1c448b60e01b815260048101869052602481019190915260448101929092526001600160a01b03169063bd1c448b90606401600060405180830381600087803b1580156200011257600080fd5b505af115801562000127573d6000803e3d6000fd5b505050505b6040516200013a9062000182565b604051809103906000f08015801562000157573d6000803e3d6000fd5b50600180546001600160a01b0319166001600160a01b039290921691909117905550620001e7915050565b6106538062002bd283390190565b600080600060608486031215620001a657600080fd5b83516001600160a01b0381168114620001be57600080fd5b6020850151604086015191945092508015158114620001dc57600080fd5b809150509250925092565b6129db80620001f76000396000f3fe608060405234801561001057600080fd5b50600436106101a95760003560e01c8063602e48cd116100f9578063b88a248311610097578063d86ed3e511610071578063d86ed3e514610212578063e772ecc114610342578063ecdccfd914610355578063fe5f2b9b1461036857600080fd5b8063b88a248314610309578063b88bd14f1461031c578063bc90ea3c1461032f57600080fd5b80637a7675a0116100d35780637a7675a0146102d0578063884d1f401461023857806390d4b672146102e3578063a6b71066146102f657600080fd5b8063602e48cd146102975780636affc782146102aa578063772ce847146102bd57600080fd5b806330d9c9151161016657806353c11f991161014057806353c11f991461021257806357121e0c1461027157806358b0d33d146102845780635f9e7d771461023857600080fd5b806330d9c915146102385780633b790ac81461024b5780633fc3b0f71461025e57600080fd5b80630769a69b146101ae57806308c95b5d146101c35780630a00b52d146101d65780630bfe0f20146101e9578063230dbd291461021257806328fd0b4714610225575b600080fd5b6101c16101bc366004611f3f565b61037b565b005b6101c16101d1366004611f98565b61049b565b6101c16101e4366004611f3f565b610597565b6101fc6101f7366004611ff3565b6106f8565b604051610209919061209f565b60405180910390f35b6101fc6102203660046120b9565b610880565b6101c1610233366004612183565b610958565b6101fc61024636600461219c565b6109b3565b6101c1610259366004611f3f565b610a52565b6101fc61026c36600461223a565b610ad8565b6101c161027f366004612299565b610c51565b6101c1610292366004611f3f565b610c83565b6101fc6102a5366004611ff3565b610d7b565b6101fc6102b8366004611f3f565b610f21565b6101c16102cb3660046122b6565b610fcf565b6101c16102de366004611f3f565b610fff565b6101fc6102f13660046122da565b611085565b6101fc610304366004611f98565b6111f9565b6101c1610317366004611f3f565b61136c565b6101c161032a366004611f3f565b611430565b6101fc61033d366004611f3f565b6114be565b6101fc610350366004611f3f565b61161c565b6101fc61036336600461223a565b61179c565b6101c161037636600461223a565b6118ae565b604051632fd0a1cd60e21b815282908290339063bf428734906103a49085908590600401612385565b602060405180830381865afa1580156103c1573d6000803e3d6000fd5b505050506040513d601f19601f820116820180604052508101906103e591906123a1565b61040a5760405162461bcd60e51b8152600401610401906123c3565b60405180910390fd5b600080546040805183815260208101848152818301928390526339255d5b60e01b9092526001600160a01b03909216926339255d5b9261044d926044820161241c565b6000604051808303816000875af115801561046c573d6000803e3d6000fd5b505050506040513d6000823e601f3d908101601f191682016040526104949190810190612518565b5050505050565b604051632fd0a1cd60e21b815282908290339063bf428734906104c49085908590600401612385565b602060405180830381865afa1580156104e1573d6000803e3d6000fd5b505050506040513d601f19601f8201168201806040525081019061050591906123a1565b6105215760405162461bcd60e51b8152600401610401906123c3565b600154600054604051630a1bcfa560e11b81526001600160a01b03928316926314379f4a9261055d929116908a908a908a908a9060040161254c565b600060405180830381600087803b15801561057757600080fd5b505af115801561058b573d6000803e3d6000fd5b50505050505050505050565b604051632fd0a1cd60e21b815282908290339063bf428734906105c09085908590600401612385565b602060405180830381865afa1580156105dd573d6000803e3d6000fd5b505050506040513d601f19601f8201168201806040525081019061060191906123a1565b61061d5760405162461bcd60e51b8152600401610401906123c3565b60008054604080519283526020830190526001600160a01b03169063ba48b5f89030908190636affc78290610655906044810161209f565b60408051808303601f1901815291815260208201805160e094851b6001600160e01b03909116179052519185901b6001600160e01b03191682526106a29392509089908990600401612580565b6000604051808303816000875af11580156106c1573d6000803e3d6000fd5b505050506040513d6000823e601f3d908101601f191682016040526106e99190810190612518565b506106f26125b7565b50505050565b604051632fd0a1cd60e21b815260609083908390339063bf428734906107249085908590600401612385565b602060405180830381865afa158015610741573d6000803e3d6000fd5b505050506040513d601f19601f8201168201806040525081019061076591906123a1565b6107815760405162461bcd60e51b8152600401610401906123c3565b60008054604080519283526020830190526001600160a01b0390811691634329d29391899190821690638e6b2749906107c2903090602a90604481016125cd565b60408051601f19818403018152918152602080830180516001600160e01b031660e095861b1790528151600081529081018252602a8183015281518082038301815260608201928390529387901b6001600160e01b03191690915261082e9493509091606482016125f4565b6000604051808303816000875af115801561084d573d6000803e3d6000fd5b505050506040513d6000823e601f3d908101601f19168201604052610875919081019061263e565b509695505050505050565b604051632fd0a1cd60e21b815260609083908390339063bf428734906108ac9085908590600401612385565b602060405180830381865afa1580156108c9573d6000803e3d6000fd5b505050506040513d601f19601f820116820180604052508101906108ed91906123a1565b6109095760405162461bcd60e51b8152600401610401906123c3565b61094885858080601f01602080910402602001604051908101604052809392919081815260200183838082843760009201919091525061195092505050565b9c9b505050505050505050505050565b6000546040516315a722b960e31b8152600481018390526001600160a01b039091169063ad3915c8906024015b600060405180830381600087803b15801561099f57600080fd5b505af1158015610494573d6000803e3d6000fd5b604051632fd0a1cd60e21b815260609083908390339063bf428734906109df9085908590600401612385565b602060405180830381865afa1580156109fc573d6000803e3d6000fd5b505050506040513d601f19601f82011682018060405250810190610a2091906123a1565b610a3c5760405162461bcd60e51b8152600401610401906123c3565b610a44611ca6565b9a9950505050505050505050565b604051632fd0a1cd60e21b815282908290339063bf42873490610a7b9085908590600401612385565b602060405180830381865afa158015610a98573d6000803e3d6000fd5b505050506040513d601f19601f82011682018060405250810190610abc91906123a1565b6106f25760405162461bcd60e51b8152600401610401906123c3565b604051632fd0a1cd60e21b815260609083908390339063bf42873490610b049085908590600401612385565b602060405180830381865afa158015610b21573d6000803e3d6000fd5b505050506040513d601f19601f82011682018060405250810190610b4591906123a1565b610b615760405162461bcd60e51b8152600401610401906123c3565b60008054604080519283526020830190526001600160a01b03169063ba48b5f8903090819063fe5f2b9b90610b9d908d908d90604481016126a1565b60408051601f19818403018152918152602080830180516001600160e01b031660e095861b1790528151602a8183015282518082039092018252808301928390529387901b6001600160e01b031916909152610bff949350909160440161241c565b6000604051808303816000875af1158015610c1e573d6000803e3d6000fd5b505050506040513d6000823e601f3d908101601f19168201604052610c469190810190612518565b979650505050505050565b6000546040516315c4878360e21b81526001600160a01b038381166004830152909116906357121e0c90602401610985565b604051632fd0a1cd60e21b815282908290339063bf42873490610cac9085908590600401612385565b602060405180830381865afa158015610cc9573d6000803e3d6000fd5b505050506040513d601f19601f82011682018060405250810190610ced91906123a1565b610d095760405162461bcd60e51b8152600401610401906123c3565b60015460005460405163131e7b7560e21b81526001600160a01b0392831692634c79edd492610d43929116903090899089906004016126c7565b600060405180830381600087803b158015610d5d57600080fd5b505af1158015610d71573d6000803e3d6000fd5b5050505050505050565b604051632fd0a1cd60e21b815260609083908390339063bf42873490610da79085908590600401612385565b602060405180830381865afa158015610dc4573d6000803e3d6000fd5b505050506040513d601f19601f82011682018060405250810190610de891906123a1565b610e045760405162461bcd60e51b8152600401610401906123c3565b604051631fb6491d60e11b81526000903390633f6c923a90610e2c9089908990600401612385565b600060405180830381865afa158015610e49573d6000803e3d6000fd5b505050506040513d6000823e601f3d908101601f19168201604052610e71919081019061272d565b9050866001600160a01b031681606001516001600160a01b031614610e9857610e986125b7565b7f5d497a0f141d2596bd23602421f1cc06c3b9ad6c29b51997cf62ca3f84754e13816000015182602001518360800151604051610ed793929190612833565b60405180910390a185858080601f016020809104026020016040519081016040528093929190818152602001838380828437600092019190915250929a9950505050505050505050565b604051632fd0a1cd60e21b815260609083908390339063bf42873490610f4d9085908590600401612385565b602060405180830381865afa158015610f6a573d6000803e3d6000fd5b505050506040513d601f19601f82011682018060405250810190610f8e91906123a1565b610faa5760405162461bcd60e51b8152600401610401906123c3565b60408051602a6020820152016040516020818303038152906040529250505092915050565b6002805484919060ff19166001836006811115610fee57610fee61285a565b02179055506106f260038383611e67565b604051632fd0a1cd60e21b815282908290339063bf428734906110289085908590600401612385565b602060405180830381865afa158015611045573d6000803e3d6000fd5b505050506040513d601f19601f8201168201806040525081019061106991906123a1565b6101a95760405162461bcd60e51b8152600401610401906123c3565b604051632fd0a1cd60e21b815260609083908390339063bf428734906110b19085908590600401612385565b602060405180830381865afa1580156110ce573d6000803e3d6000fd5b505050506040513d601f19601f820116820180604052508101906110f291906123a1565b61110e5760405162461bcd60e51b8152600401610401906123c3565b60008054604080519283526020830190526001600160a01b0390811691634329d293918b919082169063edf02c4e9061114e908d908d90604481016126a1565b60408051601f19818403018152918152602080830180516001600160e01b031660e095861b179052815160008152908101918290529286901b6001600160e01b03191690526111a5939250908a8a60248301612870565b6000604051808303816000875af11580156111c4573d6000803e3d6000fd5b505050506040513d6000823e601f3d908101601f191682016040526111ec919081019061263e565b5098975050505050505050565b604051632fd0a1cd60e21b815260609083908390339063bf428734906112259085908590600401612385565b602060405180830381865afa158015611242573d6000803e3d6000fd5b505050506040513d601f19601f8201168201806040525081019061126691906123a1565b6112825760405162461bcd60e51b8152600401610401906123c3565b60008054604080519283526020830190526001600160a01b0390811691634329d293918a9190821690638e6b2749906112c29030908d90604481016125cd565b60408051601f19818403018152918152602080830180516001600160e01b031660e095861b179052815160008152908101918290529286901b6001600160e01b0319169052611319939250908a8a60248301612870565b6000604051808303816000875af1158015611338573d6000803e3d6000fd5b505050506040513d6000823e601f3d908101601f19168201604052611360919081019061263e565b50979650505050505050565b604051632fd0a1cd60e21b815282908290339063bf428734906113959085908590600401612385565b602060405180830381865afa1580156113b2573d6000803e3d6000fd5b505050506040513d601f19601f820116820180604052508101906113d691906123a1565b6113f25760405162461bcd60e51b8152600401610401906123c3565b60008054604080518381526020810191829052631e855cf360e01b9091526001600160a01b0390911691631e855cf39161044d9190602481016128c7565b604051632fd0a1cd60e21b815282908290339063bf428734906114599085908590600401612385565b602060405180830381865afa158015611476573d6000803e3d6000fd5b505050506040513d601f19601f8201168201806040525081019061149a91906123a1565b6114b65760405162461bcd60e51b8152600401610401906123c3565b6106f26125b7565b604051632fd0a1cd60e21b815260609083908390339063bf428734906114ea9085908590600401612385565b602060405180830381865afa158015611507573d6000803e3d6000fd5b505050506040513d601f19601f8201168201806040525081019061152b91906123a1565b6115475760405162461bcd60e51b8152600401610401906123c3565b60008054604080519283526020830190526001600160a01b03169063ba48b5f8903090819063e772ecc19061157f906044810161209f565b60408051808303601f1901815291815260208201805160e094851b6001600160e01b03909116179052519185901b6001600160e01b03191682526115cc939250908a908a90600401612580565b6000604051808303816000875af11580156115eb573d6000803e3d6000fd5b505050506040513d6000823e601f3d908101601f191682016040526116139190810190612518565b95945050505050565b604051632fd0a1cd60e21b815260609083908390339063bf428734906116489085908590600401612385565b602060405180830381865afa158015611665573d6000803e3d6000fd5b505050506040513d601f19601f8201168201806040525081019061168991906123a1565b6116a55760405162461bcd60e51b8152600401610401906123c3565b604051631fb6491d60e11b81526000903390633f6c923a906116cd9089908990600401612385565b600060405180830381865afa1580156116ea573d6000803e3d6000fd5b505050506040513d6000823e601f3d908101601f19168201604052611712919081019061272d565b90507f5d497a0f141d2596bd23602421f1cc06c3b9ad6c29b51997cf62ca3f84754e1381600001518260200151836080015160405161175393929190612833565b60405180910390a185858080601f016020809104026020016040519081016040528093929190818152602001838380828437600092019190915250929998505050505050505050565b604051632fd0a1cd60e21b815260609083908390339063bf428734906117c89085908590600401612385565b602060405180830381865afa1580156117e5573d6000803e3d6000fd5b505050506040513d601f19601f8201168201806040525081019061180991906123a1565b6118255760405162461bcd60e51b8152600401610401906123c3565b60008054604080519283526020830190526001600160a01b03169063ba48b5f8903090819063fe5f2b9b90611861908d908d90604481016126a1565b60408051808303601f1901815291815260208201805160e094851b6001600160e01b03909116179052519185901b6001600160e01b0319168252610bff939250908a908a90600401612580565b604051632fd0a1cd60e21b815282908290339063bf428734906118d79085908590600401612385565b602060405180830381865afa1580156118f4573d6000803e3d6000fd5b505050506040513d601f19601f8201168201806040525081019061191891906123a1565b6119345760405162461bcd60e51b8152600401610401906123c3565b858560405162461bcd60e51b8152600401610401929190612385565b604051631fb6491d60e11b81526060906000903390633f6c923a9061197990869060040161209f565b600060405180830381865afa158015611996573d6000803e3d6000fd5b505050506040513d6000823e601f3d908101601f191682016040526119be919081019061272d565b9050600060025460ff1660068111156119d9576119d961285a565b03611a2c577f5d497a0f141d2596bd23602421f1cc06c3b9ad6c29b51997cf62ca3f84754e13816000015182602001518360800151604051611a1d93929190612833565b60405180910390a15090919050565b600160025460ff166006811115611a4557611a4561285a565b03611a5757611a526125b7565b611ca0565b6002805460ff166006811115611a6f57611a6f61285a565b03611a7957600080fd5b600360025460ff166006811115611a9257611a9261285a565b03611b4e5760038054611aa4906128eb565b80601f0160208091040260200160405190810160405280929190818152602001828054611ad0906128eb565b8015611b1d5780601f10611af257610100808354040283529160200191611b1d565b820191906000526020600020905b815481529060010190602001808311611b0057829003601f168201915b5050505050806020019051810190611b35919061291f565b60405162461bcd60e51b8152600401610401919061209f565b600460025460ff166006811115611b6757611b6761285a565b03611ba157602a5b6040519080825280601f01601f191660200182016040528015611b99576020820181803683370190505b509392505050565b600560025460ff166006811115611bba57611bba61285a565b03611c7357600060026001018054611bd1906128eb565b80601f0160208091040260200160405190810160405280929190818152602001828054611bfd906128eb565b8015611c4a5780601f10611c1f57610100808354040283529160200191611c4a565b820191906000526020600020905b815481529060010190602001808311611c2d57829003601f168201915b5050505050806020019051810190611c629190612967565b9050611c6d81611e33565b50611ca0565b600660025460ff166006811115611c8c57611c8c61285a565b03611c98576000611b6f565b611ca06125b7565b50919050565b6060600060025460ff166006811115611cc157611cc161285a565b03611ce5575060408051808201909152600481526304e6f6f760e41b602082015290565b600160025460ff166006811115611cfe57611cfe61285a565b03611d0e57611d0b6125b7565b90565b6002805460ff166006811115611d2657611d2661285a565b03611d3057600080fd5b600360025460ff166006811115611d4957611d4961285a565b03611d5b5760038054611aa4906128eb565b600560025460ff166006811115611d7457611d7461285a565b03611e2b57600060026001018054611d8b906128eb565b80601f0160208091040260200160405190810160405280929190818152602001828054611db7906128eb565b8015611e045780601f10611dd957610100808354040283529160200191611e04565b820191906000526020600020905b815481529060010190602001808311611de757829003601f168201915b5050505050806020019051810190611e1c9190612967565b9050611e2781611e33565b5090565b611d0b6125b7565b60005a905060005a90505b611e4a6103e884612980565b611e548284612980565b1015611e62575a9050611e3e565b505050565b828054611e73906128eb565b90600052602060002090601f016020900481019282611e955760008555611edb565b82601f10611eae5782800160ff19823516178555611edb565b82800160010185558215611edb579182015b82811115611edb578235825591602001919060010190611ec0565b50611e279291505b80821115611e275760008155600101611ee3565b60008083601f840112611f0957600080fd5b5081356001600160401b03811115611f2057600080fd5b602083019150836020828501011115611f3857600080fd5b9250929050565b60008060208385031215611f5257600080fd5b82356001600160401b03811115611f6857600080fd5b611f7485828601611ef7565b90969095509350505050565b6001600160a01b0381168114611f9557600080fd5b50565b60008060008060608587031215611fae57600080fd5b8435611fb981611f80565b93506020850135925060408501356001600160401b03811115611fdb57600080fd5b611fe787828801611ef7565b95989497509550505050565b60008060006040848603121561200857600080fd5b833561201381611f80565b925060208401356001600160401b0381111561202e57600080fd5b61203a86828701611ef7565b9497909650939450505050565b60005b8381101561206257818101518382015260200161204a565b838111156106f25750506000910152565b6000815180845261208b816020860160208601612047565b601f01601f19169290920160200192915050565b6020815260006120b26020830184612073565b9392505050565b600080600080600080600080600060c08a8c0312156120d757600080fd5b89356120e281611f80565b985060208a01356120f281611f80565b975060408a0135965060608a01356001600160401b038082111561211557600080fd5b6121218d838e01611ef7565b909850965060808c013591508082111561213a57600080fd5b6121468d838e01611ef7565b909650945060a08c013591508082111561215f57600080fd5b5061216c8c828d01611ef7565b915080935050809150509295985092959850929598565b60006020828403121561219557600080fd5b5035919050565b600080600080600080600060a0888a0312156121b757600080fd5b87356121c281611f80565b965060208801356121d281611f80565b95506040880135945060608801356001600160401b03808211156121f557600080fd5b6122018b838c01611ef7565b909650945060808a013591508082111561221a57600080fd5b506122278a828b01611ef7565b989b979a50959850939692959293505050565b6000806000806040858703121561225057600080fd5b84356001600160401b038082111561226757600080fd5b61227388838901611ef7565b9096509450602087013591508082111561228c57600080fd5b50611fe787828801611ef7565b6000602082840312156122ab57600080fd5b81356120b281611f80565b6000806000604084860312156122cb57600080fd5b83356007811061201357600080fd5b6000806000806000606086880312156122f257600080fd5b85356122fd81611f80565b945060208601356001600160401b038082111561231957600080fd5b61232589838a01611ef7565b9096509450604088013591508082111561233e57600080fd5b5061234b88828901611ef7565b969995985093965092949392505050565b81835281816020850137506000828201602090810191909152601f909101601f19169091010190565b60208152600061239960208301848661235c565b949350505050565b6000602082840312156123b357600080fd5b815180151581146120b257600080fd5b60208082526023908201527f41677265656d656e744d6f636b3a20637478206e6f742076616c6964206265666040820152626f726560e81b606082015260800190565b634e487b7160e01b600052604160045260246000fd5b6001600160a01b038416815260606020820181905260009061244090830185612073565b82810360408401526124528185612073565b9695505050505050565b60405161016081016001600160401b038111828210171561247f5761247f612406565b60405290565b60006001600160401b038084111561249f5761249f612406565b604051601f8501601f19908116603f011681019082821181831017156124c7576124c7612406565b816040528093508581528686860111156124e057600080fd5b6124ee866020830187612047565b5050509392505050565b600082601f83011261250957600080fd5b6120b283835160208501612485565b60006020828403121561252a57600080fd5b81516001600160401b0381111561254057600080fd5b612399848285016124f8565b6001600160a01b0386811682528516602082015260408101849052608060608201819052600090610c46908301848661235c565b6001600160a01b03851681526060602082018190526000906125a490830186612073565b8281036040840152610c4681858761235c565b634e487b7160e01b600052600160045260246000fd5b60018060a01b03841681528260208201526060604082015260006116136060830184612073565b6001600160a01b038516815260806020820181905260009061261890830186612073565b828103604084015261262a8186612073565b90508281036060840152610c468185612073565b6000806040838503121561265157600080fd5b82516001600160401b038082111561266857600080fd5b612674868387016124f8565b9350602085015191508082111561268a57600080fd5b50612697858286016124f8565b9150509250929050565b6040815260006126b560408301858761235c565b82810360208401526124528185612073565b6001600160a01b03858116825284166020820152606060408201819052600090612452908301848661235c565b805160ff8116811461270557600080fd5b919050565b805161270581611f80565b80516001600160e01b03198116811461270557600080fd5b60006020828403121561273f57600080fd5b81516001600160401b038082111561275657600080fd5b90830190610160828603121561276b57600080fd5b61277361245c565b61277c836126f4565b815261278a602084016126f4565b6020820152604083015160408201526127a56060840161270a565b60608201526127b660808401612715565b608082015260a0830151828111156127cd57600080fd5b6127d9878286016124f8565b60a08301525060c083015160c082015260e083015160e082015261010091508183015182820152610120915061281082840161270a565b82820152610140915061282482840161270a565b91810191909152949350505050565b60ff93841681529190921660208201526001600160e01b0319909116604082015260600190565b634e487b7160e01b600052602160045260246000fd5b6001600160a01b038616815260806020820181905260009061289490830187612073565b82810360408401526128a68187612073565b905082810360608401526128bb81858761235c565b98975050505050505050565b6001600160a01b038316815260406020820181905260009061239990830184612073565b600181811c908216806128ff57607f821691505b602082108103611ca057634e487b7160e01b600052602260045260246000fd5b60006020828403121561293157600080fd5b81516001600160401b0381111561294757600080fd5b8201601f8101841361295857600080fd5b61239984825160208401612485565b60006020828403121561297957600080fd5b5051919050565b6000828210156129a057634e487b7160e01b600052601160045260246000fd5b50039056fea264697066735822122068a521196ba5676597aea5a5c0b2a4d271ba8c8ff1e367ea9addaab6e7ebf95464736f6c634300080e0033608060405234801561001057600080fd5b50610633806100206000396000f3fe608060405234801561001057600080fd5b50600436106100365760003560e01c806314379f4a1461003b5780634c79edd414610050575b600080fd5b61004e61004936600461027e565b610063565b005b61004e61005e3660046102f1565b610148565b6040805160008152602081019091526001600160a01b0386811691634329d29391879190821690638e6b2749906100a19030908a90604481016103c8565b60408051601f19818403018152918152602080830180516001600160e01b031660e095861b179052815160008152908101918290529286901b6001600160e01b03191690526100f893925090878760248301610421565b6000604051808303816000875af1158015610117573d6000803e3d6000fd5b505050506040513d6000823e601f3d908101601f1916820160405261013f9190810190610500565b50505050505050565b6040805160008152602081019091526001600160a01b038581169163ba48b5f89186919082169063e772ecc1906101829060448101610564565b60408051808303601f1901815291815260208201805160e094851b6001600160e01b03909116179052519185901b6001600160e01b03191682526101cf939250908790879060040161057e565b6000604051808303816000875af11580156101ee573d6000803e3d6000fd5b505050506040513d6000823e601f3d908101601f1916820160405261021691908101906105c0565b5050505050565b6001600160a01b038116811461023257600080fd5b50565b60008083601f84011261024757600080fd5b50813567ffffffffffffffff81111561025f57600080fd5b60208301915083602082850101111561027757600080fd5b9250929050565b60008060008060006080868803121561029657600080fd5b85356102a18161021d565b945060208601356102b18161021d565b935060408601359250606086013567ffffffffffffffff8111156102d457600080fd5b6102e088828901610235565b969995985093965092949392505050565b6000806000806060858703121561030757600080fd5b84356103128161021d565b935060208501356103228161021d565b9250604085013567ffffffffffffffff81111561033e57600080fd5b61034a87828801610235565b95989497509550505050565b634e487b7160e01b600052604160045260246000fd5b60005b8381101561038757818101518382015260200161036f565b83811115610396576000848401525b50505050565b600081518084526103b481602086016020860161036c565b601f01601f19169290920160200192915050565b60018060a01b03841681528260208201526060604082015260006103ef606083018461039c565b95945050505050565b81835281816020850137506000828201602090810191909152601f909101601f19169091010190565b6001600160a01b03861681526080602082018190526000906104459083018761039c565b8281036040840152610457818761039c565b9050828103606084015261046c8185876103f8565b98975050505050505050565b600082601f83011261048957600080fd5b815167ffffffffffffffff808211156104a4576104a4610356565b604051601f8301601f19908116603f011681019082821181831017156104cc576104cc610356565b816040528381528660208588010111156104e557600080fd5b6104f684602083016020890161036c565b9695505050505050565b6000806040838503121561051357600080fd5b825167ffffffffffffffff8082111561052b57600080fd5b61053786838701610478565b9350602085015191508082111561054d57600080fd5b5061055a85828601610478565b9150509250929050565b602081526000610577602083018461039c565b9392505050565b6001600160a01b03851681526060602082018190526000906105a29083018661039c565b82810360408401526105b58185876103f8565b979650505050505050565b6000602082840312156105d257600080fd5b815167ffffffffffffffff8111156105e957600080fd5b6105f584828501610478565b94935050505056fea26469706673582212202cea82d81f4d1e11e7a426fa9c0537dc20496f0bd6e49e45742e4ef468da76ef64736f6c634300080e0033",
  "immutableReferences": {},
  "source": "// SPDX-License-Identifier: AGPLv3\npragma solidity 0.8.14;\n\nimport {\n    ISuperfluid,\n    ISuperToken,\n    ISuperApp,\n    ISuperAgreement,\n    SuperAppDefinitions\n} from \"../superfluid/Superfluid.sol\";\nimport { AgreementMock } from \"./AgreementMock.sol\";\n\n\ncontract SuperAppMockAux {\n\n    function actionPingAgreement(ISuperfluid host, AgreementMock agreement, uint256 ping, bytes calldata ctx)\n        external\n    {\n        host.callAgreementWithContext(\n            agreement,\n            abi.encodeCall(\n                agreement.pingMe,\n                (\n                    address(this), // expectedMsgSender\n                    ping,\n                    new bytes(0)\n                )\n            ),\n            new bytes(0), // user data\n            ctx);\n    }\n\n    function actionCallActionNoop(ISuperfluid host, SuperAppMock app, bytes calldata ctx)\n        external\n    {\n        host.callAppActionWithContext(\n            app,\n            abi.encodeCall(\n                app.actionNoop,\n                (new bytes(0))\n            ),\n            ctx);\n    }\n}\n\n// The default SuperApp mock that does many tricks\ncontract SuperAppMock is ISuperApp {\n\n    ISuperfluid private _host;\n    SuperAppMockAux private _aux;\n\n    constructor(ISuperfluid host, uint256 configWord, bool doubleRegistration) {\n        _host = host;\n        _host.registerAppWithKey(configWord, \"\");\n        if (doubleRegistration) {\n            _host.registerAppWithKey(configWord, \"\");\n        }\n        _aux = new SuperAppMockAux();\n    }\n\n    function tryRegisterApp(uint256 configWord) external {\n        _host.registerApp(configWord);\n    }\n\n    function allowCompositeApp(ISuperApp target) external {\n        _host.allowCompositeApp(target);\n    }\n\n    /*************************************************************************\n    * Test App Actions\n    **************************************************************************/\n\n    event NoopEvent(\n        uint8 appLevel,\n        uint8 callType,\n        bytes4 agreementSelector);\n\n    function actionNoop(bytes calldata ctx) external requireValidCtx(ctx) returns (bytes memory newCtx) {\n        ISuperfluid.Context memory context = ISuperfluid(msg.sender).decodeCtx(ctx);\n        emit NoopEvent(\n            context.appLevel,\n            context.callType,\n            context.agreementSelector);\n        return ctx;\n    }\n\n    function actionExpectMsgSender(address expectedMsgSender, bytes calldata ctx)\n        external\n        requireValidCtx(ctx)\n        returns (bytes memory newCtx)\n    {\n        ISuperfluid.Context memory context = ISuperfluid(msg.sender).decodeCtx(ctx);\n        assert(context.msgSender == expectedMsgSender);\n        emit NoopEvent(\n            context.appLevel,\n            context.callType,\n            context.agreementSelector);\n        return ctx;\n    }\n\n    function actionAssert(bytes calldata ctx) external view requireValidCtx(ctx) {\n        assert(false);\n    }\n\n    function actionRevert(bytes calldata ctx) external view requireValidCtx(ctx) {\n        // solhint-disable-next-line reason-string\n        revert();\n    }\n\n    function actionRevertWithReason(string calldata reason, bytes calldata ctx) external view requireValidCtx(ctx) {\n        revert(reason);\n    }\n\n    function actionCallAgreementWithoutCtx(bytes calldata ctx) external requireValidCtx(ctx) {\n        // this should fail, action should call agreement with ctx\n        _host.callAgreement(ISuperAgreement(address(0)), new bytes(0), new bytes(0));\n    }\n\n    function actionCallAppActionWithoutCtx(bytes calldata ctx) external requireValidCtx(ctx) {\n        // this should fail, action should call agreement with ctx\n        _host.callAppAction(ISuperApp(address(0)), new bytes(0));\n    }\n\n    function actionAlteringCtx(bytes calldata ctx)\n        external view\n        requireValidCtx(ctx)\n        returns (bytes memory newCtx)\n    {\n        return abi.encode(42);\n    }\n\n    function actionReturnEmptyCtx(bytes calldata ctx)\n        external view\n        requireValidCtx(ctx)\n    // solhint-disable-next-line no-empty-blocks\n    {\n    }\n\n    function actionPingAgreementThroughAux(AgreementMock agreement, uint256 ping, bytes calldata ctx)\n        external\n        requireValidCtx(ctx)\n    {\n        // this should fail\n        _aux.actionPingAgreement(_host, agreement, ping, ctx);\n    }\n\n    function actionCallActionNoopThroughAux(bytes calldata ctx)\n        external\n        requireValidCtx(ctx)\n    {\n        // this should fail\n        _aux.actionCallActionNoop(_host, this, ctx);\n    }\n\n    function actionPingAgreement(AgreementMock agreement, uint256 ping, bytes calldata ctx)\n        external\n        requireValidCtx(ctx)\n        returns (bytes memory newCtx)\n    {\n        (newCtx, ) = _host.callAgreementWithContext(\n            agreement,\n            abi.encodeCall(\n                agreement.pingMe,\n                (\n                    address(this), // expectedMsgSender\n                    ping,\n                    new bytes(0)\n                )\n            ),\n            new bytes(0), // user data\n            ctx);\n    }\n\n    function actionAgreementRevert(AgreementMock agreement, string calldata reason, bytes calldata ctx)\n        external\n        requireValidCtx(ctx)\n        returns (bytes memory newCtx)\n    {\n        (newCtx, ) = _host.callAgreementWithContext(\n            agreement,\n            abi.encodeCall(\n                agreement.doRevert,\n                (\n                    reason,\n                    new bytes(0)\n                )\n            ),\n            new bytes(0), // user data\n            ctx);\n    }\n\n    function actionCallActionNoop(bytes calldata ctx)\n        external\n        requireValidCtx(ctx)\n        returns (bytes memory newCtx)\n    {\n        newCtx = _host.callAppActionWithContext(\n            this,\n            abi.encodeCall(\n                this.actionNoop,\n                (new bytes(0))\n            ),\n            ctx);\n    }\n\n    function actionCallActionRevert(string calldata reason, bytes calldata ctx)\n        external\n        requireValidCtx(ctx)\n        returns (bytes memory newCtx)\n    {\n        newCtx = _host.callAppActionWithContext(\n            this,\n            abi.encodeCall(\n                this.actionRevertWithReason,\n                (\n                    reason,\n                    new bytes(0)\n                )\n            ),\n            ctx);\n    }\n\n    function actionCallAgreementWithInvalidCtx(AgreementMock agreement, bytes calldata ctx)\n        external\n        requireValidCtx(ctx)\n        returns (bytes memory newCtx)\n    {\n        (newCtx, ) = _host.callAgreementWithContext(\n            agreement,\n            abi.encodeCall(\n                agreement.pingMe,\n                (\n                    address(this), // expectedMsgSender\n                    42,\n                    new bytes(0)\n                )\n            ),\n            new bytes(0), // user data\n            abi.encode(42));\n    }\n\n    function actionCallActionWithInvalidCtx(string calldata reason, bytes calldata ctx)\n        external\n        requireValidCtx(ctx)\n        returns (bytes memory newCtx)\n    {\n        newCtx = _host.callAppActionWithContext(\n            this,\n            abi.encodeCall(\n                this.actionRevertWithReason,\n                (\n                    reason,\n                    new bytes(0)\n                )\n            ),\n            abi.encode(42));\n    }\n\n    function actionCallBadAction(bytes calldata ctx)\n        external\n        requireValidCtx(ctx)\n    {\n        _host.callAppActionWithContext(\n            this,\n            abi.encodeCall(\n                this.actionAlteringCtx,\n                (new bytes(0))\n            ),\n            ctx);\n        assert(false);\n    }\n\n    /*************************************************************************\n    * Callbacks\n    **************************************************************************/\n\n    enum NextCallbackActionType {\n        Noop, // 0\n        Assert, // 1\n        Revert, // 2\n        RevertWithReason, // 3\n        AlteringCtx, // 4\n        BurnGas, // 5\n        ReturnEmptyCtx // 6\n    }\n\n    struct NextCallbackAction {\n        NextCallbackActionType actionType;\n        bytes data;\n    }\n\n    NextCallbackAction private _nextCallbackAction;\n\n    function setNextCallbackAction(\n        NextCallbackActionType actionType,\n        bytes calldata data)\n        external\n    {\n        _nextCallbackAction.actionType = actionType;\n        _nextCallbackAction.data = data;\n    }\n\n    function _executeBeforeCallbackAction()\n        private view\n        returns (bytes memory cbdata)\n    {\n        if (_nextCallbackAction.actionType == NextCallbackActionType.Noop) {\n            return \"Noop\";\n        } else if (_nextCallbackAction.actionType == NextCallbackActionType.Assert) {\n            assert(false);\n        } else if (_nextCallbackAction.actionType == NextCallbackActionType.Revert) {\n            // solhint-disable-next-line reason-string\n            revert();\n        } else if (_nextCallbackAction.actionType == NextCallbackActionType.RevertWithReason) {\n            revert(abi.decode(_nextCallbackAction.data, (string)));\n        } else if (_nextCallbackAction.actionType == NextCallbackActionType.BurnGas) {\n            uint256 gasToBurn = abi.decode(_nextCallbackAction.data, (uint256));\n            _burnGas(gasToBurn);\n        } else assert(false);\n    }\n\n    function _executeAfterCallbackAction(bytes memory ctx)\n        private\n        returns (bytes memory newCtx)\n    {\n        ISuperfluid.Context memory context = ISuperfluid(msg.sender).decodeCtx(ctx);\n        if (_nextCallbackAction.actionType == NextCallbackActionType.Noop) {\n            emit NoopEvent(\n                context.appLevel,\n                context.callType,\n                context.agreementSelector);\n            return ctx;\n        } else if (_nextCallbackAction.actionType == NextCallbackActionType.Assert) {\n            assert(false);\n        } else if (_nextCallbackAction.actionType == NextCallbackActionType.Revert) {\n            // solhint-disable-next-line reason-string\n            revert();\n        } else if (_nextCallbackAction.actionType == NextCallbackActionType.RevertWithReason) {\n            revert(abi.decode(_nextCallbackAction.data, (string)));\n        } else if (_nextCallbackAction.actionType == NextCallbackActionType.AlteringCtx) {\n            return new bytes(42);\n        } else if (_nextCallbackAction.actionType == NextCallbackActionType.BurnGas) {\n            uint256 gasToBurn = abi.decode(_nextCallbackAction.data, (uint256));\n            _burnGas(gasToBurn);\n        } else if (_nextCallbackAction.actionType == NextCallbackActionType.ReturnEmptyCtx) {\n            return new bytes(0);\n        } else assert(false);\n    }\n\n    function beforeAgreementCreated(\n        ISuperToken /*superToken*/,\n        address /*agreementClass*/,\n        bytes32 /*agreementId*/,\n        bytes calldata /*agreementData*/,\n        bytes calldata ctx\n    )\n        external view\n        requireValidCtx(ctx)\n        virtual override\n        returns (bytes memory /*cbdata*/)\n    {\n        return _executeBeforeCallbackAction();\n    }\n\n    function afterAgreementCreated(\n        ISuperToken /*superToken*/,\n        address /*agreementClass*/,\n        bytes32 /*agreementId*/,\n        bytes calldata /*agreementData*/,\n        bytes calldata /*cbdata*/,\n        bytes calldata ctx\n    )\n        external\n        requireValidCtx(ctx)\n        virtual override\n        returns (bytes memory newCtx)\n    {\n        return _executeAfterCallbackAction(ctx);\n    }\n\n    function beforeAgreementUpdated(\n        ISuperToken /*superToken*/,\n        address /*agreementClass*/,\n        bytes32 /*agreementId*/,\n        bytes calldata /*agreementData*/,\n        bytes calldata ctx\n    )\n        external view\n        requireValidCtx(ctx)\n        virtual override\n        returns (bytes memory /*cbdata*/)\n    {\n        return _executeBeforeCallbackAction();\n    }\n\n    function afterAgreementUpdated(\n        ISuperToken /*superToken*/,\n        address /*agreementClass*/,\n        bytes32 /*agreementId*/,\n        bytes calldata /*agreementData*/,\n        bytes calldata /*cbdata*/,\n        bytes calldata ctx\n    )\n        external\n        requireValidCtx(ctx)\n        virtual override\n        returns (bytes memory newCtx)\n    {\n        return _executeAfterCallbackAction(ctx);\n    }\n\n    function beforeAgreementTerminated(\n        ISuperToken /*superToken*/,\n        address /*agreementClass*/,\n        bytes32 /*agreementId*/,\n        bytes calldata /*agreementData*/,\n        bytes calldata ctx\n    )\n        external view\n        requireValidCtx(ctx)\n        virtual override\n        returns (bytes memory /*cbdata*/)\n    {\n        return _executeBeforeCallbackAction();\n    }\n\n    function afterAgreementTerminated(\n        ISuperToken /*superToken*/,\n        address /*agreementClass*/,\n        bytes32 /*agreementId*/,\n        bytes calldata /*agreementData*/,\n        bytes calldata /*cbdata*/,\n        bytes calldata ctx\n    )\n        external\n        requireValidCtx(ctx)\n        virtual override\n        returns (bytes memory newCtx)\n    {\n        return _executeAfterCallbackAction(ctx);\n    }\n\n    function _burnGas(uint256 gasToBurn) private view {\n        uint256 gasStart = gasleft();\n        uint256 gasNow = gasleft();\n        while ((gasStart - gasNow) < gasToBurn - 1000 /* some margin for other things*/) {\n            gasNow = gasleft();\n        }\n    }\n\n    modifier requireValidCtx(bytes calldata ctx) {\n        require(ISuperfluid(msg.sender).isCtxValid(ctx), \"AgreementMock: ctx not valid before\");\n        _;\n    }\n}\n\n// Bad super app! This one returns empty ctx\ncontract SuperAppMockReturningEmptyCtx {\n\n    ISuperfluid private _host;\n\n    constructor(ISuperfluid host) {\n        _host = host;\n        _host.registerAppWithKey(SuperAppDefinitions.APP_LEVEL_FINAL, \"\");\n    }\n\n    function beforeAgreementCreated(\n        ISuperToken /*superToken*/,\n        address /*agreementClass*/,\n        bytes32 /*agreementId*/,\n        bytes calldata /*agreementData*/,\n        bytes calldata /*ctx*/\n    )\n        external pure\n        // solhint-disable-next-line no-empty-blocks\n    {\n    }\n\n    function afterAgreementCreated(\n        ISuperToken /*superToken*/,\n        address /*agreementClass*/,\n        bytes32 /*agreementId*/,\n        bytes calldata /*agreementData*/,\n        bytes calldata /*cbdata*/,\n        bytes calldata /*ctx*/\n    )\n        external pure\n        // solhint-disable-next-line no-empty-blocks\n    {\n    }\n\n    function beforeAgreementTerminated(\n        ISuperToken /*superToken*/,\n        address /*agreementClass*/,\n        bytes32 /*agreementId*/,\n        bytes calldata /*agreementData*/,\n        bytes calldata /*ctx*/\n    )\n        external pure\n        // solhint-disable-next-line no-empty-blocks\n    {\n    }\n\n    function afterAgreementTerminated(\n        ISuperToken /*superToken*/,\n        address /*agreementClass*/,\n        bytes32 /*agreementId*/,\n        bytes calldata /*agreementData*/,\n        bytes calldata /*cbdata*/,\n        bytes calldata /*ctx*/\n    )\n        external pure\n        // solhint-disable-next-line no-empty-blocks\n    {\n    }\n}\n\n// Bad super app! This one returns invalid ctx\ncontract SuperAppMockReturningInvalidCtx {\n\n    ISuperfluid private _host;\n\n    constructor(ISuperfluid host) {\n        _host = host;\n        _host.registerAppWithKey(SuperAppDefinitions.APP_LEVEL_FINAL, \"\");\n    }\n\n    function afterAgreementCreated(\n        ISuperToken /*superToken*/,\n        address /*agreementClass*/,\n        bytes32 /*agreementId*/,\n        bytes calldata /*agreementData*/,\n        bytes calldata /*cbdata*/,\n        bytes calldata /*ctx*/\n    )\n        external pure\n        returns (uint256)\n    {\n        return 42;\n    }\n\n    function afterAgreementTerminated(\n        ISuperToken /*superToken*/,\n        address /*agreementClass*/,\n        bytes32 /*agreementId*/,\n        bytes calldata /*agreementData*/,\n        bytes calldata /*cbdata*/,\n        bytes calldata /*ctx*/\n    )\n        external pure\n        returns (uint256)\n    {\n        return 42;\n    }\n}\n\n// Bad super app! A second level app that calls other app\ncontract SuperAppMock2ndLevel {\n\n    ISuperfluid private _host;\n    SuperAppMock private _app;\n    AgreementMock private _agreement;\n\n    constructor(ISuperfluid host, SuperAppMock app, AgreementMock agreement) {\n        _host = host;\n        _host.registerAppWithKey(SuperAppDefinitions.APP_LEVEL_SECOND, \"\");\n        _app = app;\n        _agreement = agreement;\n    }\n\n    function allowCompositeApp() external {\n        _host.allowCompositeApp(_app);\n    }\n\n    function afterAgreementCreated(\n        ISuperToken /*superToken*/,\n        address /*agreementClass*/,\n        bytes32 /*agreementId*/,\n        bytes calldata /*agreementData*/,\n        bytes calldata /*cbdata*/,\n        bytes calldata ctx\n    )\n        external\n        returns (bytes memory newCtx)\n    {\n        (newCtx, ) = _host.callAgreementWithContext(\n            _agreement,\n            abi.encodeCall(\n                _agreement.callAppAfterAgreementCreatedCallback,\n                (\n                    _app,\n                    new bytes(0)\n                )\n            ),\n            new bytes(0), // user data\n            ctx);\n    }\n}\n\n// An Super App that uses registerAppWithKey\ncontract SuperAppMockWithRegistrationkey {\n    constructor(ISuperfluid host, uint256 configWord, string memory registrationKey) {\n        host.registerAppWithKey(configWord, registrationKey);\n    }\n}\n\n// An Super App that uses registerAppWithKey\ncontract SuperAppMockUsingDeprecatedRegisterApp {\n    constructor(ISuperfluid host, uint256 configWord) {\n        host.registerApp(configWord);\n    }\n}\n\n// minimal fake SuperApp contract\n// solhint-disable-next-line no-empty-blocks\ncontract SuperAppMockNotSelfRegistering { }\n\n// Factory which allows anybody to deploy arbitrary contracts as app (do NOT allow this in a real factory!)\ncontract SuperAppFactoryMock {\n    function registerAppWithHost(ISuperfluid host, ISuperApp app, uint256 configWord) external {\n        host.registerAppByFactory(app, configWord);\n    }\n}\n",
  "sourcePath": "/Users/alo/protocol-monorepo/packages/ethereum-contracts/contracts/mocks/SuperAppMocks.sol",
  "compiler": {
    "name": "solc",
    "version": "0.8.14+commit.80d49f37.Emscripten.clang"
  },
  "schemaVersion": "3.4.8",
  "updatedAt": "2022-07-15T06:25:31.556Z",
  "devdoc": {
    "kind": "dev",
    "methods": {},
    "version": 1
  },
  "userdoc": {
    "kind": "user",
    "methods": {},
    "version": 1
  }
}