{
  "contractName": "SuperTokenStorageLayoutTester",
  "abi": [
    {
      "inputs": [
        {
          "internalType": "contract ISuperfluid",
          "name": "host",
          "type": "address"
        }
      ],
      "stateMutability": "nonpayable",
      "type": "constructor"
    },
    {
      "anonymous": false,
      "inputs": [
        {
          "indexed": true,
          "internalType": "address",
          "name": "agreementClass",
          "type": "address"
        },
        {
          "indexed": false,
          "internalType": "bytes32",
          "name": "id",
          "type": "bytes32"
        },
        {
          "indexed": false,
          "internalType": "bytes32[]",
          "name": "data",
          "type": "bytes32[]"
        }
      ],
      "name": "AgreementCreated",
      "type": "event"
    },
    {
      "anonymous": false,
      "inputs": [
        {
          "indexed": true,
          "internalType": "address",
          "name": "agreementClass",
          "type": "address"
        },
        {
          "indexed": false,
          "internalType": "bytes32",
          "name": "id",
          "type": "bytes32"
        },
        {
          "indexed": true,
          "internalType": "address",
          "name": "penaltyAccount",
          "type": "address"
        },
        {
          "indexed": true,
          "internalType": "address",
          "name": "rewardAccount",
          "type": "address"
        },
        {
          "indexed": false,
          "internalType": "uint256",
          "name": "rewardAmount",
          "type": "uint256"
        }
      ],
      "name": "AgreementLiquidated",
      "type": "event"
    },
    {
      "anonymous": false,
      "inputs": [
        {
          "indexed": false,
          "internalType": "address",
          "name": "liquidatorAccount",
          "type": "address"
        },
        {
          "indexed": true,
          "internalType": "address",
          "name": "agreementClass",
          "type": "address"
        },
        {
          "indexed": false,
          "internalType": "bytes32",
          "name": "id",
          "type": "bytes32"
        },
        {
          "indexed": true,
          "internalType": "address",
          "name": "penaltyAccount",
          "type": "address"
        },
        {
          "indexed": true,
          "internalType": "address",
          "name": "bondAccount",
          "type": "address"
        },
        {
          "indexed": false,
          "internalType": "uint256",
          "name": "rewardAmount",
          "type": "uint256"
        },
        {
          "indexed": false,
          "internalType": "uint256",
          "name": "bailoutAmount",
          "type": "uint256"
        }
      ],
      "name": "AgreementLiquidatedBy",
      "type": "event"
    },
    {
      "anonymous": false,
      "inputs": [
        {
          "indexed": true,
          "internalType": "address",
          "name": "agreementClass",
          "type": "address"
        },
        {
          "indexed": false,
          "internalType": "bytes32",
          "name": "id",
          "type": "bytes32"
        },
        {
          "indexed": true,
          "internalType": "address",
          "name": "liquidatorAccount",
          "type": "address"
        },
        {
          "indexed": true,
          "internalType": "address",
          "name": "targetAccount",
          "type": "address"
        },
        {
          "indexed": false,
          "internalType": "address",
          "name": "rewardAmountReceiver",
          "type": "address"
        },
        {
          "indexed": false,
          "internalType": "uint256",
          "name": "rewardAmount",
          "type": "uint256"
        },
        {
          "indexed": false,
          "internalType": "int256",
          "name": "targetAccountBalanceDelta",
          "type": "int256"
        },
        {
          "indexed": false,
          "internalType": "bytes",
          "name": "liquidationTypeData",
          "type": "bytes"
        }
      ],
      "name": "AgreementLiquidatedV2",
      "type": "event"
    },
    {
      "anonymous": false,
      "inputs": [
        {
          "indexed": true,
          "internalType": "address",
          "name": "agreementClass",
          "type": "address"
        },
        {
          "indexed": true,
          "internalType": "address",
          "name": "account",
          "type": "address"
        },
        {
          "indexed": false,
          "internalType": "uint256",
          "name": "slotId",
          "type": "uint256"
        }
      ],
      "name": "AgreementStateUpdated",
      "type": "event"
    },
    {
      "anonymous": false,
      "inputs": [
        {
          "indexed": true,
          "internalType": "address",
          "name": "agreementClass",
          "type": "address"
        },
        {
          "indexed": false,
          "internalType": "bytes32",
          "name": "id",
          "type": "bytes32"
        }
      ],
      "name": "AgreementTerminated",
      "type": "event"
    },
    {
      "anonymous": false,
      "inputs": [
        {
          "indexed": true,
          "internalType": "address",
          "name": "agreementClass",
          "type": "address"
        },
        {
          "indexed": false,
          "internalType": "bytes32",
          "name": "id",
          "type": "bytes32"
        },
        {
          "indexed": false,
          "internalType": "bytes32[]",
          "name": "data",
          "type": "bytes32[]"
        }
      ],
      "name": "AgreementUpdated",
      "type": "event"
    },
    {
      "anonymous": false,
      "inputs": [
        {
          "indexed": true,
          "internalType": "address",
          "name": "owner",
          "type": "address"
        },
        {
          "indexed": true,
          "internalType": "address",
          "name": "spender",
          "type": "address"
        },
        {
          "indexed": false,
          "internalType": "uint256",
          "name": "value",
          "type": "uint256"
        }
      ],
      "name": "Approval",
      "type": "event"
    },
    {
      "anonymous": false,
      "inputs": [
        {
          "indexed": true,
          "internalType": "address",
          "name": "operator",
          "type": "address"
        },
        {
          "indexed": true,
          "internalType": "address",
          "name": "tokenHolder",
          "type": "address"
        }
      ],
      "name": "AuthorizedOperator",
      "type": "event"
    },
    {
      "anonymous": false,
      "inputs": [
        {
          "indexed": true,
          "internalType": "address",
          "name": "bailoutAccount",
          "type": "address"
        },
        {
          "indexed": false,
          "internalType": "uint256",
          "name": "bailoutAmount",
          "type": "uint256"
        }
      ],
      "name": "Bailout",
      "type": "event"
    },
    {
      "anonymous": false,
      "inputs": [
        {
          "indexed": true,
          "internalType": "address",
          "name": "operator",
          "type": "address"
        },
        {
          "indexed": true,
          "internalType": "address",
          "name": "from",
          "type": "address"
        },
        {
          "indexed": false,
          "internalType": "uint256",
          "name": "amount",
          "type": "uint256"
        },
        {
          "indexed": false,
          "internalType": "bytes",
          "name": "data",
          "type": "bytes"
        },
        {
          "indexed": false,
          "internalType": "bytes",
          "name": "operatorData",
          "type": "bytes"
        }
      ],
      "name": "Burned",
      "type": "event"
    },
    {
      "anonymous": false,
      "inputs": [
        {
          "indexed": false,
          "internalType": "bytes32",
          "name": "uuid",
          "type": "bytes32"
        },
        {
          "indexed": false,
          "internalType": "address",
          "name": "codeAddress",
          "type": "address"
        }
      ],
      "name": "CodeUpdated",
      "type": "event"
    },
    {
      "anonymous": false,
      "inputs": [
        {
          "indexed": false,
          "internalType": "uint8",
          "name": "version",
          "type": "uint8"
        }
      ],
      "name": "Initialized",
      "type": "event"
    },
    {
      "anonymous": false,
      "inputs": [
        {
          "indexed": true,
          "internalType": "address",
          "name": "operator",
          "type": "address"
        },
        {
          "indexed": true,
          "internalType": "address",
          "name": "to",
          "type": "address"
        },
        {
          "indexed": false,
          "internalType": "uint256",
          "name": "amount",
          "type": "uint256"
        },
        {
          "indexed": false,
          "internalType": "bytes",
          "name": "data",
          "type": "bytes"
        },
        {
          "indexed": false,
          "internalType": "bytes",
          "name": "operatorData",
          "type": "bytes"
        }
      ],
      "name": "Minted",
      "type": "event"
    },
    {
      "anonymous": false,
      "inputs": [
        {
          "indexed": true,
          "internalType": "address",
          "name": "operator",
          "type": "address"
        },
        {
          "indexed": true,
          "internalType": "address",
          "name": "tokenHolder",
          "type": "address"
        }
      ],
      "name": "RevokedOperator",
      "type": "event"
    },
    {
      "anonymous": false,
      "inputs": [
        {
          "indexed": true,
          "internalType": "address",
          "name": "operator",
          "type": "address"
        },
        {
          "indexed": true,
          "internalType": "address",
          "name": "from",
          "type": "address"
        },
        {
          "indexed": true,
          "internalType": "address",
          "name": "to",
          "type": "address"
        },
        {
          "indexed": false,
          "internalType": "uint256",
          "name": "amount",
          "type": "uint256"
        },
        {
          "indexed": false,
          "internalType": "bytes",
          "name": "data",
          "type": "bytes"
        },
        {
          "indexed": false,
          "internalType": "bytes",
          "name": "operatorData",
          "type": "bytes"
        }
      ],
      "name": "Sent",
      "type": "event"
    },
    {
      "anonymous": false,
      "inputs": [
        {
          "indexed": true,
          "internalType": "address",
          "name": "account",
          "type": "address"
        },
        {
          "indexed": false,
          "internalType": "uint256",
          "name": "amount",
          "type": "uint256"
        }
      ],
      "name": "TokenDowngraded",
      "type": "event"
    },
    {
      "anonymous": false,
      "inputs": [
        {
          "indexed": true,
          "internalType": "address",
          "name": "account",
          "type": "address"
        },
        {
          "indexed": false,
          "internalType": "uint256",
          "name": "amount",
          "type": "uint256"
        }
      ],
      "name": "TokenUpgraded",
      "type": "event"
    },
    {
      "anonymous": false,
      "inputs": [
        {
          "indexed": true,
          "internalType": "address",
          "name": "from",
          "type": "address"
        },
        {
          "indexed": true,
          "internalType": "address",
          "name": "to",
          "type": "address"
        },
        {
          "indexed": false,
          "internalType": "uint256",
          "name": "value",
          "type": "uint256"
        }
      ],
      "name": "Transfer",
      "type": "event"
    },
    {
      "inputs": [
        {
          "internalType": "address",
          "name": "account",
          "type": "address"
        },
        {
          "internalType": "address",
          "name": "spender",
          "type": "address"
        }
      ],
      "name": "allowance",
      "outputs": [
        {
          "internalType": "uint256",
          "name": "",
          "type": "uint256"
        }
      ],
      "stateMutability": "view",
      "type": "function"
    },
    {
      "inputs": [
        {
          "internalType": "address",
          "name": "spender",
          "type": "address"
        },
        {
          "internalType": "uint256",
          "name": "amount",
          "type": "uint256"
        }
      ],
      "name": "approve",
      "outputs": [
        {
          "internalType": "bool",
          "name": "",
          "type": "bool"
        }
      ],
      "stateMutability": "nonpayable",
      "type": "function"
    },
    {
      "inputs": [
        {
          "internalType": "address",
          "name": "operator",
          "type": "address"
        }
      ],
      "name": "authorizeOperator",
      "outputs": [],
      "stateMutability": "nonpayable",
      "type": "function"
    },
    {
      "inputs": [
        {
          "internalType": "address",
          "name": "account",
          "type": "address"
        }
      ],
      "name": "balanceOf",
      "outputs": [
        {
          "internalType": "uint256",
          "name": "balance",
          "type": "uint256"
        }
      ],
      "stateMutability": "view",
      "type": "function"
    },
    {
      "inputs": [
        {
          "internalType": "uint256",
          "name": "amount",
          "type": "uint256"
        },
        {
          "internalType": "bytes",
          "name": "data",
          "type": "bytes"
        }
      ],
      "name": "burn",
      "outputs": [],
      "stateMutability": "nonpayable",
      "type": "function"
    },
    {
      "inputs": [
        {
          "internalType": "bytes32",
          "name": "id",
          "type": "bytes32"
        },
        {
          "internalType": "bytes32[]",
          "name": "data",
          "type": "bytes32[]"
        }
      ],
      "name": "createAgreement",
      "outputs": [],
      "stateMutability": "nonpayable",
      "type": "function"
    },
    {
      "inputs": [],
      "name": "decimals",
      "outputs": [
        {
          "internalType": "uint8",
          "name": "",
          "type": "uint8"
        }
      ],
      "stateMutability": "pure",
      "type": "function"
    },
    {
      "inputs": [
        {
          "internalType": "address",
          "name": "spender",
          "type": "address"
        },
        {
          "internalType": "uint256",
          "name": "subtractedValue",
          "type": "uint256"
        }
      ],
      "name": "decreaseAllowance",
      "outputs": [
        {
          "internalType": "bool",
          "name": "",
          "type": "bool"
        }
      ],
      "stateMutability": "nonpayable",
      "type": "function"
    },
    {
      "inputs": [],
      "name": "defaultOperators",
      "outputs": [
        {
          "internalType": "address[]",
          "name": "",
          "type": "address[]"
        }
      ],
      "stateMutability": "view",
      "type": "function"
    },
    {
      "inputs": [
        {
          "internalType": "uint256",
          "name": "amount",
          "type": "uint256"
        }
      ],
      "name": "downgrade",
      "outputs": [],
      "stateMutability": "nonpayable",
      "type": "function"
    },
    {
      "inputs": [
        {
          "internalType": "address",
          "name": "account",
          "type": "address"
        }
      ],
      "name": "getAccountActiveAgreements",
      "outputs": [
        {
          "internalType": "contract ISuperAgreement[]",
          "name": "",
          "type": "address[]"
        }
      ],
      "stateMutability": "view",
      "type": "function"
    },
    {
      "inputs": [
        {
          "internalType": "address",
          "name": "agreementClass",
          "type": "address"
        },
        {
          "internalType": "bytes32",
          "name": "id",
          "type": "bytes32"
        },
        {
          "internalType": "uint256",
          "name": "dataLength",
          "type": "uint256"
        }
      ],
      "name": "getAgreementData",
      "outputs": [
        {
          "internalType": "bytes32[]",
          "name": "data",
          "type": "bytes32[]"
        }
      ],
      "stateMutability": "view",
      "type": "function"
    },
    {
      "inputs": [
        {
          "internalType": "address",
          "name": "agreementClass",
          "type": "address"
        },
        {
          "internalType": "address",
          "name": "account",
          "type": "address"
        },
        {
          "internalType": "uint256",
          "name": "slotId",
          "type": "uint256"
        },
        {
          "internalType": "uint256",
          "name": "dataLength",
          "type": "uint256"
        }
      ],
      "name": "getAgreementStateSlot",
      "outputs": [
        {
          "internalType": "bytes32[]",
          "name": "slotData",
          "type": "bytes32[]"
        }
      ],
      "stateMutability": "view",
      "type": "function"
    },
    {
      "inputs": [],
      "name": "getCodeAddress",
      "outputs": [
        {
          "internalType": "address",
          "name": "codeAddress",
          "type": "address"
        }
      ],
      "stateMutability": "view",
      "type": "function"
    },
    {
      "inputs": [],
      "name": "getHost",
      "outputs": [
        {
          "internalType": "address",
          "name": "host",
          "type": "address"
        }
      ],
      "stateMutability": "view",
      "type": "function"
    },
    {
      "inputs": [],
      "name": "getUnderlyingToken",
      "outputs": [
        {
          "internalType": "address",
          "name": "",
          "type": "address"
        }
      ],
      "stateMutability": "view",
      "type": "function"
    },
    {
      "inputs": [],
      "name": "granularity",
      "outputs": [
        {
          "internalType": "uint256",
          "name": "",
          "type": "uint256"
        }
      ],
      "stateMutability": "pure",
      "type": "function"
    },
    {
      "inputs": [
        {
          "internalType": "address",
          "name": "spender",
          "type": "address"
        },
        {
          "internalType": "uint256",
          "name": "addedValue",
          "type": "uint256"
        }
      ],
      "name": "increaseAllowance",
      "outputs": [
        {
          "internalType": "bool",
          "name": "",
          "type": "bool"
        }
      ],
      "stateMutability": "nonpayable",
      "type": "function"
    },
    {
      "inputs": [
        {
          "internalType": "contract IERC20",
          "name": "underlyingToken",
          "type": "address"
        },
        {
          "internalType": "uint8",
          "name": "underlyingDecimals",
          "type": "uint8"
        },
        {
          "internalType": "string",
          "name": "n",
          "type": "string"
        },
        {
          "internalType": "string",
          "name": "s",
          "type": "string"
        }
      ],
      "name": "initialize",
      "outputs": [],
      "stateMutability": "nonpayable",
      "type": "function"
    },
    {
      "inputs": [
        {
          "internalType": "address",
          "name": "account",
          "type": "address"
        },
        {
          "internalType": "uint256",
          "name": "timestamp",
          "type": "uint256"
        }
      ],
      "name": "isAccountCritical",
      "outputs": [
        {
          "internalType": "bool",
          "name": "isCritical",
          "type": "bool"
        }
      ],
      "stateMutability": "view",
      "type": "function"
    },
    {
      "inputs": [
        {
          "internalType": "address",
          "name": "account",
          "type": "address"
        }
      ],
      "name": "isAccountCriticalNow",
      "outputs": [
        {
          "internalType": "bool",
          "name": "isCritical",
          "type": "bool"
        }
      ],
      "stateMutability": "view",
      "type": "function"
    },
    {
      "inputs": [
        {
          "internalType": "address",
          "name": "account",
          "type": "address"
        },
        {
          "internalType": "uint256",
          "name": "timestamp",
          "type": "uint256"
        }
      ],
      "name": "isAccountSolvent",
      "outputs": [
        {
          "internalType": "bool",
          "name": "isSolvent",
          "type": "bool"
        }
      ],
      "stateMutability": "view",
      "type": "function"
    },
    {
      "inputs": [
        {
          "internalType": "address",
          "name": "account",
          "type": "address"
        }
      ],
      "name": "isAccountSolventNow",
      "outputs": [
        {
          "internalType": "bool",
          "name": "isSolvent",
          "type": "bool"
        }
      ],
      "stateMutability": "view",
      "type": "function"
    },
    {
      "inputs": [
        {
          "internalType": "address",
          "name": "operator",
          "type": "address"
        },
        {
          "internalType": "address",
          "name": "tokenHolder",
          "type": "address"
        }
      ],
      "name": "isOperatorFor",
      "outputs": [
        {
          "internalType": "bool",
          "name": "",
          "type": "bool"
        }
      ],
      "stateMutability": "view",
      "type": "function"
    },
    {
      "inputs": [
        {
          "internalType": "bytes32",
          "name": "id",
          "type": "bytes32"
        },
        {
          "internalType": "bytes",
          "name": "liquidationTypeData",
          "type": "bytes"
        },
        {
          "internalType": "address",
          "name": "liquidatorAccount",
          "type": "address"
        },
        {
          "internalType": "bool",
          "name": "useDefaultRewardAccount",
          "type": "bool"
        },
        {
          "internalType": "address",
          "name": "targetAccount",
          "type": "address"
        },
        {
          "internalType": "uint256",
          "name": "rewardAmount",
          "type": "uint256"
        },
        {
          "internalType": "int256",
          "name": "targetAccountBalanceDelta",
          "type": "int256"
        }
      ],
      "name": "makeLiquidationPayoutsV2",
      "outputs": [],
      "stateMutability": "nonpayable",
      "type": "function"
    },
    {
      "inputs": [],
      "name": "name",
      "outputs": [
        {
          "internalType": "string",
          "name": "",
          "type": "string"
        }
      ],
      "stateMutability": "view",
      "type": "function"
    },
    {
      "inputs": [
        {
          "internalType": "address",
          "name": "account",
          "type": "address"
        },
        {
          "internalType": "address",
          "name": "spender",
          "type": "address"
        },
        {
          "internalType": "uint256",
          "name": "amount",
          "type": "uint256"
        }
      ],
      "name": "operationApprove",
      "outputs": [],
      "stateMutability": "nonpayable",
      "type": "function"
    },
    {
      "inputs": [
        {
          "internalType": "address",
          "name": "account",
          "type": "address"
        },
        {
          "internalType": "uint256",
          "name": "amount",
          "type": "uint256"
        }
      ],
      "name": "operationDowngrade",
      "outputs": [],
      "stateMutability": "nonpayable",
      "type": "function"
    },
    {
      "inputs": [
        {
          "internalType": "address",
          "name": "account",
          "type": "address"
        },
        {
          "internalType": "address",
          "name": "spender",
          "type": "address"
        },
        {
          "internalType": "address",
          "name": "recipient",
          "type": "address"
        },
        {
          "internalType": "uint256",
          "name": "amount",
          "type": "uint256"
        }
      ],
      "name": "operationTransferFrom",
      "outputs": [],
      "stateMutability": "nonpayable",
      "type": "function"
    },
    {
      "inputs": [
        {
          "internalType": "address",
          "name": "account",
          "type": "address"
        },
        {
          "internalType": "uint256",
          "name": "amount",
          "type": "uint256"
        }
      ],
      "name": "operationUpgrade",
      "outputs": [],
      "stateMutability": "nonpayable",
      "type": "function"
    },
    {
      "inputs": [
        {
          "internalType": "address",
          "name": "account",
          "type": "address"
        },
        {
          "internalType": "uint256",
          "name": "amount",
          "type": "uint256"
        },
        {
          "internalType": "bytes",
          "name": "data",
          "type": "bytes"
        },
        {
          "internalType": "bytes",
          "name": "operatorData",
          "type": "bytes"
        }
      ],
      "name": "operatorBurn",
      "outputs": [],
      "stateMutability": "nonpayable",
      "type": "function"
    },
    {
      "inputs": [
        {
          "internalType": "address",
          "name": "sender",
          "type": "address"
        },
        {
          "internalType": "address",
          "name": "recipient",
          "type": "address"
        },
        {
          "internalType": "uint256",
          "name": "amount",
          "type": "uint256"
        },
        {
          "internalType": "bytes",
          "name": "data",
          "type": "bytes"
        },
        {
          "internalType": "bytes",
          "name": "operatorData",
          "type": "bytes"
        }
      ],
      "name": "operatorSend",
      "outputs": [],
      "stateMutability": "nonpayable",
      "type": "function"
    },
    {
      "inputs": [],
      "name": "proxiableUUID",
      "outputs": [
        {
          "internalType": "bytes32",
          "name": "",
          "type": "bytes32"
        }
      ],
      "stateMutability": "pure",
      "type": "function"
    },
    {
      "inputs": [
        {
          "internalType": "address",
          "name": "account",
          "type": "address"
        },
        {
          "internalType": "uint256",
          "name": "timestamp",
          "type": "uint256"
        }
      ],
      "name": "realtimeBalanceOf",
      "outputs": [
        {
          "internalType": "int256",
          "name": "availableBalance",
          "type": "int256"
        },
        {
          "internalType": "uint256",
          "name": "deposit",
          "type": "uint256"
        },
        {
          "internalType": "uint256",
          "name": "owedDeposit",
          "type": "uint256"
        }
      ],
      "stateMutability": "view",
      "type": "function"
    },
    {
      "inputs": [
        {
          "internalType": "address",
          "name": "account",
          "type": "address"
        }
      ],
      "name": "realtimeBalanceOfNow",
      "outputs": [
        {
          "internalType": "int256",
          "name": "availableBalance",
          "type": "int256"
        },
        {
          "internalType": "uint256",
          "name": "deposit",
          "type": "uint256"
        },
        {
          "internalType": "uint256",
          "name": "owedDeposit",
          "type": "uint256"
        },
        {
          "internalType": "uint256",
          "name": "timestamp",
          "type": "uint256"
        }
      ],
      "stateMutability": "view",
      "type": "function"
    },
    {
      "inputs": [
        {
          "internalType": "address",
          "name": "operator",
          "type": "address"
        }
      ],
      "name": "revokeOperator",
      "outputs": [],
      "stateMutability": "nonpayable",
      "type": "function"
    },
    {
      "inputs": [
        {
          "internalType": "address",
          "name": "account",
          "type": "address"
        },
        {
          "internalType": "address",
          "name": "spender",
          "type": "address"
        },
        {
          "internalType": "uint256",
          "name": "amount",
          "type": "uint256"
        }
      ],
      "name": "selfApproveFor",
      "outputs": [],
      "stateMutability": "nonpayable",
      "type": "function"
    },
    {
      "inputs": [
        {
          "internalType": "address",
          "name": "account",
          "type": "address"
        },
        {
          "internalType": "uint256",
          "name": "amount",
          "type": "uint256"
        },
        {
          "internalType": "bytes",
          "name": "userData",
          "type": "bytes"
        }
      ],
      "name": "selfBurn",
      "outputs": [],
      "stateMutability": "nonpayable",
      "type": "function"
    },
    {
      "inputs": [
        {
          "internalType": "address",
          "name": "account",
          "type": "address"
        },
        {
          "internalType": "uint256",
          "name": "amount",
          "type": "uint256"
        },
        {
          "internalType": "bytes",
          "name": "userData",
          "type": "bytes"
        }
      ],
      "name": "selfMint",
      "outputs": [],
      "stateMutability": "nonpayable",
      "type": "function"
    },
    {
      "inputs": [
        {
          "internalType": "address",
          "name": "holder",
          "type": "address"
        },
        {
          "internalType": "address",
          "name": "spender",
          "type": "address"
        },
        {
          "internalType": "address",
          "name": "recipient",
          "type": "address"
        },
        {
          "internalType": "uint256",
          "name": "amount",
          "type": "uint256"
        }
      ],
      "name": "selfTransferFrom",
      "outputs": [],
      "stateMutability": "nonpayable",
      "type": "function"
    },
    {
      "inputs": [
        {
          "internalType": "address",
          "name": "recipient",
          "type": "address"
        },
        {
          "internalType": "uint256",
          "name": "amount",
          "type": "uint256"
        },
        {
          "internalType": "bytes",
          "name": "data",
          "type": "bytes"
        }
      ],
      "name": "send",
      "outputs": [],
      "stateMutability": "nonpayable",
      "type": "function"
    },
    {
      "inputs": [
        {
          "internalType": "address",
          "name": "account",
          "type": "address"
        },
        {
          "internalType": "int256",
          "name": "delta",
          "type": "int256"
        }
      ],
      "name": "settleBalance",
      "outputs": [],
      "stateMutability": "nonpayable",
      "type": "function"
    },
    {
      "inputs": [],
      "name": "symbol",
      "outputs": [
        {
          "internalType": "string",
          "name": "",
          "type": "string"
        }
      ],
      "stateMutability": "view",
      "type": "function"
    },
    {
      "inputs": [
        {
          "internalType": "bytes32",
          "name": "id",
          "type": "bytes32"
        },
        {
          "internalType": "uint256",
          "name": "dataLength",
          "type": "uint256"
        }
      ],
      "name": "terminateAgreement",
      "outputs": [],
      "stateMutability": "nonpayable",
      "type": "function"
    },
    {
      "inputs": [],
      "name": "totalSupply",
      "outputs": [
        {
          "internalType": "uint256",
          "name": "",
          "type": "uint256"
        }
      ],
      "stateMutability": "view",
      "type": "function"
    },
    {
      "inputs": [
        {
          "internalType": "address",
          "name": "recipient",
          "type": "address"
        },
        {
          "internalType": "uint256",
          "name": "amount",
          "type": "uint256"
        }
      ],
      "name": "transfer",
      "outputs": [
        {
          "internalType": "bool",
          "name": "",
          "type": "bool"
        }
      ],
      "stateMutability": "nonpayable",
      "type": "function"
    },
    {
      "inputs": [
        {
          "internalType": "address",
          "name": "recipient",
          "type": "address"
        }
      ],
      "name": "transferAll",
      "outputs": [],
      "stateMutability": "nonpayable",
      "type": "function"
    },
    {
      "inputs": [
        {
          "internalType": "address",
          "name": "holder",
          "type": "address"
        },
        {
          "internalType": "address",
          "name": "recipient",
          "type": "address"
        },
        {
          "internalType": "uint256",
          "name": "amount",
          "type": "uint256"
        }
      ],
      "name": "transferFrom",
      "outputs": [
        {
          "internalType": "bool",
          "name": "",
          "type": "bool"
        }
      ],
      "stateMutability": "nonpayable",
      "type": "function"
    },
    {
      "inputs": [
        {
          "internalType": "bytes32",
          "name": "id",
          "type": "bytes32"
        },
        {
          "internalType": "bytes32[]",
          "name": "data",
          "type": "bytes32[]"
        }
      ],
      "name": "updateAgreementData",
      "outputs": [],
      "stateMutability": "nonpayable",
      "type": "function"
    },
    {
      "inputs": [
        {
          "internalType": "address",
          "name": "account",
          "type": "address"
        },
        {
          "internalType": "uint256",
          "name": "slotId",
          "type": "uint256"
        },
        {
          "internalType": "bytes32[]",
          "name": "slotData",
          "type": "bytes32[]"
        }
      ],
      "name": "updateAgreementStateSlot",
      "outputs": [],
      "stateMutability": "nonpayable",
      "type": "function"
    },
    {
      "inputs": [
        {
          "internalType": "address",
          "name": "newAddress",
          "type": "address"
        }
      ],
      "name": "updateCode",
      "outputs": [],
      "stateMutability": "nonpayable",
      "type": "function"
    },
    {
      "inputs": [
        {
          "internalType": "uint256",
          "name": "amount",
          "type": "uint256"
        }
      ],
      "name": "upgrade",
      "outputs": [],
      "stateMutability": "nonpayable",
      "type": "function"
    },
    {
      "inputs": [
        {
          "internalType": "address",
          "name": "to",
          "type": "address"
        },
        {
          "internalType": "uint256",
          "name": "amount",
          "type": "uint256"
        },
        {
          "internalType": "bytes",
          "name": "data",
          "type": "bytes"
        }
      ],
      "name": "upgradeTo",
      "outputs": [],
      "stateMutability": "nonpayable",
      "type": "function"
    },
    {
      "inputs": [],
      "name": "validateStorageLayout",
      "outputs": [],
      "stateMutability": "pure",
      "type": "function"
    },
    {
      "inputs": [],
      "name": "getLastSuperTokenStorageSlot",
      "outputs": [
        {
          "internalType": "uint256",
          "name": "slot",
          "type": "uint256"
        }
      ],
      "stateMutability": "pure",
      "type": "function"
    }
  ],
  "bytecode": "0x60a06040523480156200001157600080fd5b5060405162004a3338038062004a33833981016040819052620000349162000046565b6001600160a01b031660805262000078565b6000602082840312156200005957600080fd5b81516001600160a01b03811681146200007157600080fd5b9392505050565b608051614936620000fd6000396000818161042d01528181610abe01528181610b2c01528181610dd001528181610f2a01528181610ff901528181611260015281816113ae0152818161154201528181611829015281816118eb01528181611972015281816121fe01528181612295015281816133e9015261366901526149366000f3fe608060405234801561001057600080fd5b506004361061035d5760003560e01c806362ad1b83116101d3578063b84cdd4a11610104578063dd62ed3e116100a2578063f99a38c41161007c578063f99a38c4146103a8578063fad8b32a146107bd578063fc673c4f146107d0578063fe9d9303146107e357600080fd5b8063dd62ed3e14610745578063eb3537cc1461077e578063ee719bc8146107ac57600080fd5b8063ca789464116100de578063ca789464146106f9578063cf97256d1461070c578063d95b63711461071f578063d9d078d61461073257600080fd5b8063b84cdd4a146106c0578063bb0d196e146106d3578063c68d4283146106e657600080fd5b806395d89b4111610171578063a1b2bf8b1161014b578063a1b2bf8b14610674578063a3a7e7f314610687578063a457c2d71461069a578063a9059cbb146106ad57600080fd5b806395d89b41146106465780639bd9bbc61461064e5780639d8767411461066157600080fd5b80636fed61fc116101ad5780636fed61fc1461060657806370a082311461060d57806379359f6f14610620578063959b8c3f1461063357600080fd5b806362ad1b83146105cd57806366a12fb6146105e05780636c2d9f2f146105f357600080fd5b80632ec8eec7116102ad578063469519541161024b57806352d1902d1161022557806352d1902d1461057a578063556f0dc7146105a05780635b9d09cc146105a757806362aa5287146105ba57600080fd5b8063469519541461053f5780634b61cc331461055257806350d75d251461057257600080fd5b8063395093511161028757806339509351146104f357806341b706be1461050657806342fe09801461051957806345977d031461052c57600080fd5b80632ec8eec71461049e578063313ce567146104d1578063386fa221146104e057600080fd5b806316d055d61161031a57806320bc4425116102f457806320bc44251461042b57806323b872dd14610465578063245887fc14610478578063270483971461048b57600080fd5b806316d055d6146103f357806318160ddd146104065780631863e8091461041857600080fd5b806306e485381461036257806306fdde0314610380578063090c415e14610395578063095ea7b3146103aa57806311bcc81e146103cd57806312a6a3f8146103e0575b600080fd5b61036a6107f6565b6040516103779190613948565b60405180910390f35b610388610807565b60405161037791906139ed565b6103a86103a3366004613a60565b610899565b005b6103bd6103b8366004613abb565b61094d565b6040519015158152602001610377565b6103a86103db366004613ae7565b610964565b6103a86103ee366004613b00565b610992565b6103a8610401366004613b4b565b610abc565b6003545b604051908152602001610377565b6103a8610426366004613c5f565b610b17565b7f00000000000000000000000000000000000000000000000000000000000000005b6040516001600160a01b039091168152602001610377565b6103bd610473366004613cf1565b610db6565b6103a8610486366004613abb565b610dce565b6103a8610499366004613d32565b610e45565b6104b16104ac366004613d54565b610f22565b604080519485526020850193909352918301526060820152608001610377565b60405160128152602001610377565b61036a6104ee366004613d54565b610fc5565b6103bd610501366004613abb565b611068565b6103a8610514366004613b4b565b6110a4565b6103a8610527366004613db2565b6110cf565b6103a861053a366004613ae7565b611229565b6103a861054d366004613d54565b611255565b610565610560366004613e4c565b6112e4565b6040516103779190613e92565b61044d611329565b7f6bfbb132610e56cb96575dba244667b9d6dbfeffe22b68a79fa16f2d18eb001961040a565b600161040a565b6103a86105b5366004613eca565b611353565b6103a86105c8366004613cf1565b6113ac565b6103a86105db366004613f19565b611404565b6103a86105ee366004613cf1565b6114b1565b610565610601366004613fb7565b6114d0565b601f61040a565b61040a61061b366004613d54565b611512565b6103bd61062e366004613d54565b61153a565b6103a8610641366004613d54565b6115c2565b610388611613565b6103a861065c366004613eca565b611622565b6103a861066f366004613fec565b611676565b6103a8610682366004613b00565b6116b5565b6103a8610695366004613d54565b61175f565b6103bd6106a8366004613abb565b611773565b6103bd6106bb366004613abb565b6117c2565b6103bd6106ce366004613abb565b6117d0565b6103bd6106e1366004613d54565b611821565b6103a86106f4366004613fec565b6118a9565b6103a8610707366004613abb565b6118e9565b6103a861071a366004613abb565b61195d565b6103bd61072d366004614044565b611a45565b6103bd610740366004613abb565b611a53565b61040a610753366004614044565b6001600160a01b03918216600090815260116020908152604080832093909416825291909152205490565b61079161078c366004613abb565b611a6d565b60408051938452602084019290925290820152606001610377565b600e546001600160a01b031661044d565b6103a86107cb366004613d54565b611ba9565b6103a86107de36600461407d565b611bfa565b6103a86107f13660046140c4565b611c99565b60606108026012611ce9565b905090565b6060600f805461081690614102565b80601f016020809104026020016040519081016040528092919081815260200182805461084290614102565b801561088f5780601f106108645761010080835404028352916020019161088f565b820191906000526020600020905b81548152906001019060200180831161087257829003601f168201915b5050505050905090565b60003385856040516020016108b09392919061413c565b60405160208183030381529060405280519060200120905061090581848480806020026020016040519081016040528093929190818152602001838360200280828437600092019190915250611d4f92505050565b6040518481526001600160a01b0386169033907f30f416fa68fca014a0f334464c64b000ba53e99b6d2afdea9d5ca756372d5985906020015b60405180910390a35050505050565b600061095a338484611d90565b5060015b92915050565b61098f3333836040518060200160405280600081525060405180602001604052806000815250611eb8565b50565b60405133906000906109aa9083908790602001614185565b60408051601f19818403018152919052805160209091012090506109ce818461209f565b15610a335760405162461bcd60e51b815260206004820152602a60248201527f5375706572666c756964546f6b656e3a2061677265656d656e7420616c726561604482015269191e4818dc99585d195960b21b60648201526084015b60405180910390fd5b610a7081858580806020026020016040519081016040528093929190818152602001838360200280828437600092019190915250611d4f92505050565b816001600160a01b03167f770ea40a13a4644573ed785e5c7116890709947918747febc5add46feb531e2d868686604051610aad939291906141c2565b60405180910390a25050505050565b7f00000000000000000000000000000000000000000000000000000000000000006001600160a01b03163314610b045760405162461bcd60e51b8152600401610a2a90614206565b610b10848484846120db565b5050505050565b604051632329212160e21b81523360048201527f00000000000000000000000000000000000000000000000000000000000000006001600160a01b031690638ca4848490602401602060405180830381865afa158015610b7b573d6000803e3d6000fd5b505050506040513d601f19601f82011682018060405250810190610b9f9190614251565b610bbb5760405162461bcd60e51b8152600401610a2a9061426e565b6000610bc56121f9565b90506001600160a01b038116610bd85750845b600085610be55786610be7565b815b905060008313610c8457610bfa836142cb565b610c038561233e565b14610c1057610c106142e7565b610c198461233e565b6001600160a01b03821660009081526002602052604081208054909190610c419084906142fd565b90915550506001600160a01b03851660009081526002602052604081208054859290610c6e9084906142fd565b90915550610c7f90508582866123ac565b610d4e565b8515610c9257610c926142e7565b82610c9c8561233e565b610ca691906142fd565b6001600160a01b03831660009081526002602052604081208054909190610cce90849061433e565b90915550610cdd90508461233e565b6001600160a01b03881660009081526002602052604081208054909190610d059084906142fd565b90915550506001600160a01b03851660009081526002602052604081208054859290610d329084906142fd565b90915550610d4390508288866123ac565b610d4e8286856123ac565b846001600160a01b0316876001600160a01b0316336001600160a01b03167fb8381a3ce157650e06186e3e8f4dd4dc29236f2688b6eed1893d0a60d7c6386f8c8589898f604051610da395949392919061437d565b60405180910390a4505050505050505050565b6000610dc4338585856120db565b90505b9392505050565b7f00000000000000000000000000000000000000000000000000000000000000006001600160a01b03163314610e165760405162461bcd60e51b8152600401610a2a90614206565b610e413383836040518060200160405280600081525060405180602001604052806000815250611eb8565b5050565b6040513390600090610e5d9083908690602001614185565b604051602081830303815290604052805190602001209050610e7f818461209f565b610edd5760405162461bcd60e51b815260206004820152602960248201527f5375706572666c756964546f6b656e3a2061677265656d656e7420646f6573206044820152681b9bdd08195e1a5cdd60ba1b6064820152608401610a2a565b610ee781846123df565b60405184815233907f71a63dc095de07aa5512ad57a7596a39516317e316981a1cd71000057be1537b9060200160405180910390a250505050565b6000806000807f00000000000000000000000000000000000000000000000000000000000000006001600160a01b031663bbe4fd506040518163ffffffff1660e01b8152600401602060405180830381865afa158015610f86573d6000803e3d6000fd5b505050506040513d601f19601f82011682018060405250810190610faa91906143b0565b9050610fb68582611a6d565b91979096509094509092509050565b6001600160a01b038181166000908152600160205260409081902054905163c56a069d60e01b8152901960048201526060917f0000000000000000000000000000000000000000000000000000000000000000169063c56a069d90602401600060405180830381865afa158015611040573d6000803e3d6000fd5b505050506040513d6000823e601f3d908101601f1916820160405261095e91908101906143c9565b3360008181526011602090815260408083206001600160a01b0387168452909152812054909161095a91859061109f90869061447a565b611d90565b3330146110c35760405162461bcd60e51b8152600401610a2a90614492565b610b10838584846120db565b600054610100900460ff16158080156110ef5750600054600160ff909116105b806111095750303b158015611109575060005460ff166001145b61116c5760405162461bcd60e51b815260206004820152602e60248201527f496e697469616c697a61626c653a20636f6e747261637420697320616c72656160448201526d191e481a5b9a5d1a585b1a5e995960921b6064820152608401610a2a565b6000805460ff19166001179055801561118f576000805461ff0019166101001790555b600e805460ff8816600160a01b026001600160a81b03199091166001600160a01b038a16171790556111c3600f86866138b8565b506111d0601084846138b8565b506111da30612400565b8015611220576000805461ff0019169055604051600181527f7f26b83ff96e1f2b6a682f133852f6798a09c465da95921460cefb38474024989060200160405180910390a15b50505050505050565b61098f33333384604051806020016040528060008152506040518060200160405280600081525061252e565b336001600160a01b037f000000000000000000000000000000000000000000000000000000000000000016146112db5760405162461bcd60e51b815260206004820152602560248201527f5375706572546f6b656e3a206f6e6c7920686f73742063616e2075706461746560448201526420636f646560d81b6064820152608401610a2a565b61098f81612731565b606060008585856040516020016112fd9392919061413c565b60405160208183030381529060405280519060200120905061131f8184612971565b9695505050505050565b60006108027f360894a13ba1a3210667c828492db98dca3e2076cc3735a920a3ca505d382bbc5490565b6113a6333386866040518060200160405280600081525087878080601f01602080910402602001604051908101604052809392919081815260200183838082843760009201919091525061252e92505050565b50505050565b7f00000000000000000000000000000000000000000000000000000000000000006001600160a01b031633146113f45760405162461bcd60e51b8152600401610a2a90614206565b6113ff838383611d90565b505050565b336114116012828a612a00565b61142d5760405162461bcd60e51b8152600401610a2a906144c9565b6114a78189898989898080601f01602080910402602001604051908101604052809392919081815260200183838082843760009201919091525050604080516020601f8d018190048102820181019092528b815292508b91508a908190840183828082843760009201919091525060019250612aa9915050565b5050505050505050565b3330146113f45760405162461bcd60e51b8152600401610a2a90614492565b6060600084846040516020016114e7929190614185565b6040516020818303038152906040528051906020012090506115098184612971565b95945050505050565b60008061151e83610f22565b5050509050600081126115315780610dc7565b60009392505050565b600061095e827f00000000000000000000000000000000000000000000000000000000000000006001600160a01b031663bbe4fd506040518163ffffffff1660e01b8152600401602060405180830381865afa15801561159e573d6000803e3d6000fd5b505050506040513d601f19601f8201168201806040525081019061074091906143b0565b336115cf60128284612b20565b806001600160a01b0316826001600160a01b03167ff4caeb2d6ca8932a215a353d0703c326ec2d81fc68170f320eb2ab49e9df61f960405160405180910390a35050565b60606010805461081690614102565b6113a63333868686868080601f01602080910402602001604051908101604052809392919081815260200183838082843760009201829052506040805160208101909152908152925060019150612aa99050565b3330146116955760405162461bcd60e51b8152600401610a2a90614492565b6040805160008152602081019091526113ff903390859085908590612c24565b60405133906000906116cd9083908790602001614185565b60405160208183030381529060405280519060200120905061172281858580806020026020016040519081016040528093929190818152602001838360200280828437600092019190915250611d4f92505050565b336001600160a01b03167f0c4c547b3a4fcaa5be8353b3111472b124155bccc86de811d4a481c9e6e9faca868686604051610aad939291906141c2565b610e4133338361176e33611512565b6120db565b600061095a338461109f856040518060600160405280602a815260200161488a602a91393360009081526011602090815260408083206001600160a01b038d1684529091529020549190612d19565b6000610dc7333385856120db565b6000806000806117e08686611a6d565b92509250925060006118088284116117f957600061233e565b6118038385614519565b61233e565b61181290856142fd565b60001315979650505050505050565b600061095e827f00000000000000000000000000000000000000000000000000000000000000006001600160a01b031663bbe4fd506040518163ffffffff1660e01b8152600401602060405180830381865afa158015611885573d6000803e3d6000fd5b505050506040513d601f19601f820116820180604052508101906106ce91906143b0565b3330146118c85760405162461bcd60e51b8152600401610a2a90614492565b604080516000808252602082019092526113ff913391869186918690612d45565b7f00000000000000000000000000000000000000000000000000000000000000006001600160a01b031633146119315760405162461bcd60e51b8152600401610a2a90614206565b610e4133838484604051806020016040528060008152506040518060200160405280600081525061252e565b604051632329212160e21b81523360048201527f00000000000000000000000000000000000000000000000000000000000000006001600160a01b031690638ca4848490602401602060405180830381865afa1580156119c1573d6000803e3d6000fd5b505050506040513d601f19601f820116820180604052508101906119e59190614251565b611a015760405162461bcd60e51b8152600401610a2a9061426e565b6001600160a01b038216600090815260026020526040902054611a259082906142fd565b6001600160a01b0390921660009081526002602052604090209190915550565b6000610dc760128484612a00565b600080611a608484611a6d565b5050600013949350505050565b6001600160a01b038216600090815260026020526040812054908080611a9286610fc5565b905060005b8151811015611ba0576000806000848481518110611ab757611ab7614530565b60209081029190910101516040516326cb922f60e21b81523060048201526001600160a01b038c81166024830152604482018c905290911690639b2e48bc90606401606060405180830381865afa158015611b16573d6000803e3d6000fd5b505050506040513d601f19601f82011682018060405250810190611b3a9190614546565b91945092509050611b4b828861447a565b9650611b57818761447a565b9550611b74818311611b6a57600061233e565b6118038284614519565b611b7e848a6142fd565b611b88919061433e565b97505050508080611b9890614574565b915050611a97565b50509250925092565b33611bb660128284612e3c565b806001600160a01b0316826001600160a01b03167f50546e66e5f44d728365dc3908c63bc5cfeeab470722c1677e3073a6ac294aa160405160405180910390a35050565b33611c0760128289612a00565b611c235760405162461bcd60e51b8152600401610a2a906144c9565b61122081888888888080601f01602080910402602001604051908101604052809392919081815260200183838082843760009201919091525050604080516020601f8c018190048102820181019092528a815292508a9150899081908401838280828437600092019190915250611eb892505050565b6113ff33338585858080601f016020809104026020016040519081016040528093929190818152602001838380828437600092018290525060408051602081019091529081529250611eb8915050565b606081600001805480602002602001604051908101604052809291908181526020018280548015611d4357602002820191906000526020600020905b81546001600160a01b03168152600190910190602001808311611d25575b50505050509050919050565b60005b81518110156113ff576000828281518110611d6f57611d6f614530565b6020026020010151905080828501555080611d8990614574565b9050611d52565b6001600160a01b038316611df45760405162461bcd60e51b815260206004820152602560248201527f5375706572546f6b656e3a20617070726f76652066726f6d207a65726f206164604482015264647265737360d81b6064820152608401610a2a565b6001600160a01b038216611e565760405162461bcd60e51b815260206004820152602360248201527f5375706572546f6b656e3a20617070726f766520746f207a65726f206164647260448201526265737360e81b6064820152608401610a2a565b6001600160a01b0383811660008181526011602090815260408083209487168084529482529182902085905590518481527f8c5be1e5ebec7d5bd14f71427d1e84f3dd0314c0f7b2291e5b200ac8c7c3b92591015b60405180910390a3505050565b600e546001600160a01b0316611f105760405162461bcd60e51b815260206004820152601f60248201527f5375706572546f6b656e3a206e6f20756e6465726c79696e6720746f6b656e006044820152606401610a2a565b600080611f1c85612f34565b91509150611f2d8787838787612c24565b600e546040516370a0823160e01b81523060048201526000916001600160a01b0316906370a0823190602401602060405180830381865afa158015611f76573d6000803e3d6000fd5b505050506040513d601f19601f82011682018060405250810190611f9a91906143b0565b600e54909150611fb4906001600160a01b03168885612ff0565b600e546040516370a0823160e01b81523060048201526000916001600160a01b0316906370a0823190602401602060405180830381865afa158015611ffd573d6000803e3d6000fd5b505050506040513d601f19601f8201168201806040525081019061202191906143b0565b9050600061202f8284614519565b90508085146120505760405162461bcd60e51b8152600401610a2a9061458d565b886001600160a01b03167f3bc27981aebbb57f9247dc00fde9d6cd91e4b230083fec3238fedbcba1f9ab3d8560405161208b91815260200190565b60405180910390a250505050505050505050565b6000805b828110156120d1578381015480156120c05760019250505061095e565b506120ca81614574565b90506120a3565b5060009392505050565b60006001600160a01b0384166121035760405162461bcd60e51b8152600401610a2a906145ea565b6001600160a01b0383166121295760405162461bcd60e51b8152600401610a2a90614630565b600033905061215a818686866040518060200160405280600081525060405180602001604052806000815250613053565b846001600160a01b0316866001600160a01b0316146121ed576121ed858761109f866040518060600160405280602d81526020016148d4602d9139601160008c6001600160a01b03166001600160a01b0316815260200190815260200160002060008d6001600160a01b03166001600160a01b0316815260200190815260200160002054612d199092919063ffffffff16565b50600195945050505050565b6000807f00000000000000000000000000000000000000000000000000000000000000006001600160a01b031663289b3c0d6040518163ffffffff1660e01b8152600401602060405180830381865afa15801561225a573d6000803e3d6000fd5b505050506040513d601f19601f8201168201806040525081019061227e9190614674565b604051638369a0f160e01b81526001600160a01b037f0000000000000000000000000000000000000000000000000000000000000000811660048301523060248301527f9f60ae461adf056670e03ae602566409933242392cb06744f5747c9f38b05d09604483015291925090821690638369a0f190606401602060405180830381865afa158015612314573d6000803e3d6000fd5b505050506040513d601f19601f820116820180604052508101906123389190614674565b91505090565b60006001600160ff1b038211156123a85760405162461bcd60e51b815260206004820152602860248201527f53616665436173743a2076616c756520646f65736e27742066697420696e2061604482015267371034b73a191a9b60c11b6064820152608401610a2a565b5090565b816001600160a01b0316836001600160a01b03166000805160206148b483398151915283604051611eab91815260200190565b60005b818110156113ff576000838201556123f981614574565b90506123e2565b6040516329965a1d60e01b81526001600160a01b03821660048201527fac7fbab5f54a3ca8194167523c6753bfeb96a445279294b6125b68cce21770546024820152306044820152731820a4b7618bde71dce8cdc73aab6c95905fad24906329965a1d90606401600060405180830381600087803b15801561248157600080fd5b505af1158015612495573d6000803e3d6000fd5b50506040516329965a1d60e01b81526001600160a01b03841660048201527faea199e31a596269b42cdafd93407f14436db6e4cad65417994c2eb37381e05a6024820152306044820152731820a4b7618bde71dce8cdc73aab6c95905fad2492506329965a1d9150606401600060405180830381600087803b15801561251a57600080fd5b505af1158015610b10573d6000803e3d6000fd5b600e546001600160a01b03166125865760405162461bcd60e51b815260206004820152601f60248201527f5375706572546f6b656e3a206e6f20756e6465726c79696e6720746f6b656e006044820152606401610a2a565b60008061259285612f34565b600e546040516370a0823160e01b81523060048201529294509092506000916001600160a01b03909116906370a0823190602401602060405180830381865afa1580156125e3573d6000803e3d6000fd5b505050506040513d601f19601f8201168201806040525081019061260791906143b0565b600e54909150612622906001600160a01b03168930866130f2565b600e546040516370a0823160e01b81523060048201526000916001600160a01b0316906370a0823190602401602060405180830381865afa15801561266b573d6000803e3d6000fd5b505050506040513d601f19601f8201168201806040525081019061268f91906143b0565b9050600061269d8383614519565b90508085146126be5760405162461bcd60e51b8152600401610a2a9061458d565b6126e18b8a868c6001600160a01b03168e6001600160a01b031614158b8b612d45565b886001600160a01b03167f25ca84076773b0455db53621c459ddc84fe40840e4932a62706a032566f399df8560405161271c91815260200190565b60405180910390a25050505050505050505050565b600061275b7f360894a13ba1a3210667c828492db98dca3e2076cc3735a920a3ca505d382bbc5490565b6001600160a01b0316036127b15760405162461bcd60e51b815260206004820152601d60248201527f5555505350726f786961626c653a206e6f742075706772616461626c650000006044820152606401610a2a565b806001600160a01b03166352d1902d6040518163ffffffff1660e01b8152600401602060405180830381865afa1580156127ef573d6000803e3d6000fd5b505050506040513d601f19601f8201168201806040525081019061281391906143b0565b7f6bfbb132610e56cb96575dba244667b9d6dbfeffe22b68a79fa16f2d18eb00191461288d5760405162461bcd60e51b815260206004820152602360248201527f5555505350726f786961626c653a206e6f7420636f6d70617469626c65206c6f60448201526267696360e81b6064820152608401610a2a565b6001600160a01b03811630036128e55760405162461bcd60e51b815260206004820152601960248201527f5555505350726f786961626c653a2070726f7879206c6f6f70000000000000006044820152606401610a2a565b61290d817f360894a13ba1a3210667c828492db98dca3e2076cc3735a920a3ca505d382bbc55565b7fe011bc04c286c344a8fcbb8de77f953da762c3e25d8cdea984147fc4168a5dcc7f6bfbb132610e56cb96575dba244667b9d6dbfeffe22b68a79fa16f2d18eb0019604080519182526001600160a01b03841660208301520160405180910390a150565b6060816001600160401b0381111561298b5761298b613b9c565b6040519080825280602002602001820160405280156129b4578160200160208202803683370190505b50905060005b828110156129f9576000818501549050808383815181106129dd576129dd614530565b6020908102919091010152506129f281614574565b90506129ba565b5092915050565b6000816001600160a01b0316836001600160a01b03161480612a6f57506001600160a01b038316600090815260018501602052604090205460ff168015612a6f57506001600160a01b03808316600090815260038601602090815260408083209387168352929052205460ff16155b80610dc457506001600160a01b03808316600090815260028601602090815260408083209387168352929052205460ff1690509392505050565b6001600160a01b038616612acf5760405162461bcd60e51b8152600401610a2a906145ea565b6001600160a01b038516612af55760405162461bcd60e51b8152600401610a2a90614630565b612b0387878787878761312a565b612b11878787878787613053565b61122087878787878787613251565b806001600160a01b0316826001600160a01b031603612b975760405162461bcd60e51b815260206004820152602d60248201527f4552433737374f70657261746f72733a20617574686f72697a696e672073656c60448201526c331030b99037b832b930ba37b960991b6064820152608401610a2a565b6001600160a01b038116600090815260018401602052604090205460ff1615612bed576001600160a01b03918216600090815260039390930160209081526040808520929093168452529020805460ff19169055565b6001600160a01b0380831660009081526002850160209081526040808320938516835292905220805460ff19166001179055505050565b6001600160a01b038416612c855760405162461bcd60e51b815260206004820152602260248201527f5375706572546f6b656e3a206275726e2066726f6d207a65726f206164647265604482015261737360f01b6064820152608401610a2a565b612c948585600086868661312a565b612c9e84846133e1565b836001600160a01b0316856001600160a01b03167fa78a9be3a7b862d26933ad85fb11d80ef66b8f972d7cbba06621d583943a4098858585604051612ce593929190614691565b60405180910390a36040518381526000906001600160a01b038616906000805160206148b48339815191529060200161093e565b60008184841115612d3d5760405162461bcd60e51b8152600401610a2a91906139ed565b505050900390565b6001600160a01b038516612d9b5760405162461bcd60e51b815260206004820181905260248201527f5375706572546f6b656e3a206d696e7420746f207a65726f20616464726573736044820152606401610a2a565b612da58585613535565b612db58660008787868689613251565b846001600160a01b0316866001600160a01b03167f2fe5be0146f74c5bce36c0b80911af6c7d86ff27e89d5cfa61fc681327954e5d868585604051612dfc93929190614691565b60405180910390a36040518481526001600160a01b038616906000906000805160206148b4833981519152906020015b60405180910390a3505050505050565b336001600160a01b03821603612ea75760405162461bcd60e51b815260206004820152602a60248201527f4552433737374f70657261746f72733a207265766f6b696e672073656c662061604482015269399037b832b930ba37b960b11b6064820152608401610a2a565b6001600160a01b038116600090815260018401602052604090205460ff1615612f01576001600160a01b0380831660009081526003850160209081526040808320938516835292905220805460ff19166001179055505050565b6001600160a01b03918216600090815260029390930160209081526040808520929093168452529020805460ff19169055565b600e54600090819081906012600160a01b90910460ff161015612f9357600e54612f6990600160a01b900460ff1660126146bc565b612f7490600a6147c3565b9050612f8081856147d2565b9250612f8c81846147f4565b9150612fea565b600e546012600160a01b90910460ff161115612fe357600e54612fc290601290600160a01b900460ff166146bc565b612fcd90600a6147c3565b9050612fd981856147f4565b9250839150612fea565b8391508192505b50915091565b6040516001600160a01b0383166024820152604481018290526113ff90849063a9059cbb60e01b906064015b60408051601f198184030181529190526020810180516001600160e01b03166001600160e01b03199093169290921790915261358f565b61306685856130618661233e565b613661565b836001600160a01b0316856001600160a01b0316876001600160a01b03167f06b541ddaa720db2b10a4d0cdac39b8d360425fc073085fac19bc826146779878686866040516130b793929190614691565b60405180910390a4836001600160a01b0316856001600160a01b03166000805160206148b483398151915285604051612e2c91815260200190565b6040516001600160a01b03808516602483015283166044820152606481018290526113a69085906323b872dd60e01b9060840161301c565b60405163555ddc6560e11b81526001600160a01b03861660048201527f29ddb589b1fb5fc7cf394961c1adf5f8c6454761adf795e67fe149f658abe8956024820152600090731820a4b7618bde71dce8cdc73aab6c95905fad249063aabbb8ca90604401602060405180830381865afa1580156131ab573d6000803e3d6000fd5b505050506040513d601f19601f820116820180604052508101906131cf9190614674565b90506001600160a01b0381161561122057604051633ad5cbc160e11b81526001600160a01b038216906375ab978290613216908a908a908a908a908a908a90600401614813565b600060405180830381600087803b15801561323057600080fd5b505af1158015613244573d6000803e3d6000fd5b5050505050505050505050565b60405163555ddc6560e11b81526001600160a01b03861660048201527fb281fc8c12954d22544db45de3159a39272895b169a852b314f9cc762e44c53b6024820152600090731820a4b7618bde71dce8cdc73aab6c95905fad249063aabbb8ca90604401602060405180830381865afa1580156132d2573d6000803e3d6000fd5b505050506040513d601f19601f820116820180604052508101906132f69190614674565b90506001600160a01b03811615613372576040516223de2960e01b81526001600160a01b038216906223de299061333b908b908b908b908b908b908b90600401614813565b600060405180830381600087803b15801561335557600080fd5b505af1158015613369573d6000803e3d6000fd5b505050506114a7565b81156114a7576001600160a01b0386163b156114a75760405162461bcd60e51b815260206004820152602860248201527f5375706572546f6b656e3a206e6f7420616e20455243373737546f6b656e73526044820152671958da5c1a595b9d60c21b6064820152608401610a2a565b6000613469837f00000000000000000000000000000000000000000000000000000000000000006001600160a01b031663bbe4fd506040518163ffffffff1660e01b8152600401602060405180830381865afa158015613445573d6000803e3d6000fd5b505050506040513d601f19601f8201168201806040525081019061078c91906143b0565b505090506134768261233e565b8112156134da5760405162461bcd60e51b815260206004820152602c60248201527f5375706572666c756964546f6b656e3a206275726e20616d6f756e742065786360448201526b656564732062616c616e636560a01b6064820152608401610a2a565b6134e38261233e565b6001600160a01b038416600090815260026020526040902054613506919061433e565b6001600160a01b03841660009081526002602052604090205560035461352d908390614519565b600355505050565b61353e8161233e565b6001600160a01b03831660009081526002602052604090205461356191906142fd565b6001600160a01b03831660009081526002602052604090205560035461358890829061447a565b6003555050565b60006135e4826040518060400160405280602081526020017f5361666545524332303a206c6f772d6c6576656c2063616c6c206661696c6564815250856001600160a01b03166137a49092919063ffffffff16565b8051909150156113ff57808060200190518101906136029190614251565b6113ff5760405162461bcd60e51b815260206004820152602a60248201527f5361666545524332303a204552433230206f7065726174696f6e20646964206e6044820152691bdd081cdd58d8d9595960b21b6064820152608401610a2a565b60006136c5847f00000000000000000000000000000000000000000000000000000000000000006001600160a01b031663bbe4fd506040518163ffffffff1660e01b8152600401602060405180830381865afa158015613445573d6000803e3d6000fd5b505090508181121561372e5760405162461bcd60e51b815260206004820152602c60248201527f5375706572666c756964546f6b656e3a206d6f766520616d6f756e742065786360448201526b656564732062616c616e636560a01b6064820152608401610a2a565b6001600160a01b03841660009081526002602052604090205461375290839061433e565b6001600160a01b0380861660009081526002602052604080822093909355908516815220546137829083906142fd565b6001600160a01b03909316600090815260026020526040902092909255505050565b6060610dc48484600085856001600160a01b0385163b6138065760405162461bcd60e51b815260206004820152601d60248201527f416464726573733a2063616c6c20746f206e6f6e2d636f6e74726163740000006044820152606401610a2a565b600080866001600160a01b03168587604051613822919061486d565b60006040518083038185875af1925050503d806000811461385f576040519150601f19603f3d011682016040523d82523d6000602084013e613864565b606091505b509150915061387482828661387f565b979650505050505050565b6060831561388e575081610dc7565b82511561389e5782518084602001fd5b8160405162461bcd60e51b8152600401610a2a91906139ed565b8280546138c490614102565b90600052602060002090601f0160209004810192826138e6576000855561392c565b82601f106138ff5782800160ff1982351617855561392c565b8280016001018555821561392c579182015b8281111561392c578235825591602001919060010190613911565b506123a89291505b808211156123a85760008155600101613934565b6020808252825182820181905260009190848201906040850190845b818110156139895783516001600160a01b031683529284019291840191600101613964565b50909695505050505050565b60005b838110156139b0578181015183820152602001613998565b838111156113a65750506000910152565b600081518084526139d9816020860160208601613995565b601f01601f19169290920160200192915050565b602081526000610dc760208301846139c1565b6001600160a01b038116811461098f57600080fd5b60008083601f840112613a2757600080fd5b5081356001600160401b03811115613a3e57600080fd5b6020830191508360208260051b8501011115613a5957600080fd5b9250929050565b60008060008060608587031215613a7657600080fd5b8435613a8181613a00565b93506020850135925060408501356001600160401b03811115613aa357600080fd5b613aaf87828801613a15565b95989497509550505050565b60008060408385031215613ace57600080fd5b8235613ad981613a00565b946020939093013593505050565b600060208284031215613af957600080fd5b5035919050565b600080600060408486031215613b1557600080fd5b8335925060208401356001600160401b03811115613b3257600080fd5b613b3e86828701613a15565b9497909650939450505050565b60008060008060808587031215613b6157600080fd5b8435613b6c81613a00565b93506020850135613b7c81613a00565b92506040850135613b8c81613a00565b9396929550929360600135925050565b634e487b7160e01b600052604160045260246000fd5b604051601f8201601f191681016001600160401b0381118282101715613bda57613bda613b9c565b604052919050565b600082601f830112613bf357600080fd5b81356001600160401b03811115613c0c57613c0c613b9c565b613c1f601f8201601f1916602001613bb2565b818152846020838601011115613c3457600080fd5b816020850160208301376000918101602001919091529392505050565b801515811461098f57600080fd5b600080600080600080600060e0888a031215613c7a57600080fd5b8735965060208801356001600160401b03811115613c9757600080fd5b613ca38a828b01613be2565b9650506040880135613cb481613a00565b94506060880135613cc481613c51565b93506080880135613cd481613a00565b9699959850939692959460a0840135945060c09093013592915050565b600080600060608486031215613d0657600080fd5b8335613d1181613a00565b92506020840135613d2181613a00565b929592945050506040919091013590565b60008060408385031215613d4557600080fd5b50508035926020909101359150565b600060208284031215613d6657600080fd5b8135610dc781613a00565b60008083601f840112613d8357600080fd5b5081356001600160401b03811115613d9a57600080fd5b602083019150836020828501011115613a5957600080fd5b60008060008060008060808789031215613dcb57600080fd5b8635613dd681613a00565b9550602087013560ff81168114613dec57600080fd5b945060408701356001600160401b0380821115613e0857600080fd5b613e148a838b01613d71565b90965094506060890135915080821115613e2d57600080fd5b50613e3a89828a01613d71565b979a9699509497509295939492505050565b60008060008060808587031215613e6257600080fd5b8435613e6d81613a00565b93506020850135613e7d81613a00565b93969395505050506040820135916060013590565b6020808252825182820181905260009190848201906040850190845b8181101561398957835183529284019291840191600101613eae565b60008060008060608587031215613ee057600080fd5b8435613eeb81613a00565b93506020850135925060408501356001600160401b03811115613f0d57600080fd5b613aaf87828801613d71565b600080600080600080600060a0888a031215613f3457600080fd5b8735613f3f81613a00565b96506020880135613f4f81613a00565b95506040880135945060608801356001600160401b0380821115613f7257600080fd5b613f7e8b838c01613d71565b909650945060808a0135915080821115613f9757600080fd5b50613fa48a828b01613d71565b989b979a50959850939692959293505050565b600080600060608486031215613fcc57600080fd5b8335613fd781613a00565b95602085013595506040909401359392505050565b60008060006060848603121561400157600080fd5b833561400c81613a00565b92506020840135915060408401356001600160401b0381111561402e57600080fd5b61403a86828701613be2565b9150509250925092565b6000806040838503121561405757600080fd5b823561406281613a00565b9150602083013561407281613a00565b809150509250929050565b6000806000806000806080878903121561409657600080fd5b86356140a181613a00565b95506020870135945060408701356001600160401b0380821115613e0857600080fd5b6000806000604084860312156140d957600080fd5b8335925060208401356001600160401b038111156140f657600080fd5b613b3e86828701613d71565b600181811c9082168061411657607f821691505b60208210810361413657634e487b7160e01b600052602260045260246000fd5b50919050565b6080808252600e908201526d41677265656d656e74537461746560901b60a08201526001600160a01b039384166020820152919092166040820152606081019190915260c00190565b6060808252600d908201526c41677265656d656e744461746160981b60808201526001600160a01b03929092166020830152604082015260a00190565b838152604060208201819052810182905260006001600160fb1b038311156141e957600080fd5b8260051b8085606085013760009201606001918252509392505050565b6020808252602b908201527f5375706572666c756964546f6b656e3a204f6e6c7920686f737420636f6e747260408201526a1858dd08185b1b1bddd95960aa1b606082015260800190565b60006020828403121561426357600080fd5b8151610dc781613c51565b60208082526027908201527f5375706572666c756964546f6b656e3a206f6e6c79206c6973746564206167726040820152661959595b595b9d60ca1b606082015260800190565b634e487b7160e01b600052601160045260246000fd5b6000600160ff1b82016142e0576142e06142b5565b5060000390565b634e487b7160e01b600052600160045260246000fd5b600080821280156001600160ff1b038490038513161561431f5761431f6142b5565b600160ff1b8390038412811615614338576143386142b5565b50500190565b60008083128015600160ff1b85018412161561435c5761435c6142b5565b6001600160ff1b0384018313811615614377576143776142b5565b50500390565b85815260018060a01b038516602082015283604082015282606082015260a06080820152600061387460a08301846139c1565b6000602082840312156143c257600080fd5b5051919050565b600060208083850312156143dc57600080fd5b82516001600160401b03808211156143f357600080fd5b818501915085601f83011261440757600080fd5b81518181111561441957614419613b9c565b8060051b915061442a848301613bb2565b818152918301840191848101908884111561444457600080fd5b938501935b8385101561446e578451925061445e83613a00565b8282529385019390850190614449565b98975050505050505050565b6000821982111561448d5761448d6142b5565b500190565b6020808252601d908201527f5375706572546f6b656e3a206f6e6c792073656c6620616c6c6f776564000000604082015260600190565b60208082526030908201527f5375706572546f6b656e3a2063616c6c6572206973206e6f7420616e206f706560408201526f3930ba37b9103337b9103437b63232b960811b606082015260800190565b60008282101561452b5761452b6142b5565b500390565b634e487b7160e01b600052603260045260246000fd5b60008060006060848603121561455b57600080fd5b8351925060208401519150604084015190509250925092565b600060018201614586576145866142b5565b5060010190565b6020808252603a908201527f5375706572546f6b656e3a20696e666c6174696f6e6172792f6465666c61746960408201527f6f6e61727920746f6b656e73206e6f7420737570706f72746564000000000000606082015260800190565b60208082526026908201527f5375706572546f6b656e3a207472616e736665722066726f6d207a65726f206160408201526564647265737360d01b606082015260800190565b60208082526024908201527f5375706572546f6b656e3a207472616e7366657220746f207a65726f206164646040820152637265737360e01b606082015260800190565b60006020828403121561468657600080fd5b8151610dc781613a00565b8381526060602082015260006146aa60608301856139c1565b828103604084015261131f81856139c1565b600060ff821660ff8416808210156146d6576146d66142b5565b90039392505050565b600181815b8085111561471a578160001904821115614700576147006142b5565b8085161561470d57918102915b93841c93908002906146e4565b509250929050565b6000826147315750600161095e565b8161473e5750600061095e565b8160018114614754576002811461475e5761477a565b600191505061095e565b60ff84111561476f5761476f6142b5565b50506001821b61095e565b5060208310610133831016604e8410600b841016171561479d575081810a61095e565b6147a783836146df565b80600019048211156147bb576147bb6142b5565b029392505050565b6000610dc760ff841683614722565b6000826147ef57634e487b7160e01b600052601260045260246000fd5b500490565b600081600019048311821515161561480e5761480e6142b5565b500290565b6001600160a01b0387811682528681166020830152851660408201526060810184905260c06080820181905260009061484e908301856139c1565b82810360a084015261486081856139c1565b9998505050505050505050565b6000825161487f818460208701613995565b919091019291505056fe5375706572546f6b656e3a2064656372656173656420616c6c6f77616e63652062656c6f77207a65726fddf252ad1be2c89b69c2b068fc378daa952ba7f163c4a11628f55a4df523b3ef5375706572546f6b656e3a207472616e7366657220616d6f756e74206578636565647320616c6c6f77616e6365a2646970667358221220e6d5ad24489e25d607d0508b3f949bebac4cd922c2fb9442da24224a30ea29a064736f6c634300080e0033",
  "immutableReferences": {
    "35215": [
      {
        "length": 32,
        "start": 1069
      },
      {
        "length": 32,
        "start": 2750
      },
      {
        "length": 32,
        "start": 2860
      },
      {
        "length": 32,
        "start": 3536
      },
      {
        "length": 32,
        "start": 3882
      },
      {
        "length": 32,
        "start": 4089
      },
      {
        "length": 32,
        "start": 4704
      },
      {
        "length": 32,
        "start": 5038
      },
      {
        "length": 32,
        "start": 5442
      },
      {
        "length": 32,
        "start": 6185
      },
      {
        "length": 32,
        "start": 6379
      },
      {
        "length": 32,
        "start": 6514
      },
      {
        "length": 32,
        "start": 8702
      },
      {
        "length": 32,
        "start": 8853
      },
      {
        "length": 32,
        "start": 13289
      },
      {
        "length": 32,
        "start": 13929
      }
    ]
  },
  "source": "// SPDX-License-Identifier: AGPLv3\npragma solidity 0.8.14;\n\nimport {\n    ISuperfluid,\n    ISuperAgreement,\n    SuperToken\n} from \"../superfluid/SuperToken.sol\";\n\ncontract SuperTokenStorageLayoutTester is SuperToken {\n\n    constructor(ISuperfluid host)\n        SuperToken(host)\n    // solhint-disable-next-line no-empty-blocks\n    {\n    }\n\n    // @dev Make sure the storage layout never change over the course of the development\n    function validateStorageLayout() external pure {\n        uint256 slot;\n        uint256 offset;\n\n        // Initializable _initialized and _initialized\n\n        // SuperfluidToken storages\n\n        assembly { slot:= _inactiveAgreementBitmap.slot offset := _inactiveAgreementBitmap.offset }\n        require (slot == 1 && offset == 0, \"_inactiveAgreementBitmap changed location\");\n\n        assembly { slot:= _balances.slot offset := _balances.offset }\n        require (slot == 2 && offset == 0, \"_balances changed location\");\n\n        assembly { slot:= _totalSupply.slot offset := _totalSupply.offset }\n        require (slot == 3 && offset == 0, \"_totalSupply changed location\");\n\n        assembly { slot:= _reserve4.slot offset := _reserve4.offset }\n        require (slot == 4 && offset == 0, \"_reserve4 changed location\");\n\n        assembly { slot:= _reserve13.slot offset := _reserve13.offset }\n        require (slot == 13 && offset == 0, \"_reserve9 changed location\");\n\n        // SuperToken storages\n\n        assembly { slot:= _underlyingToken.slot offset := _underlyingToken.offset }\n        require (slot == 14 && offset == 0, \"_underlyingToken changed location\");\n\n        assembly { slot:= _underlyingDecimals.slot offset := _underlyingDecimals.offset }\n        require (slot == 14 && offset == 20, \"_underlyingDecimals changed location\");\n\n        assembly { slot:= _name.slot offset := _name.offset }\n        require (slot == 15 && offset == 0, \"_name changed location\");\n\n        assembly { slot:= _symbol.slot offset := _symbol.offset }\n        require (slot == 16 && offset == 0, \"_symbol changed location\");\n\n        assembly { slot:= _allowances.slot offset := _allowances.offset }\n        require (slot == 17 && offset == 0, \"_allowances changed location\");\n\n        assembly { slot:= _operators.slot offset := _operators.offset }\n        require (slot == 18 && offset == 0, \"_operators changed location\");\n        // uses 4 slots\n\n        assembly { slot:= _reserve22.slot offset := _reserve22.offset }\n        require (slot == 22 && offset == 0, \"_reserve22 changed location\");\n\n        assembly { slot:= _reserve31.slot offset := _reserve31.offset }\n        require (slot == 31 && offset == 0, \"_reserve31 changed location\");\n    }\n\n    function getLastSuperTokenStorageSlot() external pure returns (uint slot) {\n        assembly { slot:= _reserve31.slot }\n    }\n}\n\ncontract SuperTokenMock is SuperToken {\n\n    uint256 immutable public waterMark;\n\n    constructor(ISuperfluid host, uint256 w)\n        SuperToken(host)\n    {\n        waterMark = w;\n    }\n\n    /**\n     * ERC-20 mockings\n     */\n    function approveInternal(address owner, address spender, uint256 value) external {\n        _approve(owner, spender, value);\n    }\n\n    function transferInternal(address from, address to, uint256 value) external {\n        _transferFrom(from, from, to, value);\n    }\n\n    /**\n     * ERC-777 mockings\n     */\n    function setupDefaultOperators(address[] memory operators) external {\n        _setupDefaultOperators(operators);\n    }\n\n    function mintInternal(\n        address to,\n        uint256 amount,\n        bytes memory userData,\n        bytes memory operatorData\n    ) external {\n        // set requireReceptionAck to true always\n        _mint(msg.sender, to, amount, true, userData, operatorData);\n    }\n\n}\n",
  "sourcePath": "/Users/alo/protocol-monorepo/packages/ethereum-contracts/contracts/mocks/SuperTokenMock.sol",
  "compiler": {
    "name": "solc",
    "version": "0.8.14+commit.80d49f37.Emscripten.clang"
  },
  "schemaVersion": "3.4.8",
  "updatedAt": "2022-07-15T06:25:31.633Z",
  "devdoc": {
    "kind": "dev",
    "methods": {
      "approve(address,uint256)": {
        "details": "Sets `amount` as the allowance of `spender` over the caller's tokens.",
        "returns": {
          "_0": "Returns Success a boolean value indicating whether the operation succeeded."
        }
      },
      "authorizeOperator(address)": {
        "details": "Make an account an operator of the caller. See {isOperatorFor}."
      },
      "balanceOf(address)": {
        "details": "Returns the amount of tokens owned by an account (`owner`)."
      },
      "burn(uint256,bytes)": {
        "details": "Destroys `amount` tokens from the caller's account, reducing the total supply. If a send hook is registered for the caller, the corresponding function will be called with `data` and empty `operatorData`. See {IERC777Sender}."
      },
      "createAgreement(bytes32,bytes32[])": {
        "details": "ISuperfluidToken.createAgreement implementation"
      },
      "decimals()": {
        "details": "Returns the number of decimals used to get its user representation. For example, if `decimals` equals `2`, a balance of `505` tokens should be displayed to a user as `5,05` (`505 / 10 ** 2`). Tokens usually opt for a value of 18, imitating the relationship between Ether and Wei. This is the value {ERC20} uses, unless {_setupDecimals} is called."
      },
      "decreaseAllowance(address,uint256)": {
        "details": "Atomically decreases the allowance granted to `spender` by the caller. This is an alternative to {approve} that can be used as a mitigation for problems described in {IERC20-approve}."
      },
      "defaultOperators()": {
        "details": "Returns the list of default operators. These accounts are operators for all token holders, even if {authorizeOperator} was never called on them. This list is immutable, but individual holders may revoke these via {revokeOperator}, in which case {isOperatorFor} will return false."
      },
      "downgrade(uint256)": {
        "details": "ISuperToken.downgrade implementation"
      },
      "getAccountActiveAgreements(address)": {
        "details": "ISuperfluidToken.getAccountActiveAgreements implementation"
      },
      "getAgreementData(address,bytes32,uint256)": {
        "details": "ISuperfluidToken.getAgreementData implementation"
      },
      "getAgreementStateSlot(address,address,uint256,uint256)": {
        "details": "ISuperfluidToken.getAgreementState implementation"
      },
      "getCodeAddress()": {
        "details": "Get current implementation code address."
      },
      "getHost()": {
        "details": "ISuperfluidToken.getHost implementation"
      },
      "getUnderlyingToken()": {
        "details": "ISuperfluidGovernance.getUnderlyingToken implementation"
      },
      "granularity()": {
        "details": "Returns the smallest part of the token that is not divisible. This         means all token operations (creation, movement and destruction) must have         amounts that are a multiple of this number."
      },
      "increaseAllowance(address,uint256)": {
        "details": "Atomically increases the allowance granted to `spender` by the caller. This is an alternative to {approve} that can be used as a mitigation for problems described in {IERC20-approve}."
      },
      "initialize(address,uint8,string,string)": {
        "details": "Initialize the contract"
      },
      "isAccountCritical(address,uint256)": {
        "details": "A critical account is when availableBalance < 0",
        "params": {
          "account": "The account to check",
          "timestamp": "The time we'd like to check if the account is critical (should use future)"
        },
        "returns": {
          "isCritical": "Whether the account is critical"
        }
      },
      "isAccountCriticalNow(address)": {
        "details": "A critical account is when availableBalance < 0",
        "params": {
          "account": "The account to check"
        },
        "returns": {
          "isCritical": "Whether the account is critical"
        }
      },
      "isAccountSolvent(address,uint256)": {
        "details": "An account is insolvent when the sum of deposits for a token can't cover the negative availableBalance",
        "params": {
          "account": "The account to check",
          "timestamp": "The time we'd like to check if the account is solvent (should use future)"
        },
        "returns": {
          "isSolvent": "True if the account is solvent, false otherwise"
        }
      },
      "isAccountSolventNow(address)": {
        "details": "An account is insolvent when the sum of deposits for a token can't cover the negative availableBalance",
        "params": {
          "account": "The account to check"
        },
        "returns": {
          "isSolvent": "True if the account is solvent, false otherwise"
        }
      },
      "isOperatorFor(address,address)": {
        "details": "Returns true if an account is an operator of `tokenHolder`. Operators can send and burn tokens on behalf of their owners. All accounts are their own operator. See {operatorSend} and {operatorBurn}."
      },
      "makeLiquidationPayoutsV2(bytes32,bytes,address,bool,address,uint256,int256)": {
        "details": "ISuperfluidToken.makeLiquidationPayoutsV2 implementation"
      },
      "name()": {
        "details": "Returns the name of the token."
      },
      "operationApprove(address,address,uint256)": {
        "details": "Perform ERC20 approve by host contract.",
        "params": {
          "account": "The account owner to be approved.",
          "amount": "Number of tokens to be approved.",
          "spender": "The spender of account owner's funds."
        }
      },
      "operationDowngrade(address,uint256)": {
        "details": "Downgrade ERC20 to SuperToken by host contract.",
        "params": {
          "account": "The account to be changed.",
          "amount": "Number of tokens to be downgraded (in 18 decimals)"
        }
      },
      "operationTransferFrom(address,address,address,uint256)": {
        "details": "Perform ERC20 transfer from by host contract.",
        "params": {
          "account": "The account to spend sender's funds.",
          "amount": "Number of tokens to be transferred.",
          "recipient": "The recipient of thefunds.",
          "spender": "The account where the funds is sent from."
        }
      },
      "operationUpgrade(address,uint256)": {
        "details": "Upgrade ERC20 to SuperToken by host contract.",
        "params": {
          "account": "The account to be changed.",
          "amount": "Number of tokens to be upgraded (in 18 decimals)"
        }
      },
      "operatorBurn(address,uint256,bytes,bytes)": {
        "details": "Destroys `amount` tokens from `account`, reducing the total supply. The caller must be an operator of `account`. If a send hook is registered for `account`, the corresponding function will be called with `data` and `operatorData`. See {IERC777Sender}."
      },
      "operatorSend(address,address,uint256,bytes,bytes)": {
        "details": "Moves `amount` tokens from `sender` to `recipient`. The caller must be an operator of `sender`. If send or receive hooks are registered for `sender` and `recipient`, the corresponding functions will be called with `data` and `operatorData`. See {IERC777Sender} and {IERC777Recipient}."
      },
      "proxiableUUID()": {
        "details": "Proxiable UUID marker function, this would help to avoid wrong logic      contract to be used for upgrading. NOTE: The semantics of the UUID deviates from the actual UUPS standard,       where it is equivalent of _IMPLEMENTATION_SLOT."
      },
      "realtimeBalanceOf(address,uint256)": {
        "details": "ISuperfluidToken.realtimeBalanceOf implementation"
      },
      "realtimeBalanceOfNow(address)": {
        "details": "ISuperfluidToken.realtimeBalanceOfNow implementation"
      },
      "revokeOperator(address)": {
        "details": "Revoke an account's operator status for the caller. See {isOperatorFor} and {defaultOperators}."
      },
      "selfApproveFor(address,address,uint256)": {
        "details": "Give `spender`, `amount` allowance to spend the tokens of `account`."
      },
      "selfBurn(address,uint256,bytes)": {
        "details": "Burn existing tokens for the account"
      },
      "selfMint(address,uint256,bytes)": {
        "details": "Mint new tokens for the account"
      },
      "send(address,uint256,bytes)": {
        "details": "Moves `amount` tokens from the caller's account to `recipient`.If send or receive hooks are registered for the caller and `recipient`,      the corresponding functions will be called with `data` and empty      `operatorData`. See {IERC777Sender} and {IERC777Recipient}."
      },
      "settleBalance(address,int256)": {
        "details": "ISuperfluidToken.settleBalance implementation"
      },
      "symbol()": {
        "details": "Returns the symbol of the token, usually a shorter version of the name."
      },
      "terminateAgreement(bytes32,uint256)": {
        "details": "ISuperfluidToken.terminateAgreement implementation"
      },
      "totalSupply()": {
        "details": "See {IERC20-totalSupply}."
      },
      "transfer(address,uint256)": {
        "details": "Moves `amount` tokens from the caller's account to `recipient`.",
        "returns": {
          "_0": "Returns Success a boolean value indicating whether the operation succeeded."
        }
      },
      "transferAll(address)": {
        "details": "Transfer all available balance from `msg.sender` to `recipient`"
      },
      "updateAgreementData(bytes32,bytes32[])": {
        "details": "ISuperfluidToken.updateAgreementData implementation"
      },
      "updateAgreementStateSlot(address,uint256,bytes32[])": {
        "details": "ISuperfluidToken.updateAgreementState implementation"
      },
      "upgrade(uint256)": {
        "details": "ISuperToken.upgrade implementation"
      },
      "upgradeTo(address,uint256,bytes)": {
        "details": "ISuperToken.upgradeTo implementation"
      }
    },
    "version": 1
  },
  "userdoc": {
    "kind": "user",
    "methods": {
      "isAccountCritical(address,uint256)": {
        "notice": "Check if account is critical"
      },
      "isAccountCriticalNow(address)": {
        "notice": "Check if account is critical now (current host.getNow())"
      },
      "isAccountSolvent(address,uint256)": {
        "notice": "Check if account is solvent"
      },
      "isAccountSolventNow(address)": {
        "notice": "Check if account is solvent now"
      }
    },
    "version": 1
  }
}