{
  "contractName": "SuperfluidDestructorMock",
  "abi": [
    {
      "stateMutability": "nonpayable",
      "type": "fallback"
    },
    {
      "inputs": [],
      "name": "NON_UPGRADABLE_DEPLOYMENT",
      "outputs": [
        {
          "internalType": "bool",
          "name": "",
          "type": "bool"
        }
      ],
      "stateMutability": "view",
      "type": "function"
    }
  ],
  "bytecode": "0x60a06040526000608052348015601457600080fd5b50608051609c61002d600039600060300152609c6000f3fe6080604052348015600f57600080fd5b506004361060285760003560e01c8063cd312ec414602c575b6000ff5b60527f000000000000000000000000000000000000000000000000000000000000000081565b604051901515815260200160405180910390f3fea2646970667358221220c72aa58033c704e7313cf2642e6160244cc73694f0e9667ba20efe757a05f96464736f6c634300080e0033",
  "immutableReferences": {
    "29683": [
      {
        "length": 32,
        "start": 48
      }
    ]
  },
  "source": "// SPDX-License-Identifier: AGPLv3\n// solhint-disable\npragma solidity 0.8.14;\n\ncontract SuperfluidDestructorMock {\n\n    bool immutable public NON_UPGRADABLE_DEPLOYMENT = false;\n\n    fallback() external {\n        // this == impl in this call\n        selfdestruct(payable(0));\n    }\n\n}\n",
  "sourcePath": "/Users/alo/protocol-monorepo/packages/ethereum-contracts/contracts/mocks/SuperfluidDestructorMock.sol",
  "compiler": {
    "name": "solc",
    "version": "0.8.14+commit.80d49f37.Emscripten.clang"
  },
  "schemaVersion": "3.4.8",
  "updatedAt": "2022-07-15T06:25:31.645Z",
  "devdoc": {
    "kind": "dev",
    "methods": {},
    "version": 1
  },
  "userdoc": {
    "kind": "user",
    "methods": {},
    "version": 1
  }
}