{
  "contractName": "SuperTokenFactoryMock",
  "abi": [
    {
      "inputs": [
        {
          "internalType": "contract ISuperfluid",
          "name": "host",
          "type": "address"
        },
        {
          "internalType": "contract SuperTokenFactoryMockHelper",
          "name": "helper",
          "type": "address"
        }
      ],
      "stateMutability": "nonpayable",
      "type": "constructor"
    },
    {
      "anonymous": false,
      "inputs": [
        {
          "indexed": false,
          "internalType": "bytes32",
          "name": "uuid",
          "type": "bytes32"
        },
        {
          "indexed": false,
          "internalType": "address",
          "name": "codeAddress",
          "type": "address"
        }
      ],
      "name": "CodeUpdated",
      "type": "event"
    },
    {
      "anonymous": false,
      "inputs": [
        {
          "indexed": true,
          "internalType": "contract ISuperToken",
          "name": "token",
          "type": "address"
        }
      ],
      "name": "CustomSuperTokenCreated",
      "type": "event"
    },
    {
      "anonymous": false,
      "inputs": [
        {
          "indexed": false,
          "internalType": "uint8",
          "name": "version",
          "type": "uint8"
        }
      ],
      "name": "Initialized",
      "type": "event"
    },
    {
      "anonymous": false,
      "inputs": [
        {
          "indexed": true,
          "internalType": "contract ISuperToken",
          "name": "token",
          "type": "address"
        }
      ],
      "name": "SuperTokenCreated",
      "type": "event"
    },
    {
      "anonymous": false,
      "inputs": [
        {
          "indexed": true,
          "internalType": "contract ISuperToken",
          "name": "tokenLogic",
          "type": "address"
        }
      ],
      "name": "SuperTokenLogicCreated",
      "type": "event"
    },
    {
      "inputs": [
        {
          "internalType": "contract ERC20WithTokenInfo",
          "name": "underlyingToken",
          "type": "address"
        },
        {
          "internalType": "enum ISuperTokenFactory.Upgradability",
          "name": "upgradability",
          "type": "uint8"
        },
        {
          "internalType": "string",
          "name": "name",
          "type": "string"
        },
        {
          "internalType": "string",
          "name": "symbol",
          "type": "string"
        }
      ],
      "name": "createERC20Wrapper",
      "outputs": [
        {
          "internalType": "contract ISuperToken",
          "name": "superToken",
          "type": "address"
        }
      ],
      "stateMutability": "nonpayable",
      "type": "function"
    },
    {
      "inputs": [
        {
          "internalType": "contract IERC20",
          "name": "underlyingToken",
          "type": "address"
        },
        {
          "internalType": "uint8",
          "name": "underlyingDecimals",
          "type": "uint8"
        },
        {
          "internalType": "enum ISuperTokenFactory.Upgradability",
          "name": "upgradability",
          "type": "uint8"
        },
        {
          "internalType": "string",
          "name": "name",
          "type": "string"
        },
        {
          "internalType": "string",
          "name": "symbol",
          "type": "string"
        }
      ],
      "name": "createERC20Wrapper",
      "outputs": [
        {
          "internalType": "contract ISuperToken",
          "name": "superToken",
          "type": "address"
        }
      ],
      "stateMutability": "nonpayable",
      "type": "function"
    },
    {
      "inputs": [],
      "name": "getCodeAddress",
      "outputs": [
        {
          "internalType": "address",
          "name": "codeAddress",
          "type": "address"
        }
      ],
      "stateMutability": "view",
      "type": "function"
    },
    {
      "inputs": [],
      "name": "getHost",
      "outputs": [
        {
          "internalType": "address",
          "name": "host",
          "type": "address"
        }
      ],
      "stateMutability": "view",
      "type": "function"
    },
    {
      "inputs": [],
      "name": "getSuperTokenLogic",
      "outputs": [
        {
          "internalType": "contract ISuperToken",
          "name": "",
          "type": "address"
        }
      ],
      "stateMutability": "view",
      "type": "function"
    },
    {
      "inputs": [],
      "name": "initialize",
      "outputs": [],
      "stateMutability": "nonpayable",
      "type": "function"
    },
    {
      "inputs": [
        {
          "internalType": "address",
          "name": "customSuperTokenProxy",
          "type": "address"
        }
      ],
      "name": "initializeCustomSuperToken",
      "outputs": [],
      "stateMutability": "nonpayable",
      "type": "function"
    },
    {
      "inputs": [],
      "name": "proxiableUUID",
      "outputs": [
        {
          "internalType": "bytes32",
          "name": "",
          "type": "bytes32"
        }
      ],
      "stateMutability": "pure",
      "type": "function"
    },
    {
      "inputs": [
        {
          "internalType": "address",
          "name": "newAddress",
          "type": "address"
        }
      ],
      "name": "updateCode",
      "outputs": [],
      "stateMutability": "nonpayable",
      "type": "function"
    },
    {
      "inputs": [
        {
          "internalType": "contract ISuperfluid",
          "name": "host",
          "type": "address"
        }
      ],
      "name": "createSuperTokenLogic",
      "outputs": [
        {
          "internalType": "address",
          "name": "logic",
          "type": "address"
        }
      ],
      "stateMutability": "nonpayable",
      "type": "function"
    }
  ],
  "bytecode": "0x60c060405234801561001057600080fd5b506040516113b83803806113b883398101604081905261002f9161005e565b6001600160a01b039182166080521660a052610098565b6001600160a01b038116811461005b57600080fd5b50565b6000806040838503121561007157600080fd5b825161007c81610046565b602084015190925061008d81610046565b809150509250929050565b60805160a0516112e76100d160003960006102e401526000818160a501528181610220015281816105210152610a6801526112e76000f3fe608060405234801561001057600080fd5b506004361061009e5760003560e01c806352d1902d1161006657806352d1902d146101255780638129fc1c146101535780639470a5b21461015b578063a6d0c53414610172578063d412d3441461018557600080fd5b806320bc4425146100a3578063431f1481146100e257806346951954146100f55780634dcc4d791461010a57806350d75d251461011d575b600080fd5b7f00000000000000000000000000000000000000000000000000000000000000005b6040516001600160a01b0390911681526020015b60405180910390f35b6100c56100f0366004610bbf565b610198565b610108610103366004610c52565b610215565b005b6100c5610118366004610c52565b6102bb565b6100c5610359565b6040517fb146a22bc9644a3313a7e28592f37d32718a2b618d3d136aa524b0d86b87b62081526020016100d9565b610108610388565b6000546201000090046001600160a01b03166100c5565b6100c5610180366004610c85565b610499565b610108610193366004610c52565b610779565b600061020a87886001600160a01b031663313ce5676040518163ffffffff1660e01b8152600401602060405180830381865afa1580156101dc573d6000803e3d6000fd5b505050506040513d601f19601f820116820180604052508101906102009190610d2b565b8888888888610499565b979650505050505050565b336001600160a01b037f000000000000000000000000000000000000000000000000000000000000000016146102a75760405162461bcd60e51b815260206004820152602c60248201527f5375706572546f6b656e466163746f72793a206f6e6c7920686f73742063616e60448201526b2075706461746520636f646560a01b60648201526084015b60405180910390fd5b6102b081610817565b6102b8610a51565b50565b604051630ecaea7360e01b81526001600160a01b038281166004830152600060248301819052917f000000000000000000000000000000000000000000000000000000000000000090911690630ecaea73906044016020604051808303816000875af115801561032f573d6000803e3d6000fd5b505050506040513d601f19601f820116820180604052508101906103539190610d48565b92915050565b60006103837f360894a13ba1a3210667c828492db98dca3e2076cc3735a920a3ca505d382bbc5490565b905090565b600054610100900460ff16158080156103a85750600054600160ff909116105b806103c25750303b1580156103c2575060005460ff166001145b6104255760405162461bcd60e51b815260206004820152602e60248201527f496e697469616c697a61626c653a20636f6e747261637420697320616c72656160448201526d191e481a5b9a5d1a585b1a5e995960921b606482015260840161029e565b6000805460ff191660011790558015610448576000805461ff0019166101001790555b610450610a51565b80156102b8576000805461ff0019169055604051600181527f7f26b83ff96e1f2b6a682f133852f6798a09c465da95921460cefb3847402498906020015b60405180910390a150565b60006001600160a01b0388166104f15760405162461bcd60e51b815260206004820152601f60248201527f5375706572546f6b656e466163746f72793a207a65726f206164647265737300604482015260640161029e565b600086600281111561050557610505610d65565b0361059b57604051634dcc4d7960e01b81526001600160a01b037f00000000000000000000000000000000000000000000000000000000000000001660048201523090634dcc4d79906024016020604051808303816000875af1158015610570573d6000803e3d6000fd5b505050506040513d601f19601f820116820180604052508101906105949190610d48565b90506106d3565b60018660028111156105af576105af610d65565b0361064f5760006040516105c290610b33565b604051809103906000f0801580156105de573d6000803e3d6000fd5b50600054604051634a0687ef60e01b81526001600160a01b036201000090920482166004820152919250821690634a0687ef90602401600060405180830381600087803b15801561062e57600080fd5b505af1158015610642573d6000803e3d6000fd5b50505050809150506106d3565b600060405161065d90610b40565b604051809103906000f080158015610679573d6000803e3d6000fd5b509050806001600160a01b0316638129fc1c6040518163ffffffff1660e01b8152600401600060405180830381600087803b1580156106b757600080fd5b505af11580156106cb573d6000803e3d6000fd5b509293505050505b6040516285fc1360e71b81526001600160a01b038216906342fe098090610708908b908b908a908a908a908a90600401610da4565b600060405180830381600087803b15801561072257600080fd5b505af1158015610736573d6000803e3d6000fd5b50506040516001600160a01b03841692507fb52c6d9d122e8c07769b96d7bb14e66db58ee03fdebaaa2f92547e9c7ef0e65f9150600090a2979650505050505050565b600054604051634a0687ef60e01b81526001600160a01b0362010000909204821660048201528291821690634a0687ef90602401600060405180830381600087803b1580156107c757600080fd5b505af11580156107db573d6000803e3d6000fd5b50506040516001600160a01b03851692507f437790724a6e97b75d23117f28cdd4b1beeafc34f7a0911ef256e9334f4369a59150600090a25050565b60006108417f360894a13ba1a3210667c828492db98dca3e2076cc3735a920a3ca505d382bbc5490565b6001600160a01b0316036108975760405162461bcd60e51b815260206004820152601d60248201527f5555505350726f786961626c653a206e6f742075706772616461626c65000000604482015260640161029e565b806001600160a01b03166352d1902d6040518163ffffffff1660e01b8152600401602060405180830381865afa1580156108d5573d6000803e3d6000fd5b505050506040513d601f19601f820116820180604052508101906108f99190610df2565b7fb146a22bc9644a3313a7e28592f37d32718a2b618d3d136aa524b0d86b87b620146109735760405162461bcd60e51b815260206004820152602360248201527f5555505350726f786961626c653a206e6f7420636f6d70617469626c65206c6f60448201526267696360e81b606482015260840161029e565b6001600160a01b03811630036109cb5760405162461bcd60e51b815260206004820152601960248201527f5555505350726f786961626c653a2070726f7879206c6f6f7000000000000000604482015260640161029e565b6109f3817f360894a13ba1a3210667c828492db98dca3e2076cc3735a920a3ca505d382bbc55565b7fe011bc04c286c344a8fcbb8de77f953da762c3e25d8cdea984147fc4168a5dcc7fb146a22bc9644a3313a7e28592f37d32718a2b618d3d136aa524b0d86b87b620604080519182526001600160a01b03841660208301520161048e565b604051634dcc4d7960e01b81526001600160a01b037f00000000000000000000000000000000000000000000000000000000000000001660048201523090634dcc4d79906024016020604051808303816000875af1158015610ab7573d6000803e3d6000fd5b505050506040513d601f19601f82011682018060405250810190610adb9190610d48565b6000805462010000600160b01b031916620100006001600160a01b03938416810291909117808355604051919004909216917fc13fb19d60857980e565bf5dae406b8802d3c1cec50c6156b30b12b8740297839190a2565b61024a80610e0c83390190565b61025c8061105683390190565b6001600160a01b03811681146102b857600080fd5b803560038110610b7157600080fd5b919050565b60008083601f840112610b8857600080fd5b50813567ffffffffffffffff811115610ba057600080fd5b602083019150836020828501011115610bb857600080fd5b9250929050565b60008060008060008060808789031215610bd857600080fd5b8635610be381610b4d565b9550610bf160208801610b62565b9450604087013567ffffffffffffffff80821115610c0e57600080fd5b610c1a8a838b01610b76565b90965094506060890135915080821115610c3357600080fd5b50610c4089828a01610b76565b979a9699509497509295939492505050565b600060208284031215610c6457600080fd5b8135610c6f81610b4d565b9392505050565b60ff811681146102b857600080fd5b600080600080600080600060a0888a031215610ca057600080fd5b8735610cab81610b4d565b96506020880135610cbb81610c76565b9550610cc960408901610b62565b9450606088013567ffffffffffffffff80821115610ce657600080fd5b610cf28b838c01610b76565b909650945060808a0135915080821115610d0b57600080fd5b50610d188a828b01610b76565b989b979a50959850939692959293505050565b600060208284031215610d3d57600080fd5b8151610c6f81610c76565b600060208284031215610d5a57600080fd5b8151610c6f81610b4d565b634e487b7160e01b600052602160045260246000fd5b81835281816020850137506000828201602090810191909152601f909101601f19169091010190565b6001600160a01b038716815260ff86166020820152608060408201819052600090610dd29083018688610d7b565b8281036060840152610de5818587610d7b565b9998505050505050505050565b600060208284031215610e0457600080fd5b505191905056fe608060405234801561001057600080fd5b5061022a806100206000396000f3fe6080604052600436106100225760003560e01c80634a0687ef1461003957610031565b366100315761002f610059565b005b61002f610059565b34801561004557600080fd5b5061002f6100543660046101c4565b61006b565b610069610064610171565b6101a0565b565b6001600160a01b0381166100c65760405162461bcd60e51b815260206004820152601760248201527f5555505350726f78793a207a65726f206164647265737300000000000000000060448201526064015b60405180910390fd5b60006100f07f360894a13ba1a3210667c828492db98dca3e2076cc3735a920a3ca505d382bbc5490565b6001600160a01b0316146101465760405162461bcd60e51b815260206004820152601e60248201527f5555505350726f78793a20616c726561647920696e697469616c697a6564000060448201526064016100bd565b61016e817f360894a13ba1a3210667c828492db98dca3e2076cc3735a920a3ca505d382bbc55565b50565b600061019b7f360894a13ba1a3210667c828492db98dca3e2076cc3735a920a3ca505d382bbc5490565b905090565b3660008037600080366000845af43d6000803e8080156101bf573d6000f35b3d6000fd5b6000602082840312156101d657600080fd5b81356001600160a01b03811681146101ed57600080fd5b939250505056fea26469706673582212203110f9cfe43ac366756bef2f6f0b1e6afd1bbf53cf028337b713e0338f22a45864736f6c634300080e0033608060405234801561001057600080fd5b5061023c806100206000396000f3fe6080604052600436106100225760003560e01c80638129fc1c1461003957610031565b366100315761002f61004e565b005b61002f61004e565b34801561004557600080fd5b5061002f610060565b61005e6100596100f9565b61019c565b565b7fb8fcd5719b3ddf8626f3664705a89b7fc476129a58c1aa5eda57c600cc1821a0546001600160a01b038116156100d35760405162461bcd60e51b8152602060048201526013602482015272105b1c9958591e481a5b9a5d1a585b1a5e9959606a1b604482015260640160405180910390fd5b50337fb8fcd5719b3ddf8626f3664705a89b7fc476129a58c1aa5eda57c600cc1821a055565b7fb8fcd5719b3ddf8626f3664705a89b7fc476129a58c1aa5eda57c600cc1821a0546000906001600160a01b038116610134576101346101c0565b806001600160a01b0316639470a5b26040518163ffffffff1660e01b8152600401602060405180830381865afa158015610172573d6000803e3d6000fd5b505050506040513d601f19601f8201168201806040525081019061019691906101d6565b91505090565b3660008037600080366000845af43d6000803e8080156101bb573d6000f35b3d6000fd5b634e487b7160e01b600052600160045260246000fd5b6000602082840312156101e857600080fd5b81516001600160a01b03811681146101ff57600080fd5b939250505056fea2646970667358221220a84acbb824ac831cdca2903dd89d7fd722a30106f852e8fd803f71598e01ba8d64736f6c634300080e0033a26469706673582212207bcc880e3ec29cf02a5e3ed5d8009249f1d7d946e36135f15cdb0495755a032564736f6c634300080e0033",
  "immutableReferences": {
    "29324": [
      {
        "length": 32,
        "start": 740
      }
    ],
    "31907": [
      {
        "length": 32,
        "start": 165
      },
      {
        "length": 32,
        "start": 544
      },
      {
        "length": 32,
        "start": 1313
      },
      {
        "length": 32,
        "start": 2664
      }
    ]
  },
  "source": "// SPDX-License-Identifier: AGPLv3\npragma solidity 0.8.14;\n\nimport { SuperTokenMock } from \"./SuperTokenMock.sol\";\nimport {\n    SuperTokenFactoryBase,\n    ISuperfluid\n} from \"../superfluid/SuperTokenFactory.sol\";\n\ncontract SuperTokenFactoryStorageLayoutTester is SuperTokenFactoryBase {\n\n    constructor(\n        ISuperfluid host\n    )\n        SuperTokenFactoryBase(host)\n        // solhint-disable-next-line no-empty-blocks\n    {\n    }\n\n    // @dev Make sure the storage layout never change over the course of the development\n    function validateStorageLayout() external pure {\n        uint256 slot;\n        uint256 offset;\n\n        // Initializable bool _initialized and bool _initialized\n\n        assembly { slot:= _superTokenLogic.slot offset := _superTokenLogic.offset }\n        require (slot == 0 && offset == 2, \"_superTokenLogic changed location\");\n    }\n\n    // dummy impl\n    function createSuperTokenLogic(ISuperfluid)\n        external pure override\n        returns (address)\n    {\n        return address(0);\n    }\n}\n\n// spliting this off because the contract is getting bigger\ncontract SuperTokenFactoryMockHelper {\n    function create(ISuperfluid host, uint256 waterMark)\n        external\n        returns (address logic)\n    {\n        SuperTokenMock superToken = new SuperTokenMock(host, waterMark);\n        return address(superToken);\n    }\n}\n\ncontract SuperTokenFactoryMock is SuperTokenFactoryBase\n{\n    SuperTokenFactoryMockHelper immutable private _helper;\n\n    constructor(\n        ISuperfluid host,\n        SuperTokenFactoryMockHelper helper\n    )\n        SuperTokenFactoryBase(host)\n    {\n        _helper = helper;\n    }\n\n    function createSuperTokenLogic(ISuperfluid host)\n        external override\n        returns (address logic)\n    {\n        return _helper.create(host, 0);\n    }\n\n}\n\ncontract SuperTokenFactoryMock42 is SuperTokenFactoryBase\n{\n\n    SuperTokenFactoryMockHelper immutable private _helper;\n\n    constructor(\n        ISuperfluid host,\n        SuperTokenFactoryMockHelper helper\n    )\n        SuperTokenFactoryBase(host)\n    {\n        _helper = helper;\n    }\n\n    function createSuperTokenLogic(ISuperfluid host)\n        external override\n        returns (address logic)\n    {\n        return _helper.create(host, 42);\n    }\n\n}\n",
  "sourcePath": "/Users/alo/protocol-monorepo/packages/ethereum-contracts/contracts/mocks/SuperTokenFactoryMock.sol",
  "compiler": {
    "name": "solc",
    "version": "0.8.14+commit.80d49f37.Emscripten.clang"
  },
  "schemaVersion": "3.4.8",
  "updatedAt": "2022-07-15T06:25:31.610Z",
  "devdoc": {
    "kind": "dev",
    "methods": {
      "createERC20Wrapper(address,uint8,string,string)": {
        "details": "Create new super token wrapper for the underlying ERC20 token with extra token info",
        "params": {
          "name": "Super token name",
          "symbol": "Super token symbol NOTE: - It assumes token provide the .decimals() function",
          "underlyingToken": "Underlying ERC20 token",
          "upgradability": "Upgradability mode"
        }
      },
      "createERC20Wrapper(address,uint8,uint8,string,string)": {
        "details": "Create new super token wrapper for the underlying ERC20 token",
        "params": {
          "name": "Super token name",
          "symbol": "Super token symbol",
          "underlyingDecimals": "Underlying token decimals",
          "underlyingToken": "Underlying ERC20 token",
          "upgradability": "Upgradability mode"
        }
      },
      "getCodeAddress()": {
        "details": "Get current implementation code address."
      },
      "getHost()": {
        "details": "ISuperTokenFactory.getHost implementation"
      },
      "getSuperTokenLogic()": {
        "details": "Get the current super token logic used by the factory"
      },
      "initialize()": {
        "details": "Initialize the contract"
      },
      "proxiableUUID()": {
        "details": "Proxiable UUID marker function, this would help to avoid wrong logic      contract to be used for upgrading. NOTE: The semantics of the UUID deviates from the actual UUPS standard,       where it is equivalent of _IMPLEMENTATION_SLOT."
      }
    },
    "version": 1
  },
  "userdoc": {
    "kind": "user",
    "methods": {},
    "version": 1
  }
}