{
  "contractName": "SuperfluidUpgradabilityTester",
  "abi": [
    {
      "inputs": [],
      "stateMutability": "nonpayable",
      "type": "constructor"
    },
    {
      "anonymous": false,
      "inputs": [
        {
          "indexed": false,
          "internalType": "bytes32",
          "name": "agreementType",
          "type": "bytes32"
        },
        {
          "indexed": false,
          "internalType": "address",
          "name": "code",
          "type": "address"
        }
      ],
      "name": "AgreementClassRegistered",
      "type": "event"
    },
    {
      "anonymous": false,
      "inputs": [
        {
          "indexed": false,
          "internalType": "bytes32",
          "name": "agreementType",
          "type": "bytes32"
        },
        {
          "indexed": false,
          "internalType": "address",
          "name": "code",
          "type": "address"
        }
      ],
      "name": "AgreementClassUpdated",
      "type": "event"
    },
    {
      "anonymous": false,
      "inputs": [
        {
          "indexed": true,
          "internalType": "contract ISuperApp",
          "name": "app",
          "type": "address"
        }
      ],
      "name": "AppRegistered",
      "type": "event"
    },
    {
      "anonymous": false,
      "inputs": [
        {
          "indexed": false,
          "internalType": "bytes32",
          "name": "uuid",
          "type": "bytes32"
        },
        {
          "indexed": false,
          "internalType": "address",
          "name": "codeAddress",
          "type": "address"
        }
      ],
      "name": "CodeUpdated",
      "type": "event"
    },
    {
      "anonymous": false,
      "inputs": [
        {
          "indexed": false,
          "internalType": "contract ISuperfluidGovernance",
          "name": "oldGov",
          "type": "address"
        },
        {
          "indexed": false,
          "internalType": "contract ISuperfluidGovernance",
          "name": "newGov",
          "type": "address"
        }
      ],
      "name": "GovernanceReplaced",
      "type": "event"
    },
    {
      "anonymous": false,
      "inputs": [
        {
          "indexed": false,
          "internalType": "uint8",
          "name": "version",
          "type": "uint8"
        }
      ],
      "name": "Initialized",
      "type": "event"
    },
    {
      "anonymous": false,
      "inputs": [
        {
          "indexed": true,
          "internalType": "contract ISuperApp",
          "name": "app",
          "type": "address"
        },
        {
          "indexed": false,
          "internalType": "uint256",
          "name": "reason",
          "type": "uint256"
        }
      ],
      "name": "Jail",
      "type": "event"
    },
    {
      "anonymous": false,
      "inputs": [
        {
          "indexed": false,
          "internalType": "contract ISuperTokenFactory",
          "name": "newFactory",
          "type": "address"
        }
      ],
      "name": "SuperTokenFactoryUpdated",
      "type": "event"
    },
    {
      "anonymous": false,
      "inputs": [
        {
          "indexed": true,
          "internalType": "contract ISuperToken",
          "name": "token",
          "type": "address"
        },
        {
          "indexed": false,
          "internalType": "address",
          "name": "code",
          "type": "address"
        }
      ],
      "name": "SuperTokenLogicUpdated",
      "type": "event"
    },
    {
      "inputs": [],
      "name": "APP_WHITE_LISTING_ENABLED",
      "outputs": [
        {
          "internalType": "bool",
          "name": "",
          "type": "bool"
        }
      ],
      "stateMutability": "view",
      "type": "function"
    },
    {
      "inputs": [],
      "name": "CALLBACK_GAS_LIMIT",
      "outputs": [
        {
          "internalType": "uint64",
          "name": "",
          "type": "uint64"
        }
      ],
      "stateMutability": "view",
      "type": "function"
    },
    {
      "inputs": [],
      "name": "MAX_APP_LEVEL",
      "outputs": [
        {
          "internalType": "uint256",
          "name": "",
          "type": "uint256"
        }
      ],
      "stateMutability": "view",
      "type": "function"
    },
    {
      "inputs": [],
      "name": "NON_UPGRADABLE_DEPLOYMENT",
      "outputs": [
        {
          "internalType": "bool",
          "name": "",
          "type": "bool"
        }
      ],
      "stateMutability": "view",
      "type": "function"
    },
    {
      "inputs": [
        {
          "internalType": "uint256",
          "name": "bitmap",
          "type": "uint256"
        },
        {
          "internalType": "bytes32",
          "name": "agreementType",
          "type": "bytes32"
        }
      ],
      "name": "addToAgreementClassesBitmap",
      "outputs": [
        {
          "internalType": "uint256",
          "name": "newBitmap",
          "type": "uint256"
        }
      ],
      "stateMutability": "view",
      "type": "function"
    },
    {
      "inputs": [
        {
          "internalType": "contract ISuperApp",
          "name": "targetApp",
          "type": "address"
        }
      ],
      "name": "allowCompositeApp",
      "outputs": [],
      "stateMutability": "nonpayable",
      "type": "function"
    },
    {
      "inputs": [
        {
          "internalType": "bytes",
          "name": "ctx",
          "type": "bytes"
        },
        {
          "internalType": "int256",
          "name": "appAllowanceUsedDelta",
          "type": "int256"
        }
      ],
      "name": "appCallbackPop",
      "outputs": [
        {
          "internalType": "bytes",
          "name": "newCtx",
          "type": "bytes"
        }
      ],
      "stateMutability": "nonpayable",
      "type": "function"
    },
    {
      "inputs": [
        {
          "internalType": "bytes",
          "name": "ctx",
          "type": "bytes"
        },
        {
          "internalType": "contract ISuperApp",
          "name": "app",
          "type": "address"
        },
        {
          "internalType": "uint256",
          "name": "appAllowanceGranted",
          "type": "uint256"
        },
        {
          "internalType": "int256",
          "name": "appAllowanceUsed",
          "type": "int256"
        },
        {
          "internalType": "contract ISuperfluidToken",
          "name": "appAllowanceToken",
          "type": "address"
        }
      ],
      "name": "appCallbackPush",
      "outputs": [
        {
          "internalType": "bytes",
          "name": "appCtx",
          "type": "bytes"
        }
      ],
      "stateMutability": "nonpayable",
      "type": "function"
    },
    {
      "inputs": [
        {
          "components": [
            {
              "internalType": "uint32",
              "name": "operationType",
              "type": "uint32"
            },
            {
              "internalType": "address",
              "name": "target",
              "type": "address"
            },
            {
              "internalType": "bytes",
              "name": "data",
              "type": "bytes"
            }
          ],
          "internalType": "struct ISuperfluid.Operation[]",
          "name": "operations",
          "type": "tuple[]"
        }
      ],
      "name": "batchCall",
      "outputs": [],
      "stateMutability": "nonpayable",
      "type": "function"
    },
    {
      "inputs": [
        {
          "internalType": "contract ISuperAgreement",
          "name": "agreementClass",
          "type": "address"
        },
        {
          "internalType": "bytes",
          "name": "callData",
          "type": "bytes"
        },
        {
          "internalType": "bytes",
          "name": "userData",
          "type": "bytes"
        }
      ],
      "name": "callAgreement",
      "outputs": [
        {
          "internalType": "bytes",
          "name": "returnedData",
          "type": "bytes"
        }
      ],
      "stateMutability": "nonpayable",
      "type": "function"
    },
    {
      "inputs": [
        {
          "internalType": "contract ISuperAgreement",
          "name": "agreementClass",
          "type": "address"
        },
        {
          "internalType": "bytes",
          "name": "callData",
          "type": "bytes"
        },
        {
          "internalType": "bytes",
          "name": "userData",
          "type": "bytes"
        },
        {
          "internalType": "bytes",
          "name": "ctx",
          "type": "bytes"
        }
      ],
      "name": "callAgreementWithContext",
      "outputs": [
        {
          "internalType": "bytes",
          "name": "newCtx",
          "type": "bytes"
        },
        {
          "internalType": "bytes",
          "name": "returnedData",
          "type": "bytes"
        }
      ],
      "stateMutability": "nonpayable",
      "type": "function"
    },
    {
      "inputs": [
        {
          "internalType": "contract ISuperApp",
          "name": "app",
          "type": "address"
        },
        {
          "internalType": "bytes",
          "name": "callData",
          "type": "bytes"
        }
      ],
      "name": "callAppAction",
      "outputs": [
        {
          "internalType": "bytes",
          "name": "returnedData",
          "type": "bytes"
        }
      ],
      "stateMutability": "nonpayable",
      "type": "function"
    },
    {
      "inputs": [
        {
          "internalType": "contract ISuperApp",
          "name": "app",
          "type": "address"
        },
        {
          "internalType": "bytes",
          "name": "callData",
          "type": "bytes"
        },
        {
          "internalType": "bytes",
          "name": "ctx",
          "type": "bytes"
        }
      ],
      "name": "callAppActionWithContext",
      "outputs": [
        {
          "internalType": "bytes",
          "name": "newCtx",
          "type": "bytes"
        }
      ],
      "stateMutability": "nonpayable",
      "type": "function"
    },
    {
      "inputs": [
        {
          "internalType": "contract ISuperApp",
          "name": "app",
          "type": "address"
        },
        {
          "internalType": "bytes",
          "name": "callData",
          "type": "bytes"
        },
        {
          "internalType": "bool",
          "name": "isTermination",
          "type": "bool"
        },
        {
          "internalType": "bytes",
          "name": "ctx",
          "type": "bytes"
        }
      ],
      "name": "callAppAfterCallback",
      "outputs": [
        {
          "internalType": "bytes",
          "name": "newCtx",
          "type": "bytes"
        }
      ],
      "stateMutability": "nonpayable",
      "type": "function"
    },
    {
      "inputs": [
        {
          "internalType": "contract ISuperApp",
          "name": "app",
          "type": "address"
        },
        {
          "internalType": "bytes",
          "name": "callData",
          "type": "bytes"
        },
        {
          "internalType": "bool",
          "name": "isTermination",
          "type": "bool"
        },
        {
          "internalType": "bytes",
          "name": "ctx",
          "type": "bytes"
        }
      ],
      "name": "callAppBeforeCallback",
      "outputs": [
        {
          "internalType": "bytes",
          "name": "cbdata",
          "type": "bytes"
        }
      ],
      "stateMutability": "nonpayable",
      "type": "function"
    },
    {
      "inputs": [
        {
          "internalType": "bytes",
          "name": "ctx",
          "type": "bytes"
        },
        {
          "internalType": "uint256",
          "name": "appAllowanceWantedMore",
          "type": "uint256"
        },
        {
          "internalType": "int256",
          "name": "appAllowanceUsedDelta",
          "type": "int256"
        }
      ],
      "name": "ctxUseAllowance",
      "outputs": [
        {
          "internalType": "bytes",
          "name": "newCtx",
          "type": "bytes"
        }
      ],
      "stateMutability": "nonpayable",
      "type": "function"
    },
    {
      "inputs": [
        {
          "internalType": "bytes",
          "name": "ctx",
          "type": "bytes"
        }
      ],
      "name": "decodeCtx",
      "outputs": [
        {
          "components": [
            {
              "internalType": "uint8",
              "name": "appLevel",
              "type": "uint8"
            },
            {
              "internalType": "uint8",
              "name": "callType",
              "type": "uint8"
            },
            {
              "internalType": "uint256",
              "name": "timestamp",
              "type": "uint256"
            },
            {
              "internalType": "address",
              "name": "msgSender",
              "type": "address"
            },
            {
              "internalType": "bytes4",
              "name": "agreementSelector",
              "type": "bytes4"
            },
            {
              "internalType": "bytes",
              "name": "userData",
              "type": "bytes"
            },
            {
              "internalType": "uint256",
              "name": "appAllowanceGranted",
              "type": "uint256"
            },
            {
              "internalType": "uint256",
              "name": "appAllowanceWanted",
              "type": "uint256"
            },
            {
              "internalType": "int256",
              "name": "appAllowanceUsed",
              "type": "int256"
            },
            {
              "internalType": "address",
              "name": "appAddress",
              "type": "address"
            },
            {
              "internalType": "contract ISuperfluidToken",
              "name": "appAllowanceToken",
              "type": "address"
            }
          ],
          "internalType": "struct ISuperfluid.Context",
          "name": "context",
          "type": "tuple"
        }
      ],
      "stateMutability": "pure",
      "type": "function"
    },
    {
      "inputs": [
        {
          "components": [
            {
              "internalType": "uint32",
              "name": "operationType",
              "type": "uint32"
            },
            {
              "internalType": "address",
              "name": "target",
              "type": "address"
            },
            {
              "internalType": "bytes",
              "name": "data",
              "type": "bytes"
            }
          ],
          "internalType": "struct ISuperfluid.Operation[]",
          "name": "operations",
          "type": "tuple[]"
        }
      ],
      "name": "forwardBatchCall",
      "outputs": [],
      "stateMutability": "nonpayable",
      "type": "function"
    },
    {
      "inputs": [
        {
          "internalType": "bytes32",
          "name": "agreementType",
          "type": "bytes32"
        }
      ],
      "name": "getAgreementClass",
      "outputs": [
        {
          "internalType": "contract ISuperAgreement",
          "name": "agreementClass",
          "type": "address"
        }
      ],
      "stateMutability": "view",
      "type": "function"
    },
    {
      "inputs": [
        {
          "internalType": "contract ISuperApp",
          "name": "appAddr",
          "type": "address"
        }
      ],
      "name": "getAppLevel",
      "outputs": [
        {
          "internalType": "uint8",
          "name": "",
          "type": "uint8"
        }
      ],
      "stateMutability": "view",
      "type": "function"
    },
    {
      "inputs": [
        {
          "internalType": "contract ISuperApp",
          "name": "app",
          "type": "address"
        }
      ],
      "name": "getAppManifest",
      "outputs": [
        {
          "internalType": "bool",
          "name": "isSuperApp",
          "type": "bool"
        },
        {
          "internalType": "bool",
          "name": "isJailed",
          "type": "bool"
        },
        {
          "internalType": "uint256",
          "name": "noopMask",
          "type": "uint256"
        }
      ],
      "stateMutability": "view",
      "type": "function"
    },
    {
      "inputs": [],
      "name": "getCodeAddress",
      "outputs": [
        {
          "internalType": "address",
          "name": "codeAddress",
          "type": "address"
        }
      ],
      "stateMutability": "view",
      "type": "function"
    },
    {
      "inputs": [],
      "name": "getGovernance",
      "outputs": [
        {
          "internalType": "contract ISuperfluidGovernance",
          "name": "",
          "type": "address"
        }
      ],
      "stateMutability": "view",
      "type": "function"
    },
    {
      "inputs": [],
      "name": "getNow",
      "outputs": [
        {
          "internalType": "uint256",
          "name": "",
          "type": "uint256"
        }
      ],
      "stateMutability": "view",
      "type": "function"
    },
    {
      "inputs": [],
      "name": "getSuperTokenFactory",
      "outputs": [
        {
          "internalType": "contract ISuperTokenFactory",
          "name": "factory",
          "type": "address"
        }
      ],
      "stateMutability": "view",
      "type": "function"
    },
    {
      "inputs": [],
      "name": "getSuperTokenFactoryLogic",
      "outputs": [
        {
          "internalType": "address",
          "name": "logic",
          "type": "address"
        }
      ],
      "stateMutability": "view",
      "type": "function"
    },
    {
      "inputs": [
        {
          "internalType": "contract ISuperfluidGovernance",
          "name": "gov",
          "type": "address"
        }
      ],
      "name": "initialize",
      "outputs": [],
      "stateMutability": "nonpayable",
      "type": "function"
    },
    {
      "inputs": [
        {
          "internalType": "contract ISuperAgreement",
          "name": "agreementClass",
          "type": "address"
        }
      ],
      "name": "isAgreementClassListed",
      "outputs": [
        {
          "internalType": "bool",
          "name": "yes",
          "type": "bool"
        }
      ],
      "stateMutability": "view",
      "type": "function"
    },
    {
      "inputs": [
        {
          "internalType": "bytes32",
          "name": "agreementType",
          "type": "bytes32"
        }
      ],
      "name": "isAgreementTypeListed",
      "outputs": [
        {
          "internalType": "bool",
          "name": "yes",
          "type": "bool"
        }
      ],
      "stateMutability": "view",
      "type": "function"
    },
    {
      "inputs": [
        {
          "internalType": "contract ISuperApp",
          "name": "app",
          "type": "address"
        }
      ],
      "name": "isApp",
      "outputs": [
        {
          "internalType": "bool",
          "name": "",
          "type": "bool"
        }
      ],
      "stateMutability": "view",
      "type": "function"
    },
    {
      "inputs": [
        {
          "internalType": "contract ISuperApp",
          "name": "app",
          "type": "address"
        }
      ],
      "name": "isAppJailed",
      "outputs": [
        {
          "internalType": "bool",
          "name": "",
          "type": "bool"
        }
      ],
      "stateMutability": "view",
      "type": "function"
    },
    {
      "inputs": [
        {
          "internalType": "contract ISuperApp",
          "name": "app",
          "type": "address"
        },
        {
          "internalType": "contract ISuperApp",
          "name": "targetApp",
          "type": "address"
        }
      ],
      "name": "isCompositeAppAllowed",
      "outputs": [
        {
          "internalType": "bool",
          "name": "",
          "type": "bool"
        }
      ],
      "stateMutability": "view",
      "type": "function"
    },
    {
      "inputs": [
        {
          "internalType": "bytes",
          "name": "ctx",
          "type": "bytes"
        }
      ],
      "name": "isCtxValid",
      "outputs": [
        {
          "internalType": "bool",
          "name": "",
          "type": "bool"
        }
      ],
      "stateMutability": "view",
      "type": "function"
    },
    {
      "inputs": [
        {
          "internalType": "address",
          "name": "forwarder",
          "type": "address"
        }
      ],
      "name": "isTrustedForwarder",
      "outputs": [
        {
          "internalType": "bool",
          "name": "",
          "type": "bool"
        }
      ],
      "stateMutability": "view",
      "type": "function"
    },
    {
      "inputs": [
        {
          "internalType": "bytes",
          "name": "ctx",
          "type": "bytes"
        },
        {
          "internalType": "contract ISuperApp",
          "name": "app",
          "type": "address"
        },
        {
          "internalType": "uint256",
          "name": "reason",
          "type": "uint256"
        }
      ],
      "name": "jailApp",
      "outputs": [
        {
          "internalType": "bytes",
          "name": "newCtx",
          "type": "bytes"
        }
      ],
      "stateMutability": "nonpayable",
      "type": "function"
    },
    {
      "inputs": [
        {
          "internalType": "uint256",
          "name": "bitmap",
          "type": "uint256"
        }
      ],
      "name": "mapAgreementClasses",
      "outputs": [
        {
          "internalType": "contract ISuperAgreement[]",
          "name": "agreementClasses",
          "type": "address[]"
        }
      ],
      "stateMutability": "view",
      "type": "function"
    },
    {
      "inputs": [],
      "name": "proxiableUUID",
      "outputs": [
        {
          "internalType": "bytes32",
          "name": "",
          "type": "bytes32"
        }
      ],
      "stateMutability": "pure",
      "type": "function"
    },
    {
      "inputs": [
        {
          "internalType": "contract ISuperAgreement",
          "name": "agreementClassLogic",
          "type": "address"
        }
      ],
      "name": "registerAgreementClass",
      "outputs": [],
      "stateMutability": "nonpayable",
      "type": "function"
    },
    {
      "inputs": [
        {
          "internalType": "uint256",
          "name": "configWord",
          "type": "uint256"
        }
      ],
      "name": "registerApp",
      "outputs": [],
      "stateMutability": "nonpayable",
      "type": "function"
    },
    {
      "inputs": [
        {
          "internalType": "contract ISuperApp",
          "name": "app",
          "type": "address"
        },
        {
          "internalType": "uint256",
          "name": "configWord",
          "type": "uint256"
        }
      ],
      "name": "registerAppByFactory",
      "outputs": [],
      "stateMutability": "nonpayable",
      "type": "function"
    },
    {
      "inputs": [
        {
          "internalType": "uint256",
          "name": "configWord",
          "type": "uint256"
        },
        {
          "internalType": "string",
          "name": "registrationKey",
          "type": "string"
        }
      ],
      "name": "registerAppWithKey",
      "outputs": [],
      "stateMutability": "nonpayable",
      "type": "function"
    },
    {
      "inputs": [
        {
          "internalType": "uint256",
          "name": "bitmap",
          "type": "uint256"
        },
        {
          "internalType": "bytes32",
          "name": "agreementType",
          "type": "bytes32"
        }
      ],
      "name": "removeFromAgreementClassesBitmap",
      "outputs": [
        {
          "internalType": "uint256",
          "name": "newBitmap",
          "type": "uint256"
        }
      ],
      "stateMutability": "view",
      "type": "function"
    },
    {
      "inputs": [
        {
          "internalType": "contract ISuperfluidGovernance",
          "name": "newGov",
          "type": "address"
        }
      ],
      "name": "replaceGovernance",
      "outputs": [],
      "stateMutability": "nonpayable",
      "type": "function"
    },
    {
      "inputs": [
        {
          "internalType": "contract ISuperAgreement",
          "name": "agreementClassLogic",
          "type": "address"
        }
      ],
      "name": "updateAgreementClass",
      "outputs": [],
      "stateMutability": "nonpayable",
      "type": "function"
    },
    {
      "inputs": [
        {
          "internalType": "address",
          "name": "newAddress",
          "type": "address"
        }
      ],
      "name": "updateCode",
      "outputs": [],
      "stateMutability": "nonpayable",
      "type": "function"
    },
    {
      "inputs": [
        {
          "internalType": "contract ISuperTokenFactory",
          "name": "newFactory",
          "type": "address"
        }
      ],
      "name": "updateSuperTokenFactory",
      "outputs": [],
      "stateMutability": "nonpayable",
      "type": "function"
    },
    {
      "inputs": [
        {
          "internalType": "contract ISuperToken",
          "name": "token",
          "type": "address"
        }
      ],
      "name": "updateSuperTokenLogic",
      "outputs": [],
      "stateMutability": "nonpayable",
      "type": "function"
    },
    {
      "inputs": [],
      "name": "versionRecipient",
      "outputs": [
        {
          "internalType": "string",
          "name": "",
          "type": "string"
        }
      ],
      "stateMutability": "pure",
      "type": "function"
    },
    {
      "inputs": [],
      "name": "validateStorageLayout",
      "outputs": [],
      "stateMutability": "pure",
      "type": "function"
    },
    {
      "inputs": [],
      "name": "validateContextStructLayout",
      "outputs": [],
      "stateMutability": "pure",
      "type": "function"
    }
  ],
  "bytecode": "0x610100604052600160c052622dc6c060e05234801561001d57600080fd5b506000608081905260a05260805160a05160c05160e051615723620000b6600039600081816103a701528181612ebf0152612f4d0152600081816107380152612cfc0152600081816105bb01528181611f77015281816125800152612a000152600081816106ef015281816107e801528181610c0e015281816112e40152818161145b015281816115ba015261290301526157236000f3fe608060405234801561001057600080fd5b50600436106102d65760003560e01c8063768fabb011610182578063bced3ddc116100e9578063e8dccb7d116100a2578063f37330521161007c578063f373305214610762578063f99a38c4146102ee578063f9f522f414610775578063fbdb0ee2146107a557600080fd5b8063e8dccb7d14610711578063f213bb0214610733578063f2e55caf1461075a57600080fd5b8063bced3ddc1461067e578063bd1c448b14610691578063bf428734146106a4578063c4d66de8146106b7578063c56a069d146106ca578063cd312ec4146106ea57600080fd5b8063ad3915c81161013b578063ad3915c8146105f0578063b6d200de14610603578063b724211e14610616578063ba48b5f814610629578063bb84cfa11461063c578063bbe4fd501461067857600080fd5b8063768fabb01461056a578063787afde71461057d5780638ca4848414610590578063989b0c3e146105a35780639d297e30146105b6578063a5dbbbcd146105dd57600080fd5b80634695195411610241578063572b6c05116101fa5780636b4f3335116101d45780636b4f3335146105205780637283100c14610533578063731aed6e1461054657806374041e021461055757600080fd5b8063572b6c05146104e7578063670e77e3146104fa5780636ad3ca7d1461050d57600080fd5b80634695195414610458578063486ff0cd1461046b57806350d75d251461048957806352d1902d1461049157806354fbc493146104c157806357121e0c146104d457600080fd5b8063289b3c0d11610293578063289b3c0d1461037757806333d608f1146103a257806339255d5b146103e15780633ca3ad4e146103f45780633f6c923a146104175780634329d2931461043757600080fd5b806306cecba8146102db5780630792f20a146102f0578063133490461461031957806315a024e11461033e5780631e6d0a84146103515780631e855cf314610364575b600080fd5b6102ee6102e936600461448a565b6107ad565b005b6103036102fe3660046144ef565b61098a565b6040516103109190614597565b60405180910390f35b61032c61032736600461448a565b610a82565b60405160ff9091168152602001610310565b6102ee61034c36600461448a565b610aa5565b61030361035f3660046145b8565b610d71565b610303610372366004614739565b610fdf565b6000546201000090046001600160a01b03165b6040516001600160a01b039091168152602001610310565b6103c97f000000000000000000000000000000000000000000000000000000000000000081565b6040516001600160401b039091168152602001610310565b6103036103ef366004614788565b610ff3565b61040761040236600461448a565b611009565b6040519015158152602001610310565b61042a6104253660046147fd565b611026565b6040516103109190614831565b61044a610445366004614912565b611037565b6040516103109291906149be565b6102ee61046636600461448a565b6112b2565b604080518082019091526002815261763160f01b6020820152610303565b61038a6113ea565b7fcd355cae2c435f8c5e0c626c4691d22fd85aa7422a424c6f0bced6e64c7aba745b604051908152602001610310565b6102ee6104cf36600461448a565b611419565b6102ee6104e236600461448a565b61169a565b6104076104f536600461448a565b6117f0565b6102ee6105083660046149e3565b61187a565b6102ee61051b3660046149e3565b61188b565b61040761052e36600461448a565b611895565b6102ee61054136600461448a565b6118b9565b6003546001600160a01b031661038a565b6103036105653660046145b8565b611960565b610303610578366004614afc565b611ada565b6102ee61058b36600461448a565b611c92565b61040761059e36600461448a565b611dd4565b6103036105b1366004614b77565b611e99565b6104077f000000000000000000000000000000000000000000000000000000000000000081565b6104b36105eb366004614bc2565b611f2c565b6102ee6105fe366004614be4565b611f75565b61038a610611366004614be4565b612000565b610303610624366004614bfd565b612066565b610303610637366004614c59565b612126565b61040761064a366004614cdb565b6001600160a01b03918216600090815260056020908152604080832093909416825291909152205460ff1690565b426104b3565b6104b361068c366004614bc2565b6124f2565b6102ee61069f366004614d14565b61253a565b6104076106b2366004614d5f565b61268f565b6102ee6106c536600461448a565b6126d0565b6106dd6106d8366004614be4565b6127fc565b6040516103109190614da0565b6104077f000000000000000000000000000000000000000000000000000000000000000081565b61040761071f366004614be4565b600090815260026020526040902054151590565b6104b37f000000000000000000000000000000000000000000000000000000000000000081565b61038a6128e6565b6102ee610770366004614ded565b6129ae565b61078861078336600461448a565b612b10565b604080519315158452911515602084015290820152606001610310565b6102ee612b5f565b6000546201000090046001600160a01b031633146107e65760405162461bcd60e51b81526004016107dd90614e19565b60405180910390fd5b7f0000000000000000000000000000000000000000000000000000000000000000156108245760405162461bcd60e51b81526004016107dd90614e50565b6000816001600160a01b0316637730599e6040518163ffffffff1660e01b8152600401602060405180830381865afa158015610864573d6000803e3d6000fd5b505050506040513d601f19601f820116820180604052508101906108889190614e7c565b6000818152600260205260408120549192508190036108b95760405162461bcd60e51b81526004016107dd90614e95565b600060016108c78184614eed565b815481106108d7576108d7614f04565b6000918252602090912001546040516311a5465560e21b81526001600160a01b03868116600483015290911691508190634695195490602401600060405180830381600087803b15801561092a57600080fd5b505af115801561093e573d6000803e3d6000fd5b5050604080518681526001600160a01b03881660208201527f9279aa773f2b588996032d8de89911555039f28b13a11a7c17074330bc082d9a935001905060405180910390a150505050565b606061099533611dd4565b6109b15760405162461bcd60e51b81526004016107dd90614f1a565b84848080601f0160208091040260200160405190810160405280939291908181526020018383808284376000920191909152506109f39250839150612cd89050565b6109ff576109ff614f5d565b6000610a4087878080601f01602080910402602001604051908101604052809392919081815260200183838082843760009201919091525061102692505050565b9050848160e00151610a529190614f73565b60e0820152610100810151610a68908590614f8b565b610100820152610a7781612cf8565b979650505050505050565b6001600160a01b03811660009081526004602052604081205460ff165b92915050565b6000546201000090046001600160a01b03163314610ad55760405162461bcd60e51b81526004016107dd90614e19565b6000816001600160a01b0316637730599e6040518163ffffffff1660e01b8152600401602060405180830381865afa158015610b15573d6000803e3d6000fd5b505050506040513d601f19601f82011682018060405250810190610b399190614e7c565b60008181526002602052604090205490915015610ba75760405162461bcd60e51b815260206004820152602660248201527f53463a2061677265656d656e7420636c61737320616c726561647920726567696044820152651cdd195c995960d21b60648201526084016107dd565b60015461010011610c0a5760405162461bcd60e51b815260206004820152602760248201527f53463a20737570706f727420757020746f203235362061677265656d656e7420604482015266636c617373657360c81b60648201526084016107dd565b60007f0000000000000000000000000000000000000000000000000000000000000000610cc4576000604051610c3f9061440d565b604051809103906000f080158015610c5b573d6000803e3d6000fd5b50604051634a0687ef60e01b81526001600160a01b03868116600483015291925090821690634a0687ef90602401600060405180830381600087803b158015610ca357600080fd5b505af1158015610cb7573d6000803e3d6000fd5b5050505080915050610cc7565b50815b6001805480820182557fb10e2d527612073b26eecdfd717e6a320cf44b4afac2b0732d9fcbe2b7fa0cf60180546001600160a01b0384166001600160a01b0319909116179055546000838152600260205260409081902091909155517f878135063a6cfb3bc333e534b1fdc83f4f12221cad6705c31c0567048a8bd3d190610d6490849086909182526001600160a01b0316602082015260400190565b60405180910390a1505050565b6060610d7c33611dd4565b610d985760405162461bcd60e51b81526004016107dd90614f1a565b82828080601f016020809104026020016040519081016040528093929190818152602001838380828437600092019190915250610dda9250839150612cd89050565b610de657610de6614f5d565b600080610e608a6000898c8c8080601f01602080910402602001604051908101604052809392919081815260200183838082843760009201919091525050604080516020601f8f018190048102820181019092528d815292508d91508c9081908401838280828437600092019190915250612e8292505050565b915091508115610f9857610e7381613049565b15610f045780806020019051810190610e8c9190615011565b9350610e9784612cd8565b610eff5786610eb85760405162461bcd60e51b81526004016107dd90615045565b85858080601f016020809104026020016040519081016040528093929190818152602001838380828437600092019190915250929650610eff92508c91506014905061309d565b610fd2565b86610f515760405162461bcd60e51b815260206004820152601f60248201527f53463a204150505f52554c455f4354585f49535f4d414c464f524d415445440060448201526064016107dd565b85858080601f016020809104026020016040519081016040528093929190818152602001838380828437600092019190915250929650610eff92508c91506016905061309d565b85858080601f0160208091040260200160405190810160405280939291908181526020018383808284376000920191909152509296505050505b5050509695505050505050565b6060610fec338484613112565b9392505050565b6060611001338585856133f0565b949350505050565b6001600160a01b0316600090815260046020526040902054151590565b61102e61441a565b610a9f82613543565b60608083838080601f01602080910402602001604051908101604052809392919081815260200183838082843760009201919091525061107c9250839150612cd89050565b6110c85760405162461bcd60e51b815260206004820152601d60248201527f53463a204150505f52554c455f4354585f49535f4e4f545f56414c494400000060448201526064016107dd565b896110d281611dd4565b6110ee5760405162461bcd60e51b81526004016107dd9061507c565b600061112f87878080601f01602080910402602001604051908101604052809392919081815260200183838082843760009201919091525061102692505050565b6101208101519091506001600160a01b031633146111a75760405162461bcd60e51b815260206004820152602f60248201527f53463a2063616c6c41677265656d656e7457697468436f6e746578742066726f60448201526e6d2077726f6e67206164647265737360881b60648201526084016107dd565b60608101805133909152604080516020601f8c018190048102820181019092528a8152908b908b908190840183828082843760009201919091525050505060a08301526111f382612cf8565b955060006112398e8e8e8080601f0160208091040260200160405190810160405280939291908181526020018383808284376000920191909152508c925061360e915050565b96509050801561129857858060200190518101906112579190615011565b965061126287612cd8565b61126e5761126e614f5d565b61127787611026565b6001600160a01b0383166060820152925061129183612cf8565b96506112a1565b6112a1866136f3565b505050505097509795505050505050565b6000546201000090046001600160a01b031633146112e25760405162461bcd60e51b81526004016107dd90614e19565b7f0000000000000000000000000000000000000000000000000000000000000000156113205760405162461bcd60e51b81526004016107dd90614e50565b806001600160a01b031663cd312ec46040518163ffffffff1660e01b8152600401602060405180830381865afa15801561135e573d6000803e3d6000fd5b505050506040513d601f19601f8201168201806040525081019061138291906150be565b156113de5760405162461bcd60e51b815260206004820152602660248201527f53463a2063616e6e6f7420646f776e677261646520746f206e6f6e2075706772604482015265616461626c6560d01b60648201526084016107dd565b6113e7816137fe565b50565b60006114147f360894a13ba1a3210667c828492db98dca3e2076cc3735a920a3ca505d382bbc5490565b905090565b6000546201000090046001600160a01b031633146114495760405162461bcd60e51b81526004016107dd90614e19565b6003546001600160a01b03166115b8577f000000000000000000000000000000000000000000000000000000000000000061152f57600060405161148c9061440d565b604051809103906000f0801580156114a8573d6000803e3d6000fd5b50604051634a0687ef60e01b81526001600160a01b03848116600483015291925090821690634a0687ef90602401600060405180830381600087803b1580156114f057600080fd5b505af1158015611504573d6000803e3d6000fd5b5050600380546001600160a01b0319166001600160a01b0394909416939093179092555061154b9050565b600380546001600160a01b0319166001600160a01b0383161790555b600360009054906101000a90046001600160a01b03166001600160a01b0316638129fc1c6040518163ffffffff1660e01b8152600401600060405180830381600087803b15801561159b57600080fd5b505af11580156115af573d6000803e3d6000fd5b50505050611656565b7f0000000000000000000000000000000000000000000000000000000000000000156115f65760405162461bcd60e51b81526004016107dd90614e50565b6003546040516311a5465560e21b81526001600160a01b03838116600483015290911690634695195490602401600060405180830381600087803b15801561163d57600080fd5b505af1158015611651573d6000803e3d6000fd5b505050505b6003546040516001600160a01b0390911681527fce13a9895a1719ad4493b2ac1a9bfb36070566161abab408e7ecbe586da8d499906020015b60405180910390a150565b336116a481611009565b6116f05760405162461bcd60e51b815260206004820152601860248201527f53463a2073656e646572206973206e6f7420616e20617070000000000000000060448201526064016107dd565b6116f982611009565b6117455760405162461bcd60e51b815260206004820152601860248201527f53463a20746172676574206973206e6f7420616e20617070000000000000000060448201526064016107dd565b61174e82610a82565b60ff1661175a82610a82565b60ff16116117be5760405162461bcd60e51b815260206004820152602b60248201527f53463a20736f75726365206170702073686f756c64206861766520686967686560448201526a1c88185c1c081b195d995b60aa1b60648201526084016107dd565b503360009081526005602090815260408083206001600160a01b0394909416835292905220805460ff19166001179055565b600080546201000090046001600160a01b03166380f70cba308361181386613a38565b6040518463ffffffff1660e01b8152600401611831939291906150db565b602060405180830381865afa15801561184e573d6000803e3d6000fd5b505050506040513d601f19601f820116820180604052508101906118729190614e7c565b151592915050565b6113e7611885613ac0565b82613b28565b6113e73382613b28565b6001600160a01b038116600090815260046020526040812054618000161515610a9f565b6000546201000090046001600160a01b031633146118e95760405162461bcd60e51b81526004016107dd90614e19565b600054604080516001600160a01b03620100009093048316815291831660208301527f13abda02e63c790d0e2818b251282cfe5cbe0a8abd69c54bf5d2260c0907bd2e910160405180910390a1600080546001600160a01b03909216620100000262010000600160b01b0319909216919091179055565b606061196b33611dd4565b6119875760405162461bcd60e51b81526004016107dd90614f1a565b82828080601f0160208091040260200160405190810160405280939291908181526020018383808284376000920191909152506119c99250839150612cd89050565b6119d5576119d5614f5d565b600080611a4f8a6001898c8c8080601f01602080910402602001604051908101604052809392919081815260200183838082843760009201919091525050604080516020601f8f018190048102820181019092528d815292508d91508c9081908401838280828437600092019190915250612e8292505050565b915091508115610fd257611a6281613049565b15611a825780806020019051810190611a7b9190615011565b9350610fd2565b86611acf5760405162461bcd60e51b815260206004820152601f60248201527f53463a204150505f52554c455f4354585f49535f4d414c464f524d415445440060448201526064016107dd565b610fd28a601661309d565b6060611ae533611dd4565b611b015760405162461bcd60e51b81526004016107dd90614f1a565b86868080601f016020809104026020016040519081016040528093929190818152602001838380828437600092019190915250611b439250839150612cd89050565b611b4f57611b4f614f5d565b6000611b9089898080601f01602080910402602001604051908101604052809392919081815260200183838082843760009201919091525061102692505050565b9050611b9f8160600151611009565b15611c345760608101516001600160a01b039081166000908152600560209081526040808320938b168352929052205460ff16611c345760405162461bcd60e51b815260206004820152602d60248201527f53463a204150505f52554c455f434f4d504f534954455f4150505f49535f4e4f60448201526c1517d5d2125511531254d51151609a1b60648201526084016107dd565b805181611c40826150ff565b60ff169052506003602082015260c08101869052600060e082015261010081018590526001600160a01b038088166101208301528416610140820152611c8581612cf8565b9998505050505050505050565b6000546201000090046001600160a01b03163314611cc25760405162461bcd60e51b81526004016107dd90614e19565b60035460408051634a3852d960e11b815290516000926001600160a01b031691639470a5b29160048083019260209291908290030181865afa158015611d0c573d6000803e3d6000fd5b505050506040513d601f19601f82011682018060405250810190611d30919061511e565b6040516311a5465560e21b81526001600160a01b03808316600483015291925090831690634695195490602401600060405180830381600087803b158015611d7757600080fd5b505af1158015611d8b573d6000803e3d6000fd5b50506040516001600160a01b038481168252851692507f840acbd291b38534819f47f875839277e502f40e1c7bfea2c5fc2c8017442cd391506020015b60405180910390a25050565b600080826001600160a01b0316637730599e6040518163ffffffff1660e01b8152600401602060405180830381865afa158015611e15573d6000803e3d6000fd5b505050506040513d601f19601f82011682018060405250810190611e399190614e7c565b600081815260026020526040902054909150801580159061100157506001600160a01b0384166001611e6b8184614eed565b81548110611e7b57611e7b614f04565b6000918252602090912001546001600160a01b031614949350505050565b6060611ea433611dd4565b611ec05760405162461bcd60e51b81526004016107dd90614f1a565b6000611f0185858080601f01602080910402602001604051908101604052809392919081815260200183838082843760009201919091525061102692505050565b905082816101000151611f149190614f8b565b610100820152611f2381612cf8565b95945050505050565b600081815260026020526040812054808203611f5a5760405162461bcd60e51b81526004016107dd90614e95565b611f65600182614eed565b6001901b19841691505092915050565b7f000000000000000000000000000000000000000000000000000000000000000015611ff45760405162461bcd60e51b815260206004820152602860248201527f53463a2061707020726567697374726174696f6e2072657175697265732070656044820152673936b4b9b9b4b7b760c11b60648201526084016107dd565b6113e781336001613f6c565b60008181526002602052604081205480820361202e5760405162461bcd60e51b81526004016107dd90614e95565b600161203a8183614eed565b8154811061204a5761204a614f04565b6000918252602090912001546001600160a01b03169392505050565b606061207133611dd4565b61208d5760405162461bcd60e51b81526004016107dd90614f1a565b84848080601f0160208091040260200160405190810160405280939291908181526020018383808284376000920191909152506120cf9250839150612cd89050565b6120db576120db614f5d565b6120e5848461309d565b85858080601f016020809104026020016040519081016040528093929190818152602001838380828437600092019190915250929998505050505050505050565b606082828080601f01602080910402602001604051908101604052809392919081815260200183838082843760009201919091525061216a9250839150612cd89050565b6121b65760405162461bcd60e51b815260206004820152601d60248201527f53463a204150505f52554c455f4354585f49535f4e4f545f56414c494400000060448201526064016107dd565b6001600160a01b0387166000908152600460205260409020548790806122145760405162461bcd60e51b8152602060048201526013602482015272053463a206e6f7420612073757065722061707606c1b60448201526064016107dd565b61800081161561225a5760405162461bcd60e51b815260206004820152601160248201527014d18e88185c1c081a5cc81a985a5b1959607a1b60448201526064016107dd565b87878080601f0160208091040260200160405190810160405280939291908181526020018383808284376000920182905250925061229b9150839050614163565b90506001600160e01b031981166330d9c91560e01b14806122cc57506001600160e01b0319811663d86ed3e560e01b145b806122e757506001600160e01b03198116630221347d60e61b145b8061230257506001600160e01b0319811663230dbd2960e01b145b8061231d57506001600160e01b03198116635f9e7d7760e01b145b8061233857506001600160e01b031981166353c11f9960e01b145b156123555760405162461bcd60e51b81526004016107dd9061513b565b600061239689898080601f01602080910402602001604051908101604052809392919081815260200183838082843760009201919091525061102692505050565b6101208101519091506001600160a01b0316331461240e5760405162461bcd60e51b815260206004820152602f60248201527f53463a2063616c6c417070416374696f6e57697468436f6e746578742066726f60448201526e6d2077726f6e67206164647265737360881b60648201526084016107dd565b6060810180513390915261242182612cf8565b97506000806124688f8f8f8080601f0160208091040260200160405190810160405280939291908181526020018383808284376000920191909152508f925061360e915050565b9150915081156124d757808060200190518101906124869190615011565b99506124918a612cd8565b6124ad5760405162461bcd60e51b81526004016107dd90615045565b6124b68a611026565b6001600160a01b038416606082015293506124d084612cf8565b99506124e0565b6124e0816136f3565b50505050505050505095945050505050565b6000818152600260205260408120548082036125205760405162461bcd60e51b81526004016107dd90614e95565b61252b600182614eed565b6001901b841791505092915050565b600061257c3284848080601f0160208091040260200160405190810160405280939291908181526020018383808284376000920191909152506141bf92505050565b90507f00000000000000000000000000000000000000000000000000000000000000001561267d576000805460405163407b865d60e11b81524292620100009092046001600160a01b0316916380f70cba916125de91309187906004016150db565b602060405180830381865afa1580156125fb573d6000803e3d6000fd5b505050506040513d601f19601f8201168201806040525081019061261f9190614e7c565b101561267d5760405162461bcd60e51b815260206004820152602760248201527f53463a20696e76616c6964206f72206578706972656420726567697374726174604482015266696f6e206b657960c81b60648201526084016107dd565b61268984336001613f6c565b50505050565b6000610fec83838080601f016020809104026020016040519081016040528093929190818152602001838380828437600092019190915250612cd892505050565b600054610100900460ff16158080156126f05750600054600160ff909116105b8061270a5750303b15801561270a575060005460ff166001145b61276d5760405162461bcd60e51b815260206004820152602e60248201527f496e697469616c697a61626c653a20636f6e747261637420697320616c72656160448201526d191e481a5b9a5d1a585b1a5e995960921b60648201526084016107dd565b6000805460ff191660011790558015612790576000805461ff0019166101001790555b6000805462010000600160b01b031916620100006001600160a01b0385160217905580156127f8576000805461ff0019169055604051600181527f7f26b83ff96e1f2b6a682f133852f6798a09c465da95921460cefb38474024989060200160405180910390a15b5050565b60606000806001805490506001600160401b0381111561281e5761281e61464e565b604051908082528060200260200182016040528015612847578160200160208202803683370190505b50925060009050600091505b6001548210156128de576001821b8416156128ce576001828154811061287b5761287b614f04565b6000918252602090912001546001600160a01b0316838261289b8161517f565b9350815181106128ad576128ad614f04565b60200260200101906001600160a01b031690816001600160a01b0316815250505b6128d78261517f565b9150612853565b825250919050565b6003546000906001600160a01b031661290157612901614f5d565b7f00000000000000000000000000000000000000000000000000000000000000001561293757506003546001600160a01b031690565b600360009054906101000a90046001600160a01b03166001600160a01b03166350d75d256040518163ffffffff1660e01b8152600401602060405180830381865afa15801561298a573d6000803e3d6000fd5b505050506040513d601f19601f82011682018060405250810190611414919061511e565b333b806129fd5760405162461bcd60e51b815260206004820152601e60248201527f53463a20666163746f7279206d757374206265206120636f6e7472616374000060448201526064016107dd565b507f000000000000000000000000000000000000000000000000000000000000000015612b04576000612a2f336141f2565b6000805460405163407b865d60e11b81529293509091620100009091046001600160a01b0316906380f70cba90612a6e903090859087906004016150db565b602060405180830381865afa158015612a8b573d6000803e3d6000fd5b505050506040513d601f19601f82011682018060405250810190612aaf9190614e7c565b600114905080612b015760405162461bcd60e51b815260206004820152601f60248201527f53463a20617574686f72697a656420666163746f72792072657175697265640060448201526064016107dd565b50505b6127f881836000613f6c565b6001600160a01b038116600090815260046020908152604080832081519283019091525480825215801592918291612b5757805161800081161515935064ff000000001691505b509193909250565b612b6761441a565b602a9052612b7361441a565b602a602082015250612b8361441a565b602a604082015250612b9361441a565b602a606082015250612ba361441a565b63deadbeef60e01b608082015250612bb961441a565b60408051602a808252606082019092529060208201818036833750505060a082018190526000819003612c2e5760405162461bcd60e51b815260206004820152601760248201527f7573657244617461206f6666736574206973207a65726f00000000000000000060448201526064016107dd565b8051602a8114612c805760405162461bcd60e51b815260206004820152601960248201527f7573657244617461206368616e676564206c6f636174696f6e0000000000000060448201526064016107dd565b505050612c8b61441a565b602a60c082015250612c9b61441a565b602a60e082015250612cab61441a565b602a61010082015250612cbc61441a565b602a61012082015250612ccd61441a565b602a61014082015250565b60008151600014158015610a9f5750600654825160208401201492915050565b60607f0000000000000000000000000000000000000000000000000000000000000000826000015160ff161115612d7c5760405162461bcd60e51b815260206004820152602260248201527f53463a204150505f52554c455f4d41585f4150505f4c4556454c5f5245414348604482015261115160f21b60648201526084016107dd565b815160208084015160009260ff1664ff000000009190921b1617905060006080612da98560e0015161426c565b6001600160801b0316901b612dc18560c0015161426c565b6001600160801b0316179050818460400151856060015186608001518760a00151604051602001612df6959493929190615198565b60408051601f1981840301815282825261010087015161012088015161014089015160208601879052938501919091526001600160a01b03908116606085015290911660808301529060a00160408051601f1981840301815290829052612e6092916020016149be565b60408051601f1981840301815291905280516020820120600655949350505050565b600060606001600160a01b038716612e9c57612e9c614f5d565b612ea684846142d9565b935060005a90508615612f4157876001600160a01b03167f00000000000000000000000000000000000000000000000000000000000000006001600160401b031686604051612ef591906151d9565b6000604051808303818686fa925050503d8060008114612f31576040519150601f19603f3d011682016040523d82523d6000602084013e612f36565b606091505b509093509150612fcd565b876001600160a01b03167f00000000000000000000000000000000000000000000000000000000000000006001600160401b031686604051612f8391906151d9565b60006040518083038160008787f1925050503d8060008114612fc1576040519150601f19603f3d011682016040523d82523d6000602084013e612fc6565b606091505b5090935091505b8261303e57612fdd603f826151f5565b5a11156130025785612ff757612ff2826136f3565b61303e565b612ff288600a61309d565b60405162461bcd60e51b815260206004820152601160248201527053463a206e656564206d6f72652067617360781b60448201526064016107dd565b509550959350505050565b600060408251101561305d57506000919050565b602082810151906000908214613077575060009392505050565b506040830151613086816143d4565b613091906040614f73565b84511492505050919050565b6001600160a01b0382166000908152600460205260408120546180001690036127f8576001600160a01b038216600081815260046020526040908190208054618000179055517fbe3aa33bd245135e4e26b223d79d14ea479a47bff09f2b03c53838af1edbb14b90611dc89084815260200190565b600654606090156131655760405162461bcd60e51b815260206004820152601d60248201527f53463a204150505f52554c455f4354585f49535f4e4f545f434c45414e00000060448201526064016107dd565b6001600160a01b0383166000908152600460205260409020548390806131c35760405162461bcd60e51b8152602060048201526013602482015272053463a206e6f7420612073757065722061707606c1b60448201526064016107dd565b6180008116156132095760405162461bcd60e51b815260206004820152601160248201527014d18e88185c1c081a5cc81a985a5b1959607a1b60448201526064016107dd565b83600061321582614163565b90506001600160e01b031981166330d9c91560e01b148061324657506001600160e01b0319811663d86ed3e560e01b145b8061326157506001600160e01b03198116630221347d60e61b145b8061327c57506001600160e01b0319811663230dbd2960e01b145b8061329757506001600160e01b03198116635f9e7d7760e01b145b806132b257506001600160e01b031981166353c11f9960e01b145b156132cf5760405162461bcd60e51b81526004016107dd9061513b565b600061337b6040518061016001604052806132e98c611009565b6132f45760006132f7565b60015b60ff168152600260208201526040014281526020018b6001600160a01b03168152602001600060e01b6001600160e01b03191681526020016040518060200160405280600081525081526020016000815260200160008152602001600081526020018a6001600160a01b0316815260200160006001600160a01b0316815250612cf8565b9050600061338a89898461360e565b9750905080156133d457868060200190518101906133a89190615011565b91506133b382612cd8565b6133cf5760405162461bcd60e51b81526004016107dd90615045565b6133dd565b6133dd876136f3565b5050600060065550929695505050505050565b600654606090156134435760405162461bcd60e51b815260206004820152601d60248201527f53463a204150505f52554c455f4354585f49535f4e4f545f434c45414e00000060448201526064016107dd565b8361344d81611dd4565b6134695760405162461bcd60e51b81526004016107dd9061507c565b600061347485614163565b905060006135106040518061016001604052806134908b611009565b61349b57600061349e565b60015b60ff168152600160208201526040014281526020018a6001600160a01b03168152602001846001600160e01b031916815260200187815260200160008152602001600081526020016000815260200160006001600160a01b0316815260200160006001600160a01b0316815250612cf8565b9050600061351f88888461360e565b955090508061353157613531856136f3565b50506000600655509095945050505050565b61354b61441a565b606080838060200190518101906135629190615217565b8151919350915060009061357f9084016020908101908501615270565b60a08901526001600160e01b03191660808801526001600160a01b031660608701526040860152602081811c600f168187015260ff90911685528251600092506135d09190840181019084016152f4565b6001600160a01b03908116610140890152166101208701526101008601526001600160801b03811660c086015260801c60e085015250919392505050565b600060606001600160a01b03851661362857613628614f5d565b61363284846142d9565b9350846001600160a01b03168460405161364c91906151d9565b6000604051808303816000865af19150503d8060008114613689576040519150601f19603f3d011682016040523d82523d6000602084013e61368e565b606091505b50909250905081156136eb5760008151116136eb5760405162461bcd60e51b815260206004820152601960248201527f53463a204150505f52554c455f4354585f49535f454d5054590000000000000060448201526064016107dd565b935093915050565b6004815110156137455760405162461bcd60e51b815260206004820152601a60248201527f43616c6c5574696c733a2074617267657420726576657274282900000000000060448201526064016107dd565b602081015163b1b7848f60e01b6001600160e01b03198216016137f55760408051808201825260208082527f43616c6c5574696c733a207461726765742070616e69636b65643a2030785f5f90820190815260248501517f43616c6c5574696c733a207461726765742070616e69636b65643a2030780000600482811c600f908116603090810160081b918516011791909117909252925162461bcd60e51b81529192916107dd91849101614597565b81518060208401fd5b60006138287f360894a13ba1a3210667c828492db98dca3e2076cc3735a920a3ca505d382bbc5490565b6001600160a01b03160361387e5760405162461bcd60e51b815260206004820152601d60248201527f5555505350726f786961626c653a206e6f742075706772616461626c6500000060448201526064016107dd565b806001600160a01b03166352d1902d6040518163ffffffff1660e01b8152600401602060405180830381865afa1580156138bc573d6000803e3d6000fd5b505050506040513d601f19601f820116820180604052508101906138e09190614e7c565b7fcd355cae2c435f8c5e0c626c4691d22fd85aa7422a424c6f0bced6e64c7aba741461395a5760405162461bcd60e51b815260206004820152602360248201527f5555505350726f786961626c653a206e6f7420636f6d70617469626c65206c6f60448201526267696360e81b60648201526084016107dd565b6001600160a01b03811630036139b25760405162461bcd60e51b815260206004820152601960248201527f5555505350726f786961626c653a2070726f7879206c6f6f700000000000000060448201526064016107dd565b6139da817f360894a13ba1a3210667c828492db98dca3e2076cc3735a920a3ca505d382bbc55565b7fe011bc04c286c344a8fcbb8de77f953da762c3e25d8cdea984147fc4168a5dcc7fcd355cae2c435f8c5e0c626c4691d22fd85aa7422a424c6f0bced6e64c7aba74604080519182526001600160a01b03841660208301520161168f565b6040805160208101829052603260608201527f6f72672e7375706572666c7569642d66696e616e63652e7375706572666c756960808201527132173a393ab9ba32b22337b93bb0b93232b960711b60a08201526001600160a01b0383169181019190915260009060c0015b604051602081830303815290604052805190602001209050919050565b600060183610801590613ad75750613ad7336117f0565b613b1b5760405162461bcd60e51b81526020600482015260156024820152742737ba103a393ab9ba32b2103337b93bb0b93232b960591b60448201526064016107dd565b5060131936013560601c90565b60005b8151811015613f67576000828281518110613b4857613b48614f04565b6020026020010151600001519050600163ffffffff168163ffffffff1603613c2857600080848481518110613b7f57613b7f614f04565b602002602001015160400151806020019051810190613b9e919061533f565b91509150848481518110613bb457613bb4614f04565b6020026020010151602001516001600160a01b03166362aa52878784846040518463ffffffff1660e01b8152600401613bef939291906150db565b600060405180830381600087803b158015613c0957600080fd5b505af1158015613c1d573d6000803e3d6000fd5b505050505050613f54565b60011963ffffffff821601613d0e576000806000858581518110613c4e57613c4e614f04565b602002602001015160400151806020019051810190613c6d919061536d565b925092509250858581518110613c8557613c85614f04565b6020908102919091018101510151604051630b682aeb60e11b81526001600160a01b0389811660048301528581166024830152848116604483015260648201849052909116906316d055d690608401600060405180830381600087803b158015613cee57600080fd5b505af1158015613d02573d6000803e3d6000fd5b50505050505050613f54565b60641963ffffffff821601613dde57828281518110613d2f57613d2f614f04565b6020026020010151602001516001600160a01b031663ca78946485858581518110613d5c57613d5c614f04565b602002602001015160400151806020019051810190613d7b9190614e7c565b6040516001600160e01b031960e085901b1681526001600160a01b0390921660048301526024820152604401600060405180830381600087803b158015613dc157600080fd5b505af1158015613dd5573d6000803e3d6000fd5b50505050613f54565b60651963ffffffff821601613e2c57828281518110613dff57613dff614f04565b6020026020010151602001516001600160a01b031663245887fc85858581518110613d5c57613d5c614f04565b60c81963ffffffff821601613ea457600080848481518110613e5057613e50614f04565b602002602001015160400151806020019051810190613e6f9190615217565b91509150613e9c86868681518110613e8957613e89614f04565b60200260200101516020015184846133f0565b505050613f54565b60c91963ffffffff821601613efe57613ef884848481518110613ec957613ec9614f04565b602002602001015160200151858581518110613ee757613ee7614f04565b602002602001015160400151613112565b50613f54565b60405162461bcd60e51b815260206004820152602560248201527f53463a20756e6b6e6f776e2062617463682063616c6c206f7065726174696f6e604482015264207479706560d81b60648201526084016107dd565b5080613f5f8161517f565b915050613b2b565b505050565b323303613fc75760405162461bcd60e51b8152602060048201526024808201527f53463a204150505f52554c455f4e4f5f524547495354524154494f4e5f464f526044820152635f454f4160e01b60648201526084016107dd565b801561403557813b80156140335760405162461bcd60e51b815260206004820152602d60248201527f53463a204150505f52554c455f524547495354524154494f4e5f4f4e4c595f4960448201526c272fa1a7a729aa292aa1aa27a960991b60648201526084016107dd565b505b64ff000080ff19831615801561404d575060ff831615155b801561405b57506180008316155b6140a75760405162461bcd60e51b815260206004820152601760248201527f53463a20696e76616c696420636f6e66696720776f726400000000000000000060448201526064016107dd565b6001600160a01b0382166000908152600460205260409020541561410d5760405162461bcd60e51b815260206004820152601a60248201527f53463a2061707020616c7265616479207265676973746572656400000000000060448201526064016107dd565b60408051602080820183528582526001600160a01b038516600081815260049092528382209251909255915190917f0d540ad8f39e07d19909687352b9fa017405d93c91a6760981fbae9cf28bfef791a2505050565b60006004825110156141b75760405162461bcd60e51b815260206004820152601b60248201527f43616c6c5574696c733a20696e76616c69642063616c6c44617461000000000060448201526064016107dd565b506020015190565b600082826040516020016141d49291906153b0565b60405160208183030381529060405280519060200120905092915050565b6040805160208101829052603960608201527f6f72672e7375706572666c7569642d66696e616e63652e7375706572666c756960808201527f642e61707057686974654c697374696e672e666163746f72790000000000000060a08201526001600160a01b0383169181019190915260009060c001613aa3565b60006001600160801b038211156142d55760405162461bcd60e51b815260206004820152602760248201527f53616665436173743a2076616c756520646f65736e27742066697420696e20316044820152663238206269747360c81b60648201526084016107dd565b5090565b8151808301516060919080156143465760405162461bcd60e51b815260206004820152602c60248201527f53463a20706c61636572686f6c646572206374782073686f756c64206861766560448201526b040f4cae4de40d8cadccee8d60a31b60648201526084016107dd565b50601f198101845282518490848161435d816143d4565b6143679190614eed565b6001600160401b0381111561437e5761437e61464e565b6040519080825280601f01601f1916602001820160405280156143a8576020820181803683370190505b506040516020016143bc9493929190615435565b60405160208183030381529060405291505092915050565b60008082601f16116143e75760006143ea565b60015b60ff166143f86020846151f5565b6144029190614f73565b610a9f906020615484565b61024a806154a483390190565b604080516101608101825260008082526020820181905291810182905260608082018390526080820183905260a082015260c0810182905260e081018290526101008101829052610120810182905261014081019190915290565b6001600160a01b03811681146113e757600080fd5b60006020828403121561449c57600080fd5b8135610fec81614475565b60008083601f8401126144b957600080fd5b5081356001600160401b038111156144d057600080fd5b6020830191508360208285010111156144e857600080fd5b9250929050565b6000806000806060858703121561450557600080fd5b84356001600160401b0381111561451b57600080fd5b614527878288016144a7565b90989097506020870135966040013595509350505050565b60005b8381101561455a578181015183820152602001614542565b838111156126895750506000910152565b6000815180845261458381602086016020860161453f565b601f01601f19169290920160200192915050565b602081526000610fec602083018461456b565b80151581146113e757600080fd5b600080600080600080608087890312156145d157600080fd5b86356145dc81614475565b955060208701356001600160401b03808211156145f857600080fd5b6146048a838b016144a7565b909750955060408901359150614619826145aa565b9093506060880135908082111561462f57600080fd5b5061463c89828a016144a7565b979a9699509497509295939492505050565b634e487b7160e01b600052604160045260246000fd5b604051606081016001600160401b03811182821017156146865761468661464e565b60405290565b604051601f8201601f191681016001600160401b03811182821017156146b4576146b461464e565b604052919050565b60006001600160401b038211156146d5576146d561464e565b50601f01601f191660200190565b600082601f8301126146f457600080fd5b8135614707614702826146bc565b61468c565b81815284602083860101111561471c57600080fd5b816020850160208301376000918101602001919091529392505050565b6000806040838503121561474c57600080fd5b823561475781614475565b915060208301356001600160401b0381111561477257600080fd5b61477e858286016146e3565b9150509250929050565b60008060006060848603121561479d57600080fd5b83356147a881614475565b925060208401356001600160401b03808211156147c457600080fd5b6147d0878388016146e3565b935060408601359150808211156147e657600080fd5b506147f3868287016146e3565b9150509250925092565b60006020828403121561480f57600080fd5b81356001600160401b0381111561482557600080fd5b611001848285016146e3565b6020815261484560208201835160ff169052565b6000602083015161485b604084018260ff169052565b5060408301516060830152606083015161488060808401826001600160a01b03169052565b5060808301516001600160e01b0319811660a08401525060a08301516101608060c08501526148b361018085018361456b565b915060c085015160e085015260e08501516101008181870152808701519150506101208181870152808701519150506101406148f9818701836001600160a01b03169052565b909501516001600160a01b031693019290925250919050565b60008060008060008060006080888a03121561492d57600080fd5b873561493881614475565b965060208801356001600160401b038082111561495457600080fd5b6149608b838c016144a7565b909850965060408a013591508082111561497957600080fd5b6149858b838c016144a7565b909650945060608a013591508082111561499e57600080fd5b506149ab8a828b016144a7565b989b979a50959850939692959293505050565b6040815260006149d1604083018561456b565b8281036020840152611f23818561456b565b600060208083850312156149f657600080fd5b82356001600160401b0380821115614a0d57600080fd5b818501915085601f830112614a2157600080fd5b813581811115614a3357614a3361464e565b8060051b614a4285820161468c565b9182528381018501918581019089841115614a5c57600080fd5b86860192505b83831015611c8557823585811115614a7a5760008081fd5b86016060818c03601f1901811315614a925760008081fd5b614a9a614664565b8983013563ffffffff81168114614ab15760008081fd5b8152604083810135614ac281614475565b828c0152918301359188831115614ad95760008081fd5b614ae78e8c858701016146e3565b90820152845250509186019190860190614a62565b60008060008060008060a08789031215614b1557600080fd5b86356001600160401b03811115614b2b57600080fd5b614b3789828a016144a7565b9097509550506020870135614b4b81614475565b935060408701359250606087013591506080870135614b6981614475565b809150509295509295509295565b600080600060408486031215614b8c57600080fd5b83356001600160401b03811115614ba257600080fd5b614bae868287016144a7565b909790965060209590950135949350505050565b60008060408385031215614bd557600080fd5b50508035926020909101359150565b600060208284031215614bf657600080fd5b5035919050565b60008060008060608587031215614c1357600080fd5b84356001600160401b03811115614c2957600080fd5b614c35878288016144a7565b9095509350506020850135614c4981614475565b9396929550929360400135925050565b600080600080600060608688031215614c7157600080fd5b8535614c7c81614475565b945060208601356001600160401b0380821115614c9857600080fd5b614ca489838a016144a7565b90965094506040880135915080821115614cbd57600080fd5b50614cca888289016144a7565b969995985093965092949392505050565b60008060408385031215614cee57600080fd5b8235614cf981614475565b91506020830135614d0981614475565b809150509250929050565b600080600060408486031215614d2957600080fd5b8335925060208401356001600160401b03811115614d4657600080fd5b614d52868287016144a7565b9497909650939450505050565b60008060208385031215614d7257600080fd5b82356001600160401b03811115614d8857600080fd5b614d94858286016144a7565b90969095509350505050565b6020808252825182820181905260009190848201906040850190845b81811015614de15783516001600160a01b031683529284019291840191600101614dbc565b50909695505050505050565b60008060408385031215614e0057600080fd5b8235614e0b81614475565b946020939093013593505050565b6020808252601b908201527f53463a206f6e6c7920676f7665726e616e636520616c6c6f7765640000000000604082015260600190565b60208082526012908201527153463a206e6f6e2075706772616461626c6560701b604082015260600190565b600060208284031215614e8e57600080fd5b5051919050565b60208082526022908201527f53463a2061677265656d656e7420636c617373206e6f74207265676973746572604082015261195960f21b606082015260800190565b634e487b7160e01b600052601160045260246000fd5b600082821015614eff57614eff614ed7565b500390565b634e487b7160e01b600052603260045260246000fd5b60208082526023908201527f53463a2073656e646572206973206e6f74206c6973746564206167726565656d604082015262195b9d60ea1b606082015260800190565b634e487b7160e01b600052600160045260246000fd5b60008219821115614f8657614f86614ed7565b500190565b600080821280156001600160ff1b0384900385131615614fad57614fad614ed7565b600160ff1b8390038412811615614fc657614fc6614ed7565b50500190565b600082601f830112614fdd57600080fd5b8151614feb614702826146bc565b81815284602083860101111561500057600080fd5b61100182602083016020870161453f565b60006020828403121561502357600080fd5b81516001600160401b0381111561503957600080fd5b61100184828501614fcc565b6020808252601c908201527f53463a204150505f52554c455f4354585f49535f524541444f4e4c5900000000604082015260600190565b60208082526022908201527f53463a206f6e6c79206c6973746564206167726565656d656e7420616c6c6f77604082015261195960f21b606082015260800190565b6000602082840312156150d057600080fd5b8151610fec816145aa565b6001600160a01b039384168152919092166020820152604081019190915260600190565b600060ff821660ff810361511557615115614ed7565b60010192915050565b60006020828403121561513057600080fd5b8151610fec81614475565b60208082526024908201527f53463a2061677265656d656e742063616c6c6261636b206973206e6f742061636040820152633a34b7b760e11b606082015260800190565b60006001820161519157615191614ed7565b5060010190565b858152602081018590526001600160a01b03841660408201526001600160e01b03198316606082015260a060808201819052600090610a779083018461456b565b600082516151eb81846020870161453f565b9190910192915050565b60008261521257634e487b7160e01b600052601260045260246000fd5b500490565b6000806040838503121561522a57600080fd5b82516001600160401b038082111561524157600080fd5b61524d86838701614fcc565b9350602085015191508082111561526357600080fd5b5061477e85828601614fcc565b600080600080600060a0868803121561528857600080fd5b855194506020860151935060408601516152a181614475565b60608701519093506001600160e01b0319811681146152bf57600080fd5b60808701519092506001600160401b038111156152db57600080fd5b6152e788828901614fcc565b9150509295509295909350565b6000806000806080858703121561530a57600080fd5b8451935060208501519250604085015161532381614475565b606086015190925061533481614475565b939692955090935050565b6000806040838503121561535257600080fd5b825161535d81614475565b6020939093015192949293505050565b60008060006060848603121561538257600080fd5b835161538d81614475565b602085015190935061539e81614475565b80925050604084015190509250925092565b60608152604160608201527f6f72672e7375706572666c7569642d66696e616e63652e7375706572666c756960808201527f642e61707057686974654c697374696e672e726567697374726174696f6e4b6560a0820152607960f81b60c082015260018060a01b038316602082015260e06040820152600061100160e083018461456b565b6000855160206154488285838b0161453f565b8184019150868252855161546181838501848a0161453f565b85519201916154758183850184890161453f565b91909101019695505050505050565b600081600019048311821515161561549e5761549e614ed7565b50029056fe608060405234801561001057600080fd5b5061022a806100206000396000f3fe6080604052600436106100225760003560e01c80634a0687ef1461003957610031565b366100315761002f610059565b005b61002f610059565b34801561004557600080fd5b5061002f6100543660046101c4565b61006b565b610069610064610171565b6101a0565b565b6001600160a01b0381166100c65760405162461bcd60e51b815260206004820152601760248201527f5555505350726f78793a207a65726f206164647265737300000000000000000060448201526064015b60405180910390fd5b60006100f07f360894a13ba1a3210667c828492db98dca3e2076cc3735a920a3ca505d382bbc5490565b6001600160a01b0316146101465760405162461bcd60e51b815260206004820152601e60248201527f5555505350726f78793a20616c726561647920696e697469616c697a6564000060448201526064016100bd565b61016e817f360894a13ba1a3210667c828492db98dca3e2076cc3735a920a3ca505d382bbc55565b50565b600061019b7f360894a13ba1a3210667c828492db98dca3e2076cc3735a920a3ca505d382bbc5490565b905090565b3660008037600080366000845af43d6000803e8080156101bf573d6000f35b3d6000fd5b6000602082840312156101d657600080fd5b81356001600160a01b03811681146101ed57600080fd5b939250505056fea26469706673582212203110f9cfe43ac366756bef2f6f0b1e6afd1bbf53cf028337b713e0338f22a45864736f6c634300080e0033a26469706673582212209af317234b818d2735cfa9cb9f7ab901a66f16f27d5c2bb8753a7c324d8d8fba64736f6c634300080e0033",
  "immutableReferences": {
    "32294": [
      {
        "length": 32,
        "start": 1775
      },
      {
        "length": 32,
        "start": 2024
      },
      {
        "length": 32,
        "start": 3086
      },
      {
        "length": 32,
        "start": 4836
      },
      {
        "length": 32,
        "start": 5211
      },
      {
        "length": 32,
        "start": 5562
      },
      {
        "length": 32,
        "start": 10499
      }
    ],
    "32296": [
      {
        "length": 32,
        "start": 1467
      },
      {
        "length": 32,
        "start": 8055
      },
      {
        "length": 32,
        "start": 9600
      },
      {
        "length": 32,
        "start": 10752
      }
    ],
    "32300": [
      {
        "length": 32,
        "start": 1848
      },
      {
        "length": 32,
        "start": 11516
      }
    ],
    "32303": [
      {
        "length": 32,
        "start": 935
      },
      {
        "length": 32,
        "start": 11967
      },
      {
        "length": 32,
        "start": 12109
      }
    ]
  },
  "source": "// SPDX-License-Identifier: AGPLv3\npragma solidity 0.8.14;\n\nimport {\n    Superfluid,\n    ISuperApp\n} from \"../superfluid/Superfluid.sol\";\n\nimport { CallUtils } from \"../libs/CallUtils.sol\";\n\n\ncontract SuperfluidUpgradabilityTester is Superfluid {\n\n    constructor() Superfluid(false, false)\n    // solhint-disable-next-line no-empty-blocks\n    {\n    }\n\n    // @dev Make sure the storage layout never change over the course of the development\n    function validateStorageLayout()\n        external pure\n    {\n        uint256 slot;\n        uint256 offset;\n\n        assembly { slot:= _gov.slot offset := _gov.offset }\n        require(slot == 0 && offset == 2, \"_gov changed location\");\n\n        assembly { slot:= _agreementClasses.slot offset := _agreementClasses.offset }\n        require(slot == 1 && offset == 0, \"_agreementClasses changed location\");\n\n        assembly { slot:= _agreementClassIndices.slot offset := _agreementClassIndices.offset }\n        require(slot == 2 && offset == 0, \"_agreementClassIndices changed location\");\n\n        assembly { slot:= _superTokenFactory.slot offset := _superTokenFactory.offset }\n        require(slot == 3 && offset == 0, \"_superTokenFactory changed location\");\n\n        assembly { slot:= _appManifests.slot offset := _appManifests.offset }\n        require(slot == 4 && offset == 0, \"_appManifests changed location\");\n\n        assembly { slot:= _compositeApps.slot offset := _compositeApps.offset }\n        require(slot == 5 && offset == 0, \"_compositeApps changed location\");\n\n        assembly { slot:= _ctxStamp.slot offset := _ctxStamp.offset }\n        require(slot == 6 && offset == 0, \"_ctxStamp changed location\");\n\n        assembly { slot:= _appKeysUsedDeprecated.slot offset := _appKeysUsedDeprecated.offset }\n        require(slot == 7 && offset == 0, \"_appKeysUsedDeprecated changed location\");\n    }\n\n    // @dev Make sure the context struct layout never change over the course of the development\n    function validateContextStructLayout()\n        external pure\n    {\n        // context.appLevel\n        {\n            Context memory context;\n            assembly { mstore(add(context, mul(32, 0)), 42) }\n            require(context.appLevel == 42, \"appLevel changed location\");\n        }\n        // context.callType\n        {\n            Context memory context;\n            assembly { mstore(add(context, mul(32, 1)), 42) }\n            require(context.callType == 42, \"callType changed location\");\n        }\n        // context.timestamp\n        {\n            Context memory context;\n            assembly { mstore(add(context, mul(32, 2)), 42) }\n            require(context.timestamp == 42, \"timestamp changed location\");\n        }\n        // context.msgSender\n        {\n            Context memory context;\n            assembly { mstore(add(context, mul(32, 3)), 42) }\n            require(context.msgSender == address(42), \"msgSender changed location\");\n        }\n        // context.agreementSelector\n        {\n            Context memory context;\n            // be aware of the bytes4 endianness\n            assembly { mstore(add(context, mul(32, 4)), shl(224, 0xdeadbeef)) }\n            require(context.agreementSelector == bytes4(uint32(0xdeadbeef)), \"agreementSelector changed location\");\n        }\n        // context.userData\n        {\n            Context memory context;\n            context.userData = new bytes(42);\n            uint256 dataOffset;\n            assembly { dataOffset := mload(add(context, mul(32, 5))) }\n            require(dataOffset != 0, \"userData offset is zero\");\n            uint256 dataLen;\n            assembly { dataLen := mload(dataOffset) }\n            require(dataLen == 42, \"userData changed location\");\n        }\n        // context.appAllowanceGranted\n        {\n            Context memory context;\n            assembly { mstore(add(context, mul(32, 6)), 42) }\n            require(context.appAllowanceGranted == 42, \"appAllowanceGranted changed location\");\n        }\n        // context.appAllowanceGranted\n        {\n            Context memory context;\n            assembly { mstore(add(context, mul(32, 7)), 42) }\n            require(context.appAllowanceWanted == 42, \"appAllowanceWanted changed location\");\n        }\n        // context.appAllowanceGranted\n        {\n            Context memory context;\n            assembly { mstore(add(context, mul(32, 8)), 42) }\n            require(context.appAllowanceUsed == 42, \"appAllowanceUsed changed location\");\n        }\n        // context.appAllowanceGranted\n        {\n            Context memory context;\n            assembly { mstore(add(context, mul(32, 9)), 42) }\n            require(context.appAddress == address(42), \"appAddress changed location\");\n        }\n        // context.appAllowanceToken\n        {\n            Context memory context;\n            assembly { mstore(add(context, mul(32, 10)), 42) }\n            require(address(context.appAllowanceToken) == address(42), \"appAllowanceToken changed location\");\n        }\n    }\n}\n\ncontract SuperfluidMock is Superfluid {\n\n\n    constructor(bool nonUpgradable, bool appWhiteListingEnabled)\n        Superfluid(nonUpgradable, appWhiteListingEnabled)\n    // solhint-disable-next-line no-empty-blocks\n    {\n    }\n\n    function ctxFunc1(uint256 n, bytes calldata ctx)\n        external pure\n        returns (uint256, bytes memory)\n    {\n        return (n, ctx);\n    }\n\n    // same ABI to afterAgreementCreated\n    function ctxFunc2(\n        address superToken,\n        address agreementClass,\n        bytes32 agreementId,\n        bytes calldata agreementData,\n        bytes calldata cbdata,\n        bytes calldata ctx)\n        external pure\n        returns (address, address, bytes32, bytes memory, bytes memory, bytes memory)\n    {\n        return (superToken, agreementClass, agreementId, agreementData, cbdata, ctx);\n    }\n\n    function testCtxFuncX(bytes calldata dataWithPlaceHolderCtx, bytes calldata ctx)\n        external view\n        returns (bytes memory returnedData)\n    {\n        bytes memory data = _replacePlaceholderCtx(dataWithPlaceHolderCtx, ctx);\n        bool success;\n        (success, returnedData) = address(this).staticcall(data);\n        if (success) return returnedData;\n        else CallUtils.revertFromReturnedData(returnedData);\n    }\n\n    function jailApp(ISuperApp app)\n        external\n    {\n        _jailApp(app, 6942);\n    }\n\n}\n",
  "sourcePath": "/Users/alo/protocol-monorepo/packages/ethereum-contracts/contracts/mocks/SuperfluidMock.sol",
  "compiler": {
    "name": "solc",
    "version": "0.8.14+commit.80d49f37.Emscripten.clang"
  },
  "schemaVersion": "3.4.8",
  "updatedAt": "2022-07-15T06:25:31.663Z",
  "devdoc": {
    "kind": "dev",
    "methods": {
      "addToAgreementClassesBitmap(uint256,bytes32)": {
        "details": "agreementType is the keccak256 hash of: \"org.superfluid-finance.agreements.<AGREEMENT_NAME>.<VERSION>\"",
        "params": {
          "bitmap": "Agreement class bitmap"
        }
      },
      "allowCompositeApp(address)": {
        "details": "Whitelist the target app for app composition for the source app (msg.sender)",
        "params": {
          "targetApp": "The target super app address"
        }
      },
      "appCallbackPop(bytes,int256)": {
        "details": "(For agreements) Pop from the current app callback stack",
        "params": {
          "appAllowanceUsedDelta": "App allowance used by the app.",
          "ctx": "The ctx that was pushed before the callback stack."
        },
        "returns": {
          "newCtx": "                 The current context of the transaction."
        }
      },
      "appCallbackPush(bytes,address,uint256,int256,address)": {
        "details": "(For agreements) Create a new callback stack",
        "params": {
          "app": "The super app.",
          "appAllowanceGranted": "App allowance granted so far.",
          "appAllowanceUsed": "App allowance used so far.",
          "ctx": "The current ctx, it will be validated."
        },
        "returns": {
          "appCtx": "                 The current context of the transaction."
        }
      },
      "batchCall((uint32,address,bytes)[])": {
        "details": "ISuperfluid.batchCall implementation"
      },
      "callAgreement(address,bytes,bytes)": {
        "details": "Call agreement function",
        "params": {
          "agreementClass": "The agreement address you are calling",
          "callData": "The contextual call data with placeholder ctx",
          "userData": "Extra user data being sent to the super app callbacks"
        }
      },
      "callAppAction(address,bytes)": {
        "details": "Main use case is calling app action in a batch call via the host",
        "params": {
          "callData": "The contextual call data"
        }
      },
      "callAppAfterCallback(address,bytes,bool,bytes)": {
        "details": "(For agreements) Call the app after callback",
        "params": {
          "app": "The super app.",
          "callData": "The call data sending to the super app.",
          "ctx": "Current ctx, it will be validated.",
          "isTermination": "Is it a termination callback?"
        },
        "returns": {
          "newCtx": "           The current context of the transaction."
        }
      },
      "callAppBeforeCallback(address,bytes,bool,bytes)": {
        "details": "(For agreements) StaticCall the app before callback",
        "params": {
          "app": "The super app.",
          "callData": "The call data sending to the super app.",
          "ctx": "Current ctx, it will be validated.",
          "isTermination": "Is it a termination callback?"
        },
        "returns": {
          "cbdata": "           Data returned from the callback."
        }
      },
      "ctxUseAllowance(bytes,uint256,int256)": {
        "details": "(For agreements) Use app allowance.",
        "params": {
          "appAllowanceUsedDelta": "See app allowance for more details.",
          "appAllowanceWantedMore": "See app allowance for more details.",
          "ctx": "The current ctx, it will be validated."
        },
        "returns": {
          "newCtx": "                  The current context of the transaction."
        }
      },
      "forwardBatchCall((uint32,address,bytes)[])": {
        "details": "ISuperfluid.forwardBatchCall implementation"
      },
      "getAgreementClass(bytes32)": {
        "details": "agreementType is the keccak256 hash of: \"org.superfluid-finance.agreements.<AGREEMENT_NAME>.<VERSION>\""
      },
      "getAppManifest(address)": {
        "details": "Get the manifest of the super app",
        "params": {
          "app": "Super app address"
        }
      },
      "getCodeAddress()": {
        "details": "Get current implementation code address."
      },
      "getGovernance()": {
        "details": "Get the current governance address of the Superfluid host"
      },
      "getSuperTokenFactory()": {
        "details": "Get the super token factory",
        "returns": {
          "factory": "The factory"
        }
      },
      "getSuperTokenFactoryLogic()": {
        "details": "Get the super token factory logic (applicable to upgradable deployment)",
        "returns": {
          "logic": "The factory logic"
        }
      },
      "isAgreementClassListed(address)": {
        "details": "Check if the agreement class is whitelisted"
      },
      "isAgreementTypeListed(bytes32)": {
        "details": "agreementType is the keccak256 hash of: \"org.superfluid-finance.agreements.<AGREEMENT_NAME>.<VERSION>\""
      },
      "isApp(address)": {
        "details": "Query if the app is registered",
        "params": {
          "app": "Super app address"
        }
      },
      "isAppJailed(address)": {
        "details": "Query if the app has been jailed",
        "params": {
          "app": "Super app address"
        }
      },
      "isCompositeAppAllowed(address,address)": {
        "details": "Query if source app is allowed to call the target app as downstream app",
        "params": {
          "app": "Super app address",
          "targetApp": "The target super app address"
        }
      },
      "isTrustedForwarder(address)": {
        "details": "BaseRelayRecipient.isTrustedForwarder implementation"
      },
      "jailApp(bytes,address,uint256)": {
        "details": "(For agreements) Jail the app.",
        "params": {
          "app": "The super app.",
          "reason": "Jail reason code."
        },
        "returns": {
          "newCtx": "                 The current context of the transaction."
        }
      },
      "mapAgreementClasses(uint256)": {
        "details": "Map list of the agreement classes using a bitmap",
        "params": {
          "bitmap": "Agreement class bitmap"
        }
      },
      "proxiableUUID()": {
        "details": "Proxiable UUID marker function, this would help to avoid wrong logic      contract to be used for upgrading. NOTE: The semantics of the UUID deviates from the actual UUPS standard,       where it is equivalent of _IMPLEMENTATION_SLOT."
      },
      "registerAgreementClass(address)": {
        "details": "Register a new agreement class to the system",
        "params": {
          "agreementClassLogic": "Initial agreement class code"
        }
      },
      "registerApp(uint256)": {
        "details": "Message sender (must be a contract) declares itself as a super app.",
        "params": {
          "configWord": "The super app manifest configuration, flags are defined in `SuperAppDefinitions`"
        }
      },
      "registerAppByFactory(address,uint256)": {
        "details": "Message sender (must be a contract) declares app as a super app",
        "params": {
          "configWord": "The super app manifest configuration, flags are defined in `SuperAppDefinitions`"
        }
      },
      "registerAppWithKey(uint256,string)": {
        "details": "Message sender declares itself as a super app.",
        "params": {
          "configWord": "The super app manifest configuration, flags are defined in `SuperAppDefinitions`",
          "registrationKey": "The registration key issued by the governance, needed to register on a mainnet."
        }
      },
      "removeFromAgreementClassesBitmap(uint256,bytes32)": {
        "details": "agreementType is the keccak256 hash of: \"org.superfluid-finance.agreements.<AGREEMENT_NAME>.<VERSION>\"",
        "params": {
          "bitmap": "Agreement class bitmap"
        }
      },
      "replaceGovernance(address)": {
        "details": "Replace the current governance with a new one"
      },
      "updateAgreementClass(address)": {
        "details": "Update code of an agreement class",
        "params": {
          "agreementClassLogic": "New code for the agreement class"
        }
      },
      "updateSuperTokenFactory(address)": {
        "details": "Update super token factory",
        "params": {
          "newFactory": "New factory logic"
        }
      },
      "updateSuperTokenLogic(address)": {
        "details": "Refer to ISuperTokenFactory.Upgradability for expected behaviours"
      },
      "versionRecipient()": {
        "details": "IRelayRecipient.isTrustedForwarder implementation"
      }
    },
    "version": 1
  },
  "userdoc": {
    "events": {
      "AgreementClassRegistered(bytes32,address)": {
        "notice": "Agreement class registered event"
      },
      "AgreementClassUpdated(bytes32,address)": {
        "notice": "Agreement class updated event"
      }
    },
    "kind": "user",
    "methods": {
      "addToAgreementClassesBitmap(uint256,bytes32)": {
        "notice": "Create a new bitmask by adding a agreement class to it"
      },
      "callAppAction(address,bytes)": {
        "notice": "Call app action"
      },
      "getAgreementClass(bytes32)": {
        "notice": "Get agreement class"
      },
      "isAgreementTypeListed(bytes32)": {
        "notice": "Check if the agreement type is whitelisted"
      },
      "registerAppByFactory(address,uint256)": {
        "notice": "On mainnet deployments, only factory contracts pre-authorized by governance can use this. See https://github.com/superfluid-finance/protocol-monorepo/wiki/Super-App-White-listing-Guide"
      },
      "registerAppWithKey(uint256,string)": {
        "notice": "See https://github.com/superfluid-finance/protocol-monorepo/wiki/Super-App-White-listing-Guide On testnets or in dev environment, a placeholder (e.g. empty string) can be used. While the message sender must be the super app itself, the transaction sender (tx.origin) must be the deployer account the registration key was issued for."
      },
      "removeFromAgreementClassesBitmap(uint256,bytes32)": {
        "notice": "Create a new bitmask by removing a agreement class from it"
      },
      "updateSuperTokenLogic(address)": {
        "notice": "Update the super token logic to the latest"
      }
    },
    "version": 1
  }
}