{
  "contractName": "TokenCustodian",
  "abi": [
    {
      "inputs": [],
      "stateMutability": "nonpayable",
      "type": "constructor"
    },
    {
      "anonymous": false,
      "inputs": [
        {
          "indexed": true,
          "internalType": "contract IERC777",
          "name": "token",
          "type": "address"
        },
        {
          "indexed": false,
          "internalType": "address",
          "name": "recipient",
          "type": "address"
        },
        {
          "indexed": false,
          "internalType": "uint256",
          "name": "amount",
          "type": "uint256"
        }
      ],
      "name": "CustodianDeposit",
      "type": "event"
    },
    {
      "anonymous": false,
      "inputs": [
        {
          "indexed": true,
          "internalType": "contract IERC777",
          "name": "token",
          "type": "address"
        },
        {
          "indexed": false,
          "internalType": "address",
          "name": "recipient",
          "type": "address"
        },
        {
          "indexed": false,
          "internalType": "uint256",
          "name": "amount",
          "type": "uint256"
        }
      ],
      "name": "CustodianWithdrawal",
      "type": "event"
    },
    {
      "inputs": [
        {
          "internalType": "contract IERC777",
          "name": "",
          "type": "address"
        },
        {
          "internalType": "address",
          "name": "",
          "type": "address"
        }
      ],
      "name": "balances",
      "outputs": [
        {
          "internalType": "uint256",
          "name": "",
          "type": "uint256"
        }
      ],
      "stateMutability": "view",
      "type": "function"
    },
    {
      "inputs": [
        {
          "internalType": "contract IERC777",
          "name": "token",
          "type": "address"
        },
        {
          "internalType": "address",
          "name": "recipient",
          "type": "address"
        }
      ],
      "name": "flush",
      "outputs": [],
      "stateMutability": "nonpayable",
      "type": "function"
    },
    {
      "inputs": [
        {
          "internalType": "address",
          "name": "",
          "type": "address"
        },
        {
          "internalType": "address",
          "name": "",
          "type": "address"
        },
        {
          "internalType": "address",
          "name": "",
          "type": "address"
        },
        {
          "internalType": "uint256",
          "name": "amount",
          "type": "uint256"
        },
        {
          "internalType": "bytes",
          "name": "userData",
          "type": "bytes"
        },
        {
          "internalType": "bytes",
          "name": "",
          "type": "bytes"
        }
      ],
      "name": "tokensReceived",
      "outputs": [],
      "stateMutability": "nonpayable",
      "type": "function"
    }
  ],
  "bytecode": "0x608060405234801561001057600080fd5b506040516329965a1d60e01b815230600482018190527fb281fc8c12954d22544db45de3159a39272895b169a852b314f9cc762e44c53b60248301526044820152731820a4b7618bde71dce8cdc73aab6c95905fad24906329965a1d90606401600060405180830381600087803b15801561008a57600080fd5b505af115801561009e573d6000803e3d6000fd5b50505050610423806100b16000396000f3fe608060405234801561001057600080fd5b50600436106100405760003560e01c806223de29146100455780639cfddc361461005a578063c23f001f1461006d575b600080fd5b6100586100533660046102b9565b6100a7565b005b61005861006836600461036a565b610147565b61009561007b36600461036a565b600060208181529281526040808220909352908152205481565b60405190815260200160405180910390f35b3360006100b6858701876103a3565b6001600160a01b038084166000908152602081815260408083209385168352929052908120805492935089929091906100f09084906103c7565b9091555050604080516001600160a01b038381168252602082018a90528416917f9318b8aa904a44e8e096d937e3ff0488521fd9ce8db68cb8b120e2a08cbc02a1910160405180910390a250505050505050505050565b6001600160a01b03808316600090815260208181526040808320938516835292905220548015610253576001600160a01b03838116600081815260208181526040808320948716808452949091528082209190915551634decdde360e11b815260048101929092526024820183905260606044830152600360648301526203078360ec1b608483015290639bd9bbc69060a401600060405180830381600087803b1580156101f457600080fd5b505af1158015610208573d6000803e3d6000fd5b5050604080516001600160a01b03868116825260208201869052871693507f6ee58811e1c06f9971bf4c156175fabb19413d8a51841c2231beee4f3c04e73f92500160405180910390a25b505050565b6001600160a01b038116811461026d57600080fd5b50565b60008083601f84011261028257600080fd5b50813567ffffffffffffffff81111561029a57600080fd5b6020830191508360208285010111156102b257600080fd5b9250929050565b60008060008060008060008060c0898b0312156102d557600080fd5b88356102e081610258565b975060208901356102f081610258565b9650604089013561030081610258565b955060608901359450608089013567ffffffffffffffff8082111561032457600080fd5b6103308c838d01610270565b909650945060a08b013591508082111561034957600080fd5b506103568b828c01610270565b999c989b5096995094979396929594505050565b6000806040838503121561037d57600080fd5b823561038881610258565b9150602083013561039881610258565b809150509250929050565b6000602082840312156103b557600080fd5b81356103c081610258565b9392505050565b600082198211156103e857634e487b7160e01b600052601160045260246000fd5b50019056fea2646970667358221220b30d757ff8d501b95515c095f052933ae35e5ab43baecc2adff656c1d058589a64736f6c634300080e0033",
  "immutableReferences": {},
  "source": "// SPDX-License-Identifier: AGPLv3\npragma solidity 0.8.14;\n\nimport { IERC777 } from \"@openzeppelin/contracts/token/ERC777/IERC777.sol\";\nimport { IERC1820Registry } from \"@openzeppelin/contracts/utils/introspection/IERC1820Registry.sol\";\nimport { IERC777Recipient } from \"@openzeppelin/contracts/token/ERC777/IERC777Recipient.sol\";\n\n/**\n * @title Token custodian contract\n * @author Superfluid\n * @dev Contract which takes custody of funds which couldn't be sent to the designated recipient\n */\ncontract TokenCustodian is IERC777Recipient {\n    IERC1820Registry constant internal _ERC1820_REGISTRY =\n    IERC1820Registry(0x1820a4B7618BdE71Dce8cdc73aAB6C95905faD24);\n    mapping(IERC777 => mapping(address => uint256)) public balances;\n\n    constructor() {\n        _ERC1820_REGISTRY.setInterfaceImplementer(address(this), keccak256(\"ERC777TokensRecipient\"), address(this));\n    }\n\n    event CustodianDeposit(IERC777 indexed token, address recipient, uint256 amount);\n    event CustodianWithdrawal(IERC777 indexed token, address recipient, uint256 amount);\n\n    // transfers tokens it has in custody for the given recipient to it\n    function flush(IERC777 token, address recipient) public {\n        uint256 amount = balances[token][recipient];\n        if (amount > 0) {\n            balances[token][recipient] = 0;\n            // solhint-disable-next-line check-send-result\n            token.send(recipient, amount, \"0x0\");\n            emit CustodianWithdrawal(token, recipient, amount);\n        }\n    }\n\n    // ============ IERC777Recipient ============\n\n    // interface through which ERC777 tokens are deposited to this contract.\n    // requires userData to contain an abi-encoded address which designates the recipient for which the deposit is made.\n    function tokensReceived(\n        address /*operator*/,\n        address /*from*/,\n        address /*to*/,\n        uint256 amount,\n        bytes calldata userData,\n        bytes calldata /*operatorData*/\n    ) override external {\n        IERC777 token = IERC777(msg.sender);\n        // note: if userData is not set or not decodable as address, this will revert\n        address recipient = abi.decode(userData, (address));\n        balances[token][recipient] += amount;\n        emit CustodianDeposit(token, recipient, amount);\n        // note: anybody could call this function and store balance entries. We can just ignore that, does no harm.\n    }\n}\n",
  "sourcePath": "/Users/alo/protocol-monorepo/packages/ethereum-contracts/contracts/utils/TokenCustodian.sol",
  "compiler": {
    "name": "solc",
    "version": "0.8.14+commit.80d49f37.Emscripten.clang"
  },
  "schemaVersion": "3.4.8",
  "updatedAt": "2022-07-15T06:25:31.780Z",
  "devdoc": {
    "author": "Superfluid",
    "details": "Contract which takes custody of funds which couldn't be sent to the designated recipient",
    "kind": "dev",
    "methods": {},
    "title": "Token custodian contract",
    "version": 1
  },
  "userdoc": {
    "kind": "user",
    "methods": {},
    "version": 1
  }
}