{
  "contractName": "UUPSProxiableMock",
  "abi": [
    {
      "inputs": [
        {
          "internalType": "bytes32",
          "name": "uuid",
          "type": "bytes32"
        },
        {
          "internalType": "uint256",
          "name": "w",
          "type": "uint256"
        }
      ],
      "stateMutability": "nonpayable",
      "type": "constructor"
    },
    {
      "anonymous": false,
      "inputs": [
        {
          "indexed": false,
          "internalType": "bytes32",
          "name": "uuid",
          "type": "bytes32"
        },
        {
          "indexed": false,
          "internalType": "address",
          "name": "codeAddress",
          "type": "address"
        }
      ],
      "name": "CodeUpdated",
      "type": "event"
    },
    {
      "anonymous": false,
      "inputs": [
        {
          "indexed": false,
          "internalType": "uint8",
          "name": "version",
          "type": "uint8"
        }
      ],
      "name": "Initialized",
      "type": "event"
    },
    {
      "inputs": [],
      "name": "getCodeAddress",
      "outputs": [
        {
          "internalType": "address",
          "name": "codeAddress",
          "type": "address"
        }
      ],
      "stateMutability": "view",
      "type": "function"
    },
    {
      "inputs": [],
      "name": "waterMark",
      "outputs": [
        {
          "internalType": "uint256",
          "name": "",
          "type": "uint256"
        }
      ],
      "stateMutability": "view",
      "type": "function"
    },
    {
      "inputs": [],
      "name": "proxiableUUID",
      "outputs": [
        {
          "internalType": "bytes32",
          "name": "",
          "type": "bytes32"
        }
      ],
      "stateMutability": "view",
      "type": "function"
    },
    {
      "inputs": [
        {
          "internalType": "address",
          "name": "newAddress",
          "type": "address"
        }
      ],
      "name": "updateCode",
      "outputs": [],
      "stateMutability": "nonpayable",
      "type": "function"
    }
  ],
  "bytecode": "0x60c060405234801561001057600080fd5b5060405161047338038061047383398101604081905261002f9161003d565b60809190915260a052610061565b6000806040838503121561005057600080fd5b505080516020909101519092909150565b60805160a0516103e1610092600039600060c0015260008181608d01528181610206015261032101526103e16000f3fe608060405234801561001057600080fd5b506004361061004c5760003560e01c8063469519541461005157806350d75d251461006657806352d1902d1461008b5780636154b102146100bb575b600080fd5b61006461005f366004610362565b6100e2565b005b61006e6100ee565b6040516001600160a01b0390911681526020015b60405180910390f35b7f00000000000000000000000000000000000000000000000000000000000000005b604051908152602001610082565b6100ad7f000000000000000000000000000000000000000000000000000000000000000081565b6100eb8161011d565b50565b60006101187f360894a13ba1a3210667c828492db98dca3e2076cc3735a920a3ca505d382bbc5490565b905090565b60006101477f360894a13ba1a3210667c828492db98dca3e2076cc3735a920a3ca505d382bbc5490565b6001600160a01b0316036101a25760405162461bcd60e51b815260206004820152601d60248201527f5555505350726f786961626c653a206e6f742075706772616461626c6500000060448201526064015b60405180910390fd5b806001600160a01b03166352d1902d6040518163ffffffff1660e01b8152600401602060405180830381865afa1580156101e0573d6000803e3d6000fd5b505050506040513d601f19601f820116820180604052508101906102049190610392565b7f00000000000000000000000000000000000000000000000000000000000000001461027e5760405162461bcd60e51b815260206004820152602360248201527f5555505350726f786961626c653a206e6f7420636f6d70617469626c65206c6f60448201526267696360e81b6064820152608401610199565b6001600160a01b03811630036102d65760405162461bcd60e51b815260206004820152601960248201527f5555505350726f786961626c653a2070726f7879206c6f6f70000000000000006044820152606401610199565b6102fe817f360894a13ba1a3210667c828492db98dca3e2076cc3735a920a3ca505d382bbc55565b7fe011bc04c286c344a8fcbb8de77f953da762c3e25d8cdea984147fc4168a5dcc7f0000000000000000000000000000000000000000000000000000000000000000604080519182526001600160a01b03841660208301520160405180910390a150565b60006020828403121561037457600080fd5b81356001600160a01b038116811461038b57600080fd5b9392505050565b6000602082840312156103a457600080fd5b505191905056fea26469706673582212208d43e3027fb1768b04d0d47c390d81fd6abc24a71ce4b473973e01f85442e3a264736f6c634300080e0033",
  "immutableReferences": {
    "30177": [
      {
        "length": 32,
        "start": 141
      },
      {
        "length": 32,
        "start": 518
      },
      {
        "length": 32,
        "start": 801
      }
    ],
    "30179": [
      {
        "length": 32,
        "start": 192
      }
    ]
  },
  "source": "// SPDX-License-Identifier: AGPLv3\npragma solidity 0.8.14;\n\nimport { UUPSProxiable } from \"../upgradability/UUPSProxiable.sol\";\n\n\ncontract UUPSProxiableMock is UUPSProxiable {\n\n    bytes32 private immutable _uuid;\n    uint256 public immutable waterMark;\n\n    constructor(bytes32 uuid, uint256 w) {\n        _uuid = uuid;\n        waterMark = w;\n    }\n\n    function proxiableUUID() public view override returns (bytes32)\n    {\n        return _uuid;\n    }\n\n    function updateCode(address newAddress) external override\n    {\n        _updateCodeAddress(newAddress);\n    }\n}\n",
  "sourcePath": "/Users/alo/protocol-monorepo/packages/ethereum-contracts/contracts/mocks/UUPSProxiableMock.sol",
  "compiler": {
    "name": "solc",
    "version": "0.8.14+commit.80d49f37.Emscripten.clang"
  },
  "schemaVersion": "3.4.8",
  "updatedAt": "2022-07-15T06:25:31.678Z",
  "devdoc": {
    "kind": "dev",
    "methods": {
      "getCodeAddress()": {
        "details": "Get current implementation code address."
      },
      "proxiableUUID()": {
        "details": "Proxiable UUID marker function, this would help to avoid wrong logic      contract to be used for upgrading. NOTE: The semantics of the UUID deviates from the actual UUPS standard,       where it is equivalent of _IMPLEMENTATION_SLOT."
      }
    },
    "version": 1
  },
  "userdoc": {
    "kind": "user",
    "methods": {},
    "version": 1
  }
}